{
  "_format": "hh-sol-artifact-1",
  "contractName": "CarbonCreditRegistry",
  "sourceName": "contracts/CarbonCreditRegistry.sol",
  "abi": [
    {
      "inputs": [],
      "stateMutability": "nonpayable",
      "type": "constructor"
    },
    {
      "inputs": [
        {
          "internalType": "address",
          "name": "sender",
          "type": "address"
        },
        {
          "internalType": "uint256",
          "name": "tokenId",
          "type": "uint256"
        },
        {
          "internalType": "address",
          "name": "owner",
          "type": "address"
        }
      ],
      "name": "ERC721IncorrectOwner",
      "type": "error"
    },
    {
      "inputs": [
        {
          "internalType": "address",
          "name": "operator",
          "type": "address"
        },
        {
          "internalType": "uint256",
          "name": "tokenId",
          "type": "uint256"
        }
      ],
      "name": "ERC721InsufficientApproval",
      "type": "error"
    },
    {
      "inputs": [
        {
          "internalType": "address",
          "name": "approver",
          "type": "address"
        }
      ],
      "name": "ERC721InvalidApprover",
      "type": "error"
    },
    {
      "inputs": [
        {
          "internalType": "address",
          "name": "operator",
          "type": "address"
        }
      ],
      "name": "ERC721InvalidOperator",
      "type": "error"
    },
    {
      "inputs": [
        {
          "internalType": "address",
          "name": "owner",
          "type": "address"
        }
      ],
      "name": "ERC721InvalidOwner",
      "type": "error"
    },
    {
      "inputs": [
        {
          "internalType": "address",
          "name": "receiver",
          "type": "address"
        }
      ],
      "name": "ERC721InvalidReceiver",
      "type": "error"
    },
    {
      "inputs": [
        {
          "internalType": "address",
          "name": "sender",
          "type": "address"
        }
      ],
      "name": "ERC721InvalidSender",
      "type": "error"
    },
    {
      "inputs": [
        {
          "internalType": "uint256",
          "name": "tokenId",
          "type": "uint256"
        }
      ],
      "name": "ERC721NonexistentToken",
      "type": "error"
    },
    {
      "inputs": [],
      "name": "EnforcedPause",
      "type": "error"
    },
    {
      "inputs": [],
      "name": "ExpectedPause",
      "type": "error"
    },
    {
      "inputs": [
        {
          "internalType": "address",
          "name": "owner",
          "type": "address"
        }
      ],
      "name": "OwnableInvalidOwner",
      "type": "error"
    },
    {
      "inputs": [
        {
          "internalType": "address",
          "name": "account",
          "type": "address"
        }
      ],
      "name": "OwnableUnauthorizedAccount",
      "type": "error"
    },
    {
      "inputs": [],
      "name": "ReentrancyGuardReentrantCall",
      "type": "error"
    },
    {
      "anonymous": false,
      "inputs": [
        {
          "indexed": true,
          "internalType": "address",
          "name": "owner",
          "type": "address"
        },
        {
          "indexed": true,
          "internalType": "address",
          "name": "approved",
          "type": "address"
        },
        {
          "indexed": true,
          "internalType": "uint256",
          "name": "tokenId",
          "type": "uint256"
        }
      ],
      "name": "Approval",
      "type": "event"
    },
    {
      "anonymous": false,
      "inputs": [
        {
          "indexed": true,
          "internalType": "address",
          "name": "owner",
          "type": "address"
        },
        {
          "indexed": true,
          "internalType": "address",
          "name": "operator",
          "type": "address"
        },
        {
          "indexed": false,
          "internalType": "bool",
          "name": "approved",
          "type": "bool"
        }
      ],
      "name": "ApprovalForAll",
      "type": "event"
    },
    {
      "anonymous": false,
      "inputs": [
        {
          "indexed": true,
          "internalType": "uint256",
          "name": "tokenId",
          "type": "uint256"
        },
        {
          "indexed": true,
          "internalType": "string",
          "name": "projectId",
          "type": "string"
        },
        {
          "indexed": false,
          "internalType": "uint256",
          "name": "amount",
          "type": "uint256"
        },
        {
          "indexed": false,
          "internalType": "string",
          "name": "reason",
          "type": "string"
        }
      ],
      "name": "CreditsRetired",
      "type": "event"
    },
    {
      "anonymous": false,
      "inputs": [
        {
          "indexed": true,
          "internalType": "address",
          "name": "previousOwner",
          "type": "address"
        },
        {
          "indexed": true,
          "internalType": "address",
          "name": "newOwner",
          "type": "address"
        }
      ],
      "name": "OwnershipTransferred",
      "type": "event"
    },
    {
      "anonymous": false,
      "inputs": [
        {
          "indexed": false,
          "internalType": "address",
          "name": "account",
          "type": "address"
        }
      ],
      "name": "Paused",
      "type": "event"
    },
    {
      "anonymous": false,
      "inputs": [
        {
          "indexed": true,
          "internalType": "uint256",
          "name": "tokenId",
          "type": "uint256"
        },
        {
          "indexed": true,
          "internalType": "string",
          "name": "projectId",
          "type": "string"
        },
        {
          "indexed": true,
          "internalType": "address",
          "name": "owner",
          "type": "address"
        },
        {
          "indexed": false,
          "internalType": "uint256",
          "name": "carbonCredits",
          "type": "uint256"
        }
      ],
      "name": "ProjectRegistered",
      "type": "event"
    },
    {
      "anonymous": false,
      "inputs": [
        {
          "indexed": true,
          "internalType": "uint256",
          "name": "tokenId",
          "type": "uint256"
        },
        {
          "indexed": true,
          "internalType": "string",
          "name": "projectId",
          "type": "string"
        },
        {
          "indexed": false,
          "internalType": "string",
          "name": "field",
          "type": "string"
        },
        {
          "indexed": false,
          "internalType": "string",
          "name": "newValue",
          "type": "string"
        }
      ],
      "name": "ProjectUpdated",
      "type": "event"
    },
    {
      "anonymous": false,
      "inputs": [
        {
          "indexed": true,
          "internalType": "address",
          "name": "from",
          "type": "address"
        },
        {
          "indexed": true,
          "internalType": "address",
          "name": "to",
          "type": "address"
        },
        {
          "indexed": true,
          "internalType": "uint256",
          "name": "tokenId",
          "type": "uint256"
        }
      ],
      "name": "Transfer",
      "type": "event"
    },
    {
      "anonymous": false,
      "inputs": [
        {
          "indexed": false,
          "internalType": "address",
          "name": "account",
          "type": "address"
        }
      ],
      "name": "Unpaused",
      "type": "event"
    },
    {
      "inputs": [
        {
          "internalType": "address",
          "name": "to",
          "type": "address"
        },
        {
          "internalType": "uint256",
          "name": "tokenId",
          "type": "uint256"
        }
      ],
      "name": "approve",
      "outputs": [],
      "stateMutability": "nonpayable",
      "type": "function"
    },
    {
      "inputs": [
        {
          "internalType": "address",
          "name": "owner",
          "type": "address"
        }
      ],
      "name": "balanceOf",
      "outputs": [
        {
          "internalType": "uint256",
          "name": "",
          "type": "uint256"
        }
      ],
      "stateMutability": "view",
      "type": "function"
    },
    {
      "inputs": [
        {
          "internalType": "uint256",
          "name": "tokenId",
          "type": "uint256"
        },
        {
          "internalType": "address",
          "name": "newOwner",
          "type": "address"
        }
      ],
      "name": "emergencyTransferProject",
      "outputs": [],
      "stateMutability": "nonpayable",
      "type": "function"
    },
    {
      "inputs": [
        {
          "internalType": "uint256",
          "name": "tokenId",
          "type": "uint256"
        }
      ],
      "name": "getApproved",
      "outputs": [
        {
          "internalType": "address",
          "name": "",
          "type": "address"
        }
      ],
      "stateMutability": "view",
      "type": "function"
    },
    {
      "inputs": [
        {
          "internalType": "uint256",
          "name": "tokenId",
          "type": "uint256"
        }
      ],
      "name": "getProject",
      "outputs": [
        {
          "components": [
            {
              "internalType": "string",
              "name": "projectId",
              "type": "string"
            },
            {
              "internalType": "string",
              "name": "projectName",
              "type": "string"
            },
            {
              "internalType": "string",
              "name": "ecosystemType",
              "type": "string"
            },
            {
              "internalType": "string",
              "name": "stateUT",
              "type": "string"
            },
            {
              "internalType": "string",
              "name": "district",
              "type": "string"
            },
            {
              "internalType": "string",
              "name": "villagePanchayat",
              "type": "string"
            },
            {
              "internalType": "string",
              "name": "coordinates",
              "type": "string"
            },
            {
              "internalType": "uint256",
              "name": "areaHectares",
              "type": "uint256"
            },
            {
              "internalType": "string",
              "name": "speciesPlanted",
              "type": "string"
            },
            {
              "internalType": "uint256",
              "name": "plantationDate",
              "type": "uint256"
            },
            {
              "internalType": "string",
              "name": "verificationAgency",
              "type": "string"
            },
            {
              "internalType": "uint256",
              "name": "verifiedDate",
              "type": "uint256"
            },
            {
              "internalType": "uint256",
              "name": "carbonSequestration",
              "type": "uint256"
            },
            {
              "internalType": "uint256",
              "name": "carbonCredits",
              "type": "uint256"
            },
            {
              "internalType": "string",
              "name": "status",
              "type": "string"
            },
            {
              "internalType": "string",
              "name": "supportingNGO",
              "type": "string"
            },
            {
              "internalType": "string",
              "name": "ipfsHash",
              "type": "string"
            },
            {
              "internalType": "address",
              "name": "projectOwner",
              "type": "address"
            },
            {
              "internalType": "bool",
              "name": "isRetired",
              "type": "bool"
            },
            {
              "internalType": "uint256",
              "name": "retirementDate",
              "type": "uint256"
            },
            {
              "internalType": "string",
              "name": "retirementReason",
              "type": "string"
            }
          ],
          "internalType": "struct CarbonCreditRegistry.CarbonProject",
          "name": "",
          "type": "tuple"
        }
      ],
      "stateMutability": "view",
      "type": "function"
    },
    {
      "inputs": [
        {
          "internalType": "string",
          "name": "projectId",
          "type": "string"
        }
      ],
      "name": "getProjectById",
      "outputs": [
        {
          "components": [
            {
              "internalType": "string",
              "name": "projectId",
              "type": "string"
            },
            {
              "internalType": "string",
              "name": "projectName",
              "type": "string"
            },
            {
              "internalType": "string",
              "name": "ecosystemType",
              "type": "string"
            },
            {
              "internalType": "string",
              "name": "stateUT",
              "type": "string"
            },
            {
              "internalType": "string",
              "name": "district",
              "type": "string"
            },
            {
              "internalType": "string",
              "name": "villagePanchayat",
              "type": "string"
            },
            {
              "internalType": "string",
              "name": "coordinates",
              "type": "string"
            },
            {
              "internalType": "uint256",
              "name": "areaHectares",
              "type": "uint256"
            },
            {
              "internalType": "string",
              "name": "speciesPlanted",
              "type": "string"
            },
            {
              "internalType": "uint256",
              "name": "plantationDate",
              "type": "uint256"
            },
            {
              "internalType": "string",
              "name": "verificationAgency",
              "type": "string"
            },
            {
              "internalType": "uint256",
              "name": "verifiedDate",
              "type": "uint256"
            },
            {
              "internalType": "uint256",
              "name": "carbonSequestration",
              "type": "uint256"
            },
            {
              "internalType": "uint256",
              "name": "carbonCredits",
              "type": "uint256"
            },
            {
              "internalType": "string",
              "name": "status",
              "type": "string"
            },
            {
              "internalType": "string",
              "name": "supportingNGO",
              "type": "string"
            },
            {
              "internalType": "string",
              "name": "ipfsHash",
              "type": "string"
            },
            {
              "internalType": "address",
              "name": "projectOwner",
              "type": "address"
            },
            {
              "internalType": "bool",
              "name": "isRetired",
              "type": "bool"
            },
            {
              "internalType": "uint256",
              "name": "retirementDate",
              "type": "uint256"
            },
            {
              "internalType": "string",
              "name": "retirementReason",
              "type": "string"
            }
          ],
          "internalType": "struct CarbonCreditRegistry.CarbonProject",
          "name": "",
          "type": "tuple"
        }
      ],
      "stateMutability": "view",
      "type": "function"
    },
    {
      "inputs": [],
      "name": "getTotalCarbonCredits",
      "outputs": [
        {
          "internalType": "uint256",
          "name": "",
          "type": "uint256"
        }
      ],
      "stateMutability": "view",
      "type": "function"
    },
    {
      "inputs": [],
      "name": "getTotalProjects",
      "outputs": [
        {
          "internalType": "uint256",
          "name": "",
          "type": "uint256"
        }
      ],
      "stateMutability": "view",
      "type": "function"
    },
    {
      "inputs": [],
      "name": "getTotalRetiredCredits",
      "outputs": [
        {
          "internalType": "uint256",
          "name": "",
          "type": "uint256"
        }
      ],
      "stateMutability": "view",
      "type": "function"
    },
    {
      "inputs": [
        {
          "internalType": "address",
          "name": "owner",
          "type": "address"
        },
        {
          "internalType": "address",
          "name": "operator",
          "type": "address"
        }
      ],
      "name": "isApprovedForAll",
      "outputs": [
        {
          "internalType": "bool",
          "name": "",
          "type": "bool"
        }
      ],
      "stateMutability": "view",
      "type": "function"
    },
    {
      "inputs": [],
      "name": "name",
      "outputs": [
        {
          "internalType": "string",
          "name": "",
          "type": "string"
        }
      ],
      "stateMutability": "view",
      "type": "function"
    },
    {
      "inputs": [],
      "name": "owner",
      "outputs": [
        {
          "internalType": "address",
          "name": "",
          "type": "address"
        }
      ],
      "stateMutability": "view",
      "type": "function"
    },
    {
      "inputs": [
        {
          "internalType": "uint256",
          "name": "tokenId",
          "type": "uint256"
        }
      ],
      "name": "ownerOf",
      "outputs": [
        {
          "internalType": "address",
          "name": "",
          "type": "address"
        }
      ],
      "stateMutability": "view",
      "type": "function"
    },
    {
      "inputs": [],
      "name": "pause",
      "outputs": [],
      "stateMutability": "nonpayable",
      "type": "function"
    },
    {
      "inputs": [],
      "name": "paused",
      "outputs": [
        {
          "internalType": "bool",
          "name": "",
          "type": "bool"
        }
      ],
      "stateMutability": "view",
      "type": "function"
    },
    {
      "inputs": [
        {
          "internalType": "string",
          "name": "projectId",
          "type": "string"
        }
      ],
      "name": "projectExistsById",
      "outputs": [
        {
          "internalType": "bool",
          "name": "",
          "type": "bool"
        }
      ],
      "stateMutability": "view",
      "type": "function"
    },
    {
      "inputs": [
        {
          "internalType": "string",
          "name": "",
          "type": "string"
        }
      ],
      "name": "projectToToken",
      "outputs": [
        {
          "internalType": "uint256",
          "name": "",
          "type": "uint256"
        }
      ],
      "stateMutability": "view",
      "type": "function"
    },
    {
      "inputs": [
        {
          "internalType": "uint256",
          "name": "",
          "type": "uint256"
        }
      ],
      "name": "projects",
      "outputs": [
        {
          "internalType": "string",
          "name": "projectId",
          "type": "string"
        },
        {
          "internalType": "string",
          "name": "projectName",
          "type": "string"
        },
        {
          "internalType": "string",
          "name": "ecosystemType",
          "type": "string"
        },
        {
          "internalType": "string",
          "name": "stateUT",
          "type": "string"
        },
        {
          "internalType": "string",
          "name": "district",
          "type": "string"
        },
        {
          "internalType": "string",
          "name": "villagePanchayat",
          "type": "string"
        },
        {
          "internalType": "string",
          "name": "coordinates",
          "type": "string"
        },
        {
          "internalType": "uint256",
          "name": "areaHectares",
          "type": "uint256"
        },
        {
          "internalType": "string",
          "name": "speciesPlanted",
          "type": "string"
        },
        {
          "internalType": "uint256",
          "name": "plantationDate",
          "type": "uint256"
        },
        {
          "internalType": "string",
          "name": "verificationAgency",
          "type": "string"
        },
        {
          "internalType": "uint256",
          "name": "verifiedDate",
          "type": "uint256"
        },
        {
          "internalType": "uint256",
          "name": "carbonSequestration",
          "type": "uint256"
        },
        {
          "internalType": "uint256",
          "name": "carbonCredits",
          "type": "uint256"
        },
        {
          "internalType": "string",
          "name": "status",
          "type": "string"
        },
        {
          "internalType": "string",
          "name": "supportingNGO",
          "type": "string"
        },
        {
          "internalType": "string",
          "name": "ipfsHash",
          "type": "string"
        },
        {
          "internalType": "address",
          "name": "projectOwner",
          "type": "address"
        },
        {
          "internalType": "bool",
          "name": "isRetired",
          "type": "bool"
        },
        {
          "internalType": "uint256",
          "name": "retirementDate",
          "type": "uint256"
        },
        {
          "internalType": "string",
          "name": "retirementReason",
          "type": "string"
        }
      ],
      "stateMutability": "view",
      "type": "function"
    },
    {
      "inputs": [
        {
          "components": [
            {
              "internalType": "string",
              "name": "projectId",
              "type": "string"
            },
            {
              "internalType": "string",
              "name": "projectName",
              "type": "string"
            },
            {
              "internalType": "string",
              "name": "ecosystemType",
              "type": "string"
            },
            {
              "internalType": "string",
              "name": "stateUT",
              "type": "string"
            },
            {
              "internalType": "string",
              "name": "district",
              "type": "string"
            },
            {
              "internalType": "string",
              "name": "villagePanchayat",
              "type": "string"
            },
            {
              "internalType": "string",
              "name": "coordinates",
              "type": "string"
            },
            {
              "internalType": "uint256",
              "name": "areaHectares",
              "type": "uint256"
            },
            {
              "internalType": "string",
              "name": "speciesPlanted",
              "type": "string"
            },
            {
              "internalType": "uint256",
              "name": "plantationDate",
              "type": "uint256"
            },
            {
              "internalType": "string",
              "name": "verificationAgency",
              "type": "string"
            },
            {
              "internalType": "uint256",
              "name": "verifiedDate",
              "type": "uint256"
            },
            {
              "internalType": "uint256",
              "name": "carbonSequestration",
              "type": "uint256"
            },
            {
              "internalType": "uint256",
              "name": "carbonCredits",
              "type": "uint256"
            },
            {
              "internalType": "string",
              "name": "status",
              "type": "string"
            },
            {
              "internalType": "string",
              "name": "supportingNGO",
              "type": "string"
            },
            {
              "internalType": "string",
              "name": "ipfsHash",
              "type": "string"
            },
            {
              "internalType": "address",
              "name": "projectOwner",
              "type": "address"
            },
            {
              "internalType": "bool",
              "name": "isRetired",
              "type": "bool"
            },
            {
              "internalType": "uint256",
              "name": "retirementDate",
              "type": "uint256"
            },
            {
              "internalType": "string",
              "name": "retirementReason",
              "type": "string"
            }
          ],
          "internalType": "struct CarbonCreditRegistry.CarbonProject",
          "name": "projectData",
          "type": "tuple"
        },
        {
          "internalType": "string",
          "name": "ipfsHash",
          "type": "string"
        }
      ],
      "name": "registerProject",
      "outputs": [
        {
          "internalType": "uint256",
          "name": "",
          "type": "uint256"
        }
      ],
      "stateMutability": "nonpayable",
      "type": "function"
    },
    {
      "inputs": [],
      "name": "renounceOwnership",
      "outputs": [],
      "stateMutability": "nonpayable",
      "type": "function"
    },
    {
      "inputs": [
        {
          "internalType": "uint256",
          "name": "tokenId",
          "type": "uint256"
        },
        {
          "internalType": "uint256",
          "name": "amount",
          "type": "uint256"
        },
        {
          "internalType": "string",
          "name": "reason",
          "type": "string"
        }
      ],
      "name": "retireCredits",
      "outputs": [],
      "stateMutability": "nonpayable",
      "type": "function"
    },
    {
      "inputs": [
        {
          "internalType": "uint256",
          "name": "",
          "type": "uint256"
        }
      ],
      "name": "retiredCredits",
      "outputs": [
        {
          "internalType": "bool",
          "name": "",
          "type": "bool"
        }
      ],
      "stateMutability": "view",
      "type": "function"
    },
    {
      "inputs": [
        {
          "internalType": "address",
          "name": "from",
          "type": "address"
        },
        {
          "internalType": "address",
          "name": "to",
          "type": "address"
        },
        {
          "internalType": "uint256",
          "name": "tokenId",
          "type": "uint256"
        }
      ],
      "name": "safeTransferFrom",
      "outputs": [],
      "stateMutability": "nonpayable",
      "type": "function"
    },
    {
      "inputs": [
        {
          "internalType": "address",
          "name": "from",
          "type": "address"
        },
        {
          "internalType": "address",
          "name": "to",
          "type": "address"
        },
        {
          "internalType": "uint256",
          "name": "tokenId",
          "type": "uint256"
        },
        {
          "internalType": "bytes",
          "name": "data",
          "type": "bytes"
        }
      ],
      "name": "safeTransferFrom",
      "outputs": [],
      "stateMutability": "nonpayable",
      "type": "function"
    },
    {
      "inputs": [
        {
          "internalType": "address",
          "name": "operator",
          "type": "address"
        },
        {
          "internalType": "bool",
          "name": "approved",
          "type": "bool"
        }
      ],
      "name": "setApprovalForAll",
      "outputs": [],
      "stateMutability": "nonpayable",
      "type": "function"
    },
    {
      "inputs": [
        {
          "internalType": "bytes4",
          "name": "interfaceId",
          "type": "bytes4"
        }
      ],
      "name": "supportsInterface",
      "outputs": [
        {
          "internalType": "bool",
          "name": "",
          "type": "bool"
        }
      ],
      "stateMutability": "view",
      "type": "function"
    },
    {
      "inputs": [],
      "name": "symbol",
      "outputs": [
        {
          "internalType": "string",
          "name": "",
          "type": "string"
        }
      ],
      "stateMutability": "view",
      "type": "function"
    },
    {
      "inputs": [
        {
          "internalType": "uint256",
          "name": "tokenId",
          "type": "uint256"
        }
      ],
      "name": "tokenURI",
      "outputs": [
        {
          "internalType": "string",
          "name": "",
          "type": "string"
        }
      ],
      "stateMutability": "view",
      "type": "function"
    },
    {
      "inputs": [
        {
          "internalType": "address",
          "name": "from",
          "type": "address"
        },
        {
          "internalType": "address",
          "name": "to",
          "type": "address"
        },
        {
          "internalType": "uint256",
          "name": "tokenId",
          "type": "uint256"
        }
      ],
      "name": "transferFrom",
      "outputs": [],
      "stateMutability": "nonpayable",
      "type": "function"
    },
    {
      "inputs": [
        {
          "internalType": "address",
          "name": "newOwner",
          "type": "address"
        }
      ],
      "name": "transferOwnership",
      "outputs": [],
      "stateMutability": "nonpayable",
      "type": "function"
    },
    {
      "inputs": [],
      "name": "unpause",
      "outputs": [],
      "stateMutability": "nonpayable",
      "type": "function"
    },
    {
      "inputs": [
        {
          "internalType": "uint256",
          "name": "tokenId",
          "type": "uint256"
        },
        {
          "internalType": "string",
          "name": "newStatus",
          "type": "string"
        }
      ],
      "name": "updateProjectStatus",
      "outputs": [],
      "stateMutability": "nonpayable",
      "type": "function"
    }
  ],
  "bytecode": "0x6080346200038e576001600160401b03906040908082018381118282101762000378578252601681526020917f436172626f6e2043726564697420526567697374727900000000000000000000838301528051938185018581108282111762000378578252600385526221a1a960e91b84860152825181811162000378576000948554916001958684811c941680156200036d575b8385101462000359578190601f9485811162000306575b508390858311600114620002a257899262000296575b5050600019600383901b1c191690861b1786555b8651928311620002825784548581811c9116801562000277575b8282101462000263578281116200021b575b5080918311600114620001b2575084958293949592620001a6575b5050600019600383901b1c191690831b1782555b33156200018f5760068054336001600160a01b03198216811790925591519390916001600160a01b0316907f8be0079c531659141344cd1fd0a4f28419497f9722a3daafe3b4186f6b6457e09080a36007556134969081620003948239f35b51631e4fbdf760e01b815260048101839052602490fd5b0151905038806200011c565b90601f198316968587528287209287905b898210620002035750508386979896959610620001e9575b505050811b01825562000130565b015160001960f88460031b161c19169055388080620001db565b808885968294968601518155019501930190620001c3565b8587528187208380860160051c82019284871062000259575b0160051c019086905b8281106200024d57505062000101565b8881550186906200023d565b9250819262000234565b634e487b7160e01b87526022600452602487fd5b90607f1690620000ef565b634e487b7160e01b86526041600452602486fd5b015190503880620000c1565b898052848a208994509190601f1984168b5b87828210620002ef5750508411620002d5575b505050811b018655620000d5565b015160001960f88460031b161c19169055388080620002c7565b8385015186558c97909501949384019301620002b4565b9091508880528389208580850160051c8201928686106200034f575b918a91869594930160051c01915b82811062000340575050620000ab565b8b81558594508a910162000330565b9250819262000322565b634e487b7160e01b88526022600452602488fd5b93607f169362000094565b634e487b7160e01b600052604160045260246000fd5b600080fdfe61018080604052600436101561001457600080fd5b60003560e01c90816301ffc9a71461294d5750806306fdde03146128aa578063081812fc1461286c578063095ea7b3146127855780631016e36d146126a1578063107046bd146124105780631d8a7f93146123c757806323b872dd146123b05780633f4ba83a1461233e57806342842e0e146123105780635c975abb146122ea5780636352211e146122ba57806370a0823114612261578063715018a61461220457806377a91458146121a6578063811b6baf14612133578063812739a2146121155780638456cb59146120b35780638da5cb5b1461208a57806392598a3114611f7957806395d89b4114611e9a578063a22cb46514611df5578063b88d4fde14611d88578063bb0e9df614611b8a578063c081ec96146117f3578063c3147caf14611772578063c87b56dd146116b5578063ca2d2d8c14610431578063e985e9c5146103db578063ef205c1a146103aa578063f0f3f2c8146102135763f2fde38b1461018057600080fd5b3461020e57602036600319011261020e57610199612a00565b6101a1612ddb565b6001600160a01b039081169081156101f557600654826bffffffffffffffffffffffff60a01b821617600655167f8be0079c531659141344cd1fd0a4f28419497f9722a3daafe3b4186f6b6457e0600080a3005b604051631e4fbdf760e01b815260006004820152602490fd5b600080fd5b3461020e57602036600319011261020e5760043561022f6133ba565b5061023d60085482106132e5565b60005260096020526103a6604060002061039460136040519261025f84612a2c565b61026881612cda565b845261027660018201612cda565b602085015261028760028201612cda565b604085015261029860038201612cda565b60608501526102a960048201612cda565b60808501526102ba60058201612cda565b60a08501526102cb60068201612cda565b60c0850152600781015460e08501526102e660088201612cda565b6101008501526009810154610120850152610303600a8201612cda565b610140850152600b810154610160850152600c810154610180850152600d8101546101a0850152610336600e8201612cda565b6101c0850152610348600f8201612cda565b6101e085015261035a60108201612cda565b61020085015260118101546001600160a01b03811661022086015260a01c60ff161515610240850152601281015461026085015201612cda565b61028082015260405191829182612af4565b0390f35b3461020e57602036600319011261020e57600435600052600b602052602060ff604060002054166040519015158152f35b3461020e57604036600319011261020e576103f4612a00565b6103fc612a16565b9060018060a01b03809116600052600560205260406000209116600052602052602060ff604060002054166040519015158152f35b3461020e5760031960403682011261020e576001600160401b036004351161020e576102a0906004353603011261020e5760405161046e81612a2c565b600435600401356001600160401b03811161020e57610494906004369181350101612ad6565b8152602460043501356001600160401b03811161020e576104bc906004369181350101612ad6565b6020820152604460043501356001600160401b03811161020e576104e7906004369181350101612ad6565b6040820152606460043501356001600160401b03811161020e57610512906004369181350101612ad6565b6060820152608460043501356001600160401b03811161020e5761053d906004369181350101612ad6565b608082015260a460043501356001600160401b03811161020e57610568906004369181350101612ad6565b60a08201526001600160401b0360c460043501351161020e57610595366004803560c48101350101612ad6565b60c082015260e4600435013560e08201526001600160401b0361010460043501351161020e576105d036600480356101048101350101612ad6565b61010082015261012460043501356101208201526001600160401b0361014460043501351161020e5761060e36600480356101448101350101612ad6565b6101408201526004356101648101356101608301526101848101356101808301526101a48101356101a08301526001600160401b036101c4909101351161020e5761066436600480356101c48101350101612ad6565b6101c08201526001600160401b036101e460043501351161020e5761069436600480356101e48101350101612ad6565b6101e08201526001600160401b0361020460043501351161020e576106c436600480356102048101350101612ad6565b61020082015260043561022401356001600160a01b038116900361020e576004356102248101356102208301526102440135801515900361020e57610244600435013561024082015261026460043501356102608201526001600160401b0361028460043501351161020e5761074536600480356102848101350101612ad6565b6102808201526001600160401b036024351161020e5761076a36602435600401612ad6565b61077261325d565b61077a61327e565b815151156116705761078c8251612d80565b5461162b576101a0820151156115d85760e08201511561159357600854906107b3826131dc565b60085533610220840152610200830152600061024083015260006102608301526040516107df81612a48565b60008152610280830152806000526009602052604060002082519283516001600160401b038111610fcb5761081e816108188554612ca0565b85613218565b6020601f821160011461152a57819293949560009261151f575b50508160011b916000199060031b1c19161782555b60208101519283516001600160401b038111610fcb5761087d816108746001870154612ca0565b60018701613218565b6020601f82116001146114b05781929394956000926114a5575b50508160011b916000199060031b1c19161760018401555b60408201519283516001600160401b038111610fcb576108df816108d66002850154612ca0565b60028501613218565b6020601f821160011461143657819293949560009261142b575b50508160011b916000199060031b1c19161760028201555b60608301519283516001600160401b038111610fcb57610941816109386003860154612ca0565b60038601613218565b6020601f82116001146113bc5781929394956000926113b1575b50508160011b916000199060031b1c19161760038301555b60808101519283516001600160401b038111610fcb576109a38161099a6004870154612ca0565b60048701613218565b6020601f8211600114611342578192939495600092611337575b50508160011b916000199060031b1c19161760048401555b60a08201519283516001600160401b038111610fcb57610a05816109fc6005850154612ca0565b60058501613218565b6020601f82116001146112c85781929394956000926112bd575b50508160011b916000199060031b1c19161760058201555b60c08301519283516001600160401b038111610fcb57610a6781610a5e6006860154612ca0565b60068601613218565b6020601f821160011461124e578192939495600092611243575b50508160011b916000199060031b1c19161760068301555b60e081015160078301556101008101519283516001600160401b038111610fcb57610ad481610acb6008870154612ca0565b60088701613218565b6020601f82116001146111d45781929394956000926111c9575b50508160011b916000199060031b1c19161760088401555b61012082015160098401556101408201519283516001600160401b038111610fcb57610b4281610b39600a850154612ca0565b600a8501613218565b6020601f821160011461115a57819293949560009261114f575b50508160011b916000199060031b1c191617600a8201555b610160830151600b820155610180830151600c8201556101a0830151600d8201556101c08301519283516001600160401b038111610fcb57610bc681610bbd600e860154612ca0565b600e8601613218565b6020601f82116001146110e05781929394956000926110d5575b50508160011b916000199060031b1c191617600e8301555b6101e08101519283516001600160401b038111610fcb57610c2981610c20600f870154612ca0565b600f8701613218565b6020601f821160011461106657819293949560009261105b575b50508160011b916000199060031b1c191617600f8401555b6102008201519283516001600160401b038111610fcb57610c8c81610c836010850154612ca0565b60108501613218565b6020601f8211600114610fec578192939495600092610fe1575b50508160011b916000199060031b1c19161760108201555b6011810160018060a01b036102208501511681549060ff60a01b610240870151151560a01b16916affffffffffffffffffffff60a81b161717905561026083015160128201556102808301518051906001600160401b038211610fcb57610d3582610d2c6013860154612ca0565b60138601613218565b602090601f8311600114610f5b576013929160009183610f50575b50508160011b916000199060031b1c1916179101555b80610d718351612d80565b55604051610d7e81612a48565b600081523315610f37576001600160a01b03610d9a8333612f97565b16610f1e57333b610e07575b5081610dc96101a0602094519201519184604051928284809451938492016129b8565b8101039020604051918252827f0e6dd694bfeb45b4d2fe4926c1544b9e5b3d0cf87f38df59e49a8315cf990784853394a46001600755604051908152f35b60405160208180610e41630a85bd0160e11b95868352336004840152600060248401528760448401526080606484015260848301906129db565b03816000335af160009181610ed9575b50610eab573d15610ea4573d610e6681612a84565b90610e746040519283612a63565b81523d6000602083013e5b80519081610e9f57604051633250574960e11b8152336004820152602490fd5b602001fd5b6060610e7f565b6001600160e01b03191603610ec1576020610da6565b604051633250574960e11b8152336004820152602490fd5b9091506020813d602011610f16575b81610ef560209383612a63565b8101031261020e57516001600160e01b03198116810361020e579085610e51565b3d9150610ee8565b6040516339e3563760e11b815260006004820152602490fd5b604051633250574960e11b815260006004820152602490fd5b015190508680610d50565b906013840160005260206000209160005b601f1985168110610fb35750918391600193601395601f19811610610f9a575b505050811b01910155610d66565b015160001960f88460031b161c19169055868080610f8c565b91926020600181928685015181550194019201610f6c565b634e487b7160e01b600052604160045260246000fd5b015190508580610ca6565b6010830160005260206000209060005b601f1984168110611043575060019394959683601f1981161061102a575b505050811b016010820155610cbe565b015160001960f88460031b161c1916905585808061101a565b9091602060018192858b015181550193019101610ffc565b015190508580610c43565b600f850160005260206000209060005b601f19841681106110bd575060019394959683601f198116106110a4575b505050811b01600f840155610c5b565b015160001960f88460031b161c19169055858080611094565b9091602060018192858b015181550193019101611076565b015190508580610be0565b600e840160005260206000209060005b601f1984168110611137575060019394959683601f1981161061111e575b505050811b01600e830155610bf8565b015160001960f88460031b161c1916905585808061110e565b9091602060018192858b0151815501930191016110f0565b015190508580610b5c565b600a830160005260206000209060005b601f19841681106111b1575060019394959683601f19811610611198575b505050811b01600a820155610b74565b015160001960f88460031b161c19169055858080611188565b9091602060018192858b01518155019301910161116a565b015190508580610aee565b6008850160005260206000209060005b601f198416811061122b575060019394959683601f19811610611212575b505050811b016008840155610b06565b015160001960f88460031b161c19169055858080611202565b9091602060018192858b0151815501930191016111e4565b015190508580610a81565b6006840160005260206000209060005b601f19841681106112a5575060019394959683601f1981161061128c575b505050811b016006830155610a99565b015160001960f88460031b161c1916905585808061127c565b9091602060018192858b01518155019301910161125e565b015190508580610a1f565b6005830160005260206000209060005b601f198416811061131f575060019394959683601f19811610611306575b505050811b016005820155610a37565b015160001960f88460031b161c191690558580806112f6565b9091602060018192858b0151815501930191016112d8565b0151905085806109bd565b6004850160005260206000209060005b601f1984168110611399575060019394959683601f19811610611380575b505050811b0160048401556109d5565b015160001960f88460031b161c19169055858080611370565b9091602060018192858b015181550193019101611352565b01519050858061095b565b6003840160005260206000209060005b601f1984168110611413575060019394959683601f198116106113fa575b505050811b016003830155610973565b015160001960f88460031b161c191690558580806113ea565b9091602060018192858b0151815501930191016113cc565b0151905085806108f9565b6002830160005260206000209060005b601f198416811061148d575060019394959683601f19811610611474575b505050811b016002820155610911565b015160001960f88460031b161c19169055858080611464565b9091602060018192858b015181550193019101611446565b015190508580610897565b6001850160005260206000209060005b601f1984168110611507575060019394959683601f198116106114ee575b505050811b0160018401556108af565b015160001960f88460031b161c191690558580806114de565b9091602060018192858b0151815501930191016114c0565b015190508580610838565b8360005260206000209060005b601f198416811061157b575060019394959683601f19811610611562575b505050811b01825561084d565b015160001960f88460031b161c19169055858080611555565b9091602060018192858b015181550193019101611537565b60405162461bcd60e51b815260206004820152601b60248201527f41726561206d7573742062652067726561746572207468616e203000000000006044820152606490fd5b60405162461bcd60e51b815260206004820152602560248201527f436172626f6e2063726564697473206d75737420626520677265617465722074604482015264068616e20360dc1b6064820152608490fd5b60405162461bcd60e51b815260206004820152601a60248201527f50726f6a65637420616c726561647920726567697374657265640000000000006044820152606490fd5b60405162461bcd60e51b815260206004820152601a60248201527f50726f6a6563742049442063616e6e6f7420626520656d7074790000000000006044820152606490fd5b3461020e5760208060031936011261020e57600435906116d860085483106132e5565b6040519160408301928084106001600160401b03851117610fcb5761175061175e926117479560405260158352848301907468747470733a2f2f697066732e696f2f697066732f60581b82526000526009855284601060406000200191604051978895518092848801906129b8565b84010190613337565b03601f198101845283612a63565b6103a66040519282849384528301906129db565b3461020e57600036600319011261020e57600060085460005b81811061179d57602083604051908152f35b806000526009602052604060002060ff601182015460a01c166117ca575b506117c5906131dc565b61178b565b6117c591936117e682600d600c6117ec9501549101549061332a565b90613453565b92906117bb565b3461020e57606036600319011261020e576001600160401b036004356024803560443584811161020e5761182b903690600401612ad6565b9361184861183885613053565b6001600160a01b031633146132a1565b61185560085485106132e5565b61185d61325d565b61186561327e565b836000526020926009845260406000209160118301805460ff8160a01c16611b46578515611b0257600d85018054808811611ac0578a5115611a7c57876118ab9161332a565b905560ff60a01b1916600160a01b1790554260128401558651601384019290918211611a6857506118e6816118e08454612ca0565b84613218565b84601f82116001146119d857926119a29282611988937f1bb65d0cfdde7c6f874e0104f34b04ecc8d308044367cb6abaee56abb9d45a719897966000916119cd575b508160011b916000199060031b1c19161790555b600e810161194a8154612ca0565b601f81116119ac575b50600e6614995d1a5c995960ca1b01905586600052600b85526040600020600160ff1982541617905560405191828092613337565b0390209560408051948594855284015260408301906129db565b0390a36001600755005b6119c79082600052601f88600020910160051c810190613201565b89611953565b90508a01518b611928565b601f1982169083600052866000209160005b8a828210611a51575050837f1bb65d0cfdde7c6f874e0104f34b04ecc8d308044367cb6abaee56abb9d45a71989796936119a296936119889660019410611a38575b5050811b01905561193c565b8c015160001960f88460031b161c191690558b80611a2c565b600184958b939584930151815501940192016119ea565b634e487b7160e01b60009081526041600452fd5b60405162461bcd60e51b8152600481018a9052601a818801527f5265746972656d656e7420726561736f6e2072657175697265640000000000006044820152606490fd5b6064868a6040519162461bcd60e51b83528160048401528201527f416d6f756e74206578636565647320617661696c61626c6520637265646974736044820152fd5b60405162461bcd60e51b815260048101889052601d818601527f416d6f756e74206d7573742062652067726561746572207468616e20300000006044820152606490fd5b60405162461bcd60e51b8152600481018890526017818601527f4372656469747320616c726561647920726574697265640000000000000000006044820152606490fd5b3461020e57604036600319011261020e576001600160401b0360043560243582811161020e57611bbe903690600401612ad6565b91611bcb61183883613053565b611bd860085483106132e5565b611be061325d565b825115611d4a578160005260209060098252600e604060002001908451908111610fcb57611c12816118e08454612ca0565b82601f8211600114611cc25791817f8c3999a987c45c0d01fbc63d2bbcbbc000fbef413680ea70285750d9cc577ab09492608094600091611cb7575b508160011b916000199060031b1c19161790555b8360005260098152611cb2611c81604060002060405191828092613337565b0390209560405193849360408552600660408601526573746174757360d01b606086015284015260808301906129db565b0390a3005b905087015188611c4e565b601f1982169083600052846000209160005b818110611d3357509260809492600192827f8c3999a987c45c0d01fbc63d2bbcbbc000fbef413680ea70285750d9cc577ab0989610611d1a575b5050811b019055611c62565b89015160001960f88460031b161c191690558880611d0e565b91928660018192868c015181550194019201611cd4565b60405162461bcd60e51b81526020600482015260166024820152755374617475732063616e6e6f7420626520656d70747960501b6044820152606490fd5b3461020e57608036600319011261020e57611da1612a00565b611da9612a16565b90604435606435926001600160401b03841161020e573660238501121561020e57611de1611df3943690602481600401359101612a9f565b92611ded838383612e07565b3361308e565b005b3461020e57604036600319011261020e57611e0e612a00565b6024359081151580920361020e576001600160a01b0316908115611e8157336000526005602052604060002082600052602052604060002060ff1981541660ff83161790556040519081527f17307eab39ab6107e8899845ad3d59bd9653f200f220920489ca2b5937696c3160203392a3005b604051630b61174360e31b815260048101839052602490fd5b3461020e57600036600319011261020e5760405160006001805490611ebe82612ca0565b80855291818116908115611f525750600114611ef9575b6103a684611ee581860382612a63565b6040519182916020835260208301906129db565b600081815292507fb10e2d527612073b26eecdfd717e6a320cf44b4afac2b0732d9fcbe2b7fa0cf65b828410611f3a575050508101602001611ee582611ed5565b80546020858701810191909152909301928101611f22565b60ff191660208087019190915292151560051b85019092019250611ee59150839050611ed5565b3461020e57604036600319011261020e57600435611f95612a16565b90611f9e612ddb565b611fab60085482106132e5565b6001600160a01b038281169290831561205157611fd183611fcb81613053565b93612f97565b908082169081611ff457604051637e27328960e01b815260048101869052602490fd5b831603612021575050600090815260096020526040902060110180546001600160a01b0319169091179055005b6040516364283d7b60e01b81526001600160a01b0392831660048201526024810193909352166044820152606490fd5b60405162461bcd60e51b815260206004820152601160248201527024b73b30b634b2103732bb9037bbb732b960791b6044820152606490fd5b3461020e57600036600319011261020e576006546040516001600160a01b039091168152602090f35b3461020e57600036600319011261020e576120cc612ddb565b6120d461325d565b6006805460ff60a01b1916600160a01b1790556040513381527f62e78cea01bee320cd4e420270b5ea74000d11b0c9f74754ebdbfc544b05a25890602090a1005b3461020e57600036600319011261020e576020600854604051908152f35b3461020e57600036600319011261020e57600060085460005b81811061215e57602083604051908152f35b806000526009602052604060002060ff601182015460a01c161561218c575b50612187906131dc565b61214c565b6121879193600d61219f92015490613453565b929061217d565b3461020e57602036600319011261020e576004356001600160401b03811161020e576121ef60206121dc81933690600401612ad6565b81604051938285809451938492016129b8565b8101600a815203019020541515604051908152f35b3461020e57600036600319011261020e5761221d612ddb565b600680546001600160a01b031981169091556000906001600160a01b03167f8be0079c531659141344cd1fd0a4f28419497f9722a3daafe3b4186f6b6457e08280a3005b3461020e57602036600319011261020e576001600160a01b03612282612a00565b1680156122a15760005260036020526020604060002054604051908152f35b6040516322718ad960e21b815260006004820152602490fd5b3461020e57602036600319011261020e5760206122d8600435613053565b6040516001600160a01b039091168152f35b3461020e57600036600319011261020e57602060ff60065460a01c166040519015158152f35b3461020e57611df361232136612da6565b906040519261232f84612a48565b60008452611ded838383612e07565b3461020e57600036600319011261020e57612357612ddb565b60065460ff8160a01c161561239e5760ff60a01b19166006556040513381527f5db9ee0a495bf2e6ff9c91a7834c1ba4fdd244a5e8aa4e537bd38aeae4b073aa90602090a1005b604051638dfc202b60e01b8152600490fd5b3461020e57611df36123c136612da6565b91612e07565b3461020e57602036600319011261020e576004356001600160401b03811161020e576123fd60206121dc81933690600401612ad6565b8101600a81520301902054604051908152f35b3461020e57602036600319011261020e576004356000526009602052604060002061243a81612cda565b61244660018301612cda565b60c05261245560028301612cda565b6101205261246560038301612cda565b6101605261247560048301612cda565b61248160058401612cda565b9061248e60068501612cda565b916007850154600886016124a190612cda565b6009870154906124b3600a8901612cda565b92600b89015496600c8a015495600d8b015497600e8c016124d390612cda565b9a6124e0600f8e01612cda565b9c6124ed60108201612cda565b60a05260118101546101005260128101546101405260130161250e90612cda565b60e052604051806080526102a08091526080510161252b916129db565b608051808203906020015260c05190612543916129db565b6080518082039060400152610120519061255c916129db565b60805180820390606001526101605190612575916129db565b6080518082039060800152612589916129db565b6080518082039060a0015261259d916129db565b6080518082039060c001526125b1916129db565b9060805160e001526080518082039061010001526125ce916129db565b9060805161012001526080518082039061014001526125ec916129db565b92608051610160015260805161018001526080516101a00152608051808203906101c0015261261a916129db565b608051808203906101e0015261262f916129db565b60805180820390610200015260a05190612648916129db565b600160a01b60019003610100511660805161022001526101005160a01c60ff16151560805161024001526101405160805161026001526080518082039061028001526080519060e0519061269b916129db565b03608051f35b3461020e5760208060031936011261020e576004356001600160401b03811161020e57816126d66126f2923690600401612ad6565b6126de6133ba565b5081604051938285809451938492016129b8565b8101600a8152030190205490811561274d576103a69160005260098152610394601360406000206040519361272685612a2c565b61272f82612cda565b855261273d60018301612cda565b9085015261028760028201612cda565b6064906040519062461bcd60e51b825260048201526011602482015270141c9bda9958dd081b9bdd08199bdd5b99607a1b6044820152fd5b3461020e57604036600319011261020e5761279e612a00565b6024356127aa81613053565b33151580612859575b8061282c575b612814576001600160a01b039283169282918491167f8c5be1e5ebec7d5bd14f71427d1e84f3dd0314c0f7b2291e5b200ac8c7c3b925600080a4600090815260046020526040902080546001600160a01b0319169091179055005b60405163a9fbf51f60e01b8152336004820152602490fd5b5060018060a01b038116600052600560205260406000203360005260205260ff60406000205416156127b9565b506001600160a01b0381163314156127b3565b3461020e57602036600319011261020e5760043561288981613053565b506000526004602052602060018060a01b0360406000205416604051908152f35b3461020e57600036600319011261020e57604051600080546128cb81612ca0565b80845290600190818116908115611f5257506001146128f4576103a684611ee581860382612a63565b600080805292507f290decd9548b62a8d60345a988386fc84ba6bc95484008f6362f93160ef3e5635b828410612935575050508101602001611ee582611ed5565b8054602085870181019190915290930192810161291d565b3461020e57602036600319011261020e576004359063ffffffff60e01b821680920361020e576020916380ac58cd60e01b81149081156129a7575b8115612996575b5015158152f35b6301ffc9a760e01b1490508361298f565b635b5e139f60e01b81149150612988565b60005b8381106129cb5750506000910152565b81810151838201526020016129bb565b906020916129f4815180928185528580860191016129b8565b601f01601f1916010190565b600435906001600160a01b038216820361020e57565b602435906001600160a01b038216820361020e57565b6102a081019081106001600160401b03821117610fcb57604052565b602081019081106001600160401b03821117610fcb57604052565b90601f801991011681019081106001600160401b03821117610fcb57604052565b6001600160401b038111610fcb57601f01601f191660200190565b929192612aab82612a84565b91612ab96040519384612a63565b82948184528183011161020e578281602093846000960137010152565b9080601f8301121561020e57816020612af193359101612a9f565b90565b90612af19160208152815190612b186102a0928360208401526102c08301906129db565b91612ba8612b94612b80612b6c612b58612b4460208a015198601f19998a8a83030160408b01526129db565b60408a0151898983030160608a01526129db565b6060890151888883030160808901526129db565b6080880151878783030160a08801526129db565b60a0870151868683030160c08701526129db565b60c0860151858583030160e08601526129db565b93612c63612c4c612c35612bfd612bdb60e086015161010090818a0152860151996101209a8a8a8303018c8b01526129db565b988501516101409081890152850151986101609989898303018b8a01526129db565b9784015161018090818801528401516101a090818801528401516101c09081880152840151976101e09888888303018a8901526129db565b9683015196610200978787830301898801526129db565b9582015195610220968686830301888701526129db565b9460018060a01b039082015116610240908185015281015115156102609081850152810151906102809182850152015192828503019101526129db565b90600182811c92168015612cd0575b6020831014612cba57565b634e487b7160e01b600052602260045260246000fd5b91607f1691612caf565b9060405191826000825492612cee84612ca0565b908184526001948581169081600014612d5d5750600114612d1a575b5050612d1892500383612a63565b565b9093915060005260209081600020936000915b818310612d45575050612d1893508201013880612d0a565b85548884018501529485019487945091830191612d2d565b915050612d1894506020925060ff191682840152151560051b8201013880612d0a565b6020612d999181604051938285809451938492016129b8565b8101600a81520301902090565b606090600319011261020e576001600160a01b0390600435828116810361020e5791602435908116810361020e579060443590565b6006546001600160a01b03163303612def57565b60405163118cdaa760e01b8152336004820152602490fd5b906001600160a01b039081168015610f3757600091848352846020926002845260409383858720541695869133151580612f01575b509060027fddf252ad1be2c89b69c2b068fc378daa952ba7f163c4a11628f55a4df523b3ef9284612ece575b85835260038152888320805460010190558683525286812080546001600160a01b0319168517905580a483168203612ea05750505050565b516364283d7b60e01b81526001600160a01b0392831660048201526024810193909352166044820152606490fd5b600087815260046020526040902080546001600160a01b0319169055848352600381528883208054600019019055612e68565b91939450915080612f56575b15612f1d57879291869138612e3c565b848887612f3a576024915190637e27328960e01b82526004820152fd5b604491519063177e802f60e01b82523360048301526024820152fd5b503386148015612f7b575b80612f0d5750878252600481523384868420541614612f0d565b5085825260058152848220338352815260ff8583205416612f61565b6000828152600260205260408120546001600160a01b03908116939284917fddf252ad1be2c89b69c2b068fc378daa952ba7f163c4a11628f55a4df523b3ef918361301e575b169283613006575b84815260026020526040812080546001600160a01b0319168517905580a490565b83815260036020526040812060018154019055612fe5565b600086815260046020526040902080546001600160a01b03191690558385526003602052604085208054600019019055612fdd565b6000818152600260205260409020546001600160a01b0316908115613076575090565b60249060405190637e27328960e01b82526004820152fd5b90939192833b6130a0575b5050505050565b604051630a85bd0160e11b8082526001600160a01b0393841660048301529583166024820152604481019190915260806064820152949216926020929185906130ed9060848301906129db565b039483816000978189895af1869181613198575b50613162575050503d600014613159573d61311b81612a84565b906131296040519283612a63565b81528093823d92013e5b8251928361315457604051633250574960e11b815260048101849052602490fd5b019050fd5b60609250613133565b919450915063ffffffff60e01b160361318057503880808080613099565b60249060405190633250574960e11b82526004820152fd5b9091508481813d83116131d5575b6131b08183612a63565b810103126131d157516001600160e01b0319811681036131d1579038613101565b8680fd5b503d6131a6565b60001981146131eb5760010190565b634e487b7160e01b600052601160045260246000fd5b81811061320c575050565b60008155600101613201565b9190601f811161322757505050565b612d18926000526020600020906020601f840160051c83019310613253575b601f0160051c0190613201565b9091508190613246565b60ff60065460a01c1661326c57565b60405163d93c066560e01b8152600490fd5b60026007541461328f576002600755565b604051633ee5aeb560e01b8152600490fd5b156132a857565b60405162461bcd60e51b81526020600482015260156024820152742737ba103a343290383937b532b1ba1037bbb732b960591b6044820152606490fd5b156132ec57565b60405162461bcd60e51b8152602060048201526016602482015275141c9bda9958dd08191bd95cc81b9bdd08195e1a5cdd60521b6044820152606490fd5b919082039182116131eb57565b60009291815461334681612ca0565b9260019180831690811561339f5750600114613363575b50505050565b90919293945060005260209081600020906000915b85831061338e575050505001903880808061335d565b805485840152918301918101613378565b60ff191684525050508115159091020191503880808061335d565b604051906133c782612a2c565b8161028060609182815282602082015282604082015282808201528260808201528260a08201528260c082015260008060e08301528361010083015280610120830152836101408301528061016083015280610180830152806101a0830152836101c0830152836101e08301528361020083015280610220830152806102408301526102608201520152565b919082018092116131eb5756fea2646970667358221220686ffbc92820a5ee7b21dd8a8d1a9e521f704be49d5847298f8af438caef148364736f6c63430008140033",
  "linkReferences": {},
  "deployedLinkReferences": {}
}