{
  "_format": "hh-sol-artifact-1",
  "contractName": "CarbonCreditRegistry",
  "sourceName": "contracts/CarbonCreditRegistry.sol",
  "abi": [
    {
      "inputs": [
        {
          "internalType": "address",
          "name": "_blueCarbonToken",
          "type": "address"
        }
      ],
      "stateMutability": "nonpayable",
      "type": "constructor"
    },
    {
      "inputs": [
        {
          "internalType": "address",
          "name": "sender",
          "type": "address"
        },
        {
          "internalType": "uint256",
          "name": "tokenId",
          "type": "uint256"
        },
        {
          "internalType": "address",
          "name": "owner",
          "type": "address"
        }
      ],
      "name": "ERC721IncorrectOwner",
      "type": "error"
    },
    {
      "inputs": [
        {
          "internalType": "address",
          "name": "operator",
          "type": "address"
        },
        {
          "internalType": "uint256",
          "name": "tokenId",
          "type": "uint256"
        }
      ],
      "name": "ERC721InsufficientApproval",
      "type": "error"
    },
    {
      "inputs": [
        {
          "internalType": "address",
          "name": "approver",
          "type": "address"
        }
      ],
      "name": "ERC721InvalidApprover",
      "type": "error"
    },
    {
      "inputs": [
        {
          "internalType": "address",
          "name": "operator",
          "type": "address"
        }
      ],
      "name": "ERC721InvalidOperator",
      "type": "error"
    },
    {
      "inputs": [
        {
          "internalType": "address",
          "name": "owner",
          "type": "address"
        }
      ],
      "name": "ERC721InvalidOwner",
      "type": "error"
    },
    {
      "inputs": [
        {
          "internalType": "address",
          "name": "receiver",
          "type": "address"
        }
      ],
      "name": "ERC721InvalidReceiver",
      "type": "error"
    },
    {
      "inputs": [
        {
          "internalType": "address",
          "name": "sender",
          "type": "address"
        }
      ],
      "name": "ERC721InvalidSender",
      "type": "error"
    },
    {
      "inputs": [
        {
          "internalType": "uint256",
          "name": "tokenId",
          "type": "uint256"
        }
      ],
      "name": "ERC721NonexistentToken",
      "type": "error"
    },
    {
      "inputs": [],
      "name": "EnforcedPause",
      "type": "error"
    },
    {
      "inputs": [],
      "name": "ExpectedPause",
      "type": "error"
    },
    {
      "inputs": [
        {
          "internalType": "address",
          "name": "owner",
          "type": "address"
        }
      ],
      "name": "OwnableInvalidOwner",
      "type": "error"
    },
    {
      "inputs": [
        {
          "internalType": "address",
          "name": "account",
          "type": "address"
        }
      ],
      "name": "OwnableUnauthorizedAccount",
      "type": "error"
    },
    {
      "inputs": [],
      "name": "ReentrancyGuardReentrantCall",
      "type": "error"
    },
    {
      "anonymous": false,
      "inputs": [
        {
          "indexed": true,
          "internalType": "address",
          "name": "owner",
          "type": "address"
        },
        {
          "indexed": true,
          "internalType": "address",
          "name": "approved",
          "type": "address"
        },
        {
          "indexed": true,
          "internalType": "uint256",
          "name": "tokenId",
          "type": "uint256"
        }
      ],
      "name": "Approval",
      "type": "event"
    },
    {
      "anonymous": false,
      "inputs": [
        {
          "indexed": true,
          "internalType": "address",
          "name": "owner",
          "type": "address"
        },
        {
          "indexed": true,
          "internalType": "address",
          "name": "operator",
          "type": "address"
        },
        {
          "indexed": false,
          "internalType": "bool",
          "name": "approved",
          "type": "bool"
        }
      ],
      "name": "ApprovalForAll",
      "type": "event"
    },
    {
      "anonymous": false,
      "inputs": [
        {
          "indexed": true,
          "internalType": "uint256",
          "name": "tokenId",
          "type": "uint256"
        },
        {
          "indexed": true,
          "internalType": "string",
          "name": "projectId",
          "type": "string"
        },
        {
          "indexed": false,
          "internalType": "uint256",
          "name": "amount",
          "type": "uint256"
        },
        {
          "indexed": false,
          "internalType": "string",
          "name": "reason",
          "type": "string"
        }
      ],
      "name": "CreditsRetired",
      "type": "event"
    },
    {
      "anonymous": false,
      "inputs": [
        {
          "indexed": true,
          "internalType": "uint256",
          "name": "tokenId",
          "type": "uint256"
        },
        {
          "indexed": false,
          "internalType": "uint256",
          "name": "amount",
          "type": "uint256"
        },
        {
          "indexed": false,
          "internalType": "address",
          "name": "to",
          "type": "address"
        }
      ],
      "name": "ERC20CreditsMinted",
      "type": "event"
    },
    {
      "anonymous": false,
      "inputs": [
        {
          "indexed": true,
          "internalType": "address",
          "name": "previousOwner",
          "type": "address"
        },
        {
          "indexed": true,
          "internalType": "address",
          "name": "newOwner",
          "type": "address"
        }
      ],
      "name": "OwnershipTransferred",
      "type": "event"
    },
    {
      "anonymous": false,
      "inputs": [
        {
          "indexed": false,
          "internalType": "address",
          "name": "account",
          "type": "address"
        }
      ],
      "name": "Paused",
      "type": "event"
    },
    {
      "anonymous": false,
      "inputs": [
        {
          "indexed": true,
          "internalType": "uint256",
          "name": "tokenId",
          "type": "uint256"
        },
        {
          "indexed": true,
          "internalType": "string",
          "name": "projectId",
          "type": "string"
        },
        {
          "indexed": true,
          "internalType": "address",
          "name": "owner",
          "type": "address"
        },
        {
          "indexed": false,
          "internalType": "uint256",
          "name": "carbonCredits",
          "type": "uint256"
        }
      ],
      "name": "ProjectRegistered",
      "type": "event"
    },
    {
      "anonymous": false,
      "inputs": [
        {
          "indexed": true,
          "internalType": "address",
          "name": "from",
          "type": "address"
        },
        {
          "indexed": true,
          "internalType": "address",
          "name": "to",
          "type": "address"
        },
        {
          "indexed": true,
          "internalType": "uint256",
          "name": "tokenId",
          "type": "uint256"
        }
      ],
      "name": "Transfer",
      "type": "event"
    },
    {
      "anonymous": false,
      "inputs": [
        {
          "indexed": false,
          "internalType": "address",
          "name": "account",
          "type": "address"
        }
      ],
      "name": "Unpaused",
      "type": "event"
    },
    {
      "inputs": [
        {
          "internalType": "address",
          "name": "to",
          "type": "address"
        },
        {
          "internalType": "uint256",
          "name": "tokenId",
          "type": "uint256"
        }
      ],
      "name": "approve",
      "outputs": [],
      "stateMutability": "nonpayable",
      "type": "function"
    },
    {
      "inputs": [
        {
          "internalType": "address",
          "name": "owner",
          "type": "address"
        }
      ],
      "name": "balanceOf",
      "outputs": [
        {
          "internalType": "uint256",
          "name": "",
          "type": "uint256"
        }
      ],
      "stateMutability": "view",
      "type": "function"
    },
    {
      "inputs": [],
      "name": "blueCarbon",
      "outputs": [
        {
          "internalType": "contract BlueCarbon",
          "name": "",
          "type": "address"
        }
      ],
      "stateMutability": "view",
      "type": "function"
    },
    {
      "inputs": [
        {
          "internalType": "uint256",
          "name": "tokenId",
          "type": "uint256"
        },
        {
          "internalType": "address",
          "name": "newOwner",
          "type": "address"
        }
      ],
      "name": "emergencyTransferProject",
      "outputs": [],
      "stateMutability": "nonpayable",
      "type": "function"
    },
    {
      "inputs": [
        {
          "internalType": "uint256",
          "name": "tokenId",
          "type": "uint256"
        }
      ],
      "name": "getApproved",
      "outputs": [
        {
          "internalType": "address",
          "name": "",
          "type": "address"
        }
      ],
      "stateMutability": "view",
      "type": "function"
    },
    {
      "inputs": [
        {
          "internalType": "address",
          "name": "owner",
          "type": "address"
        },
        {
          "internalType": "address",
          "name": "operator",
          "type": "address"
        }
      ],
      "name": "isApprovedForAll",
      "outputs": [
        {
          "internalType": "bool",
          "name": "",
          "type": "bool"
        }
      ],
      "stateMutability": "view",
      "type": "function"
    },
    {
      "inputs": [
        {
          "internalType": "uint256",
          "name": "tokenId",
          "type": "uint256"
        },
        {
          "internalType": "uint256",
          "name": "amount",
          "type": "uint256"
        },
        {
          "internalType": "address",
          "name": "to",
          "type": "address"
        }
      ],
      "name": "mintERC20Credits",
      "outputs": [],
      "stateMutability": "nonpayable",
      "type": "function"
    },
    {
      "inputs": [],
      "name": "name",
      "outputs": [
        {
          "internalType": "string",
          "name": "",
          "type": "string"
        }
      ],
      "stateMutability": "view",
      "type": "function"
    },
    {
      "inputs": [],
      "name": "owner",
      "outputs": [
        {
          "internalType": "address",
          "name": "",
          "type": "address"
        }
      ],
      "stateMutability": "view",
      "type": "function"
    },
    {
      "inputs": [
        {
          "internalType": "uint256",
          "name": "tokenId",
          "type": "uint256"
        }
      ],
      "name": "ownerOf",
      "outputs": [
        {
          "internalType": "address",
          "name": "",
          "type": "address"
        }
      ],
      "stateMutability": "view",
      "type": "function"
    },
    {
      "inputs": [],
      "name": "pause",
      "outputs": [],
      "stateMutability": "nonpayable",
      "type": "function"
    },
    {
      "inputs": [],
      "name": "paused",
      "outputs": [
        {
          "internalType": "bool",
          "name": "",
          "type": "bool"
        }
      ],
      "stateMutability": "view",
      "type": "function"
    },
    {
      "inputs": [
        {
          "internalType": "string",
          "name": "",
          "type": "string"
        }
      ],
      "name": "projectToToken",
      "outputs": [
        {
          "internalType": "uint256",
          "name": "",
          "type": "uint256"
        }
      ],
      "stateMutability": "view",
      "type": "function"
    },
    {
      "inputs": [
        {
          "internalType": "uint256",
          "name": "",
          "type": "uint256"
        }
      ],
      "name": "projects",
      "outputs": [
        {
          "internalType": "string",
          "name": "projectId",
          "type": "string"
        },
        {
          "internalType": "uint16",
          "name": "carbonCredits",
          "type": "uint16"
        },
        {
          "internalType": "enum CarbonCreditRegistry.ProjectStatus",
          "name": "status",
          "type": "uint8"
        },
        {
          "internalType": "bool",
          "name": "isRetired",
          "type": "bool"
        },
        {
          "internalType": "uint64",
          "name": "retirementDate",
          "type": "uint64"
        },
        {
          "internalType": "address",
          "name": "projectOwner",
          "type": "address"
        },
        {
          "internalType": "bytes32",
          "name": "ipfsHash",
          "type": "bytes32"
        }
      ],
      "stateMutability": "view",
      "type": "function"
    },
    {
      "inputs": [
        {
          "internalType": "string",
          "name": "projectId",
          "type": "string"
        },
        {
          "internalType": "uint16",
          "name": "carbonCredits",
          "type": "uint16"
        },
        {
          "internalType": "address",
          "name": "projectOwner",
          "type": "address"
        },
        {
          "internalType": "bytes32",
          "name": "ipfsHash",
          "type": "bytes32"
        }
      ],
      "name": "registerProject",
      "outputs": [
        {
          "internalType": "uint256",
          "name": "",
          "type": "uint256"
        }
      ],
      "stateMutability": "nonpayable",
      "type": "function"
    },
    {
      "inputs": [],
      "name": "renounceOwnership",
      "outputs": [],
      "stateMutability": "nonpayable",
      "type": "function"
    },
    {
      "inputs": [
        {
          "internalType": "uint256",
          "name": "tokenId",
          "type": "uint256"
        },
        {
          "internalType": "uint16",
          "name": "amount",
          "type": "uint16"
        },
        {
          "internalType": "string",
          "name": "reason",
          "type": "string"
        }
      ],
      "name": "retireCredits",
      "outputs": [],
      "stateMutability": "nonpayable",
      "type": "function"
    },
    {
      "inputs": [
        {
          "internalType": "uint256",
          "name": "",
          "type": "uint256"
        }
      ],
      "name": "retiredCredits",
      "outputs": [
        {
          "internalType": "bool",
          "name": "",
          "type": "bool"
        }
      ],
      "stateMutability": "view",
      "type": "function"
    },
    {
      "inputs": [
        {
          "internalType": "address",
          "name": "from",
          "type": "address"
        },
        {
          "internalType": "address",
          "name": "to",
          "type": "address"
        },
        {
          "internalType": "uint256",
          "name": "tokenId",
          "type": "uint256"
        }
      ],
      "name": "safeTransferFrom",
      "outputs": [],
      "stateMutability": "nonpayable",
      "type": "function"
    },
    {
      "inputs": [
        {
          "internalType": "address",
          "name": "from",
          "type": "address"
        },
        {
          "internalType": "address",
          "name": "to",
          "type": "address"
        },
        {
          "internalType": "uint256",
          "name": "tokenId",
          "type": "uint256"
        },
        {
          "internalType": "bytes",
          "name": "data",
          "type": "bytes"
        }
      ],
      "name": "safeTransferFrom",
      "outputs": [],
      "stateMutability": "nonpayable",
      "type": "function"
    },
    {
      "inputs": [
        {
          "internalType": "address",
          "name": "operator",
          "type": "address"
        },
        {
          "internalType": "bool",
          "name": "approved",
          "type": "bool"
        }
      ],
      "name": "setApprovalForAll",
      "outputs": [],
      "stateMutability": "nonpayable",
      "type": "function"
    },
    {
      "inputs": [
        {
          "internalType": "bytes4",
          "name": "interfaceId",
          "type": "bytes4"
        }
      ],
      "name": "supportsInterface",
      "outputs": [
        {
          "internalType": "bool",
          "name": "",
          "type": "bool"
        }
      ],
      "stateMutability": "view",
      "type": "function"
    },
    {
      "inputs": [],
      "name": "symbol",
      "outputs": [
        {
          "internalType": "string",
          "name": "",
          "type": "string"
        }
      ],
      "stateMutability": "view",
      "type": "function"
    },
    {
      "inputs": [
        {
          "internalType": "uint256",
          "name": "tokenId",
          "type": "uint256"
        }
      ],
      "name": "tokenURI",
      "outputs": [
        {
          "internalType": "string",
          "name": "",
          "type": "string"
        }
      ],
      "stateMutability": "view",
      "type": "function"
    },
    {
      "inputs": [
        {
          "internalType": "address",
          "name": "from",
          "type": "address"
        },
        {
          "internalType": "address",
          "name": "to",
          "type": "address"
        },
        {
          "internalType": "uint256",
          "name": "tokenId",
          "type": "uint256"
        }
      ],
      "name": "transferFrom",
      "outputs": [],
      "stateMutability": "nonpayable",
      "type": "function"
    },
    {
      "inputs": [
        {
          "internalType": "address",
          "name": "newOwner",
          "type": "address"
        }
      ],
      "name": "transferOwnership",
      "outputs": [],
      "stateMutability": "nonpayable",
      "type": "function"
    },
    {
      "inputs": [],
      "name": "unpause",
      "outputs": [],
      "stateMutability": "nonpayable",
      "type": "function"
    },
    {
      "inputs": [
        {
          "internalType": "uint256",
          "name": "tokenId",
          "type": "uint256"
        }
      ],
      "name": "verifyAndMint",
      "outputs": [],
      "stateMutability": "nonpayable",
      "type": "function"
    }
  ],
  "bytecode": "0x608034620003d557601f906001600160401b0390601f1990620025ec388190038581018416830185811184821017620003bf57839282916040528339602092839181010312620003d557516001600160a01b03948582169491859003620003d5576200006a620003da565b92601684527f436172626f6e2043726564697420526567697374727900000000000000000000818501526200009e620003da565b90600382526221a1a960e91b81830152845195848711620003bf576000968754966001978881811c91168015620003b4575b85821014620003a0579081878493116200034d575b508490878311600114620002ec578a92620002e0575b5050600019600383901b1c191690871b1787555b8251948511620002cc5785548681811c91168015620002c1575b83821014620002ad5790818587969594931162000254575b5081938511600114620001ef5750508592620001e3575b5050600019600383901b1c191690821b1781555b3315620001ca5760065460018060a01b03199233848316176006557f8be0079c531659141344cd1fd0a4f28419497f9722a3daafe3b4186f6b6457e0604051963393169180a360075560095416176009556121f19081620003fb8239f35b604051631e4fbdf760e01b815260048101839052602490fd5b01519050388062000158565b869593929193168588528388209388905b8282106200023a575050841162000220575b505050811b0181556200016c565b015160001960f88460031b161c1916905538808062000212565b848401518655889790950194938401939081019062000200565b9091929394508688528288208580880160051c820192858910620002a3575b9188978a9297969594930160051c01915b8281106200029457505062000141565b8a815588975089910162000284565b9250819262000273565b634e487b7160e01b88526022600452602488fd5b90607f169062000129565b634e487b7160e01b87526041600452602487fd5b015190503880620000fb565b90848a9416918b8052868c20928c5b888282106200033657505084116200031c575b505050811b0187556200010f565b015160001960f88460031b161c191690553880806200030e565b8385015186558d97909501949384019301620002fb565b909150898052848a208780850160051c82019287861062000396575b918b91869594930160051c01915b82811062000387575050620000e5565b8c81558594508b910162000377565b9250819262000369565b634e487b7160e01b8a52602260045260248afd5b90607f1690620000d0565b634e487b7160e01b600052604160045260246000fd5b600080fd5b60408051919082016001600160401b03811183821017620003bf5760405256fe608080604052600436101561001357600080fd5b600090813560e01c90816301ffc9a7146119a85750806306fdde0314611904578063081812fc146118c7578063095ea7b3146117e4578063107046bd146116ab5780631d8a7f931461164e57806323b872dd146116365780632a4c34951461160d5780633f4ba83a1461159a57806342842e0e1461156c5780635c975abb14611546578063606e675e1461126f5780636352211e1461123e57806370a08231146111e6578063715018a6146111895780638456cb59146111265780638da5cb5b146110fd57806392598a3114610ff357806395d89b4114610f10578063a22cb46514610e6d578063ae345acd14610c7c578063b88d4fde14610c09578063c359ffe614610548578063c87b56dd14610438578063e985e9c5146103e4578063ef205c1a146103b5578063f2bee641146101e25763f2fde38b1461015557600080fd5b346101df5760203660031901126101df5761016e611a5d565b610176611bfe565b6001600160a01b039081169081156101c657600654826001600160601b0360a01b821617600655167f8be0079c531659141344cd1fd0a4f28419497f9722a3daafe3b4186f6b6457e0600080a380f35b604051631e4fbdf760e01b815260048101849052602490fd5b80fd5b50346101df5760203660031901126101df576004356101ff611bfe565b61020c6008548210612104565b808252600a60205260016040832001805460ff8160101c1660038110156103a1576001146103695761024460ff8260181c1615612149565b61ffff81169081156103325762ffffff191662010000178083556009546001600160a01b031690670de0b6b3a76400008302670de0b6b3a763ffff198482040161031e5790829187933b1561030f576040516340c10f1960e01b815260609290921c600483015260248201529082908290604490829084905af18015610313576102fb575b505090546040805192835260609190911c602083015260008051602061219c8339815191529190819081015b0390a280f35b61030490611ade565b61030f5783386102c9565b8380fd5b6040513d84823e3d90fd5b634e487b7160e01b87526011600452602487fd5b60405162461bcd60e51b815260206004820152600f60248201526e139bc818dc99591a5d1cc81b19599d608a1b6044820152606490fd5b60405162461bcd60e51b815260206004820152601060248201526f105b1c9958591e481d995c9a599a595960821b6044820152606490fd5b634e487b7160e01b85526021600452602485fd5b50346101df5760203660031901126101df5760ff60406020926004358152600c84522054166040519015158152f35b50346101df5760403660031901126101df576103fe611a5d565b6040610408611a78565b9260018060a01b0380931681526005602052209116600052602052602060ff604060002054166040519015158152f35b50346101df57602080600319360112610544576004359161045c6008548410612104565b6040519261046984611b0c565b60158452828401907468747470733a2f2f697066732e696f2f697066732f60581b82528252600a8352600260408320015490604051916104a883611b0c565b8483528483019385368637805b868110610510576104dd876104f8818b8a8a6104ec8b60405198899551809288880190611a15565b84019151809386840190611a15565b01038085520183611b27565b61050c604051928284938452830190611a38565b0390f35b845181101561053057808361052b921a888288010153612057565b6104b5565b634e487b7160e01b82526032600452602482fd5b5080fd5b50346101df5760803660031901126101df576004356001600160401b03811161054457610579903690600401611b9a565b610581611bed565b9161058a611a8e565b9061059361207c565b61059b61209d565b825115610bce5760405160208185516105b78183858a01611a15565b8101600b81520301902054610b985761ffff841615610b65576105e46001600160a01b038316151561201b565b600854926105f184612057565b60085560405160e081018181106001600160401b03821117610b4f5760405281815261ffff861660208201526001604082015282606082015282608082015260018060a01b03841660a082015260643560c0820152848352600a602052604083209080518051906001600160401b038211610b3b5781906106728554611aa4565b601f8111610aee575b50602090601f8311600114610a85578792610a7a575b50508160011b916000199060031b1c19161782555b6001820161ffff6020830151168154906040840151906003821015610a665792849261075d9262ff000060c09663ff000000606060029a0151151560181b169363ffffffff1916179160101b16171781556107336001600160401b0360808501511682906bffffffffffffffff0000000082549160201b16906bffffffffffffffff000000001916179055565b60a083015181546001600160601b031660609190911b6bffffffffffffffffffffffff1916179055565b01519101558360405160208184516107788183858901611a15565b8101600b8152030190205560405161078f81611af1565b8281526001600160a01b03841615610a4d576001600160a01b036107b38686611dd6565b16610a3457833b6108f4575b506107d890602060405192828480945193849201611a15565b810103902060405161ffff861681526001600160a01b038416919085907f0e6dd694bfeb45b4d2fe4926c1544b9e5b3d0cf87f38df59e49a8315cf99078490602090a46009546001600160a01b031661ffff8516670de0b6b3a7640000810290670de0b6b3a763ffff19908204016108e057813b156108dc576040516340c10f1960e01b81526001600160a01b038516600482015260248101919091529082908290604490829084905af18015610313576108c8575b6020848060008051602061219c8339815191526040898861ffff83519216825260018060a01b031686820152a26001600755604051908152f35b6108d28291611ade565b6101df578061088e565b8280fd5b634e487b7160e01b83526011600452602483fd5b6040959493955160208180610932630a85bd0160e11b9586835233600484015260006024840152896044840152608060648401526084830190611a38565b038160006001600160a01b038c165af180916000916109f1575b50906109b557863d156109ad573d9061096482611b48565b916109726040519384611b27565b82523d6000602084013e5b815191826109a657604051633250574960e11b81526001600160a01b0383166004820152602490fd5b6020915001fd5b60609061097d565b949593946001600160e01b031916036109d0576107d86107bf565b604051633250574960e11b81526001600160a01b0384166004820152602490fd5b6020813d602011610a2c575b81610a0a60209383611b27565b810103126105445751906001600160e01b0319821682036101df57503861094c565b3d91506109fd565b6040516339e3563760e11b815260048101849052602490fd5b604051633250574960e11b815260048101849052602490fd5b634e487b7160e01b88526021600452602488fd5b015190503880610691565b9250848752602087209087935b601f1984168510610ad3576001945083601f19811610610aba575b505050811b0182556106a6565b015160001960f88460031b161c19169055388080610aad565b81810151835560209485019460019093019290910190610a92565b90915084875260208720601f840160051c810160208510610b34575b90849392915b601f830160051c82018110610b2657505061067b565b898155859450600101610b10565b5080610b0a565b634e487b7160e01b86526041600452602486fd5b634e487b7160e01b600052604160045260246000fd5b60405162461bcd60e51b815260206004820152600b60248201526a043726564697473203e20360ac1b6044820152606490fd5b60405162461bcd60e51b815260206004820152600e60248201526d50726f6a6563742065786973747360901b6044820152606490fd5b60405162461bcd60e51b8152602060048201526013602482015272141c9bda9958dd081251081c995c5d5a5c9959606a1b6044820152606490fd5b50346101df5760803660031901126101df57610c23611a5d565b610c2b611a78565b90604435606435926001600160401b038411610c785736602385011215610c7857610c63610c75943690602481600401359101611b63565b92610c6f838383611c2a565b33611ecd565b80f35b8480fd5b50346101df5760603660031901126101df57600435602435610c9c611a8e565b90610ca683611e92565b6001600160a01b0390610cbc90821633146120c0565b610cc96008548510612104565b610cd161207c565b8115610e3357838552600a602052600160408620018054610cf860ff8260181c1615612149565b61ffff808216808611610dee57610d129082871690612187565b169061ffff191617905560095416670de0b6b3a76400008083029083820403610dda57908591813b156108dc576040516340c10f1960e01b81526001600160a01b0386166004820152602481019190915291908290604490829084905af18015610dcf57610dac575b50604080519182526001600160a01b03909216602082015260008051602061219c83398151915291819081016102f5565b93610dc760008051602061219c833981519152939295611ade565b939091610d7b565b6040513d87823e3d90fd5b634e487b7160e01b86526011600452602486fd5b60405162461bcd60e51b815260206004820152601a60248201527f416d6f756e742065786365656473204e465420637265646974730000000000006044820152606490fd5b60405162461bcd60e51b81526020600482015260126024820152710416d6f756e74206d757374206265203e20360741b6044820152606490fd5b50346101df5760403660031901126101df57610e87611a5d565b602435908115158092036108dc576001600160a01b0316908115610ef7573383526005602052604083208284526020526040832060ff1981541660ff83161790556040519081527f17307eab39ab6107e8899845ad3d59bd9653f200f220920489ca2b5937696c3160203392a380f35b604051630b61174360e31b815260048101839052602490fd5b50346101df57806003193601126101df5760405190806001805491610f3483611aa4565b80865292828116908115610fc95750600114610f6f575b61050c85610f5b81870382611b27565b604051918291602083526020830190611a38565b92508083527fb10e2d527612073b26eecdfd717e6a320cf44b4afac2b0732d9fcbe2b7fa0cf65b828410610fb1575050508101602001610f5b8261050c610f4b565b80546020858701810191909152909301928101610f96565b86955061050c96935060209250610f5b94915060ff191682840152151560051b8201019293610f4b565b50346101df5760403660031901126101df5760043590611011611a78565b611019611bfe565b6110266008548410612104565b6001600160a01b03818116159061103d821561201b565b61104685611e92565b916110e4576110558584611dd6565b90808216908161107857604051637e27328960e01b815260048101889052602490fd5b8316036110b457848452600a6020526040842060010180546001600160601b0316606085901b6bffffffffffffffffffffffff19161790558380f35b6040516364283d7b60e01b81526001600160a01b0392831660048201526024810186905291166044820152606490fd5b604051633250574960e11b815260048101859052602490fd5b50346101df57806003193601126101df576006546040516001600160a01b039091168152602090f35b50346101df57806003193601126101df5761113f611bfe565b61114761207c565b6006805460ff60a01b1916600160a01b1790556040513381527f62e78cea01bee320cd4e420270b5ea74000d11b0c9f74754ebdbfc544b05a25890602090a180f35b50346101df57806003193601126101df576111a2611bfe565b600680546001600160a01b0319811690915581906001600160a01b03167f8be0079c531659141344cd1fd0a4f28419497f9722a3daafe3b4186f6b6457e08280a380f35b50346101df5760203660031901126101df576001600160a01b03611208611a5d565b168015611225578160409160209352600383522054604051908152f35b6040516322718ad960e21b815260048101839052602490fd5b50346101df5760203660031901126101df57602061125d600435611e92565b6040516001600160a01b039091168152f35b50346101df5760603660031901126101df5760043561128c611bed565b6001600160401b0391604435838111610c78576112ad903690600401611b9a565b916112ca6112ba83611e92565b6001600160a01b031633146120c0565b6112d76008548310612104565b6112df61207c565b6112e761209d565b818552602090600a82526040862060019586820190815460ff8160181c1661150f5761ffff8086169586151580611503575b156114cd5789511561149657918161133c61137695946301000000948416612187565b6bffffffffffffffff000000001963ff00ffff199093169116179190911716429190911660201b6bffffffffffffffff0000000016178255565b6202000062ff000019825416179055838752600c8352604087209060ff1991878382541617905560405191889180546113ae81611aa4565b92818b16918215611462575050600114611411575b5050817f1bb65d0cfdde7c6f874e0104f34b04ecc8d308044367cb6abaee56abb9d45a7194939261140892039020956040805194859485528401526040830190611a38565b0390a360075580f35b90915088528388208789915b838310611450575050508101817f1bb65d0cfdde7c6f874e0104f34b04ecc8d308044367cb6abaee56abb9d45a716113c3565b8054858401529186019189910161141d565b16855250508015150282019050817f1bb65d0cfdde7c6f874e0104f34b04ecc8d308044367cb6abaee56abb9d45a716113c3565b60405162461bcd60e51b815260048101899052600f60248201526e1499585cdbdb881c995c5d5a5c9959608a1b6044820152606490fd5b60405162461bcd60e51b815260048101899052600e60248201526d125b9d985b1a5908185b5bdd5b9d60921b6044820152606490fd5b50818316871115611319565b60405162461bcd60e51b815260048101879052600f60248201526e105b1c9958591e481c995d1a5c9959608a1b6044820152606490fd5b50346101df57806003193601126101df57602060ff60065460a01c166040519015158152f35b50346101df57610c7561157e36611bb8565b906040519261158c84611af1565b858452610c6f838383611c2a565b50346101df57806003193601126101df576115b3611bfe565b60065460ff8160a01c16156115fb5760ff60a01b19166006556040513381527f5db9ee0a495bf2e6ff9c91a7834c1ba4fdd244a5e8aa4e537bd38aeae4b073aa90602090a180f35b604051638dfc202b60e01b8152600490fd5b50346101df57806003193601126101df576009546040516001600160a01b039091168152602090f35b50346101df57610c7561164836611bb8565b91611c2a565b50346101df5760203660031901126101df57600435906001600160401b0382116101df576020611698816116853660048701611b9a565b8160405193828580945193849201611a15565b8101600b81520301902054604051908152f35b50346101df57602090816003193601126101df576004358152600a82526040812090604051918184848354926116e084611aa4565b8083526001948086169081156117c6575060011461178a575b5061170692500385611b27565b810154600260ff8260101c169201549161172b6040519560e0875260e0870190611a38565b9361ffff831687870152600382101561177657508185966001600160401b0392604088015260ff8260181c16151560608801521c16608085015260601c60a084015260c08301520390f35b634e487b7160e01b81526021600452602490fd5b85875283872087925085905b8284106117af57505050916117069282010187926116f9565b80548a850187015289945092850192869101611796565b60ff19168486015250889390151560051b83010190506117066116f9565b50346101df5760403660031901126101df576117fe611a5d565b60243561180a81611e92565b331515806118b4575b80611889575b611871576001600160a01b039283169282918491167f8c5be1e5ebec7d5bd14f71427d1e84f3dd0314c0f7b2291e5b200ac8c7c3b9258680a4825260046020526040822080546001600160a01b031916909117905580f35b60405163a9fbf51f60e01b8152336004820152602490fd5b506001600160a01b038116845260056020908152604080862033875290915284205460ff1615611819565b506001600160a01b038116331415611813565b50346101df5760203660031901126101df576020906004356118e881611e92565b50815260048252604060018060a01b0391205416604051908152f35b50346101df57806003193601126101df576040519080805461192581611aa4565b80855291600191808316908115610fc9575060011461194e5761050c85610f5b81870382611b27565b80809450527f290decd9548b62a8d60345a988386fc84ba6bc95484008f6362f93160ef3e5635b828410611990575050508101602001610f5b8261050c610f4b565b80546020858701810191909152909301928101611975565b9050346105445760203660031901126105445760043563ffffffff60e01b81168091036108dc57602092506380ac58cd60e01b8114908115611a04575b81156119f3575b5015158152f35b6301ffc9a760e01b149050386119ec565b635b5e139f60e01b811491506119e5565b60005b838110611a285750506000910152565b8181015183820152602001611a18565b90602091611a5181518092818552858086019101611a15565b601f01601f1916010190565b600435906001600160a01b0382168203611a7357565b600080fd5b602435906001600160a01b0382168203611a7357565b604435906001600160a01b0382168203611a7357565b90600182811c92168015611ad4575b6020831014611abe57565b634e487b7160e01b600052602260045260246000fd5b91607f1691611ab3565b6001600160401b038111610b4f57604052565b602081019081106001600160401b03821117610b4f57604052565b604081019081106001600160401b03821117610b4f57604052565b90601f801991011681019081106001600160401b03821117610b4f57604052565b6001600160401b038111610b4f57601f01601f191660200190565b929192611b6f82611b48565b91611b7d6040519384611b27565b829481845281830111611a73578281602093846000960137010152565b9080601f83011215611a7357816020611bb593359101611b63565b90565b6060906003190112611a73576001600160a01b03906004358281168103611a7357916024359081168103611a73579060443590565b6024359061ffff82168203611a7357565b6006546001600160a01b03163303611c1257565b60405163118cdaa760e01b8152336004820152602490fd5b906001600160a01b039081168015611dbd57600091848352846020926002845260409383858720541695869133151580611d24575b509060027fddf252ad1be2c89b69c2b068fc378daa952ba7f163c4a11628f55a4df523b3ef9284611cf1575b85835260038152888320805460010190558683525286812080546001600160a01b0319168517905580a483168203611cc35750505050565b516364283d7b60e01b81526001600160a01b0392831660048201526024810193909352166044820152606490fd5b600087815260046020526040902080546001600160a01b0319169055848352600381528883208054600019019055611c8b565b91939450915080611d7c575b15611d4057879291869138611c5f565b848887611d5d576024915190637e27328960e01b82526004820152fd5b905163177e802f60e01b81523360048201526024810191909152604490fd5b503386148015611da1575b80611d305750878252600481523384868420541614611d30565b5085825260058152848220338352815260ff8583205416611d87565b604051633250574960e11b815260006004820152602490fd5b6000828152600260205260408120546001600160a01b03908116939284917fddf252ad1be2c89b69c2b068fc378daa952ba7f163c4a11628f55a4df523b3ef9183611e5d575b169283611e45575b84815260026020526040812080546001600160a01b0319168517905580a490565b83815260036020526040812060018154019055611e24565b600086815260046020526040902080546001600160a01b03191690558385526003602052604085208054600019019055611e1c565b6000818152600260205260409020546001600160a01b0316908115611eb5575090565b60249060405190637e27328960e01b82526004820152fd5b90939192833b611edf575b5050505050565b604051630a85bd0160e11b8082526001600160a01b039384166004830152958316602482015260448101919091526080606482015294921692602092918590611f2c906084830190611a38565b039483816000978189895af1869181611fd7575b50611fa1575050503d600014611f98573d611f5a81611b48565b90611f686040519283611b27565b81528093823d92013e5b82519283611f9357604051633250574960e11b815260048101849052602490fd5b019050fd5b60609250611f72565b919450915063ffffffff60e01b1603611fbf57503880808080611ed8565b60249060405190633250574960e11b82526004820152fd5b9091508481813d8311612014575b611fef8183611b27565b8101031261201057516001600160e01b031981168103612010579038611f40565b8680fd5b503d611fe5565b1561202257565b60405162461bcd60e51b815260206004820152600d60248201526c24b73b30b634b21037bbb732b960991b6044820152606490fd5b60001981146120665760010190565b634e487b7160e01b600052601160045260246000fd5b60ff60065460a01c1661208b57565b60405163d93c066560e01b8152600490fd5b6002600754146120ae576002600755565b604051633ee5aeb560e01b8152600490fd5b156120c757565b60405162461bcd60e51b81526020600482015260156024820152742737ba103a343290383937b532b1ba1037bbb732b960591b6044820152606490fd5b1561210b57565b60405162461bcd60e51b8152602060048201526016602482015275141c9bda9958dd08191bd95cc81b9bdd08195e1a5cdd60521b6044820152606490fd5b1561215057565b60405162461bcd60e51b815260206004820152600f60248201526e141c9bda9958dd081c995d1a5c9959608a1b6044820152606490fd5b61ffff91821690821603919082116120665756fea7d27650e67fa799c589347f42f480cf31e55f455fe7fb068502af7d3a29573ba2646970667358221220de9b76eb0d3d5b28b9a59887b813a340e631d7fc8390d37492d8eb18c981c5cd64736f6c63430008140033",
  "linkReferences": {},
  "deployedLinkReferences": {}
}