{"contracts/CarbonCreditRegistry.sol":{"CarbonCreditRegistry":{"abi":[{"inputs":[],"stateMutability":"nonpayable","type":"constructor"},{"inputs":[{"internalType":"address","name":"sender","type":"address"},{"internalType":"uint256","name":"tokenId","type":"uint256"},{"internalType":"address","name":"owner","type":"address"}],"name":"ERC721IncorrectOwner","type":"error"},{"inputs":[{"internalType":"address","name":"operator","type":"address"},{"internalType":"uint256","name":"tokenId","type":"uint256"}],"name":"ERC721InsufficientApproval","type":"error"},{"inputs":[{"internalType":"address","name":"approver","type":"address"}],"name":"ERC721InvalidApprover","type":"error"},{"inputs":[{"internalType":"address","name":"operator","type":"address"}],"name":"ERC721InvalidOperator","type":"error"},{"inputs":[{"internalType":"address","name":"owner","type":"address"}],"name":"ERC721InvalidOwner","type":"error"},{"inputs":[{"internalType":"address","name":"receiver","type":"address"}],"name":"ERC721InvalidReceiver","type":"error"},{"inputs":[{"internalType":"address","name":"sender","type":"address"}],"name":"ERC721InvalidSender","type":"error"},{"inputs":[{"internalType":"uint256","name":"tokenId","type":"uint256"}],"name":"ERC721NonexistentToken","type":"error"},{"inputs":[],"name":"EnforcedPause","type":"error"},{"inputs":[],"name":"ExpectedPause","type":"error"},{"inputs":[{"internalType":"address","name":"owner","type":"address"}],"name":"OwnableInvalidOwner","type":"error"},{"inputs":[{"internalType":"address","name":"account","type":"address"}],"name":"OwnableUnauthorizedAccount","type":"error"},{"inputs":[],"name":"ReentrancyGuardReentrantCall","type":"error"},{"anonymous":false,"inputs":[{"indexed":true,"internalType":"address","name":"owner","type":"address"},{"indexed":true,"internalType":"address","name":"approved","type":"address"},{"indexed":true,"internalType":"uint256","name":"tokenId","type":"uint256"}],"name":"Approval","type":"event"},{"anonymous":false,"inputs":[{"indexed":true,"internalType":"address","name":"owner","type":"address"},{"indexed":true,"internalType":"address","name":"operator","type":"address"},{"indexed":false,"internalType":"bool","name":"approved","type":"bool"}],"name":"ApprovalForAll","type":"event"},{"anonymous":false,"inputs":[{"indexed":true,"internalType":"uint256","name":"tokenId","type":"uint256"},{"indexed":true,"internalType":"string","name":"projectId","type":"string"},{"indexed":false,"internalType":"uint256","name":"amount","type":"uint256"},{"indexed":false,"internalType":"string","name":"reason","type":"string"}],"name":"CreditsRetired","type":"event"},{"anonymous":false,"inputs":[{"indexed":true,"internalType":"address","name":"previousOwner","type":"address"},{"indexed":true,"internalType":"address","name":"newOwner","type":"address"}],"name":"OwnershipTransferred","type":"event"},{"anonymous":false,"inputs":[{"indexed":false,"internalType":"address","name":"account","type":"address"}],"name":"Paused","type":"event"},{"anonymous":false,"inputs":[{"indexed":true,"internalType":"uint256","name":"tokenId","type":"uint256"},{"indexed":true,"internalType":"string","name":"projectId","type":"string"},{"indexed":true,"internalType":"address","name":"owner","type":"address"},{"indexed":false,"internalType":"uint256","name":"carbonCredits","type":"uint256"}],"name":"ProjectRegistered","type":"event"},{"anonymous":false,"inputs":[{"indexed":true,"internalType":"uint256","name":"tokenId","type":"uint256"},{"indexed":true,"internalType":"string","name":"projectId","type":"string"},{"indexed":false,"internalType":"string","name":"field","type":"string"},{"indexed":false,"internalType":"string","name":"newValue","type":"string"}],"name":"ProjectUpdated","type":"event"},{"anonymous":false,"inputs":[{"indexed":true,"internalType":"address","name":"from","type":"address"},{"indexed":true,"internalType":"address","name":"to","type":"address"},{"indexed":true,"internalType":"uint256","name":"tokenId","type":"uint256"}],"name":"Transfer","type":"event"},{"anonymous":false,"inputs":[{"indexed":false,"internalType":"address","name":"account","type":"address"}],"name":"Unpaused","type":"event"},{"inputs":[{"internalType":"address","name":"to","type":"address"},{"internalType":"uint256","name":"tokenId","type":"uint256"}],"name":"approve","outputs":[],"stateMutability":"nonpayable","type":"function"},{"inputs":[{"internalType":"address","name":"owner","type":"address"}],"name":"balanceOf","outputs":[{"internalType":"uint256","name":"","type":"uint256"}],"stateMutability":"view","type":"function"},{"inputs":[{"internalType":"uint256","name":"tokenId","type":"uint256"},{"internalType":"address","name":"newOwner","type":"address"}],"name":"emergencyTransferProject","outputs":[],"stateMutability":"nonpayable","type":"function"},{"inputs":[{"internalType":"uint256","name":"tokenId","type":"uint256"}],"name":"getApproved","outputs":[{"internalType":"address","name":"","type":"address"}],"stateMutability":"view","type":"function"},{"inputs":[{"internalType":"uint256","name":"tokenId","type":"uint256"}],"name":"getProject","outputs":[{"components":[{"internalType":"string","name":"projectId","type":"string"},{"internalType":"string","name":"projectName","type":"string"},{"internalType":"string","name":"ecosystemType","type":"string"},{"internalType":"string","name":"stateUT","type":"string"},{"internalType":"string","name":"district","type":"string"},{"internalType":"string","name":"villagePanchayat","type":"string"},{"internalType":"string","name":"coordinates","type":"string"},{"internalType":"uint256","name":"areaHectares","type":"uint256"},{"internalType":"string","name":"speciesPlanted","type":"string"},{"internalType":"uint256","name":"plantationDate","type":"uint256"},{"internalType":"string","name":"verificationAgency","type":"string"},{"internalType":"uint256","name":"verifiedDate","type":"uint256"},{"internalType":"uint256","name":"carbonSequestration","type":"uint256"},{"internalType":"uint256","name":"carbonCredits","type":"uint256"},{"internalType":"string","name":"status","type":"string"},{"internalType":"string","name":"supportingNGO","type":"string"},{"internalType":"string","name":"ipfsHash","type":"string"},{"internalType":"address","name":"projectOwner","type":"address"},{"internalType":"bool","name":"isRetired","type":"bool"},{"internalType":"uint256","name":"retirementDate","type":"uint256"},{"internalType":"string","name":"retirementReason","type":"string"}],"internalType":"struct CarbonCreditRegistry.CarbonProject","name":"","type":"tuple"}],"stateMutability":"view","type":"function"},{"inputs":[{"internalType":"string","name":"projectId","type":"string"}],"name":"getProjectById","outputs":[{"components":[{"internalType":"string","name":"projectId","type":"string"},{"internalType":"string","name":"projectName","type":"string"},{"internalType":"string","name":"ecosystemType","type":"string"},{"internalType":"string","name":"stateUT","type":"string"},{"internalType":"string","name":"district","type":"string"},{"internalType":"string","name":"villagePanchayat","type":"string"},{"internalType":"string","name":"coordinates","type":"string"},{"internalType":"uint256","name":"areaHectares","type":"uint256"},{"internalType":"string","name":"speciesPlanted","type":"string"},{"internalType":"uint256","name":"plantationDate","type":"uint256"},{"internalType":"string","name":"verificationAgency","type":"string"},{"internalType":"uint256","name":"verifiedDate","type":"uint256"},{"internalType":"uint256","name":"carbonSequestration","type":"uint256"},{"internalType":"uint256","name":"carbonCredits","type":"uint256"},{"internalType":"string","name":"status","type":"string"},{"internalType":"string","name":"supportingNGO","type":"string"},{"internalType":"string","name":"ipfsHash","type":"string"},{"internalType":"address","name":"projectOwner","type":"address"},{"internalType":"bool","name":"isRetired","type":"bool"},{"internalType":"uint256","name":"retirementDate","type":"uint256"},{"internalType":"string","name":"retirementReason","type":"string"}],"internalType":"struct CarbonCreditRegistry.CarbonProject","name":"","type":"tuple"}],"stateMutability":"view","type":"function"},{"inputs":[],"name":"getTotalCarbonCredits","outputs":[{"internalType":"uint256","name":"","type":"uint256"}],"stateMutability":"view","type":"function"},{"inputs":[],"name":"getTotalProjects","outputs":[{"internalType":"uint256","name":"","type":"uint256"}],"stateMutability":"view","type":"function"},{"inputs":[],"name":"getTotalRetiredCredits","outputs":[{"internalType":"uint256","name":"","type":"uint256"}],"stateMutability":"view","type":"function"},{"inputs":[{"internalType":"address","name":"owner","type":"address"},{"internalType":"address","name":"operator","type":"address"}],"name":"isApprovedForAll","outputs":[{"internalType":"bool","name":"","type":"bool"}],"stateMutability":"view","type":"function"},{"inputs":[],"name":"name","outputs":[{"internalType":"string","name":"","type":"string"}],"stateMutability":"view","type":"function"},{"inputs":[],"name":"owner","outputs":[{"internalType":"address","name":"","type":"address"}],"stateMutability":"view","type":"function"},{"inputs":[{"internalType":"uint256","name":"tokenId","type":"uint256"}],"name":"ownerOf","outputs":[{"internalType":"address","name":"","type":"address"}],"stateMutability":"view","type":"function"},{"inputs":[],"name":"pause","outputs":[],"stateMutability":"nonpayable","type":"function"},{"inputs":[],"name":"paused","outputs":[{"internalType":"bool","name":"","type":"bool"}],"stateMutability":"view","type":"function"},{"inputs":[{"internalType":"string","name":"projectId","type":"string"}],"name":"projectExistsById","outputs":[{"internalType":"bool","name":"","type":"bool"}],"stateMutability":"view","type":"function"},{"inputs":[{"internalType":"string","name":"","type":"string"}],"name":"projectToToken","outputs":[{"internalType":"uint256","name":"","type":"uint256"}],"stateMutability":"view","type":"function"},{"inputs":[{"internalType":"uint256","name":"","type":"uint256"}],"name":"projects","outputs":[{"internalType":"string","name":"projectId","type":"string"},{"internalType":"string","name":"projectName","type":"string"},{"internalType":"string","name":"ecosystemType","type":"string"},{"internalType":"string","name":"stateUT","type":"string"},{"internalType":"string","name":"district","type":"string"},{"internalType":"string","name":"villagePanchayat","type":"string"},{"internalType":"string","name":"coordinates","type":"string"},{"internalType":"uint256","name":"areaHectares","type":"uint256"},{"internalType":"string","name":"speciesPlanted","type":"string"},{"internalType":"uint256","name":"plantationDate","type":"uint256"},{"internalType":"string","name":"verificationAgency","type":"string"},{"internalType":"uint256","name":"verifiedDate","type":"uint256"},{"internalType":"uint256","name":"carbonSequestration","type":"uint256"},{"internalType":"uint256","name":"carbonCredits","type":"uint256"},{"internalType":"string","name":"status","type":"string"},{"internalType":"string","name":"supportingNGO","type":"string"},{"internalType":"string","name":"ipfsHash","type":"string"},{"internalType":"address","name":"projectOwner","type":"address"},{"internalType":"bool","name":"isRetired","type":"bool"},{"internalType":"uint256","name":"retirementDate","type":"uint256"},{"internalType":"string","name":"retirementReason","type":"string"}],"stateMutability":"view","type":"function"},{"inputs":[{"components":[{"internalType":"string","name":"projectId","type":"string"},{"internalType":"string","name":"projectName","type":"string"},{"internalType":"string","name":"ecosystemType","type":"string"},{"internalType":"string","name":"stateUT","type":"string"},{"internalType":"string","name":"district","type":"string"},{"internalType":"string","name":"villagePanchayat","type":"string"},{"internalType":"string","name":"coordinates","type":"string"},{"internalType":"uint256","name":"areaHectares","type":"uint256"},{"internalType":"string","name":"speciesPlanted","type":"string"},{"internalType":"uint256","name":"plantationDate","type":"uint256"},{"internalType":"string","name":"verificationAgency","type":"string"},{"internalType":"uint256","name":"verifiedDate","type":"uint256"},{"internalType":"uint256","name":"carbonSequestration","type":"uint256"},{"internalType":"uint256","name":"carbonCredits","type":"uint256"},{"internalType":"string","name":"status","type":"string"},{"internalType":"string","name":"supportingNGO","type":"string"},{"internalType":"string","name":"ipfsHash","type":"string"},{"internalType":"address","name":"projectOwner","type":"address"},{"internalType":"bool","name":"isRetired","type":"bool"},{"internalType":"uint256","name":"retirementDate","type":"uint256"},{"internalType":"string","name":"retirementReason","type":"string"}],"internalType":"struct CarbonCreditRegistry.CarbonProject","name":"projectData","type":"tuple"},{"internalType":"string","name":"ipfsHash","type":"string"}],"name":"registerProject","outputs":[{"internalType":"uint256","name":"","type":"uint256"}],"stateMutability":"nonpayable","type":"function"},{"inputs":[],"name":"renounceOwnership","outputs":[],"stateMutability":"nonpayable","type":"function"},{"inputs":[{"internalType":"uint256","name":"tokenId","type":"uint256"},{"internalType":"uint256","name":"amount","type":"uint256"},{"internalType":"string","name":"reason","type":"string"}],"name":"retireCredits","outputs":[],"stateMutability":"nonpayable","type":"function"},{"inputs":[{"internalType":"uint256","name":"","type":"uint256"}],"name":"retiredCredits","outputs":[{"internalType":"bool","name":"","type":"bool"}],"stateMutability":"view","type":"function"},{"inputs":[{"internalType":"address","name":"from","type":"address"},{"internalType":"address","name":"to","type":"address"},{"internalType":"uint256","name":"tokenId","type":"uint256"}],"name":"safeTransferFrom","outputs":[],"stateMutability":"nonpayable","type":"function"},{"inputs":[{"internalType":"address","name":"from","type":"address"},{"internalType":"address","name":"to","type":"address"},{"internalType":"uint256","name":"tokenId","type":"uint256"},{"internalType":"bytes","name":"data","type":"bytes"}],"name":"safeTransferFrom","outputs":[],"stateMutability":"nonpayable","type":"function"},{"inputs":[{"internalType":"address","name":"operator","type":"address"},{"internalType":"bool","name":"approved","type":"bool"}],"name":"setApprovalForAll","outputs":[],"stateMutability":"nonpayable","type":"function"},{"inputs":[{"internalType":"bytes4","name":"interfaceId","type":"bytes4"}],"name":"supportsInterface","outputs":[{"internalType":"bool","name":"","type":"bool"}],"stateMutability":"view","type":"function"},{"inputs":[],"name":"symbol","outputs":[{"internalType":"string","name":"","type":"string"}],"stateMutability":"view","type":"function"},{"inputs":[{"internalType":"uint256","name":"tokenId","type":"uint256"}],"name":"tokenURI","outputs":[{"internalType":"string","name":"","type":"string"}],"stateMutability":"view","type":"function"},{"inputs":[{"internalType":"address","name":"from","type":"address"},{"internalType":"address","name":"to","type":"address"},{"internalType":"uint256","name":"tokenId","type":"uint256"}],"name":"transferFrom","outputs":[],"stateMutability":"nonpayable","type":"function"},{"inputs":[{"internalType":"address","name":"newOwner","type":"address"}],"name":"transferOwnership","outputs":[],"stateMutability":"nonpayable","type":"function"},{"inputs":[],"name":"unpause","outputs":[],"stateMutability":"nonpayable","type":"function"},{"inputs":[{"internalType":"uint256","name":"tokenId","type":"uint256"},{"internalType":"string","name":"newStatus","type":"string"}],"name":"updateProjectStatus","outputs":[],"stateMutability":"nonpayable","type":"function"}],"evm":{"bytecode":{"linkReferences":{},"object":"6080346200038e576001600160401b03906040908082018381118282101762000378578252601681526020917f436172626f6e2043726564697420526567697374727900000000000000000000838301528051938185018581108282111762000378578252600385526221a1a960e91b84860152825181811162000378576000948554916001958684811c941680156200036d575b8385101462000359578190601f9485811162000306575b508390858311600114620002a257899262000296575b5050600019600383901b1c191690861b1786555b8651928311620002825784548581811c9116801562000277575b8282101462000263578281116200021b575b5080918311600114620001b2575084958293949592620001a6575b5050600019600383901b1c191690831b1782555b33156200018f5760068054336001600160a01b03198216811790925591519390916001600160a01b0316907f8be0079c531659141344cd1fd0a4f28419497f9722a3daafe3b4186f6b6457e09080a36007556134969081620003948239f35b51631e4fbdf760e01b815260048101839052602490fd5b0151905038806200011c565b90601f198316968587528287209287905b898210620002035750508386979896959610620001e9575b505050811b01825562000130565b015160001960f88460031b161c19169055388080620001db565b808885968294968601518155019501930190620001c3565b8587528187208380860160051c82019284871062000259575b0160051c019086905b8281106200024d57505062000101565b8881550186906200023d565b9250819262000234565b634e487b7160e01b87526022600452602487fd5b90607f1690620000ef565b634e487b7160e01b86526041600452602486fd5b015190503880620000c1565b898052848a208994509190601f1984168b5b87828210620002ef5750508411620002d5575b505050811b018655620000d5565b015160001960f88460031b161c19169055388080620002c7565b8385015186558c97909501949384019301620002b4565b9091508880528389208580850160051c8201928686106200034f575b918a91869594930160051c01915b82811062000340575050620000ab565b8b81558594508a910162000330565b9250819262000322565b634e487b7160e01b88526022600452602488fd5b93607f169362000094565b634e487b7160e01b600052604160045260246000fd5b600080fdfe61018080604052600436101561001457600080fd5b60003560e01c90816301ffc9a71461294d5750806306fdde03146128aa578063081812fc1461286c578063095ea7b3146127855780631016e36d146126a1578063107046bd146124105780631d8a7f93146123c757806323b872dd146123b05780633f4ba83a1461233e57806342842e0e146123105780635c975abb146122ea5780636352211e146122ba57806370a0823114612261578063715018a61461220457806377a91458146121a6578063811b6baf14612133578063812739a2146121155780638456cb59146120b35780638da5cb5b1461208a57806392598a3114611f7957806395d89b4114611e9a578063a22cb46514611df5578063b88d4fde14611d88578063bb0e9df614611b8a578063c081ec96146117f3578063c3147caf14611772578063c87b56dd146116b5578063ca2d2d8c14610431578063e985e9c5146103db578063ef205c1a146103aa578063f0f3f2c8146102135763f2fde38b1461018057600080fd5b3461020e57602036600319011261020e57610199612a00565b6101a1612ddb565b6001600160a01b039081169081156101f557600654826bffffffffffffffffffffffff60a01b821617600655167f8be0079c531659141344cd1fd0a4f28419497f9722a3daafe3b4186f6b6457e0600080a3005b604051631e4fbdf760e01b815260006004820152602490fd5b600080fd5b3461020e57602036600319011261020e5760043561022f6133ba565b5061023d60085482106132e5565b60005260096020526103a6604060002061039460136040519261025f84612a2c565b61026881612cda565b845261027660018201612cda565b602085015261028760028201612cda565b604085015261029860038201612cda565b60608501526102a960048201612cda565b60808501526102ba60058201612cda565b60a08501526102cb60068201612cda565b60c0850152600781015460e08501526102e660088201612cda565b6101008501526009810154610120850152610303600a8201612cda565b610140850152600b810154610160850152600c810154610180850152600d8101546101a0850152610336600e8201612cda565b6101c0850152610348600f8201612cda565b6101e085015261035a60108201612cda565b61020085015260118101546001600160a01b03811661022086015260a01c60ff161515610240850152601281015461026085015201612cda565b61028082015260405191829182612af4565b0390f35b3461020e57602036600319011261020e57600435600052600b602052602060ff604060002054166040519015158152f35b3461020e57604036600319011261020e576103f4612a00565b6103fc612a16565b9060018060a01b03809116600052600560205260406000209116600052602052602060ff604060002054166040519015158152f35b3461020e5760031960403682011261020e576001600160401b036004351161020e576102a0906004353603011261020e5760405161046e81612a2c565b600435600401356001600160401b03811161020e57610494906004369181350101612ad6565b8152602460043501356001600160401b03811161020e576104bc906004369181350101612ad6565b6020820152604460043501356001600160401b03811161020e576104e7906004369181350101612ad6565b6040820152606460043501356001600160401b03811161020e57610512906004369181350101612ad6565b6060820152608460043501356001600160401b03811161020e5761053d906004369181350101612ad6565b608082015260a460043501356001600160401b03811161020e57610568906004369181350101612ad6565b60a08201526001600160401b0360c460043501351161020e57610595366004803560c48101350101612ad6565b60c082015260e4600435013560e08201526001600160401b0361010460043501351161020e576105d036600480356101048101350101612ad6565b61010082015261012460043501356101208201526001600160401b0361014460043501351161020e5761060e36600480356101448101350101612ad6565b6101408201526004356101648101356101608301526101848101356101808301526101a48101356101a08301526001600160401b036101c4909101351161020e5761066436600480356101c48101350101612ad6565b6101c08201526001600160401b036101e460043501351161020e5761069436600480356101e48101350101612ad6565b6101e08201526001600160401b0361020460043501351161020e576106c436600480356102048101350101612ad6565b61020082015260043561022401356001600160a01b038116900361020e576004356102248101356102208301526102440135801515900361020e57610244600435013561024082015261026460043501356102608201526001600160401b0361028460043501351161020e5761074536600480356102848101350101612ad6565b6102808201526001600160401b036024351161020e5761076a36602435600401612ad6565b61077261325d565b61077a61327e565b815151156116705761078c8251612d80565b5461162b576101a0820151156115d85760e08201511561159357600854906107b3826131dc565b60085533610220840152610200830152600061024083015260006102608301526040516107df81612a48565b60008152610280830152806000526009602052604060002082519283516001600160401b038111610fcb5761081e816108188554612ca0565b85613218565b6020601f821160011461152a57819293949560009261151f575b50508160011b916000199060031b1c19161782555b60208101519283516001600160401b038111610fcb5761087d816108746001870154612ca0565b60018701613218565b6020601f82116001146114b05781929394956000926114a5575b50508160011b916000199060031b1c19161760018401555b60408201519283516001600160401b038111610fcb576108df816108d66002850154612ca0565b60028501613218565b6020601f821160011461143657819293949560009261142b575b50508160011b916000199060031b1c19161760028201555b60608301519283516001600160401b038111610fcb57610941816109386003860154612ca0565b60038601613218565b6020601f82116001146113bc5781929394956000926113b1575b50508160011b916000199060031b1c19161760038301555b60808101519283516001600160401b038111610fcb576109a38161099a6004870154612ca0565b60048701613218565b6020601f8211600114611342578192939495600092611337575b50508160011b916000199060031b1c19161760048401555b60a08201519283516001600160401b038111610fcb57610a05816109fc6005850154612ca0565b60058501613218565b6020601f82116001146112c85781929394956000926112bd575b50508160011b916000199060031b1c19161760058201555b60c08301519283516001600160401b038111610fcb57610a6781610a5e6006860154612ca0565b60068601613218565b6020601f821160011461124e578192939495600092611243575b50508160011b916000199060031b1c19161760068301555b60e081015160078301556101008101519283516001600160401b038111610fcb57610ad481610acb6008870154612ca0565b60088701613218565b6020601f82116001146111d45781929394956000926111c9575b50508160011b916000199060031b1c19161760088401555b61012082015160098401556101408201519283516001600160401b038111610fcb57610b4281610b39600a850154612ca0565b600a8501613218565b6020601f821160011461115a57819293949560009261114f575b50508160011b916000199060031b1c191617600a8201555b610160830151600b820155610180830151600c8201556101a0830151600d8201556101c08301519283516001600160401b038111610fcb57610bc681610bbd600e860154612ca0565b600e8601613218565b6020601f82116001146110e05781929394956000926110d5575b50508160011b916000199060031b1c191617600e8301555b6101e08101519283516001600160401b038111610fcb57610c2981610c20600f870154612ca0565b600f8701613218565b6020601f821160011461106657819293949560009261105b575b50508160011b916000199060031b1c191617600f8401555b6102008201519283516001600160401b038111610fcb57610c8c81610c836010850154612ca0565b60108501613218565b6020601f8211600114610fec578192939495600092610fe1575b50508160011b916000199060031b1c19161760108201555b6011810160018060a01b036102208501511681549060ff60a01b610240870151151560a01b16916affffffffffffffffffffff60a81b161717905561026083015160128201556102808301518051906001600160401b038211610fcb57610d3582610d2c6013860154612ca0565b60138601613218565b602090601f8311600114610f5b576013929160009183610f50575b50508160011b916000199060031b1c1916179101555b80610d718351612d80565b55604051610d7e81612a48565b600081523315610f37576001600160a01b03610d9a8333612f97565b16610f1e57333b610e07575b5081610dc96101a0602094519201519184604051928284809451938492016129b8565b8101039020604051918252827f0e6dd694bfeb45b4d2fe4926c1544b9e5b3d0cf87f38df59e49a8315cf990784853394a46001600755604051908152f35b60405160208180610e41630a85bd0160e11b95868352336004840152600060248401528760448401526080606484015260848301906129db565b03816000335af160009181610ed9575b50610eab573d15610ea4573d610e6681612a84565b90610e746040519283612a63565b81523d6000602083013e5b80519081610e9f57604051633250574960e11b8152336004820152602490fd5b602001fd5b6060610e7f565b6001600160e01b03191603610ec1576020610da6565b604051633250574960e11b8152336004820152602490fd5b9091506020813d602011610f16575b81610ef560209383612a63565b8101031261020e57516001600160e01b03198116810361020e579085610e51565b3d9150610ee8565b6040516339e3563760e11b815260006004820152602490fd5b604051633250574960e11b815260006004820152602490fd5b015190508680610d50565b906013840160005260206000209160005b601f1985168110610fb35750918391600193601395601f19811610610f9a575b505050811b01910155610d66565b015160001960f88460031b161c19169055868080610f8c565b91926020600181928685015181550194019201610f6c565b634e487b7160e01b600052604160045260246000fd5b015190508580610ca6565b6010830160005260206000209060005b601f1984168110611043575060019394959683601f1981161061102a575b505050811b016010820155610cbe565b015160001960f88460031b161c1916905585808061101a565b9091602060018192858b015181550193019101610ffc565b015190508580610c43565b600f850160005260206000209060005b601f19841681106110bd575060019394959683601f198116106110a4575b505050811b01600f840155610c5b565b015160001960f88460031b161c19169055858080611094565b9091602060018192858b015181550193019101611076565b015190508580610be0565b600e840160005260206000209060005b601f1984168110611137575060019394959683601f1981161061111e575b505050811b01600e830155610bf8565b015160001960f88460031b161c1916905585808061110e565b9091602060018192858b0151815501930191016110f0565b015190508580610b5c565b600a830160005260206000209060005b601f19841681106111b1575060019394959683601f19811610611198575b505050811b01600a820155610b74565b015160001960f88460031b161c19169055858080611188565b9091602060018192858b01518155019301910161116a565b015190508580610aee565b6008850160005260206000209060005b601f198416811061122b575060019394959683601f19811610611212575b505050811b016008840155610b06565b015160001960f88460031b161c19169055858080611202565b9091602060018192858b0151815501930191016111e4565b015190508580610a81565b6006840160005260206000209060005b601f19841681106112a5575060019394959683601f1981161061128c575b505050811b016006830155610a99565b015160001960f88460031b161c1916905585808061127c565b9091602060018192858b01518155019301910161125e565b015190508580610a1f565b6005830160005260206000209060005b601f198416811061131f575060019394959683601f19811610611306575b505050811b016005820155610a37565b015160001960f88460031b161c191690558580806112f6565b9091602060018192858b0151815501930191016112d8565b0151905085806109bd565b6004850160005260206000209060005b601f1984168110611399575060019394959683601f19811610611380575b505050811b0160048401556109d5565b015160001960f88460031b161c19169055858080611370565b9091602060018192858b015181550193019101611352565b01519050858061095b565b6003840160005260206000209060005b601f1984168110611413575060019394959683601f198116106113fa575b505050811b016003830155610973565b015160001960f88460031b161c191690558580806113ea565b9091602060018192858b0151815501930191016113cc565b0151905085806108f9565b6002830160005260206000209060005b601f198416811061148d575060019394959683601f19811610611474575b505050811b016002820155610911565b015160001960f88460031b161c19169055858080611464565b9091602060018192858b015181550193019101611446565b015190508580610897565b6001850160005260206000209060005b601f1984168110611507575060019394959683601f198116106114ee575b505050811b0160018401556108af565b015160001960f88460031b161c191690558580806114de565b9091602060018192858b0151815501930191016114c0565b015190508580610838565b8360005260206000209060005b601f198416811061157b575060019394959683601f19811610611562575b505050811b01825561084d565b015160001960f88460031b161c19169055858080611555565b9091602060018192858b015181550193019101611537565b60405162461bcd60e51b815260206004820152601b60248201527f41726561206d7573742062652067726561746572207468616e203000000000006044820152606490fd5b60405162461bcd60e51b815260206004820152602560248201527f436172626f6e2063726564697473206d75737420626520677265617465722074604482015264068616e20360dc1b6064820152608490fd5b60405162461bcd60e51b815260206004820152601a60248201527f50726f6a65637420616c726561647920726567697374657265640000000000006044820152606490fd5b60405162461bcd60e51b815260206004820152601a60248201527f50726f6a6563742049442063616e6e6f7420626520656d7074790000000000006044820152606490fd5b3461020e5760208060031936011261020e57600435906116d860085483106132e5565b6040519160408301928084106001600160401b03851117610fcb5761175061175e926117479560405260158352848301907468747470733a2f2f697066732e696f2f697066732f60581b82526000526009855284601060406000200191604051978895518092848801906129b8565b84010190613337565b03601f198101845283612a63565b6103a66040519282849384528301906129db565b3461020e57600036600319011261020e57600060085460005b81811061179d57602083604051908152f35b806000526009602052604060002060ff601182015460a01c166117ca575b506117c5906131dc565b61178b565b6117c591936117e682600d600c6117ec9501549101549061332a565b90613453565b92906117bb565b3461020e57606036600319011261020e576001600160401b036004356024803560443584811161020e5761182b903690600401612ad6565b9361184861183885613053565b6001600160a01b031633146132a1565b61185560085485106132e5565b61185d61325d565b61186561327e565b836000526020926009845260406000209160118301805460ff8160a01c16611b46578515611b0257600d85018054808811611ac0578a5115611a7c57876118ab9161332a565b905560ff60a01b1916600160a01b1790554260128401558651601384019290918211611a6857506118e6816118e08454612ca0565b84613218565b84601f82116001146119d857926119a29282611988937f1bb65d0cfdde7c6f874e0104f34b04ecc8d308044367cb6abaee56abb9d45a719897966000916119cd575b508160011b916000199060031b1c19161790555b600e810161194a8154612ca0565b601f81116119ac575b50600e6614995d1a5c995960ca1b01905586600052600b85526040600020600160ff1982541617905560405191828092613337565b0390209560408051948594855284015260408301906129db565b0390a36001600755005b6119c79082600052601f88600020910160051c810190613201565b89611953565b90508a01518b611928565b601f1982169083600052866000209160005b8a828210611a51575050837f1bb65d0cfdde7c6f874e0104f34b04ecc8d308044367cb6abaee56abb9d45a71989796936119a296936119889660019410611a38575b5050811b01905561193c565b8c015160001960f88460031b161c191690558b80611a2c565b600184958b939584930151815501940192016119ea565b634e487b7160e01b60009081526041600452fd5b60405162461bcd60e51b8152600481018a9052601a818801527f5265746972656d656e7420726561736f6e2072657175697265640000000000006044820152606490fd5b6064868a6040519162461bcd60e51b83528160048401528201527f416d6f756e74206578636565647320617661696c61626c6520637265646974736044820152fd5b60405162461bcd60e51b815260048101889052601d818601527f416d6f756e74206d7573742062652067726561746572207468616e20300000006044820152606490fd5b60405162461bcd60e51b8152600481018890526017818601527f4372656469747320616c726561647920726574697265640000000000000000006044820152606490fd5b3461020e57604036600319011261020e576001600160401b0360043560243582811161020e57611bbe903690600401612ad6565b91611bcb61183883613053565b611bd860085483106132e5565b611be061325d565b825115611d4a578160005260209060098252600e604060002001908451908111610fcb57611c12816118e08454612ca0565b82601f8211600114611cc25791817f8c3999a987c45c0d01fbc63d2bbcbbc000fbef413680ea70285750d9cc577ab09492608094600091611cb7575b508160011b916000199060031b1c19161790555b8360005260098152611cb2611c81604060002060405191828092613337565b0390209560405193849360408552600660408601526573746174757360d01b606086015284015260808301906129db565b0390a3005b905087015188611c4e565b601f1982169083600052846000209160005b818110611d3357509260809492600192827f8c3999a987c45c0d01fbc63d2bbcbbc000fbef413680ea70285750d9cc577ab0989610611d1a575b5050811b019055611c62565b89015160001960f88460031b161c191690558880611d0e565b91928660018192868c015181550194019201611cd4565b60405162461bcd60e51b81526020600482015260166024820152755374617475732063616e6e6f7420626520656d70747960501b6044820152606490fd5b3461020e57608036600319011261020e57611da1612a00565b611da9612a16565b90604435606435926001600160401b03841161020e573660238501121561020e57611de1611df3943690602481600401359101612a9f565b92611ded838383612e07565b3361308e565b005b3461020e57604036600319011261020e57611e0e612a00565b6024359081151580920361020e576001600160a01b0316908115611e8157336000526005602052604060002082600052602052604060002060ff1981541660ff83161790556040519081527f17307eab39ab6107e8899845ad3d59bd9653f200f220920489ca2b5937696c3160203392a3005b604051630b61174360e31b815260048101839052602490fd5b3461020e57600036600319011261020e5760405160006001805490611ebe82612ca0565b80855291818116908115611f525750600114611ef9575b6103a684611ee581860382612a63565b6040519182916020835260208301906129db565b600081815292507fb10e2d527612073b26eecdfd717e6a320cf44b4afac2b0732d9fcbe2b7fa0cf65b828410611f3a575050508101602001611ee582611ed5565b80546020858701810191909152909301928101611f22565b60ff191660208087019190915292151560051b85019092019250611ee59150839050611ed5565b3461020e57604036600319011261020e57600435611f95612a16565b90611f9e612ddb565b611fab60085482106132e5565b6001600160a01b038281169290831561205157611fd183611fcb81613053565b93612f97565b908082169081611ff457604051637e27328960e01b815260048101869052602490fd5b831603612021575050600090815260096020526040902060110180546001600160a01b0319169091179055005b6040516364283d7b60e01b81526001600160a01b0392831660048201526024810193909352166044820152606490fd5b60405162461bcd60e51b815260206004820152601160248201527024b73b30b634b2103732bb9037bbb732b960791b6044820152606490fd5b3461020e57600036600319011261020e576006546040516001600160a01b039091168152602090f35b3461020e57600036600319011261020e576120cc612ddb565b6120d461325d565b6006805460ff60a01b1916600160a01b1790556040513381527f62e78cea01bee320cd4e420270b5ea74000d11b0c9f74754ebdbfc544b05a25890602090a1005b3461020e57600036600319011261020e576020600854604051908152f35b3461020e57600036600319011261020e57600060085460005b81811061215e57602083604051908152f35b806000526009602052604060002060ff601182015460a01c161561218c575b50612187906131dc565b61214c565b6121879193600d61219f92015490613453565b929061217d565b3461020e57602036600319011261020e576004356001600160401b03811161020e576121ef60206121dc81933690600401612ad6565b81604051938285809451938492016129b8565b8101600a815203019020541515604051908152f35b3461020e57600036600319011261020e5761221d612ddb565b600680546001600160a01b031981169091556000906001600160a01b03167f8be0079c531659141344cd1fd0a4f28419497f9722a3daafe3b4186f6b6457e08280a3005b3461020e57602036600319011261020e576001600160a01b03612282612a00565b1680156122a15760005260036020526020604060002054604051908152f35b6040516322718ad960e21b815260006004820152602490fd5b3461020e57602036600319011261020e5760206122d8600435613053565b6040516001600160a01b039091168152f35b3461020e57600036600319011261020e57602060ff60065460a01c166040519015158152f35b3461020e57611df361232136612da6565b906040519261232f84612a48565b60008452611ded838383612e07565b3461020e57600036600319011261020e57612357612ddb565b60065460ff8160a01c161561239e5760ff60a01b19166006556040513381527f5db9ee0a495bf2e6ff9c91a7834c1ba4fdd244a5e8aa4e537bd38aeae4b073aa90602090a1005b604051638dfc202b60e01b8152600490fd5b3461020e57611df36123c136612da6565b91612e07565b3461020e57602036600319011261020e576004356001600160401b03811161020e576123fd60206121dc81933690600401612ad6565b8101600a81520301902054604051908152f35b3461020e57602036600319011261020e576004356000526009602052604060002061243a81612cda565b61244660018301612cda565b60c05261245560028301612cda565b6101205261246560038301612cda565b6101605261247560048301612cda565b61248160058401612cda565b9061248e60068501612cda565b916007850154600886016124a190612cda565b6009870154906124b3600a8901612cda565b92600b89015496600c8a015495600d8b015497600e8c016124d390612cda565b9a6124e0600f8e01612cda565b9c6124ed60108201612cda565b60a05260118101546101005260128101546101405260130161250e90612cda565b60e052604051806080526102a08091526080510161252b916129db565b608051808203906020015260c05190612543916129db565b6080518082039060400152610120519061255c916129db565b60805180820390606001526101605190612575916129db565b6080518082039060800152612589916129db565b6080518082039060a0015261259d916129db565b6080518082039060c001526125b1916129db565b9060805160e001526080518082039061010001526125ce916129db565b9060805161012001526080518082039061014001526125ec916129db565b92608051610160015260805161018001526080516101a00152608051808203906101c0015261261a916129db565b608051808203906101e0015261262f916129db565b60805180820390610200015260a05190612648916129db565b600160a01b60019003610100511660805161022001526101005160a01c60ff16151560805161024001526101405160805161026001526080518082039061028001526080519060e0519061269b916129db565b03608051f35b3461020e5760208060031936011261020e576004356001600160401b03811161020e57816126d66126f2923690600401612ad6565b6126de6133ba565b5081604051938285809451938492016129b8565b8101600a8152030190205490811561274d576103a69160005260098152610394601360406000206040519361272685612a2c565b61272f82612cda565b855261273d60018301612cda565b9085015261028760028201612cda565b6064906040519062461bcd60e51b825260048201526011602482015270141c9bda9958dd081b9bdd08199bdd5b99607a1b6044820152fd5b3461020e57604036600319011261020e5761279e612a00565b6024356127aa81613053565b33151580612859575b8061282c575b612814576001600160a01b039283169282918491167f8c5be1e5ebec7d5bd14f71427d1e84f3dd0314c0f7b2291e5b200ac8c7c3b925600080a4600090815260046020526040902080546001600160a01b0319169091179055005b60405163a9fbf51f60e01b8152336004820152602490fd5b5060018060a01b038116600052600560205260406000203360005260205260ff60406000205416156127b9565b506001600160a01b0381163314156127b3565b3461020e57602036600319011261020e5760043561288981613053565b506000526004602052602060018060a01b0360406000205416604051908152f35b3461020e57600036600319011261020e57604051600080546128cb81612ca0565b80845290600190818116908115611f5257506001146128f4576103a684611ee581860382612a63565b600080805292507f290decd9548b62a8d60345a988386fc84ba6bc95484008f6362f93160ef3e5635b828410612935575050508101602001611ee582611ed5565b8054602085870181019190915290930192810161291d565b3461020e57602036600319011261020e576004359063ffffffff60e01b821680920361020e576020916380ac58cd60e01b81149081156129a7575b8115612996575b5015158152f35b6301ffc9a760e01b1490508361298f565b635b5e139f60e01b81149150612988565b60005b8381106129cb5750506000910152565b81810151838201526020016129bb565b906020916129f4815180928185528580860191016129b8565b601f01601f1916010190565b600435906001600160a01b038216820361020e57565b602435906001600160a01b038216820361020e57565b6102a081019081106001600160401b03821117610fcb57604052565b602081019081106001600160401b03821117610fcb57604052565b90601f801991011681019081106001600160401b03821117610fcb57604052565b6001600160401b038111610fcb57601f01601f191660200190565b929192612aab82612a84565b91612ab96040519384612a63565b82948184528183011161020e578281602093846000960137010152565b9080601f8301121561020e57816020612af193359101612a9f565b90565b90612af19160208152815190612b186102a0928360208401526102c08301906129db565b91612ba8612b94612b80612b6c612b58612b4460208a015198601f19998a8a83030160408b01526129db565b60408a0151898983030160608a01526129db565b6060890151888883030160808901526129db565b6080880151878783030160a08801526129db565b60a0870151868683030160c08701526129db565b60c0860151858583030160e08601526129db565b93612c63612c4c612c35612bfd612bdb60e086015161010090818a0152860151996101209a8a8a8303018c8b01526129db565b988501516101409081890152850151986101609989898303018b8a01526129db565b9784015161018090818801528401516101a090818801528401516101c09081880152840151976101e09888888303018a8901526129db565b9683015196610200978787830301898801526129db565b9582015195610220968686830301888701526129db565b9460018060a01b039082015116610240908185015281015115156102609081850152810151906102809182850152015192828503019101526129db565b90600182811c92168015612cd0575b6020831014612cba57565b634e487b7160e01b600052602260045260246000fd5b91607f1691612caf565b9060405191826000825492612cee84612ca0565b908184526001948581169081600014612d5d5750600114612d1a575b5050612d1892500383612a63565b565b9093915060005260209081600020936000915b818310612d45575050612d1893508201013880612d0a565b85548884018501529485019487945091830191612d2d565b915050612d1894506020925060ff191682840152151560051b8201013880612d0a565b6020612d999181604051938285809451938492016129b8565b8101600a81520301902090565b606090600319011261020e576001600160a01b0390600435828116810361020e5791602435908116810361020e579060443590565b6006546001600160a01b03163303612def57565b60405163118cdaa760e01b8152336004820152602490fd5b906001600160a01b039081168015610f3757600091848352846020926002845260409383858720541695869133151580612f01575b509060027fddf252ad1be2c89b69c2b068fc378daa952ba7f163c4a11628f55a4df523b3ef9284612ece575b85835260038152888320805460010190558683525286812080546001600160a01b0319168517905580a483168203612ea05750505050565b516364283d7b60e01b81526001600160a01b0392831660048201526024810193909352166044820152606490fd5b600087815260046020526040902080546001600160a01b0319169055848352600381528883208054600019019055612e68565b91939450915080612f56575b15612f1d57879291869138612e3c565b848887612f3a576024915190637e27328960e01b82526004820152fd5b604491519063177e802f60e01b82523360048301526024820152fd5b503386148015612f7b575b80612f0d5750878252600481523384868420541614612f0d565b5085825260058152848220338352815260ff8583205416612f61565b6000828152600260205260408120546001600160a01b03908116939284917fddf252ad1be2c89b69c2b068fc378daa952ba7f163c4a11628f55a4df523b3ef918361301e575b169283613006575b84815260026020526040812080546001600160a01b0319168517905580a490565b83815260036020526040812060018154019055612fe5565b600086815260046020526040902080546001600160a01b03191690558385526003602052604085208054600019019055612fdd565b6000818152600260205260409020546001600160a01b0316908115613076575090565b60249060405190637e27328960e01b82526004820152fd5b90939192833b6130a0575b5050505050565b604051630a85bd0160e11b8082526001600160a01b0393841660048301529583166024820152604481019190915260806064820152949216926020929185906130ed9060848301906129db565b039483816000978189895af1869181613198575b50613162575050503d600014613159573d61311b81612a84565b906131296040519283612a63565b81528093823d92013e5b8251928361315457604051633250574960e11b815260048101849052602490fd5b019050fd5b60609250613133565b919450915063ffffffff60e01b160361318057503880808080613099565b60249060405190633250574960e11b82526004820152fd5b9091508481813d83116131d5575b6131b08183612a63565b810103126131d157516001600160e01b0319811681036131d1579038613101565b8680fd5b503d6131a6565b60001981146131eb5760010190565b634e487b7160e01b600052601160045260246000fd5b81811061320c575050565b60008155600101613201565b9190601f811161322757505050565b612d18926000526020600020906020601f840160051c83019310613253575b601f0160051c0190613201565b9091508190613246565b60ff60065460a01c1661326c57565b60405163d93c066560e01b8152600490fd5b60026007541461328f576002600755565b604051633ee5aeb560e01b8152600490fd5b156132a857565b60405162461bcd60e51b81526020600482015260156024820152742737ba103a343290383937b532b1ba1037bbb732b960591b6044820152606490fd5b156132ec57565b60405162461bcd60e51b8152602060048201526016602482015275141c9bda9958dd08191bd95cc81b9bdd08195e1a5cdd60521b6044820152606490fd5b919082039182116131eb57565b60009291815461334681612ca0565b9260019180831690811561339f5750600114613363575b50505050565b90919293945060005260209081600020906000915b85831061338e575050505001903880808061335d565b805485840152918301918101613378565b60ff191684525050508115159091020191503880808061335d565b604051906133c782612a2c565b8161028060609182815282602082015282604082015282808201528260808201528260a08201528260c082015260008060e08301528361010083015280610120830152836101408301528061016083015280610180830152806101a0830152836101c0830152836101e08301528361020083015280610220830152806102408301526102608201520152565b919082018092116131eb5756fea2646970667358221220686ffbc92820a5ee7b21dd8a8d1a9e521f704be49d5847298f8af438caef148364736f6c63430008140033","opcodes":"PUSH1 0x80 CALLVALUE PUSH3 0x38E JUMPI PUSH1 0x1 PUSH1 0x1 PUSH1 0x40 SHL SUB SWAP1 PUSH1 0x40 SWAP1 DUP1 DUP3 ADD DUP4 DUP2 GT DUP3 DUP3 LT OR PUSH3 0x378 JUMPI DUP3 MSTORE PUSH1 0x16 DUP2 MSTORE PUSH1 0x20 SWAP2 PUSH32 0x436172626F6E2043726564697420526567697374727900000000000000000000 DUP4 DUP4 ADD MSTORE DUP1 MLOAD SWAP4 DUP2 DUP6 ADD DUP6 DUP2 LT DUP3 DUP3 GT OR PUSH3 0x378 JUMPI DUP3 MSTORE PUSH1 0x3 DUP6 MSTORE PUSH3 0x21A1A9 PUSH1 0xE9 SHL DUP5 DUP7 ADD MSTORE DUP3 MLOAD DUP2 DUP2 GT PUSH3 0x378 JUMPI PUSH1 0x0 SWAP5 DUP6 SLOAD SWAP2 PUSH1 0x1 SWAP6 DUP7 DUP5 DUP2 SHR SWAP5 AND DUP1 ISZERO PUSH3 0x36D JUMPI JUMPDEST DUP4 DUP6 LT EQ PUSH3 0x359 JUMPI DUP2 SWAP1 PUSH1 0x1F SWAP5 DUP6 DUP2 GT PUSH3 0x306 JUMPI JUMPDEST POP DUP4 SWAP1 DUP6 DUP4 GT PUSH1 0x1 EQ PUSH3 0x2A2 JUMPI DUP10 SWAP3 PUSH3 0x296 JUMPI JUMPDEST POP POP PUSH1 0x0 NOT PUSH1 0x3 DUP4 SWAP1 SHL SHR NOT AND SWAP1 DUP7 SHL OR DUP7 SSTORE JUMPDEST DUP7 MLOAD SWAP3 DUP4 GT PUSH3 0x282 JUMPI DUP5 SLOAD DUP6 DUP2 DUP2 SHR SWAP2 AND DUP1 ISZERO PUSH3 0x277 JUMPI JUMPDEST DUP3 DUP3 LT EQ PUSH3 0x263 JUMPI DUP3 DUP2 GT PUSH3 0x21B JUMPI JUMPDEST POP DUP1 SWAP2 DUP4 GT PUSH1 0x1 EQ PUSH3 0x1B2 JUMPI POP DUP5 SWAP6 DUP3 SWAP4 SWAP5 SWAP6 SWAP3 PUSH3 0x1A6 JUMPI JUMPDEST POP POP PUSH1 0x0 NOT PUSH1 0x3 DUP4 SWAP1 SHL SHR NOT AND SWAP1 DUP4 SHL OR DUP3 SSTORE JUMPDEST CALLER ISZERO PUSH3 0x18F JUMPI PUSH1 0x6 DUP1 SLOAD CALLER PUSH1 0x1 PUSH1 0x1 PUSH1 0xA0 SHL SUB NOT DUP3 AND DUP2 OR SWAP1 SWAP3 SSTORE SWAP2 MLOAD SWAP4 SWAP1 SWAP2 PUSH1 0x1 PUSH1 0x1 PUSH1 0xA0 SHL SUB AND SWAP1 PUSH32 0x8BE0079C531659141344CD1FD0A4F28419497F9722A3DAAFE3B4186F6B6457E0 SWAP1 DUP1 LOG3 PUSH1 0x7 SSTORE PUSH2 0x3496 SWAP1 DUP2 PUSH3 0x394 DUP3 CODECOPY RETURN JUMPDEST MLOAD PUSH4 0x1E4FBDF7 PUSH1 0xE0 SHL DUP2 MSTORE PUSH1 0x4 DUP2 ADD DUP4 SWAP1 MSTORE PUSH1 0x24 SWAP1 REVERT JUMPDEST ADD MLOAD SWAP1 POP CODESIZE DUP1 PUSH3 0x11C JUMP JUMPDEST SWAP1 PUSH1 0x1F NOT DUP4 AND SWAP7 DUP6 DUP8 MSTORE DUP3 DUP8 KECCAK256 SWAP3 DUP8 SWAP1 JUMPDEST DUP10 DUP3 LT PUSH3 0x203 JUMPI POP POP DUP4 DUP7 SWAP8 SWAP9 SWAP7 SWAP6 SWAP7 LT PUSH3 0x1E9 JUMPI JUMPDEST POP POP POP DUP2 SHL ADD DUP3 SSTORE PUSH3 0x130 JUMP JUMPDEST ADD MLOAD PUSH1 0x0 NOT PUSH1 0xF8 DUP5 PUSH1 0x3 SHL AND SHR NOT AND SWAP1 SSTORE CODESIZE DUP1 DUP1 PUSH3 0x1DB JUMP JUMPDEST DUP1 DUP9 DUP6 SWAP7 DUP3 SWAP5 SWAP7 DUP7 ADD MLOAD DUP2 SSTORE ADD SWAP6 ADD SWAP4 ADD SWAP1 PUSH3 0x1C3 JUMP JUMPDEST DUP6 DUP8 MSTORE DUP2 DUP8 KECCAK256 DUP4 DUP1 DUP7 ADD PUSH1 0x5 SHR DUP3 ADD SWAP3 DUP5 DUP8 LT PUSH3 0x259 JUMPI JUMPDEST ADD PUSH1 0x5 SHR ADD SWAP1 DUP7 SWAP1 JUMPDEST DUP3 DUP2 LT PUSH3 0x24D JUMPI POP POP PUSH3 0x101 JUMP JUMPDEST DUP9 DUP2 SSTORE ADD DUP7 SWAP1 PUSH3 0x23D JUMP JUMPDEST SWAP3 POP DUP2 SWAP3 PUSH3 0x234 JUMP JUMPDEST PUSH4 0x4E487B71 PUSH1 0xE0 SHL DUP8 MSTORE PUSH1 0x22 PUSH1 0x4 MSTORE PUSH1 0x24 DUP8 REVERT JUMPDEST SWAP1 PUSH1 0x7F AND SWAP1 PUSH3 0xEF JUMP JUMPDEST PUSH4 0x4E487B71 PUSH1 0xE0 SHL DUP7 MSTORE PUSH1 0x41 PUSH1 0x4 MSTORE PUSH1 0x24 DUP7 REVERT JUMPDEST ADD MLOAD SWAP1 POP CODESIZE DUP1 PUSH3 0xC1 JUMP JUMPDEST DUP10 DUP1 MSTORE DUP5 DUP11 KECCAK256 DUP10 SWAP5 POP SWAP2 SWAP1 PUSH1 0x1F NOT DUP5 AND DUP12 JUMPDEST DUP8 DUP3 DUP3 LT PUSH3 0x2EF JUMPI POP POP DUP5 GT PUSH3 0x2D5 JUMPI JUMPDEST POP POP POP DUP2 SHL ADD DUP7 SSTORE PUSH3 0xD5 JUMP JUMPDEST ADD MLOAD PUSH1 0x0 NOT PUSH1 0xF8 DUP5 PUSH1 0x3 SHL AND SHR NOT AND SWAP1 SSTORE CODESIZE DUP1 DUP1 PUSH3 0x2C7 JUMP JUMPDEST DUP4 DUP6 ADD MLOAD DUP7 SSTORE DUP13 SWAP8 SWAP1 SWAP6 ADD SWAP5 SWAP4 DUP5 ADD SWAP4 ADD PUSH3 0x2B4 JUMP JUMPDEST SWAP1 SWAP2 POP DUP9 DUP1 MSTORE DUP4 DUP10 KECCAK256 DUP6 DUP1 DUP6 ADD PUSH1 0x5 SHR DUP3 ADD SWAP3 DUP7 DUP7 LT PUSH3 0x34F JUMPI JUMPDEST SWAP2 DUP11 SWAP2 DUP7 SWAP6 SWAP5 SWAP4 ADD PUSH1 0x5 SHR ADD SWAP2 JUMPDEST DUP3 DUP2 LT PUSH3 0x340 JUMPI POP POP PUSH3 0xAB JUMP JUMPDEST DUP12 DUP2 SSTORE DUP6 SWAP5 POP DUP11 SWAP2 ADD PUSH3 0x330 JUMP JUMPDEST SWAP3 POP DUP2 SWAP3 PUSH3 0x322 JUMP JUMPDEST PUSH4 0x4E487B71 PUSH1 0xE0 SHL DUP9 MSTORE PUSH1 0x22 PUSH1 0x4 MSTORE PUSH1 0x24 DUP9 REVERT JUMPDEST SWAP4 PUSH1 0x7F AND SWAP4 PUSH3 0x94 JUMP JUMPDEST PUSH4 0x4E487B71 PUSH1 0xE0 SHL PUSH1 0x0 MSTORE PUSH1 0x41 PUSH1 0x4 MSTORE PUSH1 0x24 PUSH1 0x0 REVERT JUMPDEST PUSH1 0x0 DUP1 REVERT INVALID PUSH2 0x180 DUP1 PUSH1 0x40 MSTORE PUSH1 0x4 CALLDATASIZE LT ISZERO PUSH2 0x14 JUMPI PUSH1 0x0 DUP1 REVERT JUMPDEST PUSH1 0x0 CALLDATALOAD PUSH1 0xE0 SHR SWAP1 DUP2 PUSH4 0x1FFC9A7 EQ PUSH2 0x294D JUMPI POP DUP1 PUSH4 0x6FDDE03 EQ PUSH2 0x28AA JUMPI DUP1 PUSH4 0x81812FC EQ PUSH2 0x286C JUMPI DUP1 PUSH4 0x95EA7B3 EQ PUSH2 0x2785 JUMPI DUP1 PUSH4 0x1016E36D EQ PUSH2 0x26A1 JUMPI DUP1 PUSH4 0x107046BD EQ PUSH2 0x2410 JUMPI DUP1 PUSH4 0x1D8A7F93 EQ PUSH2 0x23C7 JUMPI DUP1 PUSH4 0x23B872DD EQ PUSH2 0x23B0 JUMPI DUP1 PUSH4 0x3F4BA83A EQ PUSH2 0x233E JUMPI DUP1 PUSH4 0x42842E0E EQ PUSH2 0x2310 JUMPI DUP1 PUSH4 0x5C975ABB EQ PUSH2 0x22EA JUMPI DUP1 PUSH4 0x6352211E EQ PUSH2 0x22BA JUMPI DUP1 PUSH4 0x70A08231 EQ PUSH2 0x2261 JUMPI DUP1 PUSH4 0x715018A6 EQ PUSH2 0x2204 JUMPI DUP1 PUSH4 0x77A91458 EQ PUSH2 0x21A6 JUMPI DUP1 PUSH4 0x811B6BAF EQ PUSH2 0x2133 JUMPI DUP1 PUSH4 0x812739A2 EQ PUSH2 0x2115 JUMPI DUP1 PUSH4 0x8456CB59 EQ PUSH2 0x20B3 JUMPI DUP1 PUSH4 0x8DA5CB5B EQ PUSH2 0x208A JUMPI DUP1 PUSH4 0x92598A31 EQ PUSH2 0x1F79 JUMPI DUP1 PUSH4 0x95D89B41 EQ PUSH2 0x1E9A JUMPI DUP1 PUSH4 0xA22CB465 EQ PUSH2 0x1DF5 JUMPI DUP1 PUSH4 0xB88D4FDE EQ PUSH2 0x1D88 JUMPI DUP1 PUSH4 0xBB0E9DF6 EQ PUSH2 0x1B8A JUMPI DUP1 PUSH4 0xC081EC96 EQ PUSH2 0x17F3 JUMPI DUP1 PUSH4 0xC3147CAF EQ PUSH2 0x1772 JUMPI DUP1 PUSH4 0xC87B56DD EQ PUSH2 0x16B5 JUMPI DUP1 PUSH4 0xCA2D2D8C EQ PUSH2 0x431 JUMPI DUP1 PUSH4 0xE985E9C5 EQ PUSH2 0x3DB JUMPI DUP1 PUSH4 0xEF205C1A EQ PUSH2 0x3AA JUMPI DUP1 PUSH4 0xF0F3F2C8 EQ PUSH2 0x213 JUMPI PUSH4 0xF2FDE38B EQ PUSH2 0x180 JUMPI PUSH1 0x0 DUP1 REVERT JUMPDEST CALLVALUE PUSH2 0x20E JUMPI PUSH1 0x20 CALLDATASIZE PUSH1 0x3 NOT ADD SLT PUSH2 0x20E JUMPI PUSH2 0x199 PUSH2 0x2A00 JUMP JUMPDEST PUSH2 0x1A1 PUSH2 0x2DDB JUMP JUMPDEST PUSH1 0x1 PUSH1 0x1 PUSH1 0xA0 SHL SUB SWAP1 DUP2 AND SWAP1 DUP2 ISZERO PUSH2 0x1F5 JUMPI PUSH1 0x6 SLOAD DUP3 PUSH12 0xFFFFFFFFFFFFFFFFFFFFFFFF PUSH1 0xA0 SHL DUP3 AND OR PUSH1 0x6 SSTORE AND PUSH32 0x8BE0079C531659141344CD1FD0A4F28419497F9722A3DAAFE3B4186F6B6457E0 PUSH1 0x0 DUP1 LOG3 STOP JUMPDEST PUSH1 0x40 MLOAD PUSH4 0x1E4FBDF7 PUSH1 0xE0 SHL DUP2 MSTORE PUSH1 0x0 PUSH1 0x4 DUP3 ADD MSTORE PUSH1 0x24 SWAP1 REVERT JUMPDEST PUSH1 0x0 DUP1 REVERT JUMPDEST CALLVALUE PUSH2 0x20E JUMPI PUSH1 0x20 CALLDATASIZE PUSH1 0x3 NOT ADD SLT PUSH2 0x20E JUMPI PUSH1 0x4 CALLDATALOAD PUSH2 0x22F PUSH2 0x33BA JUMP JUMPDEST POP PUSH2 0x23D PUSH1 0x8 SLOAD DUP3 LT PUSH2 0x32E5 JUMP JUMPDEST PUSH1 0x0 MSTORE PUSH1 0x9 PUSH1 0x20 MSTORE PUSH2 0x3A6 PUSH1 0x40 PUSH1 0x0 KECCAK256 PUSH2 0x394 PUSH1 0x13 PUSH1 0x40 MLOAD SWAP3 PUSH2 0x25F DUP5 PUSH2 0x2A2C JUMP JUMPDEST PUSH2 0x268 DUP2 PUSH2 0x2CDA JUMP JUMPDEST DUP5 MSTORE PUSH2 0x276 PUSH1 0x1 DUP3 ADD PUSH2 0x2CDA JUMP JUMPDEST PUSH1 0x20 DUP6 ADD MSTORE PUSH2 0x287 PUSH1 0x2 DUP3 ADD PUSH2 0x2CDA JUMP JUMPDEST PUSH1 0x40 DUP6 ADD MSTORE PUSH2 0x298 PUSH1 0x3 DUP3 ADD PUSH2 0x2CDA JUMP JUMPDEST PUSH1 0x60 DUP6 ADD MSTORE PUSH2 0x2A9 PUSH1 0x4 DUP3 ADD PUSH2 0x2CDA JUMP JUMPDEST PUSH1 0x80 DUP6 ADD MSTORE PUSH2 0x2BA PUSH1 0x5 DUP3 ADD PUSH2 0x2CDA JUMP JUMPDEST PUSH1 0xA0 DUP6 ADD MSTORE PUSH2 0x2CB PUSH1 0x6 DUP3 ADD PUSH2 0x2CDA JUMP JUMPDEST PUSH1 0xC0 DUP6 ADD MSTORE PUSH1 0x7 DUP2 ADD SLOAD PUSH1 0xE0 DUP6 ADD MSTORE PUSH2 0x2E6 PUSH1 0x8 DUP3 ADD PUSH2 0x2CDA JUMP JUMPDEST PUSH2 0x100 DUP6 ADD MSTORE PUSH1 0x9 DUP2 ADD SLOAD PUSH2 0x120 DUP6 ADD MSTORE PUSH2 0x303 PUSH1 0xA DUP3 ADD PUSH2 0x2CDA JUMP JUMPDEST PUSH2 0x140 DUP6 ADD MSTORE PUSH1 0xB DUP2 ADD SLOAD PUSH2 0x160 DUP6 ADD MSTORE PUSH1 0xC DUP2 ADD SLOAD PUSH2 0x180 DUP6 ADD MSTORE PUSH1 0xD DUP2 ADD SLOAD PUSH2 0x1A0 DUP6 ADD MSTORE PUSH2 0x336 PUSH1 0xE DUP3 ADD PUSH2 0x2CDA JUMP JUMPDEST PUSH2 0x1C0 DUP6 ADD MSTORE PUSH2 0x348 PUSH1 0xF DUP3 ADD PUSH2 0x2CDA JUMP JUMPDEST PUSH2 0x1E0 DUP6 ADD MSTORE PUSH2 0x35A PUSH1 0x10 DUP3 ADD PUSH2 0x2CDA JUMP JUMPDEST PUSH2 0x200 DUP6 ADD MSTORE PUSH1 0x11 DUP2 ADD SLOAD PUSH1 0x1 PUSH1 0x1 PUSH1 0xA0 SHL SUB DUP2 AND PUSH2 0x220 DUP7 ADD MSTORE PUSH1 0xA0 SHR PUSH1 0xFF AND ISZERO ISZERO PUSH2 0x240 DUP6 ADD MSTORE PUSH1 0x12 DUP2 ADD SLOAD PUSH2 0x260 DUP6 ADD MSTORE ADD PUSH2 0x2CDA JUMP JUMPDEST PUSH2 0x280 DUP3 ADD MSTORE PUSH1 0x40 MLOAD SWAP2 DUP3 SWAP2 DUP3 PUSH2 0x2AF4 JUMP JUMPDEST SUB SWAP1 RETURN JUMPDEST CALLVALUE PUSH2 0x20E JUMPI PUSH1 0x20 CALLDATASIZE PUSH1 0x3 NOT ADD SLT PUSH2 0x20E JUMPI PUSH1 0x4 CALLDATALOAD PUSH1 0x0 MSTORE PUSH1 0xB PUSH1 0x20 MSTORE PUSH1 0x20 PUSH1 0xFF PUSH1 0x40 PUSH1 0x0 KECCAK256 SLOAD AND PUSH1 0x40 MLOAD SWAP1 ISZERO ISZERO DUP2 MSTORE RETURN JUMPDEST CALLVALUE PUSH2 0x20E JUMPI PUSH1 0x40 CALLDATASIZE PUSH1 0x3 NOT ADD SLT PUSH2 0x20E JUMPI PUSH2 0x3F4 PUSH2 0x2A00 JUMP JUMPDEST PUSH2 0x3FC PUSH2 0x2A16 JUMP JUMPDEST SWAP1 PUSH1 0x1 DUP1 PUSH1 0xA0 SHL SUB DUP1 SWAP2 AND PUSH1 0x0 MSTORE PUSH1 0x5 PUSH1 0x20 MSTORE PUSH1 0x40 PUSH1 0x0 KECCAK256 SWAP2 AND PUSH1 0x0 MSTORE PUSH1 0x20 MSTORE PUSH1 0x20 PUSH1 0xFF PUSH1 0x40 PUSH1 0x0 KECCAK256 SLOAD AND PUSH1 0x40 MLOAD SWAP1 ISZERO ISZERO DUP2 MSTORE RETURN JUMPDEST CALLVALUE PUSH2 0x20E JUMPI PUSH1 0x3 NOT PUSH1 0x40 CALLDATASIZE DUP3 ADD SLT PUSH2 0x20E JUMPI PUSH1 0x1 PUSH1 0x1 PUSH1 0x40 SHL SUB PUSH1 0x4 CALLDATALOAD GT PUSH2 0x20E JUMPI PUSH2 0x2A0 SWAP1 PUSH1 0x4 CALLDATALOAD CALLDATASIZE SUB ADD SLT PUSH2 0x20E JUMPI PUSH1 0x40 MLOAD PUSH2 0x46E DUP2 PUSH2 0x2A2C JUMP JUMPDEST PUSH1 0x4 CALLDATALOAD PUSH1 0x4 ADD CALLDATALOAD PUSH1 0x1 PUSH1 0x1 PUSH1 0x40 SHL SUB DUP2 GT PUSH2 0x20E JUMPI PUSH2 0x494 SWAP1 PUSH1 0x4 CALLDATASIZE SWAP2 DUP2 CALLDATALOAD ADD ADD PUSH2 0x2AD6 JUMP JUMPDEST DUP2 MSTORE PUSH1 0x24 PUSH1 0x4 CALLDATALOAD ADD CALLDATALOAD PUSH1 0x1 PUSH1 0x1 PUSH1 0x40 SHL SUB DUP2 GT PUSH2 0x20E JUMPI PUSH2 0x4BC SWAP1 PUSH1 0x4 CALLDATASIZE SWAP2 DUP2 CALLDATALOAD ADD ADD PUSH2 0x2AD6 JUMP JUMPDEST PUSH1 0x20 DUP3 ADD MSTORE PUSH1 0x44 PUSH1 0x4 CALLDATALOAD ADD CALLDATALOAD PUSH1 0x1 PUSH1 0x1 PUSH1 0x40 SHL SUB DUP2 GT PUSH2 0x20E JUMPI PUSH2 0x4E7 SWAP1 PUSH1 0x4 CALLDATASIZE SWAP2 DUP2 CALLDATALOAD ADD ADD PUSH2 0x2AD6 JUMP JUMPDEST PUSH1 0x40 DUP3 ADD MSTORE PUSH1 0x64 PUSH1 0x4 CALLDATALOAD ADD CALLDATALOAD PUSH1 0x1 PUSH1 0x1 PUSH1 0x40 SHL SUB DUP2 GT PUSH2 0x20E JUMPI PUSH2 0x512 SWAP1 PUSH1 0x4 CALLDATASIZE SWAP2 DUP2 CALLDATALOAD ADD ADD PUSH2 0x2AD6 JUMP JUMPDEST PUSH1 0x60 DUP3 ADD MSTORE PUSH1 0x84 PUSH1 0x4 CALLDATALOAD ADD CALLDATALOAD PUSH1 0x1 PUSH1 0x1 PUSH1 0x40 SHL SUB DUP2 GT PUSH2 0x20E JUMPI PUSH2 0x53D SWAP1 PUSH1 0x4 CALLDATASIZE SWAP2 DUP2 CALLDATALOAD ADD ADD PUSH2 0x2AD6 JUMP JUMPDEST PUSH1 0x80 DUP3 ADD MSTORE PUSH1 0xA4 PUSH1 0x4 CALLDATALOAD ADD CALLDATALOAD PUSH1 0x1 PUSH1 0x1 PUSH1 0x40 SHL SUB DUP2 GT PUSH2 0x20E JUMPI PUSH2 0x568 SWAP1 PUSH1 0x4 CALLDATASIZE SWAP2 DUP2 CALLDATALOAD ADD ADD PUSH2 0x2AD6 JUMP JUMPDEST PUSH1 0xA0 DUP3 ADD MSTORE PUSH1 0x1 PUSH1 0x1 PUSH1 0x40 SHL SUB PUSH1 0xC4 PUSH1 0x4 CALLDATALOAD ADD CALLDATALOAD GT PUSH2 0x20E JUMPI PUSH2 0x595 CALLDATASIZE PUSH1 0x4 DUP1 CALLDATALOAD PUSH1 0xC4 DUP2 ADD CALLDATALOAD ADD ADD PUSH2 0x2AD6 JUMP JUMPDEST PUSH1 0xC0 DUP3 ADD MSTORE PUSH1 0xE4 PUSH1 0x4 CALLDATALOAD ADD CALLDATALOAD PUSH1 0xE0 DUP3 ADD MSTORE PUSH1 0x1 PUSH1 0x1 PUSH1 0x40 SHL SUB PUSH2 0x104 PUSH1 0x4 CALLDATALOAD ADD CALLDATALOAD GT PUSH2 0x20E JUMPI PUSH2 0x5D0 CALLDATASIZE PUSH1 0x4 DUP1 CALLDATALOAD PUSH2 0x104 DUP2 ADD CALLDATALOAD ADD ADD PUSH2 0x2AD6 JUMP JUMPDEST PUSH2 0x100 DUP3 ADD MSTORE PUSH2 0x124 PUSH1 0x4 CALLDATALOAD ADD CALLDATALOAD PUSH2 0x120 DUP3 ADD MSTORE PUSH1 0x1 PUSH1 0x1 PUSH1 0x40 SHL SUB PUSH2 0x144 PUSH1 0x4 CALLDATALOAD ADD CALLDATALOAD GT PUSH2 0x20E JUMPI PUSH2 0x60E CALLDATASIZE PUSH1 0x4 DUP1 CALLDATALOAD PUSH2 0x144 DUP2 ADD CALLDATALOAD ADD ADD PUSH2 0x2AD6 JUMP JUMPDEST PUSH2 0x140 DUP3 ADD MSTORE PUSH1 0x4 CALLDATALOAD PUSH2 0x164 DUP2 ADD CALLDATALOAD PUSH2 0x160 DUP4 ADD MSTORE PUSH2 0x184 DUP2 ADD CALLDATALOAD PUSH2 0x180 DUP4 ADD MSTORE PUSH2 0x1A4 DUP2 ADD CALLDATALOAD PUSH2 0x1A0 DUP4 ADD MSTORE PUSH1 0x1 PUSH1 0x1 PUSH1 0x40 SHL SUB PUSH2 0x1C4 SWAP1 SWAP2 ADD CALLDATALOAD GT PUSH2 0x20E JUMPI PUSH2 0x664 CALLDATASIZE PUSH1 0x4 DUP1 CALLDATALOAD PUSH2 0x1C4 DUP2 ADD CALLDATALOAD ADD ADD PUSH2 0x2AD6 JUMP JUMPDEST PUSH2 0x1C0 DUP3 ADD MSTORE PUSH1 0x1 PUSH1 0x1 PUSH1 0x40 SHL SUB PUSH2 0x1E4 PUSH1 0x4 CALLDATALOAD ADD CALLDATALOAD GT PUSH2 0x20E JUMPI PUSH2 0x694 CALLDATASIZE PUSH1 0x4 DUP1 CALLDATALOAD PUSH2 0x1E4 DUP2 ADD CALLDATALOAD ADD ADD PUSH2 0x2AD6 JUMP JUMPDEST PUSH2 0x1E0 DUP3 ADD MSTORE PUSH1 0x1 PUSH1 0x1 PUSH1 0x40 SHL SUB PUSH2 0x204 PUSH1 0x4 CALLDATALOAD ADD CALLDATALOAD GT PUSH2 0x20E JUMPI PUSH2 0x6C4 CALLDATASIZE PUSH1 0x4 DUP1 CALLDATALOAD PUSH2 0x204 DUP2 ADD CALLDATALOAD ADD ADD PUSH2 0x2AD6 JUMP JUMPDEST PUSH2 0x200 DUP3 ADD MSTORE PUSH1 0x4 CALLDATALOAD PUSH2 0x224 ADD CALLDATALOAD PUSH1 0x1 PUSH1 0x1 PUSH1 0xA0 SHL SUB DUP2 AND SWAP1 SUB PUSH2 0x20E JUMPI PUSH1 0x4 CALLDATALOAD PUSH2 0x224 DUP2 ADD CALLDATALOAD PUSH2 0x220 DUP4 ADD MSTORE PUSH2 0x244 ADD CALLDATALOAD DUP1 ISZERO ISZERO SWAP1 SUB PUSH2 0x20E JUMPI PUSH2 0x244 PUSH1 0x4 CALLDATALOAD ADD CALLDATALOAD PUSH2 0x240 DUP3 ADD MSTORE PUSH2 0x264 PUSH1 0x4 CALLDATALOAD ADD CALLDATALOAD PUSH2 0x260 DUP3 ADD MSTORE PUSH1 0x1 PUSH1 0x1 PUSH1 0x40 SHL SUB PUSH2 0x284 PUSH1 0x4 CALLDATALOAD ADD CALLDATALOAD GT PUSH2 0x20E JUMPI PUSH2 0x745 CALLDATASIZE PUSH1 0x4 DUP1 CALLDATALOAD PUSH2 0x284 DUP2 ADD CALLDATALOAD ADD ADD PUSH2 0x2AD6 JUMP JUMPDEST PUSH2 0x280 DUP3 ADD MSTORE PUSH1 0x1 PUSH1 0x1 PUSH1 0x40 SHL SUB PUSH1 0x24 CALLDATALOAD GT PUSH2 0x20E JUMPI PUSH2 0x76A CALLDATASIZE PUSH1 0x24 CALLDATALOAD PUSH1 0x4 ADD PUSH2 0x2AD6 JUMP JUMPDEST PUSH2 0x772 PUSH2 0x325D JUMP JUMPDEST PUSH2 0x77A PUSH2 0x327E JUMP JUMPDEST DUP2 MLOAD MLOAD ISZERO PUSH2 0x1670 JUMPI PUSH2 0x78C DUP3 MLOAD PUSH2 0x2D80 JUMP JUMPDEST SLOAD PUSH2 0x162B JUMPI PUSH2 0x1A0 DUP3 ADD MLOAD ISZERO PUSH2 0x15D8 JUMPI PUSH1 0xE0 DUP3 ADD MLOAD ISZERO PUSH2 0x1593 JUMPI PUSH1 0x8 SLOAD SWAP1 PUSH2 0x7B3 DUP3 PUSH2 0x31DC JUMP JUMPDEST PUSH1 0x8 SSTORE CALLER PUSH2 0x220 DUP5 ADD MSTORE PUSH2 0x200 DUP4 ADD MSTORE PUSH1 0x0 PUSH2 0x240 DUP4 ADD MSTORE PUSH1 0x0 PUSH2 0x260 DUP4 ADD MSTORE PUSH1 0x40 MLOAD PUSH2 0x7DF DUP2 PUSH2 0x2A48 JUMP JUMPDEST PUSH1 0x0 DUP2 MSTORE PUSH2 0x280 DUP4 ADD MSTORE DUP1 PUSH1 0x0 MSTORE PUSH1 0x9 PUSH1 0x20 MSTORE PUSH1 0x40 PUSH1 0x0 KECCAK256 DUP3 MLOAD SWAP3 DUP4 MLOAD PUSH1 0x1 PUSH1 0x1 PUSH1 0x40 SHL SUB DUP2 GT PUSH2 0xFCB JUMPI PUSH2 0x81E DUP2 PUSH2 0x818 DUP6 SLOAD PUSH2 0x2CA0 JUMP JUMPDEST DUP6 PUSH2 0x3218 JUMP JUMPDEST PUSH1 0x20 PUSH1 0x1F DUP3 GT PUSH1 0x1 EQ PUSH2 0x152A JUMPI DUP2 SWAP3 SWAP4 SWAP5 SWAP6 PUSH1 0x0 SWAP3 PUSH2 0x151F JUMPI JUMPDEST POP POP DUP2 PUSH1 0x1 SHL SWAP2 PUSH1 0x0 NOT SWAP1 PUSH1 0x3 SHL SHR NOT AND OR DUP3 SSTORE JUMPDEST PUSH1 0x20 DUP2 ADD MLOAD SWAP3 DUP4 MLOAD PUSH1 0x1 PUSH1 0x1 PUSH1 0x40 SHL SUB DUP2 GT PUSH2 0xFCB JUMPI PUSH2 0x87D DUP2 PUSH2 0x874 PUSH1 0x1 DUP8 ADD SLOAD PUSH2 0x2CA0 JUMP JUMPDEST PUSH1 0x1 DUP8 ADD PUSH2 0x3218 JUMP JUMPDEST PUSH1 0x20 PUSH1 0x1F DUP3 GT PUSH1 0x1 EQ PUSH2 0x14B0 JUMPI DUP2 SWAP3 SWAP4 SWAP5 SWAP6 PUSH1 0x0 SWAP3 PUSH2 0x14A5 JUMPI JUMPDEST POP POP DUP2 PUSH1 0x1 SHL SWAP2 PUSH1 0x0 NOT SWAP1 PUSH1 0x3 SHL SHR NOT AND OR PUSH1 0x1 DUP5 ADD SSTORE JUMPDEST PUSH1 0x40 DUP3 ADD MLOAD SWAP3 DUP4 MLOAD PUSH1 0x1 PUSH1 0x1 PUSH1 0x40 SHL SUB DUP2 GT PUSH2 0xFCB JUMPI PUSH2 0x8DF DUP2 PUSH2 0x8D6 PUSH1 0x2 DUP6 ADD SLOAD PUSH2 0x2CA0 JUMP JUMPDEST PUSH1 0x2 DUP6 ADD PUSH2 0x3218 JUMP JUMPDEST PUSH1 0x20 PUSH1 0x1F DUP3 GT PUSH1 0x1 EQ PUSH2 0x1436 JUMPI DUP2 SWAP3 SWAP4 SWAP5 SWAP6 PUSH1 0x0 SWAP3 PUSH2 0x142B JUMPI JUMPDEST POP POP DUP2 PUSH1 0x1 SHL SWAP2 PUSH1 0x0 NOT SWAP1 PUSH1 0x3 SHL SHR NOT AND OR PUSH1 0x2 DUP3 ADD SSTORE JUMPDEST PUSH1 0x60 DUP4 ADD MLOAD SWAP3 DUP4 MLOAD PUSH1 0x1 PUSH1 0x1 PUSH1 0x40 SHL SUB DUP2 GT PUSH2 0xFCB JUMPI PUSH2 0x941 DUP2 PUSH2 0x938 PUSH1 0x3 DUP7 ADD SLOAD PUSH2 0x2CA0 JUMP JUMPDEST PUSH1 0x3 DUP7 ADD PUSH2 0x3218 JUMP JUMPDEST PUSH1 0x20 PUSH1 0x1F DUP3 GT PUSH1 0x1 EQ PUSH2 0x13BC JUMPI DUP2 SWAP3 SWAP4 SWAP5 SWAP6 PUSH1 0x0 SWAP3 PUSH2 0x13B1 JUMPI JUMPDEST POP POP DUP2 PUSH1 0x1 SHL SWAP2 PUSH1 0x0 NOT SWAP1 PUSH1 0x3 SHL SHR NOT AND OR PUSH1 0x3 DUP4 ADD SSTORE JUMPDEST PUSH1 0x80 DUP2 ADD MLOAD SWAP3 DUP4 MLOAD PUSH1 0x1 PUSH1 0x1 PUSH1 0x40 SHL SUB DUP2 GT PUSH2 0xFCB JUMPI PUSH2 0x9A3 DUP2 PUSH2 0x99A PUSH1 0x4 DUP8 ADD SLOAD PUSH2 0x2CA0 JUMP JUMPDEST PUSH1 0x4 DUP8 ADD PUSH2 0x3218 JUMP JUMPDEST PUSH1 0x20 PUSH1 0x1F DUP3 GT PUSH1 0x1 EQ PUSH2 0x1342 JUMPI DUP2 SWAP3 SWAP4 SWAP5 SWAP6 PUSH1 0x0 SWAP3 PUSH2 0x1337 JUMPI JUMPDEST POP POP DUP2 PUSH1 0x1 SHL SWAP2 PUSH1 0x0 NOT SWAP1 PUSH1 0x3 SHL SHR NOT AND OR PUSH1 0x4 DUP5 ADD SSTORE JUMPDEST PUSH1 0xA0 DUP3 ADD MLOAD SWAP3 DUP4 MLOAD PUSH1 0x1 PUSH1 0x1 PUSH1 0x40 SHL SUB DUP2 GT PUSH2 0xFCB JUMPI PUSH2 0xA05 DUP2 PUSH2 0x9FC PUSH1 0x5 DUP6 ADD SLOAD PUSH2 0x2CA0 JUMP JUMPDEST PUSH1 0x5 DUP6 ADD PUSH2 0x3218 JUMP JUMPDEST PUSH1 0x20 PUSH1 0x1F DUP3 GT PUSH1 0x1 EQ PUSH2 0x12C8 JUMPI DUP2 SWAP3 SWAP4 SWAP5 SWAP6 PUSH1 0x0 SWAP3 PUSH2 0x12BD JUMPI JUMPDEST POP POP DUP2 PUSH1 0x1 SHL SWAP2 PUSH1 0x0 NOT SWAP1 PUSH1 0x3 SHL SHR NOT AND OR PUSH1 0x5 DUP3 ADD SSTORE JUMPDEST PUSH1 0xC0 DUP4 ADD MLOAD SWAP3 DUP4 MLOAD PUSH1 0x1 PUSH1 0x1 PUSH1 0x40 SHL SUB DUP2 GT PUSH2 0xFCB JUMPI PUSH2 0xA67 DUP2 PUSH2 0xA5E PUSH1 0x6 DUP7 ADD SLOAD PUSH2 0x2CA0 JUMP JUMPDEST PUSH1 0x6 DUP7 ADD PUSH2 0x3218 JUMP JUMPDEST PUSH1 0x20 PUSH1 0x1F DUP3 GT PUSH1 0x1 EQ PUSH2 0x124E JUMPI DUP2 SWAP3 SWAP4 SWAP5 SWAP6 PUSH1 0x0 SWAP3 PUSH2 0x1243 JUMPI JUMPDEST POP POP DUP2 PUSH1 0x1 SHL SWAP2 PUSH1 0x0 NOT SWAP1 PUSH1 0x3 SHL SHR NOT AND OR PUSH1 0x6 DUP4 ADD SSTORE JUMPDEST PUSH1 0xE0 DUP2 ADD MLOAD PUSH1 0x7 DUP4 ADD SSTORE PUSH2 0x100 DUP2 ADD MLOAD SWAP3 DUP4 MLOAD PUSH1 0x1 PUSH1 0x1 PUSH1 0x40 SHL SUB DUP2 GT PUSH2 0xFCB JUMPI PUSH2 0xAD4 DUP2 PUSH2 0xACB PUSH1 0x8 DUP8 ADD SLOAD PUSH2 0x2CA0 JUMP JUMPDEST PUSH1 0x8 DUP8 ADD PUSH2 0x3218 JUMP JUMPDEST PUSH1 0x20 PUSH1 0x1F DUP3 GT PUSH1 0x1 EQ PUSH2 0x11D4 JUMPI DUP2 SWAP3 SWAP4 SWAP5 SWAP6 PUSH1 0x0 SWAP3 PUSH2 0x11C9 JUMPI JUMPDEST POP POP DUP2 PUSH1 0x1 SHL SWAP2 PUSH1 0x0 NOT SWAP1 PUSH1 0x3 SHL SHR NOT AND OR PUSH1 0x8 DUP5 ADD SSTORE JUMPDEST PUSH2 0x120 DUP3 ADD MLOAD PUSH1 0x9 DUP5 ADD SSTORE PUSH2 0x140 DUP3 ADD MLOAD SWAP3 DUP4 MLOAD PUSH1 0x1 PUSH1 0x1 PUSH1 0x40 SHL SUB DUP2 GT PUSH2 0xFCB JUMPI PUSH2 0xB42 DUP2 PUSH2 0xB39 PUSH1 0xA DUP6 ADD SLOAD PUSH2 0x2CA0 JUMP JUMPDEST PUSH1 0xA DUP6 ADD PUSH2 0x3218 JUMP JUMPDEST PUSH1 0x20 PUSH1 0x1F DUP3 GT PUSH1 0x1 EQ PUSH2 0x115A JUMPI DUP2 SWAP3 SWAP4 SWAP5 SWAP6 PUSH1 0x0 SWAP3 PUSH2 0x114F JUMPI JUMPDEST POP POP DUP2 PUSH1 0x1 SHL SWAP2 PUSH1 0x0 NOT SWAP1 PUSH1 0x3 SHL SHR NOT AND OR PUSH1 0xA DUP3 ADD SSTORE JUMPDEST PUSH2 0x160 DUP4 ADD MLOAD PUSH1 0xB DUP3 ADD SSTORE PUSH2 0x180 DUP4 ADD MLOAD PUSH1 0xC DUP3 ADD SSTORE PUSH2 0x1A0 DUP4 ADD MLOAD PUSH1 0xD DUP3 ADD SSTORE PUSH2 0x1C0 DUP4 ADD MLOAD SWAP3 DUP4 MLOAD PUSH1 0x1 PUSH1 0x1 PUSH1 0x40 SHL SUB DUP2 GT PUSH2 0xFCB JUMPI PUSH2 0xBC6 DUP2 PUSH2 0xBBD PUSH1 0xE DUP7 ADD SLOAD PUSH2 0x2CA0 JUMP JUMPDEST PUSH1 0xE DUP7 ADD PUSH2 0x3218 JUMP JUMPDEST PUSH1 0x20 PUSH1 0x1F DUP3 GT PUSH1 0x1 EQ PUSH2 0x10E0 JUMPI DUP2 SWAP3 SWAP4 SWAP5 SWAP6 PUSH1 0x0 SWAP3 PUSH2 0x10D5 JUMPI JUMPDEST POP POP DUP2 PUSH1 0x1 SHL SWAP2 PUSH1 0x0 NOT SWAP1 PUSH1 0x3 SHL SHR NOT AND OR PUSH1 0xE DUP4 ADD SSTORE JUMPDEST PUSH2 0x1E0 DUP2 ADD MLOAD SWAP3 DUP4 MLOAD PUSH1 0x1 PUSH1 0x1 PUSH1 0x40 SHL SUB DUP2 GT PUSH2 0xFCB JUMPI PUSH2 0xC29 DUP2 PUSH2 0xC20 PUSH1 0xF DUP8 ADD SLOAD PUSH2 0x2CA0 JUMP JUMPDEST PUSH1 0xF DUP8 ADD PUSH2 0x3218 JUMP JUMPDEST PUSH1 0x20 PUSH1 0x1F DUP3 GT PUSH1 0x1 EQ PUSH2 0x1066 JUMPI DUP2 SWAP3 SWAP4 SWAP5 SWAP6 PUSH1 0x0 SWAP3 PUSH2 0x105B JUMPI JUMPDEST POP POP DUP2 PUSH1 0x1 SHL SWAP2 PUSH1 0x0 NOT SWAP1 PUSH1 0x3 SHL SHR NOT AND OR PUSH1 0xF DUP5 ADD SSTORE JUMPDEST PUSH2 0x200 DUP3 ADD MLOAD SWAP3 DUP4 MLOAD PUSH1 0x1 PUSH1 0x1 PUSH1 0x40 SHL SUB DUP2 GT PUSH2 0xFCB JUMPI PUSH2 0xC8C DUP2 PUSH2 0xC83 PUSH1 0x10 DUP6 ADD SLOAD PUSH2 0x2CA0 JUMP JUMPDEST PUSH1 0x10 DUP6 ADD PUSH2 0x3218 JUMP JUMPDEST PUSH1 0x20 PUSH1 0x1F DUP3 GT PUSH1 0x1 EQ PUSH2 0xFEC JUMPI DUP2 SWAP3 SWAP4 SWAP5 SWAP6 PUSH1 0x0 SWAP3 PUSH2 0xFE1 JUMPI JUMPDEST POP POP DUP2 PUSH1 0x1 SHL SWAP2 PUSH1 0x0 NOT SWAP1 PUSH1 0x3 SHL SHR NOT AND OR PUSH1 0x10 DUP3 ADD SSTORE JUMPDEST PUSH1 0x11 DUP2 ADD PUSH1 0x1 DUP1 PUSH1 0xA0 SHL SUB PUSH2 0x220 DUP6 ADD MLOAD AND DUP2 SLOAD SWAP1 PUSH1 0xFF PUSH1 0xA0 SHL PUSH2 0x240 DUP8 ADD MLOAD ISZERO ISZERO PUSH1 0xA0 SHL AND SWAP2 PUSH11 0xFFFFFFFFFFFFFFFFFFFFFF PUSH1 0xA8 SHL AND OR OR SWAP1 SSTORE PUSH2 0x260 DUP4 ADD MLOAD PUSH1 0x12 DUP3 ADD SSTORE PUSH2 0x280 DUP4 ADD MLOAD DUP1 MLOAD SWAP1 PUSH1 0x1 PUSH1 0x1 PUSH1 0x40 SHL SUB DUP3 GT PUSH2 0xFCB JUMPI PUSH2 0xD35 DUP3 PUSH2 0xD2C PUSH1 0x13 DUP7 ADD SLOAD PUSH2 0x2CA0 JUMP JUMPDEST PUSH1 0x13 DUP7 ADD PUSH2 0x3218 JUMP JUMPDEST PUSH1 0x20 SWAP1 PUSH1 0x1F DUP4 GT PUSH1 0x1 EQ PUSH2 0xF5B JUMPI PUSH1 0x13 SWAP3 SWAP2 PUSH1 0x0 SWAP2 DUP4 PUSH2 0xF50 JUMPI JUMPDEST POP POP DUP2 PUSH1 0x1 SHL SWAP2 PUSH1 0x0 NOT SWAP1 PUSH1 0x3 SHL SHR NOT AND OR SWAP2 ADD SSTORE JUMPDEST DUP1 PUSH2 0xD71 DUP4 MLOAD PUSH2 0x2D80 JUMP JUMPDEST SSTORE PUSH1 0x40 MLOAD PUSH2 0xD7E DUP2 PUSH2 0x2A48 JUMP JUMPDEST PUSH1 0x0 DUP2 MSTORE CALLER ISZERO PUSH2 0xF37 JUMPI PUSH1 0x1 PUSH1 0x1 PUSH1 0xA0 SHL SUB PUSH2 0xD9A DUP4 CALLER PUSH2 0x2F97 JUMP JUMPDEST AND PUSH2 0xF1E JUMPI CALLER EXTCODESIZE PUSH2 0xE07 JUMPI JUMPDEST POP DUP2 PUSH2 0xDC9 PUSH2 0x1A0 PUSH1 0x20 SWAP5 MLOAD SWAP3 ADD MLOAD SWAP2 DUP5 PUSH1 0x40 MLOAD SWAP3 DUP3 DUP5 DUP1 SWAP5 MLOAD SWAP4 DUP5 SWAP3 ADD PUSH2 0x29B8 JUMP JUMPDEST DUP2 ADD SUB SWAP1 KECCAK256 PUSH1 0x40 MLOAD SWAP2 DUP3 MSTORE DUP3 PUSH32 0xE6DD694BFEB45B4D2FE4926C1544B9E5B3D0CF87F38DF59E49A8315CF990784 DUP6 CALLER SWAP5 LOG4 PUSH1 0x1 PUSH1 0x7 SSTORE PUSH1 0x40 MLOAD SWAP1 DUP2 MSTORE RETURN JUMPDEST PUSH1 0x40 MLOAD PUSH1 0x20 DUP2 DUP1 PUSH2 0xE41 PUSH4 0xA85BD01 PUSH1 0xE1 SHL SWAP6 DUP7 DUP4 MSTORE CALLER PUSH1 0x4 DUP5 ADD MSTORE PUSH1 0x0 PUSH1 0x24 DUP5 ADD MSTORE DUP8 PUSH1 0x44 DUP5 ADD MSTORE PUSH1 0x80 PUSH1 0x64 DUP5 ADD MSTORE PUSH1 0x84 DUP4 ADD SWAP1 PUSH2 0x29DB JUMP JUMPDEST SUB DUP2 PUSH1 0x0 CALLER GAS CALL PUSH1 0x0 SWAP2 DUP2 PUSH2 0xED9 JUMPI JUMPDEST POP PUSH2 0xEAB JUMPI RETURNDATASIZE ISZERO PUSH2 0xEA4 JUMPI RETURNDATASIZE PUSH2 0xE66 DUP2 PUSH2 0x2A84 JUMP JUMPDEST SWAP1 PUSH2 0xE74 PUSH1 0x40 MLOAD SWAP3 DUP4 PUSH2 0x2A63 JUMP JUMPDEST DUP2 MSTORE RETURNDATASIZE PUSH1 0x0 PUSH1 0x20 DUP4 ADD RETURNDATACOPY JUMPDEST DUP1 MLOAD SWAP1 DUP2 PUSH2 0xE9F JUMPI PUSH1 0x40 MLOAD PUSH4 0x32505749 PUSH1 0xE1 SHL DUP2 MSTORE CALLER PUSH1 0x4 DUP3 ADD MSTORE PUSH1 0x24 SWAP1 REVERT JUMPDEST PUSH1 0x20 ADD REVERT JUMPDEST PUSH1 0x60 PUSH2 0xE7F JUMP JUMPDEST PUSH1 0x1 PUSH1 0x1 PUSH1 0xE0 SHL SUB NOT AND SUB PUSH2 0xEC1 JUMPI PUSH1 0x20 PUSH2 0xDA6 JUMP JUMPDEST PUSH1 0x40 MLOAD PUSH4 0x32505749 PUSH1 0xE1 SHL DUP2 MSTORE CALLER PUSH1 0x4 DUP3 ADD MSTORE PUSH1 0x24 SWAP1 REVERT JUMPDEST SWAP1 SWAP2 POP PUSH1 0x20 DUP2 RETURNDATASIZE PUSH1 0x20 GT PUSH2 0xF16 JUMPI JUMPDEST DUP2 PUSH2 0xEF5 PUSH1 0x20 SWAP4 DUP4 PUSH2 0x2A63 JUMP JUMPDEST DUP2 ADD SUB SLT PUSH2 0x20E JUMPI MLOAD PUSH1 0x1 PUSH1 0x1 PUSH1 0xE0 SHL SUB NOT DUP2 AND DUP2 SUB PUSH2 0x20E JUMPI SWAP1 DUP6 PUSH2 0xE51 JUMP JUMPDEST RETURNDATASIZE SWAP2 POP PUSH2 0xEE8 JUMP JUMPDEST PUSH1 0x40 MLOAD PUSH4 0x39E35637 PUSH1 0xE1 SHL DUP2 MSTORE PUSH1 0x0 PUSH1 0x4 DUP3 ADD MSTORE PUSH1 0x24 SWAP1 REVERT JUMPDEST PUSH1 0x40 MLOAD PUSH4 0x32505749 PUSH1 0xE1 SHL DUP2 MSTORE PUSH1 0x0 PUSH1 0x4 DUP3 ADD MSTORE PUSH1 0x24 SWAP1 REVERT JUMPDEST ADD MLOAD SWAP1 POP DUP7 DUP1 PUSH2 0xD50 JUMP JUMPDEST SWAP1 PUSH1 0x13 DUP5 ADD PUSH1 0x0 MSTORE PUSH1 0x20 PUSH1 0x0 KECCAK256 SWAP2 PUSH1 0x0 JUMPDEST PUSH1 0x1F NOT DUP6 AND DUP2 LT PUSH2 0xFB3 JUMPI POP SWAP2 DUP4 SWAP2 PUSH1 0x1 SWAP4 PUSH1 0x13 SWAP6 PUSH1 0x1F NOT DUP2 AND LT PUSH2 0xF9A JUMPI JUMPDEST POP POP POP DUP2 SHL ADD SWAP2 ADD SSTORE PUSH2 0xD66 JUMP JUMPDEST ADD MLOAD PUSH1 0x0 NOT PUSH1 0xF8 DUP5 PUSH1 0x3 SHL AND SHR NOT AND SWAP1 SSTORE DUP7 DUP1 DUP1 PUSH2 0xF8C JUMP JUMPDEST SWAP2 SWAP3 PUSH1 0x20 PUSH1 0x1 DUP2 SWAP3 DUP7 DUP6 ADD MLOAD DUP2 SSTORE ADD SWAP5 ADD SWAP3 ADD PUSH2 0xF6C JUMP JUMPDEST PUSH4 0x4E487B71 PUSH1 0xE0 SHL PUSH1 0x0 MSTORE PUSH1 0x41 PUSH1 0x4 MSTORE PUSH1 0x24 PUSH1 0x0 REVERT JUMPDEST ADD MLOAD SWAP1 POP DUP6 DUP1 PUSH2 0xCA6 JUMP JUMPDEST PUSH1 0x10 DUP4 ADD PUSH1 0x0 MSTORE PUSH1 0x20 PUSH1 0x0 KECCAK256 SWAP1 PUSH1 0x0 JUMPDEST PUSH1 0x1F NOT DUP5 AND DUP2 LT PUSH2 0x1043 JUMPI POP PUSH1 0x1 SWAP4 SWAP5 SWAP6 SWAP7 DUP4 PUSH1 0x1F NOT DUP2 AND LT PUSH2 0x102A JUMPI JUMPDEST POP POP POP DUP2 SHL ADD PUSH1 0x10 DUP3 ADD SSTORE PUSH2 0xCBE JUMP JUMPDEST ADD MLOAD PUSH1 0x0 NOT PUSH1 0xF8 DUP5 PUSH1 0x3 SHL AND SHR NOT AND SWAP1 SSTORE DUP6 DUP1 DUP1 PUSH2 0x101A JUMP JUMPDEST SWAP1 SWAP2 PUSH1 0x20 PUSH1 0x1 DUP2 SWAP3 DUP6 DUP12 ADD MLOAD DUP2 SSTORE ADD SWAP4 ADD SWAP2 ADD PUSH2 0xFFC JUMP JUMPDEST ADD MLOAD SWAP1 POP DUP6 DUP1 PUSH2 0xC43 JUMP JUMPDEST PUSH1 0xF DUP6 ADD PUSH1 0x0 MSTORE PUSH1 0x20 PUSH1 0x0 KECCAK256 SWAP1 PUSH1 0x0 JUMPDEST PUSH1 0x1F NOT DUP5 AND DUP2 LT PUSH2 0x10BD JUMPI POP PUSH1 0x1 SWAP4 SWAP5 SWAP6 SWAP7 DUP4 PUSH1 0x1F NOT DUP2 AND LT PUSH2 0x10A4 JUMPI JUMPDEST POP POP POP DUP2 SHL ADD PUSH1 0xF DUP5 ADD SSTORE PUSH2 0xC5B JUMP JUMPDEST ADD MLOAD PUSH1 0x0 NOT PUSH1 0xF8 DUP5 PUSH1 0x3 SHL AND SHR NOT AND SWAP1 SSTORE DUP6 DUP1 DUP1 PUSH2 0x1094 JUMP JUMPDEST SWAP1 SWAP2 PUSH1 0x20 PUSH1 0x1 DUP2 SWAP3 DUP6 DUP12 ADD MLOAD DUP2 SSTORE ADD SWAP4 ADD SWAP2 ADD PUSH2 0x1076 JUMP JUMPDEST ADD MLOAD SWAP1 POP DUP6 DUP1 PUSH2 0xBE0 JUMP JUMPDEST PUSH1 0xE DUP5 ADD PUSH1 0x0 MSTORE PUSH1 0x20 PUSH1 0x0 KECCAK256 SWAP1 PUSH1 0x0 JUMPDEST PUSH1 0x1F NOT DUP5 AND DUP2 LT PUSH2 0x1137 JUMPI POP PUSH1 0x1 SWAP4 SWAP5 SWAP6 SWAP7 DUP4 PUSH1 0x1F NOT DUP2 AND LT PUSH2 0x111E JUMPI JUMPDEST POP POP POP DUP2 SHL ADD PUSH1 0xE DUP4 ADD SSTORE PUSH2 0xBF8 JUMP JUMPDEST ADD MLOAD PUSH1 0x0 NOT PUSH1 0xF8 DUP5 PUSH1 0x3 SHL AND SHR NOT AND SWAP1 SSTORE DUP6 DUP1 DUP1 PUSH2 0x110E JUMP JUMPDEST SWAP1 SWAP2 PUSH1 0x20 PUSH1 0x1 DUP2 SWAP3 DUP6 DUP12 ADD MLOAD DUP2 SSTORE ADD SWAP4 ADD SWAP2 ADD PUSH2 0x10F0 JUMP JUMPDEST ADD MLOAD SWAP1 POP DUP6 DUP1 PUSH2 0xB5C JUMP JUMPDEST PUSH1 0xA DUP4 ADD PUSH1 0x0 MSTORE PUSH1 0x20 PUSH1 0x0 KECCAK256 SWAP1 PUSH1 0x0 JUMPDEST PUSH1 0x1F NOT DUP5 AND DUP2 LT PUSH2 0x11B1 JUMPI POP PUSH1 0x1 SWAP4 SWAP5 SWAP6 SWAP7 DUP4 PUSH1 0x1F NOT DUP2 AND LT PUSH2 0x1198 JUMPI JUMPDEST POP POP POP DUP2 SHL ADD PUSH1 0xA DUP3 ADD SSTORE PUSH2 0xB74 JUMP JUMPDEST ADD MLOAD PUSH1 0x0 NOT PUSH1 0xF8 DUP5 PUSH1 0x3 SHL AND SHR NOT AND SWAP1 SSTORE DUP6 DUP1 DUP1 PUSH2 0x1188 JUMP JUMPDEST SWAP1 SWAP2 PUSH1 0x20 PUSH1 0x1 DUP2 SWAP3 DUP6 DUP12 ADD MLOAD DUP2 SSTORE ADD SWAP4 ADD SWAP2 ADD PUSH2 0x116A JUMP JUMPDEST ADD MLOAD SWAP1 POP DUP6 DUP1 PUSH2 0xAEE JUMP JUMPDEST PUSH1 0x8 DUP6 ADD PUSH1 0x0 MSTORE PUSH1 0x20 PUSH1 0x0 KECCAK256 SWAP1 PUSH1 0x0 JUMPDEST PUSH1 0x1F NOT DUP5 AND DUP2 LT PUSH2 0x122B JUMPI POP PUSH1 0x1 SWAP4 SWAP5 SWAP6 SWAP7 DUP4 PUSH1 0x1F NOT DUP2 AND LT PUSH2 0x1212 JUMPI JUMPDEST POP POP POP DUP2 SHL ADD PUSH1 0x8 DUP5 ADD SSTORE PUSH2 0xB06 JUMP JUMPDEST ADD MLOAD PUSH1 0x0 NOT PUSH1 0xF8 DUP5 PUSH1 0x3 SHL AND SHR NOT AND SWAP1 SSTORE DUP6 DUP1 DUP1 PUSH2 0x1202 JUMP JUMPDEST SWAP1 SWAP2 PUSH1 0x20 PUSH1 0x1 DUP2 SWAP3 DUP6 DUP12 ADD MLOAD DUP2 SSTORE ADD SWAP4 ADD SWAP2 ADD PUSH2 0x11E4 JUMP JUMPDEST ADD MLOAD SWAP1 POP DUP6 DUP1 PUSH2 0xA81 JUMP JUMPDEST PUSH1 0x6 DUP5 ADD PUSH1 0x0 MSTORE PUSH1 0x20 PUSH1 0x0 KECCAK256 SWAP1 PUSH1 0x0 JUMPDEST PUSH1 0x1F NOT DUP5 AND DUP2 LT PUSH2 0x12A5 JUMPI POP PUSH1 0x1 SWAP4 SWAP5 SWAP6 SWAP7 DUP4 PUSH1 0x1F NOT DUP2 AND LT PUSH2 0x128C JUMPI JUMPDEST POP POP POP DUP2 SHL ADD PUSH1 0x6 DUP4 ADD SSTORE PUSH2 0xA99 JUMP JUMPDEST ADD MLOAD PUSH1 0x0 NOT PUSH1 0xF8 DUP5 PUSH1 0x3 SHL AND SHR NOT AND SWAP1 SSTORE DUP6 DUP1 DUP1 PUSH2 0x127C JUMP JUMPDEST SWAP1 SWAP2 PUSH1 0x20 PUSH1 0x1 DUP2 SWAP3 DUP6 DUP12 ADD MLOAD DUP2 SSTORE ADD SWAP4 ADD SWAP2 ADD PUSH2 0x125E JUMP JUMPDEST ADD MLOAD SWAP1 POP DUP6 DUP1 PUSH2 0xA1F JUMP JUMPDEST PUSH1 0x5 DUP4 ADD PUSH1 0x0 MSTORE PUSH1 0x20 PUSH1 0x0 KECCAK256 SWAP1 PUSH1 0x0 JUMPDEST PUSH1 0x1F NOT DUP5 AND DUP2 LT PUSH2 0x131F JUMPI POP PUSH1 0x1 SWAP4 SWAP5 SWAP6 SWAP7 DUP4 PUSH1 0x1F NOT DUP2 AND LT PUSH2 0x1306 JUMPI JUMPDEST POP POP POP DUP2 SHL ADD PUSH1 0x5 DUP3 ADD SSTORE PUSH2 0xA37 JUMP JUMPDEST ADD MLOAD PUSH1 0x0 NOT PUSH1 0xF8 DUP5 PUSH1 0x3 SHL AND SHR NOT AND SWAP1 SSTORE DUP6 DUP1 DUP1 PUSH2 0x12F6 JUMP JUMPDEST SWAP1 SWAP2 PUSH1 0x20 PUSH1 0x1 DUP2 SWAP3 DUP6 DUP12 ADD MLOAD DUP2 SSTORE ADD SWAP4 ADD SWAP2 ADD PUSH2 0x12D8 JUMP JUMPDEST ADD MLOAD SWAP1 POP DUP6 DUP1 PUSH2 0x9BD JUMP JUMPDEST PUSH1 0x4 DUP6 ADD PUSH1 0x0 MSTORE PUSH1 0x20 PUSH1 0x0 KECCAK256 SWAP1 PUSH1 0x0 JUMPDEST PUSH1 0x1F NOT DUP5 AND DUP2 LT PUSH2 0x1399 JUMPI POP PUSH1 0x1 SWAP4 SWAP5 SWAP6 SWAP7 DUP4 PUSH1 0x1F NOT DUP2 AND LT PUSH2 0x1380 JUMPI JUMPDEST POP POP POP DUP2 SHL ADD PUSH1 0x4 DUP5 ADD SSTORE PUSH2 0x9D5 JUMP JUMPDEST ADD MLOAD PUSH1 0x0 NOT PUSH1 0xF8 DUP5 PUSH1 0x3 SHL AND SHR NOT AND SWAP1 SSTORE DUP6 DUP1 DUP1 PUSH2 0x1370 JUMP JUMPDEST SWAP1 SWAP2 PUSH1 0x20 PUSH1 0x1 DUP2 SWAP3 DUP6 DUP12 ADD MLOAD DUP2 SSTORE ADD SWAP4 ADD SWAP2 ADD PUSH2 0x1352 JUMP JUMPDEST ADD MLOAD SWAP1 POP DUP6 DUP1 PUSH2 0x95B JUMP JUMPDEST PUSH1 0x3 DUP5 ADD PUSH1 0x0 MSTORE PUSH1 0x20 PUSH1 0x0 KECCAK256 SWAP1 PUSH1 0x0 JUMPDEST PUSH1 0x1F NOT DUP5 AND DUP2 LT PUSH2 0x1413 JUMPI POP PUSH1 0x1 SWAP4 SWAP5 SWAP6 SWAP7 DUP4 PUSH1 0x1F NOT DUP2 AND LT PUSH2 0x13FA JUMPI JUMPDEST POP POP POP DUP2 SHL ADD PUSH1 0x3 DUP4 ADD SSTORE PUSH2 0x973 JUMP JUMPDEST ADD MLOAD PUSH1 0x0 NOT PUSH1 0xF8 DUP5 PUSH1 0x3 SHL AND SHR NOT AND SWAP1 SSTORE DUP6 DUP1 DUP1 PUSH2 0x13EA JUMP JUMPDEST SWAP1 SWAP2 PUSH1 0x20 PUSH1 0x1 DUP2 SWAP3 DUP6 DUP12 ADD MLOAD DUP2 SSTORE ADD SWAP4 ADD SWAP2 ADD PUSH2 0x13CC JUMP JUMPDEST ADD MLOAD SWAP1 POP DUP6 DUP1 PUSH2 0x8F9 JUMP JUMPDEST PUSH1 0x2 DUP4 ADD PUSH1 0x0 MSTORE PUSH1 0x20 PUSH1 0x0 KECCAK256 SWAP1 PUSH1 0x0 JUMPDEST PUSH1 0x1F NOT DUP5 AND DUP2 LT PUSH2 0x148D JUMPI POP PUSH1 0x1 SWAP4 SWAP5 SWAP6 SWAP7 DUP4 PUSH1 0x1F NOT DUP2 AND LT PUSH2 0x1474 JUMPI JUMPDEST POP POP POP DUP2 SHL ADD PUSH1 0x2 DUP3 ADD SSTORE PUSH2 0x911 JUMP JUMPDEST ADD MLOAD PUSH1 0x0 NOT PUSH1 0xF8 DUP5 PUSH1 0x3 SHL AND SHR NOT AND SWAP1 SSTORE DUP6 DUP1 DUP1 PUSH2 0x1464 JUMP JUMPDEST SWAP1 SWAP2 PUSH1 0x20 PUSH1 0x1 DUP2 SWAP3 DUP6 DUP12 ADD MLOAD DUP2 SSTORE ADD SWAP4 ADD SWAP2 ADD PUSH2 0x1446 JUMP JUMPDEST ADD MLOAD SWAP1 POP DUP6 DUP1 PUSH2 0x897 JUMP JUMPDEST PUSH1 0x1 DUP6 ADD PUSH1 0x0 MSTORE PUSH1 0x20 PUSH1 0x0 KECCAK256 SWAP1 PUSH1 0x0 JUMPDEST PUSH1 0x1F NOT DUP5 AND DUP2 LT PUSH2 0x1507 JUMPI POP PUSH1 0x1 SWAP4 SWAP5 SWAP6 SWAP7 DUP4 PUSH1 0x1F NOT DUP2 AND LT PUSH2 0x14EE JUMPI JUMPDEST POP POP POP DUP2 SHL ADD PUSH1 0x1 DUP5 ADD SSTORE PUSH2 0x8AF JUMP JUMPDEST ADD MLOAD PUSH1 0x0 NOT PUSH1 0xF8 DUP5 PUSH1 0x3 SHL AND SHR NOT AND SWAP1 SSTORE DUP6 DUP1 DUP1 PUSH2 0x14DE JUMP JUMPDEST SWAP1 SWAP2 PUSH1 0x20 PUSH1 0x1 DUP2 SWAP3 DUP6 DUP12 ADD MLOAD DUP2 SSTORE ADD SWAP4 ADD SWAP2 ADD PUSH2 0x14C0 JUMP JUMPDEST ADD MLOAD SWAP1 POP DUP6 DUP1 PUSH2 0x838 JUMP JUMPDEST DUP4 PUSH1 0x0 MSTORE PUSH1 0x20 PUSH1 0x0 KECCAK256 SWAP1 PUSH1 0x0 JUMPDEST PUSH1 0x1F NOT DUP5 AND DUP2 LT PUSH2 0x157B JUMPI POP PUSH1 0x1 SWAP4 SWAP5 SWAP6 SWAP7 DUP4 PUSH1 0x1F NOT DUP2 AND LT PUSH2 0x1562 JUMPI JUMPDEST POP POP POP DUP2 SHL ADD DUP3 SSTORE PUSH2 0x84D JUMP JUMPDEST ADD MLOAD PUSH1 0x0 NOT PUSH1 0xF8 DUP5 PUSH1 0x3 SHL AND SHR NOT AND SWAP1 SSTORE DUP6 DUP1 DUP1 PUSH2 0x1555 JUMP JUMPDEST SWAP1 SWAP2 PUSH1 0x20 PUSH1 0x1 DUP2 SWAP3 DUP6 DUP12 ADD MLOAD DUP2 SSTORE ADD SWAP4 ADD SWAP2 ADD PUSH2 0x1537 JUMP JUMPDEST PUSH1 0x40 MLOAD PUSH3 0x461BCD PUSH1 0xE5 SHL DUP2 MSTORE PUSH1 0x20 PUSH1 0x4 DUP3 ADD MSTORE PUSH1 0x1B PUSH1 0x24 DUP3 ADD MSTORE PUSH32 0x41726561206D7573742062652067726561746572207468616E20300000000000 PUSH1 0x44 DUP3 ADD MSTORE PUSH1 0x64 SWAP1 REVERT JUMPDEST PUSH1 0x40 MLOAD PUSH3 0x461BCD PUSH1 0xE5 SHL DUP2 MSTORE PUSH1 0x20 PUSH1 0x4 DUP3 ADD MSTORE PUSH1 0x25 PUSH1 0x24 DUP3 ADD MSTORE PUSH32 0x436172626F6E2063726564697473206D75737420626520677265617465722074 PUSH1 0x44 DUP3 ADD MSTORE PUSH5 0x68616E203 PUSH1 0xDC SHL PUSH1 0x64 DUP3 ADD MSTORE PUSH1 0x84 SWAP1 REVERT JUMPDEST PUSH1 0x40 MLOAD PUSH3 0x461BCD PUSH1 0xE5 SHL DUP2 MSTORE PUSH1 0x20 PUSH1 0x4 DUP3 ADD MSTORE PUSH1 0x1A PUSH1 0x24 DUP3 ADD MSTORE PUSH32 0x50726F6A65637420616C72656164792072656769737465726564000000000000 PUSH1 0x44 DUP3 ADD MSTORE PUSH1 0x64 SWAP1 REVERT JUMPDEST PUSH1 0x40 MLOAD PUSH3 0x461BCD PUSH1 0xE5 SHL DUP2 MSTORE PUSH1 0x20 PUSH1 0x4 DUP3 ADD MSTORE PUSH1 0x1A PUSH1 0x24 DUP3 ADD MSTORE PUSH32 0x50726F6A6563742049442063616E6E6F7420626520656D707479000000000000 PUSH1 0x44 DUP3 ADD MSTORE PUSH1 0x64 SWAP1 REVERT JUMPDEST CALLVALUE PUSH2 0x20E JUMPI PUSH1 0x20 DUP1 PUSH1 0x3 NOT CALLDATASIZE ADD SLT PUSH2 0x20E JUMPI PUSH1 0x4 CALLDATALOAD SWAP1 PUSH2 0x16D8 PUSH1 0x8 SLOAD DUP4 LT PUSH2 0x32E5 JUMP JUMPDEST PUSH1 0x40 MLOAD SWAP2 PUSH1 0x40 DUP4 ADD SWAP3 DUP1 DUP5 LT PUSH1 0x1 PUSH1 0x1 PUSH1 0x40 SHL SUB DUP6 GT OR PUSH2 0xFCB JUMPI PUSH2 0x1750 PUSH2 0x175E SWAP3 PUSH2 0x1747 SWAP6 PUSH1 0x40 MSTORE PUSH1 0x15 DUP4 MSTORE DUP5 DUP4 ADD SWAP1 PUSH21 0x68747470733A2F2F697066732E696F2F697066732F PUSH1 0x58 SHL DUP3 MSTORE PUSH1 0x0 MSTORE PUSH1 0x9 DUP6 MSTORE DUP5 PUSH1 0x10 PUSH1 0x40 PUSH1 0x0 KECCAK256 ADD SWAP2 PUSH1 0x40 MLOAD SWAP8 DUP9 SWAP6 MLOAD DUP1 SWAP3 DUP5 DUP9 ADD SWAP1 PUSH2 0x29B8 JUMP JUMPDEST DUP5 ADD ADD SWAP1 PUSH2 0x3337 JUMP JUMPDEST SUB PUSH1 0x1F NOT DUP2 ADD DUP5 MSTORE DUP4 PUSH2 0x2A63 JUMP JUMPDEST PUSH2 0x3A6 PUSH1 0x40 MLOAD SWAP3 DUP3 DUP5 SWAP4 DUP5 MSTORE DUP4 ADD SWAP1 PUSH2 0x29DB JUMP JUMPDEST CALLVALUE PUSH2 0x20E JUMPI PUSH1 0x0 CALLDATASIZE PUSH1 0x3 NOT ADD SLT PUSH2 0x20E JUMPI PUSH1 0x0 PUSH1 0x8 SLOAD PUSH1 0x0 JUMPDEST DUP2 DUP2 LT PUSH2 0x179D JUMPI PUSH1 0x20 DUP4 PUSH1 0x40 MLOAD SWAP1 DUP2 MSTORE RETURN JUMPDEST DUP1 PUSH1 0x0 MSTORE PUSH1 0x9 PUSH1 0x20 MSTORE PUSH1 0x40 PUSH1 0x0 KECCAK256 PUSH1 0xFF PUSH1 0x11 DUP3 ADD SLOAD PUSH1 0xA0 SHR AND PUSH2 0x17CA JUMPI JUMPDEST POP PUSH2 0x17C5 SWAP1 PUSH2 0x31DC JUMP JUMPDEST PUSH2 0x178B JUMP JUMPDEST PUSH2 0x17C5 SWAP2 SWAP4 PUSH2 0x17E6 DUP3 PUSH1 0xD PUSH1 0xC PUSH2 0x17EC SWAP6 ADD SLOAD SWAP2 ADD SLOAD SWAP1 PUSH2 0x332A JUMP JUMPDEST SWAP1 PUSH2 0x3453 JUMP JUMPDEST SWAP3 SWAP1 PUSH2 0x17BB JUMP JUMPDEST CALLVALUE PUSH2 0x20E JUMPI PUSH1 0x60 CALLDATASIZE PUSH1 0x3 NOT ADD SLT PUSH2 0x20E JUMPI PUSH1 0x1 PUSH1 0x1 PUSH1 0x40 SHL SUB PUSH1 0x4 CALLDATALOAD PUSH1 0x24 DUP1 CALLDATALOAD PUSH1 0x44 CALLDATALOAD DUP5 DUP2 GT PUSH2 0x20E JUMPI PUSH2 0x182B SWAP1 CALLDATASIZE SWAP1 PUSH1 0x4 ADD PUSH2 0x2AD6 JUMP JUMPDEST SWAP4 PUSH2 0x1848 PUSH2 0x1838 DUP6 PUSH2 0x3053 JUMP JUMPDEST PUSH1 0x1 PUSH1 0x1 PUSH1 0xA0 SHL SUB AND CALLER EQ PUSH2 0x32A1 JUMP JUMPDEST PUSH2 0x1855 PUSH1 0x8 SLOAD DUP6 LT PUSH2 0x32E5 JUMP JUMPDEST PUSH2 0x185D PUSH2 0x325D JUMP JUMPDEST PUSH2 0x1865 PUSH2 0x327E JUMP JUMPDEST DUP4 PUSH1 0x0 MSTORE PUSH1 0x20 SWAP3 PUSH1 0x9 DUP5 MSTORE PUSH1 0x40 PUSH1 0x0 KECCAK256 SWAP2 PUSH1 0x11 DUP4 ADD DUP1 SLOAD PUSH1 0xFF DUP2 PUSH1 0xA0 SHR AND PUSH2 0x1B46 JUMPI DUP6 ISZERO PUSH2 0x1B02 JUMPI PUSH1 0xD DUP6 ADD DUP1 SLOAD DUP1 DUP9 GT PUSH2 0x1AC0 JUMPI DUP11 MLOAD ISZERO PUSH2 0x1A7C JUMPI DUP8 PUSH2 0x18AB SWAP2 PUSH2 0x332A JUMP JUMPDEST SWAP1 SSTORE PUSH1 0xFF PUSH1 0xA0 SHL NOT AND PUSH1 0x1 PUSH1 0xA0 SHL OR SWAP1 SSTORE TIMESTAMP PUSH1 0x12 DUP5 ADD SSTORE DUP7 MLOAD PUSH1 0x13 DUP5 ADD SWAP3 SWAP1 SWAP2 DUP3 GT PUSH2 0x1A68 JUMPI POP PUSH2 0x18E6 DUP2 PUSH2 0x18E0 DUP5 SLOAD PUSH2 0x2CA0 JUMP JUMPDEST DUP5 PUSH2 0x3218 JUMP JUMPDEST DUP5 PUSH1 0x1F DUP3 GT PUSH1 0x1 EQ PUSH2 0x19D8 JUMPI SWAP3 PUSH2 0x19A2 SWAP3 DUP3 PUSH2 0x1988 SWAP4 PUSH32 0x1BB65D0CFDDE7C6F874E0104F34B04ECC8D308044367CB6ABAEE56ABB9D45A71 SWAP9 SWAP8 SWAP7 PUSH1 0x0 SWAP2 PUSH2 0x19CD JUMPI JUMPDEST POP DUP2 PUSH1 0x1 SHL SWAP2 PUSH1 0x0 NOT SWAP1 PUSH1 0x3 SHL SHR NOT AND OR SWAP1 SSTORE JUMPDEST PUSH1 0xE DUP2 ADD PUSH2 0x194A DUP2 SLOAD PUSH2 0x2CA0 JUMP JUMPDEST PUSH1 0x1F DUP2 GT PUSH2 0x19AC JUMPI JUMPDEST POP PUSH1 0xE PUSH7 0x14995D1A5C9959 PUSH1 0xCA SHL ADD SWAP1 SSTORE DUP7 PUSH1 0x0 MSTORE PUSH1 0xB DUP6 MSTORE PUSH1 0x40 PUSH1 0x0 KECCAK256 PUSH1 0x1 PUSH1 0xFF NOT DUP3 SLOAD AND OR SWAP1 SSTORE PUSH1 0x40 MLOAD SWAP2 DUP3 DUP1 SWAP3 PUSH2 0x3337 JUMP JUMPDEST SUB SWAP1 KECCAK256 SWAP6 PUSH1 0x40 DUP1 MLOAD SWAP5 DUP6 SWAP5 DUP6 MSTORE DUP5 ADD MSTORE PUSH1 0x40 DUP4 ADD SWAP1 PUSH2 0x29DB JUMP JUMPDEST SUB SWAP1 LOG3 PUSH1 0x1 PUSH1 0x7 SSTORE STOP JUMPDEST PUSH2 0x19C7 SWAP1 DUP3 PUSH1 0x0 MSTORE PUSH1 0x1F DUP9 PUSH1 0x0 KECCAK256 SWAP2 ADD PUSH1 0x5 SHR DUP2 ADD SWAP1 PUSH2 0x3201 JUMP JUMPDEST DUP10 PUSH2 0x1953 JUMP JUMPDEST SWAP1 POP DUP11 ADD MLOAD DUP12 PUSH2 0x1928 JUMP JUMPDEST PUSH1 0x1F NOT DUP3 AND SWAP1 DUP4 PUSH1 0x0 MSTORE DUP7 PUSH1 0x0 KECCAK256 SWAP2 PUSH1 0x0 JUMPDEST DUP11 DUP3 DUP3 LT PUSH2 0x1A51 JUMPI POP POP DUP4 PUSH32 0x1BB65D0CFDDE7C6F874E0104F34B04ECC8D308044367CB6ABAEE56ABB9D45A71 SWAP9 SWAP8 SWAP7 SWAP4 PUSH2 0x19A2 SWAP7 SWAP4 PUSH2 0x1988 SWAP7 PUSH1 0x1 SWAP5 LT PUSH2 0x1A38 JUMPI JUMPDEST POP POP DUP2 SHL ADD SWAP1 SSTORE PUSH2 0x193C JUMP JUMPDEST DUP13 ADD MLOAD PUSH1 0x0 NOT PUSH1 0xF8 DUP5 PUSH1 0x3 SHL AND SHR NOT AND SWAP1 SSTORE DUP12 DUP1 PUSH2 0x1A2C JUMP JUMPDEST PUSH1 0x1 DUP5 SWAP6 DUP12 SWAP4 SWAP6 DUP5 SWAP4 ADD MLOAD DUP2 SSTORE ADD SWAP5 ADD SWAP3 ADD PUSH2 0x19EA JUMP JUMPDEST PUSH4 0x4E487B71 PUSH1 0xE0 SHL PUSH1 0x0 SWAP1 DUP2 MSTORE PUSH1 0x41 PUSH1 0x4 MSTORE REVERT JUMPDEST PUSH1 0x40 MLOAD PUSH3 0x461BCD PUSH1 0xE5 SHL DUP2 MSTORE PUSH1 0x4 DUP2 ADD DUP11 SWAP1 MSTORE PUSH1 0x1A DUP2 DUP9 ADD MSTORE PUSH32 0x5265746972656D656E7420726561736F6E207265717569726564000000000000 PUSH1 0x44 DUP3 ADD MSTORE PUSH1 0x64 SWAP1 REVERT JUMPDEST PUSH1 0x64 DUP7 DUP11 PUSH1 0x40 MLOAD SWAP2 PUSH3 0x461BCD PUSH1 0xE5 SHL DUP4 MSTORE DUP2 PUSH1 0x4 DUP5 ADD MSTORE DUP3 ADD MSTORE PUSH32 0x416D6F756E74206578636565647320617661696C61626C652063726564697473 PUSH1 0x44 DUP3 ADD MSTORE REVERT JUMPDEST PUSH1 0x40 MLOAD PUSH3 0x461BCD PUSH1 0xE5 SHL DUP2 MSTORE PUSH1 0x4 DUP2 ADD DUP9 SWAP1 MSTORE PUSH1 0x1D DUP2 DUP7 ADD MSTORE PUSH32 0x416D6F756E74206D7573742062652067726561746572207468616E2030000000 PUSH1 0x44 DUP3 ADD MSTORE PUSH1 0x64 SWAP1 REVERT JUMPDEST PUSH1 0x40 MLOAD PUSH3 0x461BCD PUSH1 0xE5 SHL DUP2 MSTORE PUSH1 0x4 DUP2 ADD DUP9 SWAP1 MSTORE PUSH1 0x17 DUP2 DUP7 ADD MSTORE PUSH32 0x4372656469747320616C72656164792072657469726564000000000000000000 PUSH1 0x44 DUP3 ADD MSTORE PUSH1 0x64 SWAP1 REVERT JUMPDEST CALLVALUE PUSH2 0x20E JUMPI PUSH1 0x40 CALLDATASIZE PUSH1 0x3 NOT ADD SLT PUSH2 0x20E JUMPI PUSH1 0x1 PUSH1 0x1 PUSH1 0x40 SHL SUB PUSH1 0x4 CALLDATALOAD PUSH1 0x24 CALLDATALOAD DUP3 DUP2 GT PUSH2 0x20E JUMPI PUSH2 0x1BBE SWAP1 CALLDATASIZE SWAP1 PUSH1 0x4 ADD PUSH2 0x2AD6 JUMP JUMPDEST SWAP2 PUSH2 0x1BCB PUSH2 0x1838 DUP4 PUSH2 0x3053 JUMP JUMPDEST PUSH2 0x1BD8 PUSH1 0x8 SLOAD DUP4 LT PUSH2 0x32E5 JUMP JUMPDEST PUSH2 0x1BE0 PUSH2 0x325D JUMP JUMPDEST DUP3 MLOAD ISZERO PUSH2 0x1D4A JUMPI DUP2 PUSH1 0x0 MSTORE PUSH1 0x20 SWAP1 PUSH1 0x9 DUP3 MSTORE PUSH1 0xE PUSH1 0x40 PUSH1 0x0 KECCAK256 ADD SWAP1 DUP5 MLOAD SWAP1 DUP2 GT PUSH2 0xFCB JUMPI PUSH2 0x1C12 DUP2 PUSH2 0x18E0 DUP5 SLOAD PUSH2 0x2CA0 JUMP JUMPDEST DUP3 PUSH1 0x1F DUP3 GT PUSH1 0x1 EQ PUSH2 0x1CC2 JUMPI SWAP2 DUP2 PUSH32 0x8C3999A987C45C0D01FBC63D2BBCBBC000FBEF413680EA70285750D9CC577AB0 SWAP5 SWAP3 PUSH1 0x80 SWAP5 PUSH1 0x0 SWAP2 PUSH2 0x1CB7 JUMPI JUMPDEST POP DUP2 PUSH1 0x1 SHL SWAP2 PUSH1 0x0 NOT SWAP1 PUSH1 0x3 SHL SHR NOT AND OR SWAP1 SSTORE JUMPDEST DUP4 PUSH1 0x0 MSTORE PUSH1 0x9 DUP2 MSTORE PUSH2 0x1CB2 PUSH2 0x1C81 PUSH1 0x40 PUSH1 0x0 KECCAK256 PUSH1 0x40 MLOAD SWAP2 DUP3 DUP1 SWAP3 PUSH2 0x3337 JUMP JUMPDEST SUB SWAP1 KECCAK256 SWAP6 PUSH1 0x40 MLOAD SWAP4 DUP5 SWAP4 PUSH1 0x40 DUP6 MSTORE PUSH1 0x6 PUSH1 0x40 DUP7 ADD MSTORE PUSH6 0x737461747573 PUSH1 0xD0 SHL PUSH1 0x60 DUP7 ADD MSTORE DUP5 ADD MSTORE PUSH1 0x80 DUP4 ADD SWAP1 PUSH2 0x29DB JUMP JUMPDEST SUB SWAP1 LOG3 STOP JUMPDEST SWAP1 POP DUP8 ADD MLOAD DUP9 PUSH2 0x1C4E JUMP JUMPDEST PUSH1 0x1F NOT DUP3 AND SWAP1 DUP4 PUSH1 0x0 MSTORE DUP5 PUSH1 0x0 KECCAK256 SWAP2 PUSH1 0x0 JUMPDEST DUP2 DUP2 LT PUSH2 0x1D33 JUMPI POP SWAP3 PUSH1 0x80 SWAP5 SWAP3 PUSH1 0x1 SWAP3 DUP3 PUSH32 0x8C3999A987C45C0D01FBC63D2BBCBBC000FBEF413680EA70285750D9CC577AB0 SWAP9 SWAP7 LT PUSH2 0x1D1A JUMPI JUMPDEST POP POP DUP2 SHL ADD SWAP1 SSTORE PUSH2 0x1C62 JUMP JUMPDEST DUP10 ADD MLOAD PUSH1 0x0 NOT PUSH1 0xF8 DUP5 PUSH1 0x3 SHL AND SHR NOT AND SWAP1 SSTORE DUP9 DUP1 PUSH2 0x1D0E JUMP JUMPDEST SWAP2 SWAP3 DUP7 PUSH1 0x1 DUP2 SWAP3 DUP7 DUP13 ADD MLOAD DUP2 SSTORE ADD SWAP5 ADD SWAP3 ADD PUSH2 0x1CD4 JUMP JUMPDEST PUSH1 0x40 MLOAD PUSH3 0x461BCD PUSH1 0xE5 SHL DUP2 MSTORE PUSH1 0x20 PUSH1 0x4 DUP3 ADD MSTORE PUSH1 0x16 PUSH1 0x24 DUP3 ADD MSTORE PUSH22 0x5374617475732063616E6E6F7420626520656D707479 PUSH1 0x50 SHL PUSH1 0x44 DUP3 ADD MSTORE PUSH1 0x64 SWAP1 REVERT JUMPDEST CALLVALUE PUSH2 0x20E JUMPI PUSH1 0x80 CALLDATASIZE PUSH1 0x3 NOT ADD SLT PUSH2 0x20E JUMPI PUSH2 0x1DA1 PUSH2 0x2A00 JUMP JUMPDEST PUSH2 0x1DA9 PUSH2 0x2A16 JUMP JUMPDEST SWAP1 PUSH1 0x44 CALLDATALOAD PUSH1 0x64 CALLDATALOAD SWAP3 PUSH1 0x1 PUSH1 0x1 PUSH1 0x40 SHL SUB DUP5 GT PUSH2 0x20E JUMPI CALLDATASIZE PUSH1 0x23 DUP6 ADD SLT ISZERO PUSH2 0x20E JUMPI PUSH2 0x1DE1 PUSH2 0x1DF3 SWAP5 CALLDATASIZE SWAP1 PUSH1 0x24 DUP2 PUSH1 0x4 ADD CALLDATALOAD SWAP2 ADD PUSH2 0x2A9F JUMP JUMPDEST SWAP3 PUSH2 0x1DED DUP4 DUP4 DUP4 PUSH2 0x2E07 JUMP JUMPDEST CALLER PUSH2 0x308E JUMP JUMPDEST STOP JUMPDEST CALLVALUE PUSH2 0x20E JUMPI PUSH1 0x40 CALLDATASIZE PUSH1 0x3 NOT ADD SLT PUSH2 0x20E JUMPI PUSH2 0x1E0E PUSH2 0x2A00 JUMP JUMPDEST PUSH1 0x24 CALLDATALOAD SWAP1 DUP2 ISZERO ISZERO DUP1 SWAP3 SUB PUSH2 0x20E JUMPI PUSH1 0x1 PUSH1 0x1 PUSH1 0xA0 SHL SUB AND SWAP1 DUP2 ISZERO PUSH2 0x1E81 JUMPI CALLER PUSH1 0x0 MSTORE PUSH1 0x5 PUSH1 0x20 MSTORE PUSH1 0x40 PUSH1 0x0 KECCAK256 DUP3 PUSH1 0x0 MSTORE PUSH1 0x20 MSTORE PUSH1 0x40 PUSH1 0x0 KECCAK256 PUSH1 0xFF NOT DUP2 SLOAD AND PUSH1 0xFF DUP4 AND OR SWAP1 SSTORE PUSH1 0x40 MLOAD SWAP1 DUP2 MSTORE PUSH32 0x17307EAB39AB6107E8899845AD3D59BD9653F200F220920489CA2B5937696C31 PUSH1 0x20 CALLER SWAP3 LOG3 STOP JUMPDEST PUSH1 0x40 MLOAD PUSH4 0xB611743 PUSH1 0xE3 SHL DUP2 MSTORE PUSH1 0x4 DUP2 ADD DUP4 SWAP1 MSTORE PUSH1 0x24 SWAP1 REVERT JUMPDEST CALLVALUE PUSH2 0x20E JUMPI PUSH1 0x0 CALLDATASIZE PUSH1 0x3 NOT ADD SLT PUSH2 0x20E JUMPI PUSH1 0x40 MLOAD PUSH1 0x0 PUSH1 0x1 DUP1 SLOAD SWAP1 PUSH2 0x1EBE DUP3 PUSH2 0x2CA0 JUMP JUMPDEST DUP1 DUP6 MSTORE SWAP2 DUP2 DUP2 AND SWAP1 DUP2 ISZERO PUSH2 0x1F52 JUMPI POP PUSH1 0x1 EQ PUSH2 0x1EF9 JUMPI JUMPDEST PUSH2 0x3A6 DUP5 PUSH2 0x1EE5 DUP2 DUP7 SUB DUP3 PUSH2 0x2A63 JUMP JUMPDEST PUSH1 0x40 MLOAD SWAP2 DUP3 SWAP2 PUSH1 0x20 DUP4 MSTORE PUSH1 0x20 DUP4 ADD SWAP1 PUSH2 0x29DB JUMP JUMPDEST PUSH1 0x0 DUP2 DUP2 MSTORE SWAP3 POP PUSH32 0xB10E2D527612073B26EECDFD717E6A320CF44B4AFAC2B0732D9FCBE2B7FA0CF6 JUMPDEST DUP3 DUP5 LT PUSH2 0x1F3A JUMPI POP POP POP DUP2 ADD PUSH1 0x20 ADD PUSH2 0x1EE5 DUP3 PUSH2 0x1ED5 JUMP JUMPDEST DUP1 SLOAD PUSH1 0x20 DUP6 DUP8 ADD DUP2 ADD SWAP2 SWAP1 SWAP2 MSTORE SWAP1 SWAP4 ADD SWAP3 DUP2 ADD PUSH2 0x1F22 JUMP JUMPDEST PUSH1 0xFF NOT AND PUSH1 0x20 DUP1 DUP8 ADD SWAP2 SWAP1 SWAP2 MSTORE SWAP3 ISZERO ISZERO PUSH1 0x5 SHL DUP6 ADD SWAP1 SWAP3 ADD SWAP3 POP PUSH2 0x1EE5 SWAP2 POP DUP4 SWAP1 POP PUSH2 0x1ED5 JUMP JUMPDEST CALLVALUE PUSH2 0x20E JUMPI PUSH1 0x40 CALLDATASIZE PUSH1 0x3 NOT ADD SLT PUSH2 0x20E JUMPI PUSH1 0x4 CALLDATALOAD PUSH2 0x1F95 PUSH2 0x2A16 JUMP JUMPDEST SWAP1 PUSH2 0x1F9E PUSH2 0x2DDB JUMP JUMPDEST PUSH2 0x1FAB PUSH1 0x8 SLOAD DUP3 LT PUSH2 0x32E5 JUMP JUMPDEST PUSH1 0x1 PUSH1 0x1 PUSH1 0xA0 SHL SUB DUP3 DUP2 AND SWAP3 SWAP1 DUP4 ISZERO PUSH2 0x2051 JUMPI PUSH2 0x1FD1 DUP4 PUSH2 0x1FCB DUP2 PUSH2 0x3053 JUMP JUMPDEST SWAP4 PUSH2 0x2F97 JUMP JUMPDEST SWAP1 DUP1 DUP3 AND SWAP1 DUP2 PUSH2 0x1FF4 JUMPI PUSH1 0x40 MLOAD PUSH4 0x7E273289 PUSH1 0xE0 SHL DUP2 MSTORE PUSH1 0x4 DUP2 ADD DUP7 SWAP1 MSTORE PUSH1 0x24 SWAP1 REVERT JUMPDEST DUP4 AND SUB PUSH2 0x2021 JUMPI POP POP PUSH1 0x0 SWAP1 DUP2 MSTORE PUSH1 0x9 PUSH1 0x20 MSTORE PUSH1 0x40 SWAP1 KECCAK256 PUSH1 0x11 ADD DUP1 SLOAD PUSH1 0x1 PUSH1 0x1 PUSH1 0xA0 SHL SUB NOT AND SWAP1 SWAP2 OR SWAP1 SSTORE STOP JUMPDEST PUSH1 0x40 MLOAD PUSH4 0x64283D7B PUSH1 0xE0 SHL DUP2 MSTORE PUSH1 0x1 PUSH1 0x1 PUSH1 0xA0 SHL SUB SWAP3 DUP4 AND PUSH1 0x4 DUP3 ADD MSTORE PUSH1 0x24 DUP2 ADD SWAP4 SWAP1 SWAP4 MSTORE AND PUSH1 0x44 DUP3 ADD MSTORE PUSH1 0x64 SWAP1 REVERT JUMPDEST PUSH1 0x40 MLOAD PUSH3 0x461BCD PUSH1 0xE5 SHL DUP2 MSTORE PUSH1 0x20 PUSH1 0x4 DUP3 ADD MSTORE PUSH1 0x11 PUSH1 0x24 DUP3 ADD MSTORE PUSH17 0x24B73B30B634B2103732BB9037BBB732B9 PUSH1 0x79 SHL PUSH1 0x44 DUP3 ADD MSTORE PUSH1 0x64 SWAP1 REVERT JUMPDEST CALLVALUE PUSH2 0x20E JUMPI PUSH1 0x0 CALLDATASIZE PUSH1 0x3 NOT ADD SLT PUSH2 0x20E JUMPI PUSH1 0x6 SLOAD PUSH1 0x40 MLOAD PUSH1 0x1 PUSH1 0x1 PUSH1 0xA0 SHL SUB SWAP1 SWAP2 AND DUP2 MSTORE PUSH1 0x20 SWAP1 RETURN JUMPDEST CALLVALUE PUSH2 0x20E JUMPI PUSH1 0x0 CALLDATASIZE PUSH1 0x3 NOT ADD SLT PUSH2 0x20E JUMPI PUSH2 0x20CC PUSH2 0x2DDB JUMP JUMPDEST PUSH2 0x20D4 PUSH2 0x325D JUMP JUMPDEST PUSH1 0x6 DUP1 SLOAD PUSH1 0xFF PUSH1 0xA0 SHL NOT AND PUSH1 0x1 PUSH1 0xA0 SHL OR SWAP1 SSTORE PUSH1 0x40 MLOAD CALLER DUP2 MSTORE PUSH32 0x62E78CEA01BEE320CD4E420270B5EA74000D11B0C9F74754EBDBFC544B05A258 SWAP1 PUSH1 0x20 SWAP1 LOG1 STOP JUMPDEST CALLVALUE PUSH2 0x20E JUMPI PUSH1 0x0 CALLDATASIZE PUSH1 0x3 NOT ADD SLT PUSH2 0x20E JUMPI PUSH1 0x20 PUSH1 0x8 SLOAD PUSH1 0x40 MLOAD SWAP1 DUP2 MSTORE RETURN JUMPDEST CALLVALUE PUSH2 0x20E JUMPI PUSH1 0x0 CALLDATASIZE PUSH1 0x3 NOT ADD SLT PUSH2 0x20E JUMPI PUSH1 0x0 PUSH1 0x8 SLOAD PUSH1 0x0 JUMPDEST DUP2 DUP2 LT PUSH2 0x215E JUMPI PUSH1 0x20 DUP4 PUSH1 0x40 MLOAD SWAP1 DUP2 MSTORE RETURN JUMPDEST DUP1 PUSH1 0x0 MSTORE PUSH1 0x9 PUSH1 0x20 MSTORE PUSH1 0x40 PUSH1 0x0 KECCAK256 PUSH1 0xFF PUSH1 0x11 DUP3 ADD SLOAD PUSH1 0xA0 SHR AND ISZERO PUSH2 0x218C JUMPI JUMPDEST POP PUSH2 0x2187 SWAP1 PUSH2 0x31DC JUMP JUMPDEST PUSH2 0x214C JUMP JUMPDEST PUSH2 0x2187 SWAP2 SWAP4 PUSH1 0xD PUSH2 0x219F SWAP3 ADD SLOAD SWAP1 PUSH2 0x3453 JUMP JUMPDEST SWAP3 SWAP1 PUSH2 0x217D JUMP JUMPDEST CALLVALUE PUSH2 0x20E JUMPI PUSH1 0x20 CALLDATASIZE PUSH1 0x3 NOT ADD SLT PUSH2 0x20E JUMPI PUSH1 0x4 CALLDATALOAD PUSH1 0x1 PUSH1 0x1 PUSH1 0x40 SHL SUB DUP2 GT PUSH2 0x20E JUMPI PUSH2 0x21EF PUSH1 0x20 PUSH2 0x21DC DUP2 SWAP4 CALLDATASIZE SWAP1 PUSH1 0x4 ADD PUSH2 0x2AD6 JUMP JUMPDEST DUP2 PUSH1 0x40 MLOAD SWAP4 DUP3 DUP6 DUP1 SWAP5 MLOAD SWAP4 DUP5 SWAP3 ADD PUSH2 0x29B8 JUMP JUMPDEST DUP2 ADD PUSH1 0xA DUP2 MSTORE SUB ADD SWAP1 KECCAK256 SLOAD ISZERO ISZERO PUSH1 0x40 MLOAD SWAP1 DUP2 MSTORE RETURN JUMPDEST CALLVALUE PUSH2 0x20E JUMPI PUSH1 0x0 CALLDATASIZE PUSH1 0x3 NOT ADD SLT PUSH2 0x20E JUMPI PUSH2 0x221D PUSH2 0x2DDB JUMP JUMPDEST PUSH1 0x6 DUP1 SLOAD PUSH1 0x1 PUSH1 0x1 PUSH1 0xA0 SHL SUB NOT DUP2 AND SWAP1 SWAP2 SSTORE PUSH1 0x0 SWAP1 PUSH1 0x1 PUSH1 0x1 PUSH1 0xA0 SHL SUB AND PUSH32 0x8BE0079C531659141344CD1FD0A4F28419497F9722A3DAAFE3B4186F6B6457E0 DUP3 DUP1 LOG3 STOP JUMPDEST CALLVALUE PUSH2 0x20E JUMPI PUSH1 0x20 CALLDATASIZE PUSH1 0x3 NOT ADD SLT PUSH2 0x20E JUMPI PUSH1 0x1 PUSH1 0x1 PUSH1 0xA0 SHL SUB PUSH2 0x2282 PUSH2 0x2A00 JUMP JUMPDEST AND DUP1 ISZERO PUSH2 0x22A1 JUMPI PUSH1 0x0 MSTORE PUSH1 0x3 PUSH1 0x20 MSTORE PUSH1 0x20 PUSH1 0x40 PUSH1 0x0 KECCAK256 SLOAD PUSH1 0x40 MLOAD SWAP1 DUP2 MSTORE RETURN JUMPDEST PUSH1 0x40 MLOAD PUSH4 0x22718AD9 PUSH1 0xE2 SHL DUP2 MSTORE PUSH1 0x0 PUSH1 0x4 DUP3 ADD MSTORE PUSH1 0x24 SWAP1 REVERT JUMPDEST CALLVALUE PUSH2 0x20E JUMPI PUSH1 0x20 CALLDATASIZE PUSH1 0x3 NOT ADD SLT PUSH2 0x20E JUMPI PUSH1 0x20 PUSH2 0x22D8 PUSH1 0x4 CALLDATALOAD PUSH2 0x3053 JUMP JUMPDEST PUSH1 0x40 MLOAD PUSH1 0x1 PUSH1 0x1 PUSH1 0xA0 SHL SUB SWAP1 SWAP2 AND DUP2 MSTORE RETURN JUMPDEST CALLVALUE PUSH2 0x20E JUMPI PUSH1 0x0 CALLDATASIZE PUSH1 0x3 NOT ADD SLT PUSH2 0x20E JUMPI PUSH1 0x20 PUSH1 0xFF PUSH1 0x6 SLOAD PUSH1 0xA0 SHR AND PUSH1 0x40 MLOAD SWAP1 ISZERO ISZERO DUP2 MSTORE RETURN JUMPDEST CALLVALUE PUSH2 0x20E JUMPI PUSH2 0x1DF3 PUSH2 0x2321 CALLDATASIZE PUSH2 0x2DA6 JUMP JUMPDEST SWAP1 PUSH1 0x40 MLOAD SWAP3 PUSH2 0x232F DUP5 PUSH2 0x2A48 JUMP JUMPDEST PUSH1 0x0 DUP5 MSTORE PUSH2 0x1DED DUP4 DUP4 DUP4 PUSH2 0x2E07 JUMP JUMPDEST CALLVALUE PUSH2 0x20E JUMPI PUSH1 0x0 CALLDATASIZE PUSH1 0x3 NOT ADD SLT PUSH2 0x20E JUMPI PUSH2 0x2357 PUSH2 0x2DDB JUMP JUMPDEST PUSH1 0x6 SLOAD PUSH1 0xFF DUP2 PUSH1 0xA0 SHR AND ISZERO PUSH2 0x239E JUMPI PUSH1 0xFF PUSH1 0xA0 SHL NOT AND PUSH1 0x6 SSTORE PUSH1 0x40 MLOAD CALLER DUP2 MSTORE PUSH32 0x5DB9EE0A495BF2E6FF9C91A7834C1BA4FDD244A5E8AA4E537BD38AEAE4B073AA SWAP1 PUSH1 0x20 SWAP1 LOG1 STOP JUMPDEST PUSH1 0x40 MLOAD PUSH4 0x8DFC202B PUSH1 0xE0 SHL DUP2 MSTORE PUSH1 0x4 SWAP1 REVERT JUMPDEST CALLVALUE PUSH2 0x20E JUMPI PUSH2 0x1DF3 PUSH2 0x23C1 CALLDATASIZE PUSH2 0x2DA6 JUMP JUMPDEST SWAP2 PUSH2 0x2E07 JUMP JUMPDEST CALLVALUE PUSH2 0x20E JUMPI PUSH1 0x20 CALLDATASIZE PUSH1 0x3 NOT ADD SLT PUSH2 0x20E JUMPI PUSH1 0x4 CALLDATALOAD PUSH1 0x1 PUSH1 0x1 PUSH1 0x40 SHL SUB DUP2 GT PUSH2 0x20E JUMPI PUSH2 0x23FD PUSH1 0x20 PUSH2 0x21DC DUP2 SWAP4 CALLDATASIZE SWAP1 PUSH1 0x4 ADD PUSH2 0x2AD6 JUMP JUMPDEST DUP2 ADD PUSH1 0xA DUP2 MSTORE SUB ADD SWAP1 KECCAK256 SLOAD PUSH1 0x40 MLOAD SWAP1 DUP2 MSTORE RETURN JUMPDEST CALLVALUE PUSH2 0x20E JUMPI PUSH1 0x20 CALLDATASIZE PUSH1 0x3 NOT ADD SLT PUSH2 0x20E JUMPI PUSH1 0x4 CALLDATALOAD PUSH1 0x0 MSTORE PUSH1 0x9 PUSH1 0x20 MSTORE PUSH1 0x40 PUSH1 0x0 KECCAK256 PUSH2 0x243A DUP2 PUSH2 0x2CDA JUMP JUMPDEST PUSH2 0x2446 PUSH1 0x1 DUP4 ADD PUSH2 0x2CDA JUMP JUMPDEST PUSH1 0xC0 MSTORE PUSH2 0x2455 PUSH1 0x2 DUP4 ADD PUSH2 0x2CDA JUMP JUMPDEST PUSH2 0x120 MSTORE PUSH2 0x2465 PUSH1 0x3 DUP4 ADD PUSH2 0x2CDA JUMP JUMPDEST PUSH2 0x160 MSTORE PUSH2 0x2475 PUSH1 0x4 DUP4 ADD PUSH2 0x2CDA JUMP JUMPDEST PUSH2 0x2481 PUSH1 0x5 DUP5 ADD PUSH2 0x2CDA JUMP JUMPDEST SWAP1 PUSH2 0x248E PUSH1 0x6 DUP6 ADD PUSH2 0x2CDA JUMP JUMPDEST SWAP2 PUSH1 0x7 DUP6 ADD SLOAD PUSH1 0x8 DUP7 ADD PUSH2 0x24A1 SWAP1 PUSH2 0x2CDA JUMP JUMPDEST PUSH1 0x9 DUP8 ADD SLOAD SWAP1 PUSH2 0x24B3 PUSH1 0xA DUP10 ADD PUSH2 0x2CDA JUMP JUMPDEST SWAP3 PUSH1 0xB DUP10 ADD SLOAD SWAP7 PUSH1 0xC DUP11 ADD SLOAD SWAP6 PUSH1 0xD DUP12 ADD SLOAD SWAP8 PUSH1 0xE DUP13 ADD PUSH2 0x24D3 SWAP1 PUSH2 0x2CDA JUMP JUMPDEST SWAP11 PUSH2 0x24E0 PUSH1 0xF DUP15 ADD PUSH2 0x2CDA JUMP JUMPDEST SWAP13 PUSH2 0x24ED PUSH1 0x10 DUP3 ADD PUSH2 0x2CDA JUMP JUMPDEST PUSH1 0xA0 MSTORE PUSH1 0x11 DUP2 ADD SLOAD PUSH2 0x100 MSTORE PUSH1 0x12 DUP2 ADD SLOAD PUSH2 0x140 MSTORE PUSH1 0x13 ADD PUSH2 0x250E SWAP1 PUSH2 0x2CDA JUMP JUMPDEST PUSH1 0xE0 MSTORE PUSH1 0x40 MLOAD DUP1 PUSH1 0x80 MSTORE PUSH2 0x2A0 DUP1 SWAP2 MSTORE PUSH1 0x80 MLOAD ADD PUSH2 0x252B SWAP2 PUSH2 0x29DB JUMP JUMPDEST PUSH1 0x80 MLOAD DUP1 DUP3 SUB SWAP1 PUSH1 0x20 ADD MSTORE PUSH1 0xC0 MLOAD SWAP1 PUSH2 0x2543 SWAP2 PUSH2 0x29DB JUMP JUMPDEST PUSH1 0x80 MLOAD DUP1 DUP3 SUB SWAP1 PUSH1 0x40 ADD MSTORE PUSH2 0x120 MLOAD SWAP1 PUSH2 0x255C SWAP2 PUSH2 0x29DB JUMP JUMPDEST PUSH1 0x80 MLOAD DUP1 DUP3 SUB SWAP1 PUSH1 0x60 ADD MSTORE PUSH2 0x160 MLOAD SWAP1 PUSH2 0x2575 SWAP2 PUSH2 0x29DB JUMP JUMPDEST PUSH1 0x80 MLOAD DUP1 DUP3 SUB SWAP1 PUSH1 0x80 ADD MSTORE PUSH2 0x2589 SWAP2 PUSH2 0x29DB JUMP JUMPDEST PUSH1 0x80 MLOAD DUP1 DUP3 SUB SWAP1 PUSH1 0xA0 ADD MSTORE PUSH2 0x259D SWAP2 PUSH2 0x29DB JUMP JUMPDEST PUSH1 0x80 MLOAD DUP1 DUP3 SUB SWAP1 PUSH1 0xC0 ADD MSTORE PUSH2 0x25B1 SWAP2 PUSH2 0x29DB JUMP JUMPDEST SWAP1 PUSH1 0x80 MLOAD PUSH1 0xE0 ADD MSTORE PUSH1 0x80 MLOAD DUP1 DUP3 SUB SWAP1 PUSH2 0x100 ADD MSTORE PUSH2 0x25CE SWAP2 PUSH2 0x29DB JUMP JUMPDEST SWAP1 PUSH1 0x80 MLOAD PUSH2 0x120 ADD MSTORE PUSH1 0x80 MLOAD DUP1 DUP3 SUB SWAP1 PUSH2 0x140 ADD MSTORE PUSH2 0x25EC SWAP2 PUSH2 0x29DB JUMP JUMPDEST SWAP3 PUSH1 0x80 MLOAD PUSH2 0x160 ADD MSTORE PUSH1 0x80 MLOAD PUSH2 0x180 ADD MSTORE PUSH1 0x80 MLOAD PUSH2 0x1A0 ADD MSTORE PUSH1 0x80 MLOAD DUP1 DUP3 SUB SWAP1 PUSH2 0x1C0 ADD MSTORE PUSH2 0x261A SWAP2 PUSH2 0x29DB JUMP JUMPDEST PUSH1 0x80 MLOAD DUP1 DUP3 SUB SWAP1 PUSH2 0x1E0 ADD MSTORE PUSH2 0x262F SWAP2 PUSH2 0x29DB JUMP JUMPDEST PUSH1 0x80 MLOAD DUP1 DUP3 SUB SWAP1 PUSH2 0x200 ADD MSTORE PUSH1 0xA0 MLOAD SWAP1 PUSH2 0x2648 SWAP2 PUSH2 0x29DB JUMP JUMPDEST PUSH1 0x1 PUSH1 0xA0 SHL PUSH1 0x1 SWAP1 SUB PUSH2 0x100 MLOAD AND PUSH1 0x80 MLOAD PUSH2 0x220 ADD MSTORE PUSH2 0x100 MLOAD PUSH1 0xA0 SHR PUSH1 0xFF AND ISZERO ISZERO PUSH1 0x80 MLOAD PUSH2 0x240 ADD MSTORE PUSH2 0x140 MLOAD PUSH1 0x80 MLOAD PUSH2 0x260 ADD MSTORE PUSH1 0x80 MLOAD DUP1 DUP3 SUB SWAP1 PUSH2 0x280 ADD MSTORE PUSH1 0x80 MLOAD SWAP1 PUSH1 0xE0 MLOAD SWAP1 PUSH2 0x269B SWAP2 PUSH2 0x29DB JUMP JUMPDEST SUB PUSH1 0x80 MLOAD RETURN JUMPDEST CALLVALUE PUSH2 0x20E JUMPI PUSH1 0x20 DUP1 PUSH1 0x3 NOT CALLDATASIZE ADD SLT PUSH2 0x20E JUMPI PUSH1 0x4 CALLDATALOAD PUSH1 0x1 PUSH1 0x1 PUSH1 0x40 SHL SUB DUP2 GT PUSH2 0x20E JUMPI DUP2 PUSH2 0x26D6 PUSH2 0x26F2 SWAP3 CALLDATASIZE SWAP1 PUSH1 0x4 ADD PUSH2 0x2AD6 JUMP JUMPDEST PUSH2 0x26DE PUSH2 0x33BA JUMP JUMPDEST POP DUP2 PUSH1 0x40 MLOAD SWAP4 DUP3 DUP6 DUP1 SWAP5 MLOAD SWAP4 DUP5 SWAP3 ADD PUSH2 0x29B8 JUMP JUMPDEST DUP2 ADD PUSH1 0xA DUP2 MSTORE SUB ADD SWAP1 KECCAK256 SLOAD SWAP1 DUP2 ISZERO PUSH2 0x274D JUMPI PUSH2 0x3A6 SWAP2 PUSH1 0x0 MSTORE PUSH1 0x9 DUP2 MSTORE PUSH2 0x394 PUSH1 0x13 PUSH1 0x40 PUSH1 0x0 KECCAK256 PUSH1 0x40 MLOAD SWAP4 PUSH2 0x2726 DUP6 PUSH2 0x2A2C JUMP JUMPDEST PUSH2 0x272F DUP3 PUSH2 0x2CDA JUMP JUMPDEST DUP6 MSTORE PUSH2 0x273D PUSH1 0x1 DUP4 ADD PUSH2 0x2CDA JUMP JUMPDEST SWAP1 DUP6 ADD MSTORE PUSH2 0x287 PUSH1 0x2 DUP3 ADD PUSH2 0x2CDA JUMP JUMPDEST PUSH1 0x64 SWAP1 PUSH1 0x40 MLOAD SWAP1 PUSH3 0x461BCD PUSH1 0xE5 SHL DUP3 MSTORE PUSH1 0x4 DUP3 ADD MSTORE PUSH1 0x11 PUSH1 0x24 DUP3 ADD MSTORE PUSH17 0x141C9BDA9958DD081B9BDD08199BDD5B99 PUSH1 0x7A SHL PUSH1 0x44 DUP3 ADD MSTORE REVERT JUMPDEST CALLVALUE PUSH2 0x20E JUMPI PUSH1 0x40 CALLDATASIZE PUSH1 0x3 NOT ADD SLT PUSH2 0x20E JUMPI PUSH2 0x279E PUSH2 0x2A00 JUMP JUMPDEST PUSH1 0x24 CALLDATALOAD PUSH2 0x27AA DUP2 PUSH2 0x3053 JUMP JUMPDEST CALLER ISZERO ISZERO DUP1 PUSH2 0x2859 JUMPI JUMPDEST DUP1 PUSH2 0x282C JUMPI JUMPDEST PUSH2 0x2814 JUMPI PUSH1 0x1 PUSH1 0x1 PUSH1 0xA0 SHL SUB SWAP3 DUP4 AND SWAP3 DUP3 SWAP2 DUP5 SWAP2 AND PUSH32 0x8C5BE1E5EBEC7D5BD14F71427D1E84F3DD0314C0F7B2291E5B200AC8C7C3B925 PUSH1 0x0 DUP1 LOG4 PUSH1 0x0 SWAP1 DUP2 MSTORE PUSH1 0x4 PUSH1 0x20 MSTORE PUSH1 0x40 SWAP1 KECCAK256 DUP1 SLOAD PUSH1 0x1 PUSH1 0x1 PUSH1 0xA0 SHL SUB NOT AND SWAP1 SWAP2 OR SWAP1 SSTORE STOP JUMPDEST PUSH1 0x40 MLOAD PUSH4 0xA9FBF51F PUSH1 0xE0 SHL DUP2 MSTORE CALLER PUSH1 0x4 DUP3 ADD MSTORE PUSH1 0x24 SWAP1 REVERT JUMPDEST POP PUSH1 0x1 DUP1 PUSH1 0xA0 SHL SUB DUP2 AND PUSH1 0x0 MSTORE PUSH1 0x5 PUSH1 0x20 MSTORE PUSH1 0x40 PUSH1 0x0 KECCAK256 CALLER PUSH1 0x0 MSTORE PUSH1 0x20 MSTORE PUSH1 0xFF PUSH1 0x40 PUSH1 0x0 KECCAK256 SLOAD AND ISZERO PUSH2 0x27B9 JUMP JUMPDEST POP PUSH1 0x1 PUSH1 0x1 PUSH1 0xA0 SHL SUB DUP2 AND CALLER EQ ISZERO PUSH2 0x27B3 JUMP JUMPDEST CALLVALUE PUSH2 0x20E JUMPI PUSH1 0x20 CALLDATASIZE PUSH1 0x3 NOT ADD SLT PUSH2 0x20E JUMPI PUSH1 0x4 CALLDATALOAD PUSH2 0x2889 DUP2 PUSH2 0x3053 JUMP JUMPDEST POP PUSH1 0x0 MSTORE PUSH1 0x4 PUSH1 0x20 MSTORE PUSH1 0x20 PUSH1 0x1 DUP1 PUSH1 0xA0 SHL SUB PUSH1 0x40 PUSH1 0x0 KECCAK256 SLOAD AND PUSH1 0x40 MLOAD SWAP1 DUP2 MSTORE RETURN JUMPDEST CALLVALUE PUSH2 0x20E JUMPI PUSH1 0x0 CALLDATASIZE PUSH1 0x3 NOT ADD SLT PUSH2 0x20E JUMPI PUSH1 0x40 MLOAD PUSH1 0x0 DUP1 SLOAD PUSH2 0x28CB DUP2 PUSH2 0x2CA0 JUMP JUMPDEST DUP1 DUP5 MSTORE SWAP1 PUSH1 0x1 SWAP1 DUP2 DUP2 AND SWAP1 DUP2 ISZERO PUSH2 0x1F52 JUMPI POP PUSH1 0x1 EQ PUSH2 0x28F4 JUMPI PUSH2 0x3A6 DUP5 PUSH2 0x1EE5 DUP2 DUP7 SUB DUP3 PUSH2 0x2A63 JUMP JUMPDEST PUSH1 0x0 DUP1 DUP1 MSTORE SWAP3 POP PUSH32 0x290DECD9548B62A8D60345A988386FC84BA6BC95484008F6362F93160EF3E563 JUMPDEST DUP3 DUP5 LT PUSH2 0x2935 JUMPI POP POP POP DUP2 ADD PUSH1 0x20 ADD PUSH2 0x1EE5 DUP3 PUSH2 0x1ED5 JUMP JUMPDEST DUP1 SLOAD PUSH1 0x20 DUP6 DUP8 ADD DUP2 ADD SWAP2 SWAP1 SWAP2 MSTORE SWAP1 SWAP4 ADD SWAP3 DUP2 ADD PUSH2 0x291D JUMP JUMPDEST CALLVALUE PUSH2 0x20E JUMPI PUSH1 0x20 CALLDATASIZE PUSH1 0x3 NOT ADD SLT PUSH2 0x20E JUMPI PUSH1 0x4 CALLDATALOAD SWAP1 PUSH4 0xFFFFFFFF PUSH1 0xE0 SHL DUP3 AND DUP1 SWAP3 SUB PUSH2 0x20E JUMPI PUSH1 0x20 SWAP2 PUSH4 0x80AC58CD PUSH1 0xE0 SHL DUP2 EQ SWAP1 DUP2 ISZERO PUSH2 0x29A7 JUMPI JUMPDEST DUP2 ISZERO PUSH2 0x2996 JUMPI JUMPDEST POP ISZERO ISZERO DUP2 MSTORE RETURN JUMPDEST PUSH4 0x1FFC9A7 PUSH1 0xE0 SHL EQ SWAP1 POP DUP4 PUSH2 0x298F JUMP JUMPDEST PUSH4 0x5B5E139F PUSH1 0xE0 SHL DUP2 EQ SWAP2 POP PUSH2 0x2988 JUMP JUMPDEST PUSH1 0x0 JUMPDEST DUP4 DUP2 LT PUSH2 0x29CB JUMPI POP POP PUSH1 0x0 SWAP2 ADD MSTORE JUMP JUMPDEST DUP2 DUP2 ADD MLOAD DUP4 DUP3 ADD MSTORE PUSH1 0x20 ADD PUSH2 0x29BB JUMP JUMPDEST SWAP1 PUSH1 0x20 SWAP2 PUSH2 0x29F4 DUP2 MLOAD DUP1 SWAP3 DUP2 DUP6 MSTORE DUP6 DUP1 DUP7 ADD SWAP2 ADD PUSH2 0x29B8 JUMP JUMPDEST PUSH1 0x1F ADD PUSH1 0x1F NOT AND ADD ADD SWAP1 JUMP JUMPDEST PUSH1 0x4 CALLDATALOAD SWAP1 PUSH1 0x1 PUSH1 0x1 PUSH1 0xA0 SHL SUB DUP3 AND DUP3 SUB PUSH2 0x20E JUMPI JUMP JUMPDEST PUSH1 0x24 CALLDATALOAD SWAP1 PUSH1 0x1 PUSH1 0x1 PUSH1 0xA0 SHL SUB DUP3 AND DUP3 SUB PUSH2 0x20E JUMPI JUMP JUMPDEST PUSH2 0x2A0 DUP2 ADD SWAP1 DUP2 LT PUSH1 0x1 PUSH1 0x1 PUSH1 0x40 SHL SUB DUP3 GT OR PUSH2 0xFCB JUMPI PUSH1 0x40 MSTORE JUMP JUMPDEST PUSH1 0x20 DUP2 ADD SWAP1 DUP2 LT PUSH1 0x1 PUSH1 0x1 PUSH1 0x40 SHL SUB DUP3 GT OR PUSH2 0xFCB JUMPI PUSH1 0x40 MSTORE JUMP JUMPDEST SWAP1 PUSH1 0x1F DUP1 NOT SWAP2 ADD AND DUP2 ADD SWAP1 DUP2 LT PUSH1 0x1 PUSH1 0x1 PUSH1 0x40 SHL SUB DUP3 GT OR PUSH2 0xFCB JUMPI PUSH1 0x40 MSTORE JUMP JUMPDEST PUSH1 0x1 PUSH1 0x1 PUSH1 0x40 SHL SUB DUP2 GT PUSH2 0xFCB JUMPI PUSH1 0x1F ADD PUSH1 0x1F NOT AND PUSH1 0x20 ADD SWAP1 JUMP JUMPDEST SWAP3 SWAP2 SWAP3 PUSH2 0x2AAB DUP3 PUSH2 0x2A84 JUMP JUMPDEST SWAP2 PUSH2 0x2AB9 PUSH1 0x40 MLOAD SWAP4 DUP5 PUSH2 0x2A63 JUMP JUMPDEST DUP3 SWAP5 DUP2 DUP5 MSTORE DUP2 DUP4 ADD GT PUSH2 0x20E JUMPI DUP3 DUP2 PUSH1 0x20 SWAP4 DUP5 PUSH1 0x0 SWAP7 ADD CALLDATACOPY ADD ADD MSTORE JUMP JUMPDEST SWAP1 DUP1 PUSH1 0x1F DUP4 ADD SLT ISZERO PUSH2 0x20E JUMPI DUP2 PUSH1 0x20 PUSH2 0x2AF1 SWAP4 CALLDATALOAD SWAP2 ADD PUSH2 0x2A9F JUMP JUMPDEST SWAP1 JUMP JUMPDEST SWAP1 PUSH2 0x2AF1 SWAP2 PUSH1 0x20 DUP2 MSTORE DUP2 MLOAD SWAP1 PUSH2 0x2B18 PUSH2 0x2A0 SWAP3 DUP4 PUSH1 0x20 DUP5 ADD MSTORE PUSH2 0x2C0 DUP4 ADD SWAP1 PUSH2 0x29DB JUMP JUMPDEST SWAP2 PUSH2 0x2BA8 PUSH2 0x2B94 PUSH2 0x2B80 PUSH2 0x2B6C PUSH2 0x2B58 PUSH2 0x2B44 PUSH1 0x20 DUP11 ADD MLOAD SWAP9 PUSH1 0x1F NOT SWAP10 DUP11 DUP11 DUP4 SUB ADD PUSH1 0x40 DUP12 ADD MSTORE PUSH2 0x29DB JUMP JUMPDEST PUSH1 0x40 DUP11 ADD MLOAD DUP10 DUP10 DUP4 SUB ADD PUSH1 0x60 DUP11 ADD MSTORE PUSH2 0x29DB JUMP JUMPDEST PUSH1 0x60 DUP10 ADD MLOAD DUP9 DUP9 DUP4 SUB ADD PUSH1 0x80 DUP10 ADD MSTORE PUSH2 0x29DB JUMP JUMPDEST PUSH1 0x80 DUP9 ADD MLOAD DUP8 DUP8 DUP4 SUB ADD PUSH1 0xA0 DUP9 ADD MSTORE PUSH2 0x29DB JUMP JUMPDEST PUSH1 0xA0 DUP8 ADD MLOAD DUP7 DUP7 DUP4 SUB ADD PUSH1 0xC0 DUP8 ADD MSTORE PUSH2 0x29DB JUMP JUMPDEST PUSH1 0xC0 DUP7 ADD MLOAD DUP6 DUP6 DUP4 SUB ADD PUSH1 0xE0 DUP7 ADD MSTORE PUSH2 0x29DB JUMP JUMPDEST SWAP4 PUSH2 0x2C63 PUSH2 0x2C4C PUSH2 0x2C35 PUSH2 0x2BFD PUSH2 0x2BDB PUSH1 0xE0 DUP7 ADD MLOAD PUSH2 0x100 SWAP1 DUP2 DUP11 ADD MSTORE DUP7 ADD MLOAD SWAP10 PUSH2 0x120 SWAP11 DUP11 DUP11 DUP4 SUB ADD DUP13 DUP12 ADD MSTORE PUSH2 0x29DB JUMP JUMPDEST SWAP9 DUP6 ADD MLOAD PUSH2 0x140 SWAP1 DUP2 DUP10 ADD MSTORE DUP6 ADD MLOAD SWAP9 PUSH2 0x160 SWAP10 DUP10 DUP10 DUP4 SUB ADD DUP12 DUP11 ADD MSTORE PUSH2 0x29DB JUMP JUMPDEST SWAP8 DUP5 ADD MLOAD PUSH2 0x180 SWAP1 DUP2 DUP9 ADD MSTORE DUP5 ADD MLOAD PUSH2 0x1A0 SWAP1 DUP2 DUP9 ADD MSTORE DUP5 ADD MLOAD PUSH2 0x1C0 SWAP1 DUP2 DUP9 ADD MSTORE DUP5 ADD MLOAD SWAP8 PUSH2 0x1E0 SWAP9 DUP9 DUP9 DUP4 SUB ADD DUP11 DUP10 ADD MSTORE PUSH2 0x29DB JUMP JUMPDEST SWAP7 DUP4 ADD MLOAD SWAP7 PUSH2 0x200 SWAP8 DUP8 DUP8 DUP4 SUB ADD DUP10 DUP9 ADD MSTORE PUSH2 0x29DB JUMP JUMPDEST SWAP6 DUP3 ADD MLOAD SWAP6 PUSH2 0x220 SWAP7 DUP7 DUP7 DUP4 SUB ADD DUP9 DUP8 ADD MSTORE PUSH2 0x29DB JUMP JUMPDEST SWAP5 PUSH1 0x1 DUP1 PUSH1 0xA0 SHL SUB SWAP1 DUP3 ADD MLOAD AND PUSH2 0x240 SWAP1 DUP2 DUP6 ADD MSTORE DUP2 ADD MLOAD ISZERO ISZERO PUSH2 0x260 SWAP1 DUP2 DUP6 ADD MSTORE DUP2 ADD MLOAD SWAP1 PUSH2 0x280 SWAP2 DUP3 DUP6 ADD MSTORE ADD MLOAD SWAP3 DUP3 DUP6 SUB ADD SWAP2 ADD MSTORE PUSH2 0x29DB JUMP JUMPDEST SWAP1 PUSH1 0x1 DUP3 DUP2 SHR SWAP3 AND DUP1 ISZERO PUSH2 0x2CD0 JUMPI JUMPDEST PUSH1 0x20 DUP4 LT EQ PUSH2 0x2CBA JUMPI JUMP JUMPDEST PUSH4 0x4E487B71 PUSH1 0xE0 SHL PUSH1 0x0 MSTORE PUSH1 0x22 PUSH1 0x4 MSTORE PUSH1 0x24 PUSH1 0x0 REVERT JUMPDEST SWAP2 PUSH1 0x7F AND SWAP2 PUSH2 0x2CAF JUMP JUMPDEST SWAP1 PUSH1 0x40 MLOAD SWAP2 DUP3 PUSH1 0x0 DUP3 SLOAD SWAP3 PUSH2 0x2CEE DUP5 PUSH2 0x2CA0 JUMP JUMPDEST SWAP1 DUP2 DUP5 MSTORE PUSH1 0x1 SWAP5 DUP6 DUP2 AND SWAP1 DUP2 PUSH1 0x0 EQ PUSH2 0x2D5D JUMPI POP PUSH1 0x1 EQ PUSH2 0x2D1A JUMPI JUMPDEST POP POP PUSH2 0x2D18 SWAP3 POP SUB DUP4 PUSH2 0x2A63 JUMP JUMPDEST JUMP JUMPDEST SWAP1 SWAP4 SWAP2 POP PUSH1 0x0 MSTORE PUSH1 0x20 SWAP1 DUP2 PUSH1 0x0 KECCAK256 SWAP4 PUSH1 0x0 SWAP2 JUMPDEST DUP2 DUP4 LT PUSH2 0x2D45 JUMPI POP POP PUSH2 0x2D18 SWAP4 POP DUP3 ADD ADD CODESIZE DUP1 PUSH2 0x2D0A JUMP JUMPDEST DUP6 SLOAD DUP9 DUP5 ADD DUP6 ADD MSTORE SWAP5 DUP6 ADD SWAP5 DUP8 SWAP5 POP SWAP2 DUP4 ADD SWAP2 PUSH2 0x2D2D JUMP JUMPDEST SWAP2 POP POP PUSH2 0x2D18 SWAP5 POP PUSH1 0x20 SWAP3 POP PUSH1 0xFF NOT AND DUP3 DUP5 ADD MSTORE ISZERO ISZERO PUSH1 0x5 SHL DUP3 ADD ADD CODESIZE DUP1 PUSH2 0x2D0A JUMP JUMPDEST PUSH1 0x20 PUSH2 0x2D99 SWAP2 DUP2 PUSH1 0x40 MLOAD SWAP4 DUP3 DUP6 DUP1 SWAP5 MLOAD SWAP4 DUP5 SWAP3 ADD PUSH2 0x29B8 JUMP JUMPDEST DUP2 ADD PUSH1 0xA DUP2 MSTORE SUB ADD SWAP1 KECCAK256 SWAP1 JUMP JUMPDEST PUSH1 0x60 SWAP1 PUSH1 0x3 NOT ADD SLT PUSH2 0x20E JUMPI PUSH1 0x1 PUSH1 0x1 PUSH1 0xA0 SHL SUB SWAP1 PUSH1 0x4 CALLDATALOAD DUP3 DUP2 AND DUP2 SUB PUSH2 0x20E JUMPI SWAP2 PUSH1 0x24 CALLDATALOAD SWAP1 DUP2 AND DUP2 SUB PUSH2 0x20E JUMPI SWAP1 PUSH1 0x44 CALLDATALOAD SWAP1 JUMP JUMPDEST PUSH1 0x6 SLOAD PUSH1 0x1 PUSH1 0x1 PUSH1 0xA0 SHL SUB AND CALLER SUB PUSH2 0x2DEF JUMPI JUMP JUMPDEST PUSH1 0x40 MLOAD PUSH4 0x118CDAA7 PUSH1 0xE0 SHL DUP2 MSTORE CALLER PUSH1 0x4 DUP3 ADD MSTORE PUSH1 0x24 SWAP1 REVERT JUMPDEST SWAP1 PUSH1 0x1 PUSH1 0x1 PUSH1 0xA0 SHL SUB SWAP1 DUP2 AND DUP1 ISZERO PUSH2 0xF37 JUMPI PUSH1 0x0 SWAP2 DUP5 DUP4 MSTORE DUP5 PUSH1 0x20 SWAP3 PUSH1 0x2 DUP5 MSTORE PUSH1 0x40 SWAP4 DUP4 DUP6 DUP8 KECCAK256 SLOAD AND SWAP6 DUP7 SWAP2 CALLER ISZERO ISZERO DUP1 PUSH2 0x2F01 JUMPI JUMPDEST POP SWAP1 PUSH1 0x2 PUSH32 0xDDF252AD1BE2C89B69C2B068FC378DAA952BA7F163C4A11628F55A4DF523B3EF SWAP3 DUP5 PUSH2 0x2ECE JUMPI JUMPDEST DUP6 DUP4 MSTORE PUSH1 0x3 DUP2 MSTORE DUP9 DUP4 KECCAK256 DUP1 SLOAD PUSH1 0x1 ADD SWAP1 SSTORE DUP7 DUP4 MSTORE MSTORE DUP7 DUP2 KECCAK256 DUP1 SLOAD PUSH1 0x1 PUSH1 0x1 PUSH1 0xA0 SHL SUB NOT AND DUP6 OR SWAP1 SSTORE DUP1 LOG4 DUP4 AND DUP3 SUB PUSH2 0x2EA0 JUMPI POP POP POP POP JUMP JUMPDEST MLOAD PUSH4 0x64283D7B PUSH1 0xE0 SHL DUP2 MSTORE PUSH1 0x1 PUSH1 0x1 PUSH1 0xA0 SHL SUB SWAP3 DUP4 AND PUSH1 0x4 DUP3 ADD MSTORE PUSH1 0x24 DUP2 ADD SWAP4 SWAP1 SWAP4 MSTORE AND PUSH1 0x44 DUP3 ADD MSTORE PUSH1 0x64 SWAP1 REVERT JUMPDEST PUSH1 0x0 DUP8 DUP2 MSTORE PUSH1 0x4 PUSH1 0x20 MSTORE PUSH1 0x40 SWAP1 KECCAK256 DUP1 SLOAD PUSH1 0x1 PUSH1 0x1 PUSH1 0xA0 SHL SUB NOT AND SWAP1 SSTORE DUP5 DUP4 MSTORE PUSH1 0x3 DUP2 MSTORE DUP9 DUP4 KECCAK256 DUP1 SLOAD PUSH1 0x0 NOT ADD SWAP1 SSTORE PUSH2 0x2E68 JUMP JUMPDEST SWAP2 SWAP4 SWAP5 POP SWAP2 POP DUP1 PUSH2 0x2F56 JUMPI JUMPDEST ISZERO PUSH2 0x2F1D JUMPI DUP8 SWAP3 SWAP2 DUP7 SWAP2 CODESIZE PUSH2 0x2E3C JUMP JUMPDEST DUP5 DUP9 DUP8 PUSH2 0x2F3A JUMPI PUSH1 0x24 SWAP2 MLOAD SWAP1 PUSH4 0x7E273289 PUSH1 0xE0 SHL DUP3 MSTORE PUSH1 0x4 DUP3 ADD MSTORE REVERT JUMPDEST PUSH1 0x44 SWAP2 MLOAD SWAP1 PUSH4 0x177E802F PUSH1 0xE0 SHL DUP3 MSTORE CALLER PUSH1 0x4 DUP4 ADD MSTORE PUSH1 0x24 DUP3 ADD MSTORE REVERT JUMPDEST POP CALLER DUP7 EQ DUP1 ISZERO PUSH2 0x2F7B JUMPI JUMPDEST DUP1 PUSH2 0x2F0D JUMPI POP DUP8 DUP3 MSTORE PUSH1 0x4 DUP2 MSTORE CALLER DUP5 DUP7 DUP5 KECCAK256 SLOAD AND EQ PUSH2 0x2F0D JUMP JUMPDEST POP DUP6 DUP3 MSTORE PUSH1 0x5 DUP2 MSTORE DUP5 DUP3 KECCAK256 CALLER DUP4 MSTORE DUP2 MSTORE PUSH1 0xFF DUP6 DUP4 KECCAK256 SLOAD AND PUSH2 0x2F61 JUMP JUMPDEST PUSH1 0x0 DUP3 DUP2 MSTORE PUSH1 0x2 PUSH1 0x20 MSTORE PUSH1 0x40 DUP2 KECCAK256 SLOAD PUSH1 0x1 PUSH1 0x1 PUSH1 0xA0 SHL SUB SWAP1 DUP2 AND SWAP4 SWAP3 DUP5 SWAP2 PUSH32 0xDDF252AD1BE2C89B69C2B068FC378DAA952BA7F163C4A11628F55A4DF523B3EF SWAP2 DUP4 PUSH2 0x301E JUMPI JUMPDEST AND SWAP3 DUP4 PUSH2 0x3006 JUMPI JUMPDEST DUP5 DUP2 MSTORE PUSH1 0x2 PUSH1 0x20 MSTORE PUSH1 0x40 DUP2 KECCAK256 DUP1 SLOAD PUSH1 0x1 PUSH1 0x1 PUSH1 0xA0 SHL SUB NOT AND DUP6 OR SWAP1 SSTORE DUP1 LOG4 SWAP1 JUMP JUMPDEST DUP4 DUP2 MSTORE PUSH1 0x3 PUSH1 0x20 MSTORE PUSH1 0x40 DUP2 KECCAK256 PUSH1 0x1 DUP2 SLOAD ADD SWAP1 SSTORE PUSH2 0x2FE5 JUMP JUMPDEST PUSH1 0x0 DUP7 DUP2 MSTORE PUSH1 0x4 PUSH1 0x20 MSTORE PUSH1 0x40 SWAP1 KECCAK256 DUP1 SLOAD PUSH1 0x1 PUSH1 0x1 PUSH1 0xA0 SHL SUB NOT AND SWAP1 SSTORE DUP4 DUP6 MSTORE PUSH1 0x3 PUSH1 0x20 MSTORE PUSH1 0x40 DUP6 KECCAK256 DUP1 SLOAD PUSH1 0x0 NOT ADD SWAP1 SSTORE PUSH2 0x2FDD JUMP JUMPDEST PUSH1 0x0 DUP2 DUP2 MSTORE PUSH1 0x2 PUSH1 0x20 MSTORE PUSH1 0x40 SWAP1 KECCAK256 SLOAD PUSH1 0x1 PUSH1 0x1 PUSH1 0xA0 SHL SUB AND SWAP1 DUP2 ISZERO PUSH2 0x3076 JUMPI POP SWAP1 JUMP JUMPDEST PUSH1 0x24 SWAP1 PUSH1 0x40 MLOAD SWAP1 PUSH4 0x7E273289 PUSH1 0xE0 SHL DUP3 MSTORE PUSH1 0x4 DUP3 ADD MSTORE REVERT JUMPDEST SWAP1 SWAP4 SWAP2 SWAP3 DUP4 EXTCODESIZE PUSH2 0x30A0 JUMPI JUMPDEST POP POP POP POP POP JUMP JUMPDEST PUSH1 0x40 MLOAD PUSH4 0xA85BD01 PUSH1 0xE1 SHL DUP1 DUP3 MSTORE PUSH1 0x1 PUSH1 0x1 PUSH1 0xA0 SHL SUB SWAP4 DUP5 AND PUSH1 0x4 DUP4 ADD MSTORE SWAP6 DUP4 AND PUSH1 0x24 DUP3 ADD MSTORE PUSH1 0x44 DUP2 ADD SWAP2 SWAP1 SWAP2 MSTORE PUSH1 0x80 PUSH1 0x64 DUP3 ADD MSTORE SWAP5 SWAP3 AND SWAP3 PUSH1 0x20 SWAP3 SWAP2 DUP6 SWAP1 PUSH2 0x30ED SWAP1 PUSH1 0x84 DUP4 ADD SWAP1 PUSH2 0x29DB JUMP JUMPDEST SUB SWAP5 DUP4 DUP2 PUSH1 0x0 SWAP8 DUP2 DUP10 DUP10 GAS CALL DUP7 SWAP2 DUP2 PUSH2 0x3198 JUMPI JUMPDEST POP PUSH2 0x3162 JUMPI POP POP POP RETURNDATASIZE PUSH1 0x0 EQ PUSH2 0x3159 JUMPI RETURNDATASIZE PUSH2 0x311B DUP2 PUSH2 0x2A84 JUMP JUMPDEST SWAP1 PUSH2 0x3129 PUSH1 0x40 MLOAD SWAP3 DUP4 PUSH2 0x2A63 JUMP JUMPDEST DUP2 MSTORE DUP1 SWAP4 DUP3 RETURNDATASIZE SWAP3 ADD RETURNDATACOPY JUMPDEST DUP3 MLOAD SWAP3 DUP4 PUSH2 0x3154 JUMPI PUSH1 0x40 MLOAD PUSH4 0x32505749 PUSH1 0xE1 SHL DUP2 MSTORE PUSH1 0x4 DUP2 ADD DUP5 SWAP1 MSTORE PUSH1 0x24 SWAP1 REVERT JUMPDEST ADD SWAP1 POP REVERT JUMPDEST PUSH1 0x60 SWAP3 POP PUSH2 0x3133 JUMP JUMPDEST SWAP2 SWAP5 POP SWAP2 POP PUSH4 0xFFFFFFFF PUSH1 0xE0 SHL AND SUB PUSH2 0x3180 JUMPI POP CODESIZE DUP1 DUP1 DUP1 DUP1 PUSH2 0x3099 JUMP JUMPDEST PUSH1 0x24 SWAP1 PUSH1 0x40 MLOAD SWAP1 PUSH4 0x32505749 PUSH1 0xE1 SHL DUP3 MSTORE PUSH1 0x4 DUP3 ADD MSTORE REVERT JUMPDEST SWAP1 SWAP2 POP DUP5 DUP2 DUP2 RETURNDATASIZE DUP4 GT PUSH2 0x31D5 JUMPI JUMPDEST PUSH2 0x31B0 DUP2 DUP4 PUSH2 0x2A63 JUMP JUMPDEST DUP2 ADD SUB SLT PUSH2 0x31D1 JUMPI MLOAD PUSH1 0x1 PUSH1 0x1 PUSH1 0xE0 SHL SUB NOT DUP2 AND DUP2 SUB PUSH2 0x31D1 JUMPI SWAP1 CODESIZE PUSH2 0x3101 JUMP JUMPDEST DUP7 DUP1 REVERT JUMPDEST POP RETURNDATASIZE PUSH2 0x31A6 JUMP JUMPDEST PUSH1 0x0 NOT DUP2 EQ PUSH2 0x31EB JUMPI PUSH1 0x1 ADD SWAP1 JUMP JUMPDEST PUSH4 0x4E487B71 PUSH1 0xE0 SHL PUSH1 0x0 MSTORE PUSH1 0x11 PUSH1 0x4 MSTORE PUSH1 0x24 PUSH1 0x0 REVERT JUMPDEST DUP2 DUP2 LT PUSH2 0x320C JUMPI POP POP JUMP JUMPDEST PUSH1 0x0 DUP2 SSTORE PUSH1 0x1 ADD PUSH2 0x3201 JUMP JUMPDEST SWAP2 SWAP1 PUSH1 0x1F DUP2 GT PUSH2 0x3227 JUMPI POP POP POP JUMP JUMPDEST PUSH2 0x2D18 SWAP3 PUSH1 0x0 MSTORE PUSH1 0x20 PUSH1 0x0 KECCAK256 SWAP1 PUSH1 0x20 PUSH1 0x1F DUP5 ADD PUSH1 0x5 SHR DUP4 ADD SWAP4 LT PUSH2 0x3253 JUMPI JUMPDEST PUSH1 0x1F ADD PUSH1 0x5 SHR ADD SWAP1 PUSH2 0x3201 JUMP JUMPDEST SWAP1 SWAP2 POP DUP2 SWAP1 PUSH2 0x3246 JUMP JUMPDEST PUSH1 0xFF PUSH1 0x6 SLOAD PUSH1 0xA0 SHR AND PUSH2 0x326C JUMPI JUMP JUMPDEST PUSH1 0x40 MLOAD PUSH4 0xD93C0665 PUSH1 0xE0 SHL DUP2 MSTORE PUSH1 0x4 SWAP1 REVERT JUMPDEST PUSH1 0x2 PUSH1 0x7 SLOAD EQ PUSH2 0x328F JUMPI PUSH1 0x2 PUSH1 0x7 SSTORE JUMP JUMPDEST PUSH1 0x40 MLOAD PUSH4 0x3EE5AEB5 PUSH1 0xE0 SHL DUP2 MSTORE PUSH1 0x4 SWAP1 REVERT JUMPDEST ISZERO PUSH2 0x32A8 JUMPI JUMP JUMPDEST PUSH1 0x40 MLOAD PUSH3 0x461BCD PUSH1 0xE5 SHL DUP2 MSTORE PUSH1 0x20 PUSH1 0x4 DUP3 ADD MSTORE PUSH1 0x15 PUSH1 0x24 DUP3 ADD MSTORE PUSH21 0x2737BA103A343290383937B532B1BA1037BBB732B9 PUSH1 0x59 SHL PUSH1 0x44 DUP3 ADD MSTORE PUSH1 0x64 SWAP1 REVERT JUMPDEST ISZERO PUSH2 0x32EC JUMPI JUMP JUMPDEST PUSH1 0x40 MLOAD PUSH3 0x461BCD PUSH1 0xE5 SHL DUP2 MSTORE PUSH1 0x20 PUSH1 0x4 DUP3 ADD MSTORE PUSH1 0x16 PUSH1 0x24 DUP3 ADD MSTORE PUSH22 0x141C9BDA9958DD08191BD95CC81B9BDD08195E1A5CDD PUSH1 0x52 SHL PUSH1 0x44 DUP3 ADD MSTORE PUSH1 0x64 SWAP1 REVERT JUMPDEST SWAP2 SWAP1 DUP3 SUB SWAP2 DUP3 GT PUSH2 0x31EB JUMPI JUMP JUMPDEST PUSH1 0x0 SWAP3 SWAP2 DUP2 SLOAD PUSH2 0x3346 DUP2 PUSH2 0x2CA0 JUMP JUMPDEST SWAP3 PUSH1 0x1 SWAP2 DUP1 DUP4 AND SWAP1 DUP2 ISZERO PUSH2 0x339F JUMPI POP PUSH1 0x1 EQ PUSH2 0x3363 JUMPI JUMPDEST POP POP POP POP JUMP JUMPDEST SWAP1 SWAP2 SWAP3 SWAP4 SWAP5 POP PUSH1 0x0 MSTORE PUSH1 0x20 SWAP1 DUP2 PUSH1 0x0 KECCAK256 SWAP1 PUSH1 0x0 SWAP2 JUMPDEST DUP6 DUP4 LT PUSH2 0x338E JUMPI POP POP POP POP ADD SWAP1 CODESIZE DUP1 DUP1 DUP1 PUSH2 0x335D JUMP JUMPDEST DUP1 SLOAD DUP6 DUP5 ADD MSTORE SWAP2 DUP4 ADD SWAP2 DUP2 ADD PUSH2 0x3378 JUMP JUMPDEST PUSH1 0xFF NOT AND DUP5 MSTORE POP POP POP DUP2 ISZERO ISZERO SWAP1 SWAP2 MUL ADD SWAP2 POP CODESIZE DUP1 DUP1 DUP1 PUSH2 0x335D JUMP JUMPDEST PUSH1 0x40 MLOAD SWAP1 PUSH2 0x33C7 DUP3 PUSH2 0x2A2C JUMP JUMPDEST DUP2 PUSH2 0x280 PUSH1 0x60 SWAP2 DUP3 DUP2 MSTORE DUP3 PUSH1 0x20 DUP3 ADD MSTORE DUP3 PUSH1 0x40 DUP3 ADD MSTORE DUP3 DUP1 DUP3 ADD MSTORE DUP3 PUSH1 0x80 DUP3 ADD MSTORE DUP3 PUSH1 0xA0 DUP3 ADD MSTORE DUP3 PUSH1 0xC0 DUP3 ADD MSTORE PUSH1 0x0 DUP1 PUSH1 0xE0 DUP4 ADD MSTORE DUP4 PUSH2 0x100 DUP4 ADD MSTORE DUP1 PUSH2 0x120 DUP4 ADD MSTORE DUP4 PUSH2 0x140 DUP4 ADD MSTORE DUP1 PUSH2 0x160 DUP4 ADD MSTORE DUP1 PUSH2 0x180 DUP4 ADD MSTORE DUP1 PUSH2 0x1A0 DUP4 ADD MSTORE DUP4 PUSH2 0x1C0 DUP4 ADD MSTORE DUP4 PUSH2 0x1E0 DUP4 ADD MSTORE DUP4 PUSH2 0x200 DUP4 ADD MSTORE DUP1 PUSH2 0x220 DUP4 ADD MSTORE DUP1 PUSH2 0x240 DUP4 ADD MSTORE PUSH2 0x260 DUP3 ADD MSTORE ADD MSTORE JUMP JUMPDEST SWAP2 SWAP1 DUP3 ADD DUP1 SWAP3 GT PUSH2 0x31EB JUMPI JUMP INVALID LOG2 PUSH5 0x6970667358 0x22 SLT KECCAK256 PUSH9 0x6FFBC92820A5EE7B21 0xDD DUP11 DUP14 BYTE SWAP15 MSTORE 0x1F PUSH17 0x4BE49D5847298F8AF438CAEF148364736F PUSH13 0x63430008140033000000000000 "},"methodIdentifiers":{"approve(address,uint256)":"095ea7b3","balanceOf(address)":"70a08231","emergencyTransferProject(uint256,address)":"92598a31","getApproved(uint256)":"081812fc","getProject(uint256)":"f0f3f2c8","getProjectById(string)":"1016e36d","getTotalCarbonCredits()":"811b6baf","getTotalProjects()":"812739a2","getTotalRetiredCredits()":"c3147caf","isApprovedForAll(address,address)":"e985e9c5","name()":"06fdde03","owner()":"8da5cb5b","ownerOf(uint256)":"6352211e","pause()":"8456cb59","paused()":"5c975abb","projectExistsById(string)":"77a91458","projectToToken(string)":"1d8a7f93","projects(uint256)":"107046bd","registerProject((string,string,string,string,string,string,string,uint256,string,uint256,string,uint256,uint256,uint256,string,string,string,address,bool,uint256,string),string)":"ca2d2d8c","renounceOwnership()":"715018a6","retireCredits(uint256,uint256,string)":"c081ec96","retiredCredits(uint256)":"ef205c1a","safeTransferFrom(address,address,uint256)":"42842e0e","safeTransferFrom(address,address,uint256,bytes)":"b88d4fde","setApprovalForAll(address,bool)":"a22cb465","supportsInterface(bytes4)":"01ffc9a7","symbol()":"95d89b41","tokenURI(uint256)":"c87b56dd","transferFrom(address,address,uint256)":"23b872dd","transferOwnership(address)":"f2fde38b","unpause()":"3f4ba83a","updateProjectStatus(uint256,string)":"bb0e9df6"}}}}}