{"contracts/CarbonCreditRegistry.sol":{"CarbonCreditRegistry":{"abi":[{"inputs":[{"internalType":"address","name":"_blueCarbonToken","type":"address"}],"stateMutability":"nonpayable","type":"constructor"},{"inputs":[{"internalType":"address","name":"sender","type":"address"},{"internalType":"uint256","name":"tokenId","type":"uint256"},{"internalType":"address","name":"owner","type":"address"}],"name":"ERC721IncorrectOwner","type":"error"},{"inputs":[{"internalType":"address","name":"operator","type":"address"},{"internalType":"uint256","name":"tokenId","type":"uint256"}],"name":"ERC721InsufficientApproval","type":"error"},{"inputs":[{"internalType":"address","name":"approver","type":"address"}],"name":"ERC721InvalidApprover","type":"error"},{"inputs":[{"internalType":"address","name":"operator","type":"address"}],"name":"ERC721InvalidOperator","type":"error"},{"inputs":[{"internalType":"address","name":"owner","type":"address"}],"name":"ERC721InvalidOwner","type":"error"},{"inputs":[{"internalType":"address","name":"receiver","type":"address"}],"name":"ERC721InvalidReceiver","type":"error"},{"inputs":[{"internalType":"address","name":"sender","type":"address"}],"name":"ERC721InvalidSender","type":"error"},{"inputs":[{"internalType":"uint256","name":"tokenId","type":"uint256"}],"name":"ERC721NonexistentToken","type":"error"},{"inputs":[],"name":"EnforcedPause","type":"error"},{"inputs":[],"name":"ExpectedPause","type":"error"},{"inputs":[{"internalType":"address","name":"owner","type":"address"}],"name":"OwnableInvalidOwner","type":"error"},{"inputs":[{"internalType":"address","name":"account","type":"address"}],"name":"OwnableUnauthorizedAccount","type":"error"},{"inputs":[],"name":"ReentrancyGuardReentrantCall","type":"error"},{"anonymous":false,"inputs":[{"indexed":true,"internalType":"address","name":"owner","type":"address"},{"indexed":true,"internalType":"address","name":"approved","type":"address"},{"indexed":true,"internalType":"uint256","name":"tokenId","type":"uint256"}],"name":"Approval","type":"event"},{"anonymous":false,"inputs":[{"indexed":true,"internalType":"address","name":"owner","type":"address"},{"indexed":true,"internalType":"address","name":"operator","type":"address"},{"indexed":false,"internalType":"bool","name":"approved","type":"bool"}],"name":"ApprovalForAll","type":"event"},{"anonymous":false,"inputs":[{"indexed":true,"internalType":"uint256","name":"tokenId","type":"uint256"},{"indexed":true,"internalType":"string","name":"projectId","type":"string"},{"indexed":false,"internalType":"uint256","name":"amount","type":"uint256"},{"indexed":false,"internalType":"string","name":"reason","type":"string"}],"name":"CreditsRetired","type":"event"},{"anonymous":false,"inputs":[{"indexed":true,"internalType":"uint256","name":"tokenId","type":"uint256"},{"indexed":false,"internalType":"uint256","name":"amount","type":"uint256"},{"indexed":false,"internalType":"address","name":"to","type":"address"}],"name":"ERC20CreditsMinted","type":"event"},{"anonymous":false,"inputs":[{"indexed":true,"internalType":"address","name":"previousOwner","type":"address"},{"indexed":true,"internalType":"address","name":"newOwner","type":"address"}],"name":"OwnershipTransferred","type":"event"},{"anonymous":false,"inputs":[{"indexed":false,"internalType":"address","name":"account","type":"address"}],"name":"Paused","type":"event"},{"anonymous":false,"inputs":[{"indexed":true,"internalType":"uint256","name":"tokenId","type":"uint256"},{"indexed":true,"internalType":"string","name":"projectId","type":"string"},{"indexed":true,"internalType":"address","name":"owner","type":"address"},{"indexed":false,"internalType":"uint256","name":"carbonCredits","type":"uint256"}],"name":"ProjectRegistered","type":"event"},{"anonymous":false,"inputs":[{"indexed":true,"internalType":"address","name":"from","type":"address"},{"indexed":true,"internalType":"address","name":"to","type":"address"},{"indexed":true,"internalType":"uint256","name":"tokenId","type":"uint256"}],"name":"Transfer","type":"event"},{"anonymous":false,"inputs":[{"indexed":false,"internalType":"address","name":"account","type":"address"}],"name":"Unpaused","type":"event"},{"inputs":[{"internalType":"address","name":"to","type":"address"},{"internalType":"uint256","name":"tokenId","type":"uint256"}],"name":"approve","outputs":[],"stateMutability":"nonpayable","type":"function"},{"inputs":[{"internalType":"address","name":"owner","type":"address"}],"name":"balanceOf","outputs":[{"internalType":"uint256","name":"","type":"uint256"}],"stateMutability":"view","type":"function"},{"inputs":[],"name":"blueCarbon","outputs":[{"internalType":"contract BlueCarbon","name":"","type":"address"}],"stateMutability":"view","type":"function"},{"inputs":[{"internalType":"uint256","name":"tokenId","type":"uint256"},{"internalType":"address","name":"newOwner","type":"address"}],"name":"emergencyTransferProject","outputs":[],"stateMutability":"nonpayable","type":"function"},{"inputs":[{"internalType":"uint256","name":"tokenId","type":"uint256"}],"name":"getApproved","outputs":[{"internalType":"address","name":"","type":"address"}],"stateMutability":"view","type":"function"},{"inputs":[{"internalType":"address","name":"owner","type":"address"},{"internalType":"address","name":"operator","type":"address"}],"name":"isApprovedForAll","outputs":[{"internalType":"bool","name":"","type":"bool"}],"stateMutability":"view","type":"function"},{"inputs":[{"internalType":"uint256","name":"tokenId","type":"uint256"},{"internalType":"uint256","name":"amount","type":"uint256"},{"internalType":"address","name":"to","type":"address"}],"name":"mintERC20Credits","outputs":[],"stateMutability":"nonpayable","type":"function"},{"inputs":[],"name":"name","outputs":[{"internalType":"string","name":"","type":"string"}],"stateMutability":"view","type":"function"},{"inputs":[],"name":"owner","outputs":[{"internalType":"address","name":"","type":"address"}],"stateMutability":"view","type":"function"},{"inputs":[{"internalType":"uint256","name":"tokenId","type":"uint256"}],"name":"ownerOf","outputs":[{"internalType":"address","name":"","type":"address"}],"stateMutability":"view","type":"function"},{"inputs":[],"name":"pause","outputs":[],"stateMutability":"nonpayable","type":"function"},{"inputs":[],"name":"paused","outputs":[{"internalType":"bool","name":"","type":"bool"}],"stateMutability":"view","type":"function"},{"inputs":[{"internalType":"string","name":"","type":"string"}],"name":"projectToToken","outputs":[{"internalType":"uint256","name":"","type":"uint256"}],"stateMutability":"view","type":"function"},{"inputs":[{"internalType":"uint256","name":"","type":"uint256"}],"name":"projects","outputs":[{"internalType":"string","name":"projectId","type":"string"},{"internalType":"uint16","name":"carbonCredits","type":"uint16"},{"internalType":"enum CarbonCreditRegistry.ProjectStatus","name":"status","type":"uint8"},{"internalType":"bool","name":"isRetired","type":"bool"},{"internalType":"uint64","name":"retirementDate","type":"uint64"},{"internalType":"address","name":"projectOwner","type":"address"},{"internalType":"bytes32","name":"ipfsHash","type":"bytes32"}],"stateMutability":"view","type":"function"},{"inputs":[{"internalType":"string","name":"projectId","type":"string"},{"internalType":"uint16","name":"carbonCredits","type":"uint16"},{"internalType":"address","name":"projectOwner","type":"address"},{"internalType":"bytes32","name":"ipfsHash","type":"bytes32"}],"name":"registerProject","outputs":[{"internalType":"uint256","name":"","type":"uint256"}],"stateMutability":"nonpayable","type":"function"},{"inputs":[],"name":"renounceOwnership","outputs":[],"stateMutability":"nonpayable","type":"function"},{"inputs":[{"internalType":"uint256","name":"tokenId","type":"uint256"},{"internalType":"uint16","name":"amount","type":"uint16"},{"internalType":"string","name":"reason","type":"string"}],"name":"retireCredits","outputs":[],"stateMutability":"nonpayable","type":"function"},{"inputs":[{"internalType":"uint256","name":"","type":"uint256"}],"name":"retiredCredits","outputs":[{"internalType":"bool","name":"","type":"bool"}],"stateMutability":"view","type":"function"},{"inputs":[{"internalType":"address","name":"from","type":"address"},{"internalType":"address","name":"to","type":"address"},{"internalType":"uint256","name":"tokenId","type":"uint256"}],"name":"safeTransferFrom","outputs":[],"stateMutability":"nonpayable","type":"function"},{"inputs":[{"internalType":"address","name":"from","type":"address"},{"internalType":"address","name":"to","type":"address"},{"internalType":"uint256","name":"tokenId","type":"uint256"},{"internalType":"bytes","name":"data","type":"bytes"}],"name":"safeTransferFrom","outputs":[],"stateMutability":"nonpayable","type":"function"},{"inputs":[{"internalType":"address","name":"operator","type":"address"},{"internalType":"bool","name":"approved","type":"bool"}],"name":"setApprovalForAll","outputs":[],"stateMutability":"nonpayable","type":"function"},{"inputs":[{"internalType":"bytes4","name":"interfaceId","type":"bytes4"}],"name":"supportsInterface","outputs":[{"internalType":"bool","name":"","type":"bool"}],"stateMutability":"view","type":"function"},{"inputs":[],"name":"symbol","outputs":[{"internalType":"string","name":"","type":"string"}],"stateMutability":"view","type":"function"},{"inputs":[{"internalType":"uint256","name":"tokenId","type":"uint256"}],"name":"tokenURI","outputs":[{"internalType":"string","name":"","type":"string"}],"stateMutability":"view","type":"function"},{"inputs":[{"internalType":"address","name":"from","type":"address"},{"internalType":"address","name":"to","type":"address"},{"internalType":"uint256","name":"tokenId","type":"uint256"}],"name":"transferFrom","outputs":[],"stateMutability":"nonpayable","type":"function"},{"inputs":[{"internalType":"address","name":"newOwner","type":"address"}],"name":"transferOwnership","outputs":[],"stateMutability":"nonpayable","type":"function"},{"inputs":[],"name":"unpause","outputs":[],"stateMutability":"nonpayable","type":"function"},{"inputs":[{"internalType":"uint256","name":"tokenId","type":"uint256"}],"name":"verifyAndMint","outputs":[],"stateMutability":"nonpayable","type":"function"}],"evm":{"bytecode":{"linkReferences":{},"object":"608034620003d557601f906001600160401b0390601f1990620025ec388190038581018416830185811184821017620003bf57839282916040528339602092839181010312620003d557516001600160a01b03948582169491859003620003d5576200006a620003da565b92601684527f436172626f6e2043726564697420526567697374727900000000000000000000818501526200009e620003da565b90600382526221a1a960e91b81830152845195848711620003bf576000968754966001978881811c91168015620003b4575b85821014620003a0579081878493116200034d575b508490878311600114620002ec578a92620002e0575b5050600019600383901b1c191690871b1787555b8251948511620002cc5785548681811c91168015620002c1575b83821014620002ad5790818587969594931162000254575b5081938511600114620001ef5750508592620001e3575b5050600019600383901b1c191690821b1781555b3315620001ca5760065460018060a01b03199233848316176006557f8be0079c531659141344cd1fd0a4f28419497f9722a3daafe3b4186f6b6457e0604051963393169180a360075560095416176009556121f19081620003fb8239f35b604051631e4fbdf760e01b815260048101839052602490fd5b01519050388062000158565b869593929193168588528388209388905b8282106200023a575050841162000220575b505050811b0181556200016c565b015160001960f88460031b161c1916905538808062000212565b848401518655889790950194938401939081019062000200565b9091929394508688528288208580880160051c820192858910620002a3575b9188978a9297969594930160051c01915b8281106200029457505062000141565b8a815588975089910162000284565b9250819262000273565b634e487b7160e01b88526022600452602488fd5b90607f169062000129565b634e487b7160e01b87526041600452602487fd5b015190503880620000fb565b90848a9416918b8052868c20928c5b888282106200033657505084116200031c575b505050811b0187556200010f565b015160001960f88460031b161c191690553880806200030e565b8385015186558d97909501949384019301620002fb565b909150898052848a208780850160051c82019287861062000396575b918b91869594930160051c01915b82811062000387575050620000e5565b8c81558594508b910162000377565b9250819262000369565b634e487b7160e01b8a52602260045260248afd5b90607f1690620000d0565b634e487b7160e01b600052604160045260246000fd5b600080fd5b60408051919082016001600160401b03811183821017620003bf5760405256fe608080604052600436101561001357600080fd5b600090813560e01c90816301ffc9a7146119a85750806306fdde0314611904578063081812fc146118c7578063095ea7b3146117e4578063107046bd146116ab5780631d8a7f931461164e57806323b872dd146116365780632a4c34951461160d5780633f4ba83a1461159a57806342842e0e1461156c5780635c975abb14611546578063606e675e1461126f5780636352211e1461123e57806370a08231146111e6578063715018a6146111895780638456cb59146111265780638da5cb5b146110fd57806392598a3114610ff357806395d89b4114610f10578063a22cb46514610e6d578063ae345acd14610c7c578063b88d4fde14610c09578063c359ffe614610548578063c87b56dd14610438578063e985e9c5146103e4578063ef205c1a146103b5578063f2bee641146101e25763f2fde38b1461015557600080fd5b346101df5760203660031901126101df5761016e611a5d565b610176611bfe565b6001600160a01b039081169081156101c657600654826001600160601b0360a01b821617600655167f8be0079c531659141344cd1fd0a4f28419497f9722a3daafe3b4186f6b6457e0600080a380f35b604051631e4fbdf760e01b815260048101849052602490fd5b80fd5b50346101df5760203660031901126101df576004356101ff611bfe565b61020c6008548210612104565b808252600a60205260016040832001805460ff8160101c1660038110156103a1576001146103695761024460ff8260181c1615612149565b61ffff81169081156103325762ffffff191662010000178083556009546001600160a01b031690670de0b6b3a76400008302670de0b6b3a763ffff198482040161031e5790829187933b1561030f576040516340c10f1960e01b815260609290921c600483015260248201529082908290604490829084905af18015610313576102fb575b505090546040805192835260609190911c602083015260008051602061219c8339815191529190819081015b0390a280f35b61030490611ade565b61030f5783386102c9565b8380fd5b6040513d84823e3d90fd5b634e487b7160e01b87526011600452602487fd5b60405162461bcd60e51b815260206004820152600f60248201526e139bc818dc99591a5d1cc81b19599d608a1b6044820152606490fd5b60405162461bcd60e51b815260206004820152601060248201526f105b1c9958591e481d995c9a599a595960821b6044820152606490fd5b634e487b7160e01b85526021600452602485fd5b50346101df5760203660031901126101df5760ff60406020926004358152600c84522054166040519015158152f35b50346101df5760403660031901126101df576103fe611a5d565b6040610408611a78565b9260018060a01b0380931681526005602052209116600052602052602060ff604060002054166040519015158152f35b50346101df57602080600319360112610544576004359161045c6008548410612104565b6040519261046984611b0c565b60158452828401907468747470733a2f2f697066732e696f2f697066732f60581b82528252600a8352600260408320015490604051916104a883611b0c565b8483528483019385368637805b868110610510576104dd876104f8818b8a8a6104ec8b60405198899551809288880190611a15565b84019151809386840190611a15565b01038085520183611b27565b61050c604051928284938452830190611a38565b0390f35b845181101561053057808361052b921a888288010153612057565b6104b5565b634e487b7160e01b82526032600452602482fd5b5080fd5b50346101df5760803660031901126101df576004356001600160401b03811161054457610579903690600401611b9a565b610581611bed565b9161058a611a8e565b9061059361207c565b61059b61209d565b825115610bce5760405160208185516105b78183858a01611a15565b8101600b81520301902054610b985761ffff841615610b65576105e46001600160a01b038316151561201b565b600854926105f184612057565b60085560405160e081018181106001600160401b03821117610b4f5760405281815261ffff861660208201526001604082015282606082015282608082015260018060a01b03841660a082015260643560c0820152848352600a602052604083209080518051906001600160401b038211610b3b5781906106728554611aa4565b601f8111610aee575b50602090601f8311600114610a85578792610a7a575b50508160011b916000199060031b1c19161782555b6001820161ffff6020830151168154906040840151906003821015610a665792849261075d9262ff000060c09663ff000000606060029a0151151560181b169363ffffffff1916179160101b16171781556107336001600160401b0360808501511682906bffffffffffffffff0000000082549160201b16906bffffffffffffffff000000001916179055565b60a083015181546001600160601b031660609190911b6bffffffffffffffffffffffff1916179055565b01519101558360405160208184516107788183858901611a15565b8101600b8152030190205560405161078f81611af1565b8281526001600160a01b03841615610a4d576001600160a01b036107b38686611dd6565b16610a3457833b6108f4575b506107d890602060405192828480945193849201611a15565b810103902060405161ffff861681526001600160a01b038416919085907f0e6dd694bfeb45b4d2fe4926c1544b9e5b3d0cf87f38df59e49a8315cf99078490602090a46009546001600160a01b031661ffff8516670de0b6b3a7640000810290670de0b6b3a763ffff19908204016108e057813b156108dc576040516340c10f1960e01b81526001600160a01b038516600482015260248101919091529082908290604490829084905af18015610313576108c8575b6020848060008051602061219c8339815191526040898861ffff83519216825260018060a01b031686820152a26001600755604051908152f35b6108d28291611ade565b6101df578061088e565b8280fd5b634e487b7160e01b83526011600452602483fd5b6040959493955160208180610932630a85bd0160e11b9586835233600484015260006024840152896044840152608060648401526084830190611a38565b038160006001600160a01b038c165af180916000916109f1575b50906109b557863d156109ad573d9061096482611b48565b916109726040519384611b27565b82523d6000602084013e5b815191826109a657604051633250574960e11b81526001600160a01b0383166004820152602490fd5b6020915001fd5b60609061097d565b949593946001600160e01b031916036109d0576107d86107bf565b604051633250574960e11b81526001600160a01b0384166004820152602490fd5b6020813d602011610a2c575b81610a0a60209383611b27565b810103126105445751906001600160e01b0319821682036101df57503861094c565b3d91506109fd565b6040516339e3563760e11b815260048101849052602490fd5b604051633250574960e11b815260048101849052602490fd5b634e487b7160e01b88526021600452602488fd5b015190503880610691565b9250848752602087209087935b601f1984168510610ad3576001945083601f19811610610aba575b505050811b0182556106a6565b015160001960f88460031b161c19169055388080610aad565b81810151835560209485019460019093019290910190610a92565b90915084875260208720601f840160051c810160208510610b34575b90849392915b601f830160051c82018110610b2657505061067b565b898155859450600101610b10565b5080610b0a565b634e487b7160e01b86526041600452602486fd5b634e487b7160e01b600052604160045260246000fd5b60405162461bcd60e51b815260206004820152600b60248201526a043726564697473203e20360ac1b6044820152606490fd5b60405162461bcd60e51b815260206004820152600e60248201526d50726f6a6563742065786973747360901b6044820152606490fd5b60405162461bcd60e51b8152602060048201526013602482015272141c9bda9958dd081251081c995c5d5a5c9959606a1b6044820152606490fd5b50346101df5760803660031901126101df57610c23611a5d565b610c2b611a78565b90604435606435926001600160401b038411610c785736602385011215610c7857610c63610c75943690602481600401359101611b63565b92610c6f838383611c2a565b33611ecd565b80f35b8480fd5b50346101df5760603660031901126101df57600435602435610c9c611a8e565b90610ca683611e92565b6001600160a01b0390610cbc90821633146120c0565b610cc96008548510612104565b610cd161207c565b8115610e3357838552600a602052600160408620018054610cf860ff8260181c1615612149565b61ffff808216808611610dee57610d129082871690612187565b169061ffff191617905560095416670de0b6b3a76400008083029083820403610dda57908591813b156108dc576040516340c10f1960e01b81526001600160a01b0386166004820152602481019190915291908290604490829084905af18015610dcf57610dac575b50604080519182526001600160a01b03909216602082015260008051602061219c83398151915291819081016102f5565b93610dc760008051602061219c833981519152939295611ade565b939091610d7b565b6040513d87823e3d90fd5b634e487b7160e01b86526011600452602486fd5b60405162461bcd60e51b815260206004820152601a60248201527f416d6f756e742065786365656473204e465420637265646974730000000000006044820152606490fd5b60405162461bcd60e51b81526020600482015260126024820152710416d6f756e74206d757374206265203e20360741b6044820152606490fd5b50346101df5760403660031901126101df57610e87611a5d565b602435908115158092036108dc576001600160a01b0316908115610ef7573383526005602052604083208284526020526040832060ff1981541660ff83161790556040519081527f17307eab39ab6107e8899845ad3d59bd9653f200f220920489ca2b5937696c3160203392a380f35b604051630b61174360e31b815260048101839052602490fd5b50346101df57806003193601126101df5760405190806001805491610f3483611aa4565b80865292828116908115610fc95750600114610f6f575b61050c85610f5b81870382611b27565b604051918291602083526020830190611a38565b92508083527fb10e2d527612073b26eecdfd717e6a320cf44b4afac2b0732d9fcbe2b7fa0cf65b828410610fb1575050508101602001610f5b8261050c610f4b565b80546020858701810191909152909301928101610f96565b86955061050c96935060209250610f5b94915060ff191682840152151560051b8201019293610f4b565b50346101df5760403660031901126101df5760043590611011611a78565b611019611bfe565b6110266008548410612104565b6001600160a01b03818116159061103d821561201b565b61104685611e92565b916110e4576110558584611dd6565b90808216908161107857604051637e27328960e01b815260048101889052602490fd5b8316036110b457848452600a6020526040842060010180546001600160601b0316606085901b6bffffffffffffffffffffffff19161790558380f35b6040516364283d7b60e01b81526001600160a01b0392831660048201526024810186905291166044820152606490fd5b604051633250574960e11b815260048101859052602490fd5b50346101df57806003193601126101df576006546040516001600160a01b039091168152602090f35b50346101df57806003193601126101df5761113f611bfe565b61114761207c565b6006805460ff60a01b1916600160a01b1790556040513381527f62e78cea01bee320cd4e420270b5ea74000d11b0c9f74754ebdbfc544b05a25890602090a180f35b50346101df57806003193601126101df576111a2611bfe565b600680546001600160a01b0319811690915581906001600160a01b03167f8be0079c531659141344cd1fd0a4f28419497f9722a3daafe3b4186f6b6457e08280a380f35b50346101df5760203660031901126101df576001600160a01b03611208611a5d565b168015611225578160409160209352600383522054604051908152f35b6040516322718ad960e21b815260048101839052602490fd5b50346101df5760203660031901126101df57602061125d600435611e92565b6040516001600160a01b039091168152f35b50346101df5760603660031901126101df5760043561128c611bed565b6001600160401b0391604435838111610c78576112ad903690600401611b9a565b916112ca6112ba83611e92565b6001600160a01b031633146120c0565b6112d76008548310612104565b6112df61207c565b6112e761209d565b818552602090600a82526040862060019586820190815460ff8160181c1661150f5761ffff8086169586151580611503575b156114cd5789511561149657918161133c61137695946301000000948416612187565b6bffffffffffffffff000000001963ff00ffff199093169116179190911716429190911660201b6bffffffffffffffff0000000016178255565b6202000062ff000019825416179055838752600c8352604087209060ff1991878382541617905560405191889180546113ae81611aa4565b92818b16918215611462575050600114611411575b5050817f1bb65d0cfdde7c6f874e0104f34b04ecc8d308044367cb6abaee56abb9d45a7194939261140892039020956040805194859485528401526040830190611a38565b0390a360075580f35b90915088528388208789915b838310611450575050508101817f1bb65d0cfdde7c6f874e0104f34b04ecc8d308044367cb6abaee56abb9d45a716113c3565b8054858401529186019189910161141d565b16855250508015150282019050817f1bb65d0cfdde7c6f874e0104f34b04ecc8d308044367cb6abaee56abb9d45a716113c3565b60405162461bcd60e51b815260048101899052600f60248201526e1499585cdbdb881c995c5d5a5c9959608a1b6044820152606490fd5b60405162461bcd60e51b815260048101899052600e60248201526d125b9d985b1a5908185b5bdd5b9d60921b6044820152606490fd5b50818316871115611319565b60405162461bcd60e51b815260048101879052600f60248201526e105b1c9958591e481c995d1a5c9959608a1b6044820152606490fd5b50346101df57806003193601126101df57602060ff60065460a01c166040519015158152f35b50346101df57610c7561157e36611bb8565b906040519261158c84611af1565b858452610c6f838383611c2a565b50346101df57806003193601126101df576115b3611bfe565b60065460ff8160a01c16156115fb5760ff60a01b19166006556040513381527f5db9ee0a495bf2e6ff9c91a7834c1ba4fdd244a5e8aa4e537bd38aeae4b073aa90602090a180f35b604051638dfc202b60e01b8152600490fd5b50346101df57806003193601126101df576009546040516001600160a01b039091168152602090f35b50346101df57610c7561164836611bb8565b91611c2a565b50346101df5760203660031901126101df57600435906001600160401b0382116101df576020611698816116853660048701611b9a565b8160405193828580945193849201611a15565b8101600b81520301902054604051908152f35b50346101df57602090816003193601126101df576004358152600a82526040812090604051918184848354926116e084611aa4565b8083526001948086169081156117c6575060011461178a575b5061170692500385611b27565b810154600260ff8260101c169201549161172b6040519560e0875260e0870190611a38565b9361ffff831687870152600382101561177657508185966001600160401b0392604088015260ff8260181c16151560608801521c16608085015260601c60a084015260c08301520390f35b634e487b7160e01b81526021600452602490fd5b85875283872087925085905b8284106117af57505050916117069282010187926116f9565b80548a850187015289945092850192869101611796565b60ff19168486015250889390151560051b83010190506117066116f9565b50346101df5760403660031901126101df576117fe611a5d565b60243561180a81611e92565b331515806118b4575b80611889575b611871576001600160a01b039283169282918491167f8c5be1e5ebec7d5bd14f71427d1e84f3dd0314c0f7b2291e5b200ac8c7c3b9258680a4825260046020526040822080546001600160a01b031916909117905580f35b60405163a9fbf51f60e01b8152336004820152602490fd5b506001600160a01b038116845260056020908152604080862033875290915284205460ff1615611819565b506001600160a01b038116331415611813565b50346101df5760203660031901126101df576020906004356118e881611e92565b50815260048252604060018060a01b0391205416604051908152f35b50346101df57806003193601126101df576040519080805461192581611aa4565b80855291600191808316908115610fc9575060011461194e5761050c85610f5b81870382611b27565b80809450527f290decd9548b62a8d60345a988386fc84ba6bc95484008f6362f93160ef3e5635b828410611990575050508101602001610f5b8261050c610f4b565b80546020858701810191909152909301928101611975565b9050346105445760203660031901126105445760043563ffffffff60e01b81168091036108dc57602092506380ac58cd60e01b8114908115611a04575b81156119f3575b5015158152f35b6301ffc9a760e01b149050386119ec565b635b5e139f60e01b811491506119e5565b60005b838110611a285750506000910152565b8181015183820152602001611a18565b90602091611a5181518092818552858086019101611a15565b601f01601f1916010190565b600435906001600160a01b0382168203611a7357565b600080fd5b602435906001600160a01b0382168203611a7357565b604435906001600160a01b0382168203611a7357565b90600182811c92168015611ad4575b6020831014611abe57565b634e487b7160e01b600052602260045260246000fd5b91607f1691611ab3565b6001600160401b038111610b4f57604052565b602081019081106001600160401b03821117610b4f57604052565b604081019081106001600160401b03821117610b4f57604052565b90601f801991011681019081106001600160401b03821117610b4f57604052565b6001600160401b038111610b4f57601f01601f191660200190565b929192611b6f82611b48565b91611b7d6040519384611b27565b829481845281830111611a73578281602093846000960137010152565b9080601f83011215611a7357816020611bb593359101611b63565b90565b6060906003190112611a73576001600160a01b03906004358281168103611a7357916024359081168103611a73579060443590565b6024359061ffff82168203611a7357565b6006546001600160a01b03163303611c1257565b60405163118cdaa760e01b8152336004820152602490fd5b906001600160a01b039081168015611dbd57600091848352846020926002845260409383858720541695869133151580611d24575b509060027fddf252ad1be2c89b69c2b068fc378daa952ba7f163c4a11628f55a4df523b3ef9284611cf1575b85835260038152888320805460010190558683525286812080546001600160a01b0319168517905580a483168203611cc35750505050565b516364283d7b60e01b81526001600160a01b0392831660048201526024810193909352166044820152606490fd5b600087815260046020526040902080546001600160a01b0319169055848352600381528883208054600019019055611c8b565b91939450915080611d7c575b15611d4057879291869138611c5f565b848887611d5d576024915190637e27328960e01b82526004820152fd5b905163177e802f60e01b81523360048201526024810191909152604490fd5b503386148015611da1575b80611d305750878252600481523384868420541614611d30565b5085825260058152848220338352815260ff8583205416611d87565b604051633250574960e11b815260006004820152602490fd5b6000828152600260205260408120546001600160a01b03908116939284917fddf252ad1be2c89b69c2b068fc378daa952ba7f163c4a11628f55a4df523b3ef9183611e5d575b169283611e45575b84815260026020526040812080546001600160a01b0319168517905580a490565b83815260036020526040812060018154019055611e24565b600086815260046020526040902080546001600160a01b03191690558385526003602052604085208054600019019055611e1c565b6000818152600260205260409020546001600160a01b0316908115611eb5575090565b60249060405190637e27328960e01b82526004820152fd5b90939192833b611edf575b5050505050565b604051630a85bd0160e11b8082526001600160a01b039384166004830152958316602482015260448101919091526080606482015294921692602092918590611f2c906084830190611a38565b039483816000978189895af1869181611fd7575b50611fa1575050503d600014611f98573d611f5a81611b48565b90611f686040519283611b27565b81528093823d92013e5b82519283611f9357604051633250574960e11b815260048101849052602490fd5b019050fd5b60609250611f72565b919450915063ffffffff60e01b1603611fbf57503880808080611ed8565b60249060405190633250574960e11b82526004820152fd5b9091508481813d8311612014575b611fef8183611b27565b8101031261201057516001600160e01b031981168103612010579038611f40565b8680fd5b503d611fe5565b1561202257565b60405162461bcd60e51b815260206004820152600d60248201526c24b73b30b634b21037bbb732b960991b6044820152606490fd5b60001981146120665760010190565b634e487b7160e01b600052601160045260246000fd5b60ff60065460a01c1661208b57565b60405163d93c066560e01b8152600490fd5b6002600754146120ae576002600755565b604051633ee5aeb560e01b8152600490fd5b156120c757565b60405162461bcd60e51b81526020600482015260156024820152742737ba103a343290383937b532b1ba1037bbb732b960591b6044820152606490fd5b1561210b57565b60405162461bcd60e51b8152602060048201526016602482015275141c9bda9958dd08191bd95cc81b9bdd08195e1a5cdd60521b6044820152606490fd5b1561215057565b60405162461bcd60e51b815260206004820152600f60248201526e141c9bda9958dd081c995d1a5c9959608a1b6044820152606490fd5b61ffff91821690821603919082116120665756fea7d27650e67fa799c589347f42f480cf31e55f455fe7fb068502af7d3a29573ba2646970667358221220de9b76eb0d3d5b28b9a59887b813a340e631d7fc8390d37492d8eb18c981c5cd64736f6c63430008140033","opcodes":"PUSH1 0x80 CALLVALUE PUSH3 0x3D5 JUMPI PUSH1 0x1F SWAP1 PUSH1 0x1 PUSH1 0x1 PUSH1 0x40 SHL SUB SWAP1 PUSH1 0x1F NOT SWAP1 PUSH3 0x25EC CODESIZE DUP2 SWAP1 SUB DUP6 DUP2 ADD DUP5 AND DUP4 ADD DUP6 DUP2 GT DUP5 DUP3 LT OR PUSH3 0x3BF JUMPI DUP4 SWAP3 DUP3 SWAP2 PUSH1 0x40 MSTORE DUP4 CODECOPY PUSH1 0x20 SWAP3 DUP4 SWAP2 DUP2 ADD SUB SLT PUSH3 0x3D5 JUMPI MLOAD PUSH1 0x1 PUSH1 0x1 PUSH1 0xA0 SHL SUB SWAP5 DUP6 DUP3 AND SWAP5 SWAP2 DUP6 SWAP1 SUB PUSH3 0x3D5 JUMPI PUSH3 0x6A PUSH3 0x3DA JUMP JUMPDEST SWAP3 PUSH1 0x16 DUP5 MSTORE PUSH32 0x436172626F6E2043726564697420526567697374727900000000000000000000 DUP2 DUP6 ADD MSTORE PUSH3 0x9E PUSH3 0x3DA JUMP JUMPDEST SWAP1 PUSH1 0x3 DUP3 MSTORE PUSH3 0x21A1A9 PUSH1 0xE9 SHL DUP2 DUP4 ADD MSTORE DUP5 MLOAD SWAP6 DUP5 DUP8 GT PUSH3 0x3BF JUMPI PUSH1 0x0 SWAP7 DUP8 SLOAD SWAP7 PUSH1 0x1 SWAP8 DUP9 DUP2 DUP2 SHR SWAP2 AND DUP1 ISZERO PUSH3 0x3B4 JUMPI JUMPDEST DUP6 DUP3 LT EQ PUSH3 0x3A0 JUMPI SWAP1 DUP2 DUP8 DUP5 SWAP4 GT PUSH3 0x34D JUMPI JUMPDEST POP DUP5 SWAP1 DUP8 DUP4 GT PUSH1 0x1 EQ PUSH3 0x2EC JUMPI DUP11 SWAP3 PUSH3 0x2E0 JUMPI JUMPDEST POP POP PUSH1 0x0 NOT PUSH1 0x3 DUP4 SWAP1 SHL SHR NOT AND SWAP1 DUP8 SHL OR DUP8 SSTORE JUMPDEST DUP3 MLOAD SWAP5 DUP6 GT PUSH3 0x2CC JUMPI DUP6 SLOAD DUP7 DUP2 DUP2 SHR SWAP2 AND DUP1 ISZERO PUSH3 0x2C1 JUMPI JUMPDEST DUP4 DUP3 LT EQ PUSH3 0x2AD JUMPI SWAP1 DUP2 DUP6 DUP8 SWAP7 SWAP6 SWAP5 SWAP4 GT PUSH3 0x254 JUMPI JUMPDEST POP DUP2 SWAP4 DUP6 GT PUSH1 0x1 EQ PUSH3 0x1EF JUMPI POP POP DUP6 SWAP3 PUSH3 0x1E3 JUMPI JUMPDEST POP POP PUSH1 0x0 NOT PUSH1 0x3 DUP4 SWAP1 SHL SHR NOT AND SWAP1 DUP3 SHL OR DUP2 SSTORE JUMPDEST CALLER ISZERO PUSH3 0x1CA JUMPI PUSH1 0x6 SLOAD PUSH1 0x1 DUP1 PUSH1 0xA0 SHL SUB NOT SWAP3 CALLER DUP5 DUP4 AND OR PUSH1 0x6 SSTORE PUSH32 0x8BE0079C531659141344CD1FD0A4F28419497F9722A3DAAFE3B4186F6B6457E0 PUSH1 0x40 MLOAD SWAP7 CALLER SWAP4 AND SWAP2 DUP1 LOG3 PUSH1 0x7 SSTORE PUSH1 0x9 SLOAD AND OR PUSH1 0x9 SSTORE PUSH2 0x21F1 SWAP1 DUP2 PUSH3 0x3FB DUP3 CODECOPY RETURN JUMPDEST PUSH1 0x40 MLOAD PUSH4 0x1E4FBDF7 PUSH1 0xE0 SHL DUP2 MSTORE PUSH1 0x4 DUP2 ADD DUP4 SWAP1 MSTORE PUSH1 0x24 SWAP1 REVERT JUMPDEST ADD MLOAD SWAP1 POP CODESIZE DUP1 PUSH3 0x158 JUMP JUMPDEST DUP7 SWAP6 SWAP4 SWAP3 SWAP2 SWAP4 AND DUP6 DUP9 MSTORE DUP4 DUP9 KECCAK256 SWAP4 DUP9 SWAP1 JUMPDEST DUP3 DUP3 LT PUSH3 0x23A JUMPI POP POP DUP5 GT PUSH3 0x220 JUMPI JUMPDEST POP POP POP DUP2 SHL ADD DUP2 SSTORE PUSH3 0x16C JUMP JUMPDEST ADD MLOAD PUSH1 0x0 NOT PUSH1 0xF8 DUP5 PUSH1 0x3 SHL AND SHR NOT AND SWAP1 SSTORE CODESIZE DUP1 DUP1 PUSH3 0x212 JUMP JUMPDEST DUP5 DUP5 ADD MLOAD DUP7 SSTORE DUP9 SWAP8 SWAP1 SWAP6 ADD SWAP5 SWAP4 DUP5 ADD SWAP4 SWAP1 DUP2 ADD SWAP1 PUSH3 0x200 JUMP JUMPDEST SWAP1 SWAP2 SWAP3 SWAP4 SWAP5 POP DUP7 DUP9 MSTORE DUP3 DUP9 KECCAK256 DUP6 DUP1 DUP9 ADD PUSH1 0x5 SHR DUP3 ADD SWAP3 DUP6 DUP10 LT PUSH3 0x2A3 JUMPI JUMPDEST SWAP2 DUP9 SWAP8 DUP11 SWAP3 SWAP8 SWAP7 SWAP6 SWAP5 SWAP4 ADD PUSH1 0x5 SHR ADD SWAP2 JUMPDEST DUP3 DUP2 LT PUSH3 0x294 JUMPI POP POP PUSH3 0x141 JUMP JUMPDEST DUP11 DUP2 SSTORE DUP9 SWAP8 POP DUP10 SWAP2 ADD PUSH3 0x284 JUMP JUMPDEST SWAP3 POP DUP2 SWAP3 PUSH3 0x273 JUMP JUMPDEST PUSH4 0x4E487B71 PUSH1 0xE0 SHL DUP9 MSTORE PUSH1 0x22 PUSH1 0x4 MSTORE PUSH1 0x24 DUP9 REVERT JUMPDEST SWAP1 PUSH1 0x7F AND SWAP1 PUSH3 0x129 JUMP JUMPDEST PUSH4 0x4E487B71 PUSH1 0xE0 SHL DUP8 MSTORE PUSH1 0x41 PUSH1 0x4 MSTORE PUSH1 0x24 DUP8 REVERT JUMPDEST ADD MLOAD SWAP1 POP CODESIZE DUP1 PUSH3 0xFB JUMP JUMPDEST SWAP1 DUP5 DUP11 SWAP5 AND SWAP2 DUP12 DUP1 MSTORE DUP7 DUP13 KECCAK256 SWAP3 DUP13 JUMPDEST DUP9 DUP3 DUP3 LT PUSH3 0x336 JUMPI POP POP DUP5 GT PUSH3 0x31C JUMPI JUMPDEST POP POP POP DUP2 SHL ADD DUP8 SSTORE PUSH3 0x10F JUMP JUMPDEST ADD MLOAD PUSH1 0x0 NOT PUSH1 0xF8 DUP5 PUSH1 0x3 SHL AND SHR NOT AND SWAP1 SSTORE CODESIZE DUP1 DUP1 PUSH3 0x30E JUMP JUMPDEST DUP4 DUP6 ADD MLOAD DUP7 SSTORE DUP14 SWAP8 SWAP1 SWAP6 ADD SWAP5 SWAP4 DUP5 ADD SWAP4 ADD PUSH3 0x2FB JUMP JUMPDEST SWAP1 SWAP2 POP DUP10 DUP1 MSTORE DUP5 DUP11 KECCAK256 DUP8 DUP1 DUP6 ADD PUSH1 0x5 SHR DUP3 ADD SWAP3 DUP8 DUP7 LT PUSH3 0x396 JUMPI JUMPDEST SWAP2 DUP12 SWAP2 DUP7 SWAP6 SWAP5 SWAP4 ADD PUSH1 0x5 SHR ADD SWAP2 JUMPDEST DUP3 DUP2 LT PUSH3 0x387 JUMPI POP POP PUSH3 0xE5 JUMP JUMPDEST DUP13 DUP2 SSTORE DUP6 SWAP5 POP DUP12 SWAP2 ADD PUSH3 0x377 JUMP JUMPDEST SWAP3 POP DUP2 SWAP3 PUSH3 0x369 JUMP JUMPDEST PUSH4 0x4E487B71 PUSH1 0xE0 SHL DUP11 MSTORE PUSH1 0x22 PUSH1 0x4 MSTORE PUSH1 0x24 DUP11 REVERT JUMPDEST SWAP1 PUSH1 0x7F AND SWAP1 PUSH3 0xD0 JUMP JUMPDEST PUSH4 0x4E487B71 PUSH1 0xE0 SHL PUSH1 0x0 MSTORE PUSH1 0x41 PUSH1 0x4 MSTORE PUSH1 0x24 PUSH1 0x0 REVERT JUMPDEST PUSH1 0x0 DUP1 REVERT JUMPDEST PUSH1 0x40 DUP1 MLOAD SWAP2 SWAP1 DUP3 ADD PUSH1 0x1 PUSH1 0x1 PUSH1 0x40 SHL SUB DUP2 GT DUP4 DUP3 LT OR PUSH3 0x3BF JUMPI PUSH1 0x40 MSTORE JUMP INVALID PUSH1 0x80 DUP1 PUSH1 0x40 MSTORE PUSH1 0x4 CALLDATASIZE LT ISZERO PUSH2 0x13 JUMPI PUSH1 0x0 DUP1 REVERT JUMPDEST PUSH1 0x0 SWAP1 DUP2 CALLDATALOAD PUSH1 0xE0 SHR SWAP1 DUP2 PUSH4 0x1FFC9A7 EQ PUSH2 0x19A8 JUMPI POP DUP1 PUSH4 0x6FDDE03 EQ PUSH2 0x1904 JUMPI DUP1 PUSH4 0x81812FC EQ PUSH2 0x18C7 JUMPI DUP1 PUSH4 0x95EA7B3 EQ PUSH2 0x17E4 JUMPI DUP1 PUSH4 0x107046BD EQ PUSH2 0x16AB JUMPI DUP1 PUSH4 0x1D8A7F93 EQ PUSH2 0x164E JUMPI DUP1 PUSH4 0x23B872DD EQ PUSH2 0x1636 JUMPI DUP1 PUSH4 0x2A4C3495 EQ PUSH2 0x160D JUMPI DUP1 PUSH4 0x3F4BA83A EQ PUSH2 0x159A JUMPI DUP1 PUSH4 0x42842E0E EQ PUSH2 0x156C JUMPI DUP1 PUSH4 0x5C975ABB EQ PUSH2 0x1546 JUMPI DUP1 PUSH4 0x606E675E EQ PUSH2 0x126F JUMPI DUP1 PUSH4 0x6352211E EQ PUSH2 0x123E JUMPI DUP1 PUSH4 0x70A08231 EQ PUSH2 0x11E6 JUMPI DUP1 PUSH4 0x715018A6 EQ PUSH2 0x1189 JUMPI DUP1 PUSH4 0x8456CB59 EQ PUSH2 0x1126 JUMPI DUP1 PUSH4 0x8DA5CB5B EQ PUSH2 0x10FD JUMPI DUP1 PUSH4 0x92598A31 EQ PUSH2 0xFF3 JUMPI DUP1 PUSH4 0x95D89B41 EQ PUSH2 0xF10 JUMPI DUP1 PUSH4 0xA22CB465 EQ PUSH2 0xE6D JUMPI DUP1 PUSH4 0xAE345ACD EQ PUSH2 0xC7C JUMPI DUP1 PUSH4 0xB88D4FDE EQ PUSH2 0xC09 JUMPI DUP1 PUSH4 0xC359FFE6 EQ PUSH2 0x548 JUMPI DUP1 PUSH4 0xC87B56DD EQ PUSH2 0x438 JUMPI DUP1 PUSH4 0xE985E9C5 EQ PUSH2 0x3E4 JUMPI DUP1 PUSH4 0xEF205C1A EQ PUSH2 0x3B5 JUMPI DUP1 PUSH4 0xF2BEE641 EQ PUSH2 0x1E2 JUMPI PUSH4 0xF2FDE38B EQ PUSH2 0x155 JUMPI PUSH1 0x0 DUP1 REVERT JUMPDEST CALLVALUE PUSH2 0x1DF JUMPI PUSH1 0x20 CALLDATASIZE PUSH1 0x3 NOT ADD SLT PUSH2 0x1DF JUMPI PUSH2 0x16E PUSH2 0x1A5D JUMP JUMPDEST PUSH2 0x176 PUSH2 0x1BFE JUMP JUMPDEST PUSH1 0x1 PUSH1 0x1 PUSH1 0xA0 SHL SUB SWAP1 DUP2 AND SWAP1 DUP2 ISZERO PUSH2 0x1C6 JUMPI PUSH1 0x6 SLOAD DUP3 PUSH1 0x1 PUSH1 0x1 PUSH1 0x60 SHL SUB PUSH1 0xA0 SHL DUP3 AND OR PUSH1 0x6 SSTORE AND PUSH32 0x8BE0079C531659141344CD1FD0A4F28419497F9722A3DAAFE3B4186F6B6457E0 PUSH1 0x0 DUP1 LOG3 DUP1 RETURN JUMPDEST PUSH1 0x40 MLOAD PUSH4 0x1E4FBDF7 PUSH1 0xE0 SHL DUP2 MSTORE PUSH1 0x4 DUP2 ADD DUP5 SWAP1 MSTORE PUSH1 0x24 SWAP1 REVERT JUMPDEST DUP1 REVERT JUMPDEST POP CALLVALUE PUSH2 0x1DF JUMPI PUSH1 0x20 CALLDATASIZE PUSH1 0x3 NOT ADD SLT PUSH2 0x1DF JUMPI PUSH1 0x4 CALLDATALOAD PUSH2 0x1FF PUSH2 0x1BFE JUMP JUMPDEST PUSH2 0x20C PUSH1 0x8 SLOAD DUP3 LT PUSH2 0x2104 JUMP JUMPDEST DUP1 DUP3 MSTORE PUSH1 0xA PUSH1 0x20 MSTORE PUSH1 0x1 PUSH1 0x40 DUP4 KECCAK256 ADD DUP1 SLOAD PUSH1 0xFF DUP2 PUSH1 0x10 SHR AND PUSH1 0x3 DUP2 LT ISZERO PUSH2 0x3A1 JUMPI PUSH1 0x1 EQ PUSH2 0x369 JUMPI PUSH2 0x244 PUSH1 0xFF DUP3 PUSH1 0x18 SHR AND ISZERO PUSH2 0x2149 JUMP JUMPDEST PUSH2 0xFFFF DUP2 AND SWAP1 DUP2 ISZERO PUSH2 0x332 JUMPI PUSH3 0xFFFFFF NOT AND PUSH3 0x10000 OR DUP1 DUP4 SSTORE PUSH1 0x9 SLOAD PUSH1 0x1 PUSH1 0x1 PUSH1 0xA0 SHL SUB AND SWAP1 PUSH8 0xDE0B6B3A7640000 DUP4 MUL PUSH8 0xDE0B6B3A763FFFF NOT DUP5 DUP3 DIV ADD PUSH2 0x31E JUMPI SWAP1 DUP3 SWAP2 DUP8 SWAP4 EXTCODESIZE ISZERO PUSH2 0x30F JUMPI PUSH1 0x40 MLOAD PUSH4 0x40C10F19 PUSH1 0xE0 SHL DUP2 MSTORE PUSH1 0x60 SWAP3 SWAP1 SWAP3 SHR PUSH1 0x4 DUP4 ADD MSTORE PUSH1 0x24 DUP3 ADD MSTORE SWAP1 DUP3 SWAP1 DUP3 SWAP1 PUSH1 0x44 SWAP1 DUP3 SWAP1 DUP5 SWAP1 GAS CALL DUP1 ISZERO PUSH2 0x313 JUMPI PUSH2 0x2FB JUMPI JUMPDEST POP POP SWAP1 SLOAD PUSH1 0x40 DUP1 MLOAD SWAP3 DUP4 MSTORE PUSH1 0x60 SWAP2 SWAP1 SWAP2 SHR PUSH1 0x20 DUP4 ADD MSTORE PUSH1 0x0 DUP1 MLOAD PUSH1 0x20 PUSH2 0x219C DUP4 CODECOPY DUP2 MLOAD SWAP2 MSTORE SWAP2 SWAP1 DUP2 SWAP1 DUP2 ADD JUMPDEST SUB SWAP1 LOG2 DUP1 RETURN JUMPDEST PUSH2 0x304 SWAP1 PUSH2 0x1ADE JUMP JUMPDEST PUSH2 0x30F JUMPI DUP4 CODESIZE PUSH2 0x2C9 JUMP JUMPDEST DUP4 DUP1 REVERT JUMPDEST PUSH1 0x40 MLOAD RETURNDATASIZE DUP5 DUP3 RETURNDATACOPY RETURNDATASIZE SWAP1 REVERT JUMPDEST PUSH4 0x4E487B71 PUSH1 0xE0 SHL DUP8 MSTORE PUSH1 0x11 PUSH1 0x4 MSTORE PUSH1 0x24 DUP8 REVERT JUMPDEST PUSH1 0x40 MLOAD PUSH3 0x461BCD PUSH1 0xE5 SHL DUP2 MSTORE PUSH1 0x20 PUSH1 0x4 DUP3 ADD MSTORE PUSH1 0xF PUSH1 0x24 DUP3 ADD MSTORE PUSH15 0x139BC818DC99591A5D1CC81B19599D PUSH1 0x8A SHL PUSH1 0x44 DUP3 ADD MSTORE PUSH1 0x64 SWAP1 REVERT JUMPDEST PUSH1 0x40 MLOAD PUSH3 0x461BCD PUSH1 0xE5 SHL DUP2 MSTORE PUSH1 0x20 PUSH1 0x4 DUP3 ADD MSTORE PUSH1 0x10 PUSH1 0x24 DUP3 ADD MSTORE PUSH16 0x105B1C9958591E481D995C9A599A5959 PUSH1 0x82 SHL PUSH1 0x44 DUP3 ADD MSTORE PUSH1 0x64 SWAP1 REVERT JUMPDEST PUSH4 0x4E487B71 PUSH1 0xE0 SHL DUP6 MSTORE PUSH1 0x21 PUSH1 0x4 MSTORE PUSH1 0x24 DUP6 REVERT JUMPDEST POP CALLVALUE PUSH2 0x1DF JUMPI PUSH1 0x20 CALLDATASIZE PUSH1 0x3 NOT ADD SLT PUSH2 0x1DF JUMPI PUSH1 0xFF PUSH1 0x40 PUSH1 0x20 SWAP3 PUSH1 0x4 CALLDATALOAD DUP2 MSTORE PUSH1 0xC DUP5 MSTORE KECCAK256 SLOAD AND PUSH1 0x40 MLOAD SWAP1 ISZERO ISZERO DUP2 MSTORE RETURN JUMPDEST POP CALLVALUE PUSH2 0x1DF JUMPI PUSH1 0x40 CALLDATASIZE PUSH1 0x3 NOT ADD SLT PUSH2 0x1DF JUMPI PUSH2 0x3FE PUSH2 0x1A5D JUMP JUMPDEST PUSH1 0x40 PUSH2 0x408 PUSH2 0x1A78 JUMP JUMPDEST SWAP3 PUSH1 0x1 DUP1 PUSH1 0xA0 SHL SUB DUP1 SWAP4 AND DUP2 MSTORE PUSH1 0x5 PUSH1 0x20 MSTORE KECCAK256 SWAP2 AND PUSH1 0x0 MSTORE PUSH1 0x20 MSTORE PUSH1 0x20 PUSH1 0xFF PUSH1 0x40 PUSH1 0x0 KECCAK256 SLOAD AND PUSH1 0x40 MLOAD SWAP1 ISZERO ISZERO DUP2 MSTORE RETURN JUMPDEST POP CALLVALUE PUSH2 0x1DF JUMPI PUSH1 0x20 DUP1 PUSH1 0x3 NOT CALLDATASIZE ADD SLT PUSH2 0x544 JUMPI PUSH1 0x4 CALLDATALOAD SWAP2 PUSH2 0x45C PUSH1 0x8 SLOAD DUP5 LT PUSH2 0x2104 JUMP JUMPDEST PUSH1 0x40 MLOAD SWAP3 PUSH2 0x469 DUP5 PUSH2 0x1B0C JUMP JUMPDEST PUSH1 0x15 DUP5 MSTORE DUP3 DUP5 ADD SWAP1 PUSH21 0x68747470733A2F2F697066732E696F2F697066732F PUSH1 0x58 SHL DUP3 MSTORE DUP3 MSTORE PUSH1 0xA DUP4 MSTORE PUSH1 0x2 PUSH1 0x40 DUP4 KECCAK256 ADD SLOAD SWAP1 PUSH1 0x40 MLOAD SWAP2 PUSH2 0x4A8 DUP4 PUSH2 0x1B0C JUMP JUMPDEST DUP5 DUP4 MSTORE DUP5 DUP4 ADD SWAP4 DUP6 CALLDATASIZE DUP7 CALLDATACOPY DUP1 JUMPDEST DUP7 DUP2 LT PUSH2 0x510 JUMPI PUSH2 0x4DD DUP8 PUSH2 0x4F8 DUP2 DUP12 DUP11 DUP11 PUSH2 0x4EC DUP12 PUSH1 0x40 MLOAD SWAP9 DUP10 SWAP6 MLOAD DUP1 SWAP3 DUP9 DUP9 ADD SWAP1 PUSH2 0x1A15 JUMP JUMPDEST DUP5 ADD SWAP2 MLOAD DUP1 SWAP4 DUP7 DUP5 ADD SWAP1 PUSH2 0x1A15 JUMP JUMPDEST ADD SUB DUP1 DUP6 MSTORE ADD DUP4 PUSH2 0x1B27 JUMP JUMPDEST PUSH2 0x50C PUSH1 0x40 MLOAD SWAP3 DUP3 DUP5 SWAP4 DUP5 MSTORE DUP4 ADD SWAP1 PUSH2 0x1A38 JUMP JUMPDEST SUB SWAP1 RETURN JUMPDEST DUP5 MLOAD DUP2 LT ISZERO PUSH2 0x530 JUMPI DUP1 DUP4 PUSH2 0x52B SWAP3 BYTE DUP9 DUP3 DUP9 ADD ADD MSTORE8 PUSH2 0x2057 JUMP JUMPDEST PUSH2 0x4B5 JUMP JUMPDEST PUSH4 0x4E487B71 PUSH1 0xE0 SHL DUP3 MSTORE PUSH1 0x32 PUSH1 0x4 MSTORE PUSH1 0x24 DUP3 REVERT JUMPDEST POP DUP1 REVERT JUMPDEST POP CALLVALUE PUSH2 0x1DF JUMPI PUSH1 0x80 CALLDATASIZE PUSH1 0x3 NOT ADD SLT PUSH2 0x1DF JUMPI PUSH1 0x4 CALLDATALOAD PUSH1 0x1 PUSH1 0x1 PUSH1 0x40 SHL SUB DUP2 GT PUSH2 0x544 JUMPI PUSH2 0x579 SWAP1 CALLDATASIZE SWAP1 PUSH1 0x4 ADD PUSH2 0x1B9A JUMP JUMPDEST PUSH2 0x581 PUSH2 0x1BED JUMP JUMPDEST SWAP2 PUSH2 0x58A PUSH2 0x1A8E JUMP JUMPDEST SWAP1 PUSH2 0x593 PUSH2 0x207C JUMP JUMPDEST PUSH2 0x59B PUSH2 0x209D JUMP JUMPDEST DUP3 MLOAD ISZERO PUSH2 0xBCE JUMPI PUSH1 0x40 MLOAD PUSH1 0x20 DUP2 DUP6 MLOAD PUSH2 0x5B7 DUP2 DUP4 DUP6 DUP11 ADD PUSH2 0x1A15 JUMP JUMPDEST DUP2 ADD PUSH1 0xB DUP2 MSTORE SUB ADD SWAP1 KECCAK256 SLOAD PUSH2 0xB98 JUMPI PUSH2 0xFFFF DUP5 AND ISZERO PUSH2 0xB65 JUMPI PUSH2 0x5E4 PUSH1 0x1 PUSH1 0x1 PUSH1 0xA0 SHL SUB DUP4 AND ISZERO ISZERO PUSH2 0x201B JUMP JUMPDEST PUSH1 0x8 SLOAD SWAP3 PUSH2 0x5F1 DUP5 PUSH2 0x2057 JUMP JUMPDEST PUSH1 0x8 SSTORE PUSH1 0x40 MLOAD PUSH1 0xE0 DUP2 ADD DUP2 DUP2 LT PUSH1 0x1 PUSH1 0x1 PUSH1 0x40 SHL SUB DUP3 GT OR PUSH2 0xB4F JUMPI PUSH1 0x40 MSTORE DUP2 DUP2 MSTORE PUSH2 0xFFFF DUP7 AND PUSH1 0x20 DUP3 ADD MSTORE PUSH1 0x1 PUSH1 0x40 DUP3 ADD MSTORE DUP3 PUSH1 0x60 DUP3 ADD MSTORE DUP3 PUSH1 0x80 DUP3 ADD MSTORE PUSH1 0x1 DUP1 PUSH1 0xA0 SHL SUB DUP5 AND PUSH1 0xA0 DUP3 ADD MSTORE PUSH1 0x64 CALLDATALOAD PUSH1 0xC0 DUP3 ADD MSTORE DUP5 DUP4 MSTORE PUSH1 0xA PUSH1 0x20 MSTORE PUSH1 0x40 DUP4 KECCAK256 SWAP1 DUP1 MLOAD DUP1 MLOAD SWAP1 PUSH1 0x1 PUSH1 0x1 PUSH1 0x40 SHL SUB DUP3 GT PUSH2 0xB3B JUMPI DUP2 SWAP1 PUSH2 0x672 DUP6 SLOAD PUSH2 0x1AA4 JUMP JUMPDEST PUSH1 0x1F DUP2 GT PUSH2 0xAEE JUMPI JUMPDEST POP PUSH1 0x20 SWAP1 PUSH1 0x1F DUP4 GT PUSH1 0x1 EQ PUSH2 0xA85 JUMPI DUP8 SWAP3 PUSH2 0xA7A JUMPI JUMPDEST POP POP DUP2 PUSH1 0x1 SHL SWAP2 PUSH1 0x0 NOT SWAP1 PUSH1 0x3 SHL SHR NOT AND OR DUP3 SSTORE JUMPDEST PUSH1 0x1 DUP3 ADD PUSH2 0xFFFF PUSH1 0x20 DUP4 ADD MLOAD AND DUP2 SLOAD SWAP1 PUSH1 0x40 DUP5 ADD MLOAD SWAP1 PUSH1 0x3 DUP3 LT ISZERO PUSH2 0xA66 JUMPI SWAP3 DUP5 SWAP3 PUSH2 0x75D SWAP3 PUSH3 0xFF0000 PUSH1 0xC0 SWAP7 PUSH4 0xFF000000 PUSH1 0x60 PUSH1 0x2 SWAP11 ADD MLOAD ISZERO ISZERO PUSH1 0x18 SHL AND SWAP4 PUSH4 0xFFFFFFFF NOT AND OR SWAP2 PUSH1 0x10 SHL AND OR OR DUP2 SSTORE PUSH2 0x733 PUSH1 0x1 PUSH1 0x1 PUSH1 0x40 SHL SUB PUSH1 0x80 DUP6 ADD MLOAD AND DUP3 SWAP1 PUSH12 0xFFFFFFFFFFFFFFFF00000000 DUP3 SLOAD SWAP2 PUSH1 0x20 SHL AND SWAP1 PUSH12 0xFFFFFFFFFFFFFFFF00000000 NOT AND OR SWAP1 SSTORE JUMP JUMPDEST PUSH1 0xA0 DUP4 ADD MLOAD DUP2 SLOAD PUSH1 0x1 PUSH1 0x1 PUSH1 0x60 SHL SUB AND PUSH1 0x60 SWAP2 SWAP1 SWAP2 SHL PUSH12 0xFFFFFFFFFFFFFFFFFFFFFFFF NOT AND OR SWAP1 SSTORE JUMP JUMPDEST ADD MLOAD SWAP2 ADD SSTORE DUP4 PUSH1 0x40 MLOAD PUSH1 0x20 DUP2 DUP5 MLOAD PUSH2 0x778 DUP2 DUP4 DUP6 DUP10 ADD PUSH2 0x1A15 JUMP JUMPDEST DUP2 ADD PUSH1 0xB DUP2 MSTORE SUB ADD SWAP1 KECCAK256 SSTORE PUSH1 0x40 MLOAD PUSH2 0x78F DUP2 PUSH2 0x1AF1 JUMP JUMPDEST DUP3 DUP2 MSTORE PUSH1 0x1 PUSH1 0x1 PUSH1 0xA0 SHL SUB DUP5 AND ISZERO PUSH2 0xA4D JUMPI PUSH1 0x1 PUSH1 0x1 PUSH1 0xA0 SHL SUB PUSH2 0x7B3 DUP7 DUP7 PUSH2 0x1DD6 JUMP JUMPDEST AND PUSH2 0xA34 JUMPI DUP4 EXTCODESIZE PUSH2 0x8F4 JUMPI JUMPDEST POP PUSH2 0x7D8 SWAP1 PUSH1 0x20 PUSH1 0x40 MLOAD SWAP3 DUP3 DUP5 DUP1 SWAP5 MLOAD SWAP4 DUP5 SWAP3 ADD PUSH2 0x1A15 JUMP JUMPDEST DUP2 ADD SUB SWAP1 KECCAK256 PUSH1 0x40 MLOAD PUSH2 0xFFFF DUP7 AND DUP2 MSTORE PUSH1 0x1 PUSH1 0x1 PUSH1 0xA0 SHL SUB DUP5 AND SWAP2 SWAP1 DUP6 SWAP1 PUSH32 0xE6DD694BFEB45B4D2FE4926C1544B9E5B3D0CF87F38DF59E49A8315CF990784 SWAP1 PUSH1 0x20 SWAP1 LOG4 PUSH1 0x9 SLOAD PUSH1 0x1 PUSH1 0x1 PUSH1 0xA0 SHL SUB AND PUSH2 0xFFFF DUP6 AND PUSH8 0xDE0B6B3A7640000 DUP2 MUL SWAP1 PUSH8 0xDE0B6B3A763FFFF NOT SWAP1 DUP3 DIV ADD PUSH2 0x8E0 JUMPI DUP2 EXTCODESIZE ISZERO PUSH2 0x8DC JUMPI PUSH1 0x40 MLOAD PUSH4 0x40C10F19 PUSH1 0xE0 SHL DUP2 MSTORE PUSH1 0x1 PUSH1 0x1 PUSH1 0xA0 SHL SUB DUP6 AND PUSH1 0x4 DUP3 ADD MSTORE PUSH1 0x24 DUP2 ADD SWAP2 SWAP1 SWAP2 MSTORE SWAP1 DUP3 SWAP1 DUP3 SWAP1 PUSH1 0x44 SWAP1 DUP3 SWAP1 DUP5 SWAP1 GAS CALL DUP1 ISZERO PUSH2 0x313 JUMPI PUSH2 0x8C8 JUMPI JUMPDEST PUSH1 0x20 DUP5 DUP1 PUSH1 0x0 DUP1 MLOAD PUSH1 0x20 PUSH2 0x219C DUP4 CODECOPY DUP2 MLOAD SWAP2 MSTORE PUSH1 0x40 DUP10 DUP9 PUSH2 0xFFFF DUP4 MLOAD SWAP3 AND DUP3 MSTORE PUSH1 0x1 DUP1 PUSH1 0xA0 SHL SUB AND DUP7 DUP3 ADD MSTORE LOG2 PUSH1 0x1 PUSH1 0x7 SSTORE PUSH1 0x40 MLOAD SWAP1 DUP2 MSTORE RETURN JUMPDEST PUSH2 0x8D2 DUP3 SWAP2 PUSH2 0x1ADE JUMP JUMPDEST PUSH2 0x1DF JUMPI DUP1 PUSH2 0x88E JUMP JUMPDEST DUP3 DUP1 REVERT JUMPDEST PUSH4 0x4E487B71 PUSH1 0xE0 SHL DUP4 MSTORE PUSH1 0x11 PUSH1 0x4 MSTORE PUSH1 0x24 DUP4 REVERT JUMPDEST PUSH1 0x40 SWAP6 SWAP5 SWAP4 SWAP6 MLOAD PUSH1 0x20 DUP2 DUP1 PUSH2 0x932 PUSH4 0xA85BD01 PUSH1 0xE1 SHL SWAP6 DUP7 DUP4 MSTORE CALLER PUSH1 0x4 DUP5 ADD MSTORE PUSH1 0x0 PUSH1 0x24 DUP5 ADD MSTORE DUP10 PUSH1 0x44 DUP5 ADD MSTORE PUSH1 0x80 PUSH1 0x64 DUP5 ADD MSTORE PUSH1 0x84 DUP4 ADD SWAP1 PUSH2 0x1A38 JUMP JUMPDEST SUB DUP2 PUSH1 0x0 PUSH1 0x1 PUSH1 0x1 PUSH1 0xA0 SHL SUB DUP13 AND GAS CALL DUP1 SWAP2 PUSH1 0x0 SWAP2 PUSH2 0x9F1 JUMPI JUMPDEST POP SWAP1 PUSH2 0x9B5 JUMPI DUP7 RETURNDATASIZE ISZERO PUSH2 0x9AD JUMPI RETURNDATASIZE SWAP1 PUSH2 0x964 DUP3 PUSH2 0x1B48 JUMP JUMPDEST SWAP2 PUSH2 0x972 PUSH1 0x40 MLOAD SWAP4 DUP5 PUSH2 0x1B27 JUMP JUMPDEST DUP3 MSTORE RETURNDATASIZE PUSH1 0x0 PUSH1 0x20 DUP5 ADD RETURNDATACOPY JUMPDEST DUP2 MLOAD SWAP2 DUP3 PUSH2 0x9A6 JUMPI PUSH1 0x40 MLOAD PUSH4 0x32505749 PUSH1 0xE1 SHL DUP2 MSTORE PUSH1 0x1 PUSH1 0x1 PUSH1 0xA0 SHL SUB DUP4 AND PUSH1 0x4 DUP3 ADD MSTORE PUSH1 0x24 SWAP1 REVERT JUMPDEST PUSH1 0x20 SWAP2 POP ADD REVERT JUMPDEST PUSH1 0x60 SWAP1 PUSH2 0x97D JUMP JUMPDEST SWAP5 SWAP6 SWAP4 SWAP5 PUSH1 0x1 PUSH1 0x1 PUSH1 0xE0 SHL SUB NOT AND SUB PUSH2 0x9D0 JUMPI PUSH2 0x7D8 PUSH2 0x7BF JUMP JUMPDEST PUSH1 0x40 MLOAD PUSH4 0x32505749 PUSH1 0xE1 SHL DUP2 MSTORE PUSH1 0x1 PUSH1 0x1 PUSH1 0xA0 SHL SUB DUP5 AND PUSH1 0x4 DUP3 ADD MSTORE PUSH1 0x24 SWAP1 REVERT JUMPDEST PUSH1 0x20 DUP2 RETURNDATASIZE PUSH1 0x20 GT PUSH2 0xA2C JUMPI JUMPDEST DUP2 PUSH2 0xA0A PUSH1 0x20 SWAP4 DUP4 PUSH2 0x1B27 JUMP JUMPDEST DUP2 ADD SUB SLT PUSH2 0x544 JUMPI MLOAD SWAP1 PUSH1 0x1 PUSH1 0x1 PUSH1 0xE0 SHL SUB NOT DUP3 AND DUP3 SUB PUSH2 0x1DF JUMPI POP CODESIZE PUSH2 0x94C JUMP JUMPDEST RETURNDATASIZE SWAP2 POP PUSH2 0x9FD JUMP JUMPDEST PUSH1 0x40 MLOAD PUSH4 0x39E35637 PUSH1 0xE1 SHL DUP2 MSTORE PUSH1 0x4 DUP2 ADD DUP5 SWAP1 MSTORE PUSH1 0x24 SWAP1 REVERT JUMPDEST PUSH1 0x40 MLOAD PUSH4 0x32505749 PUSH1 0xE1 SHL DUP2 MSTORE PUSH1 0x4 DUP2 ADD DUP5 SWAP1 MSTORE PUSH1 0x24 SWAP1 REVERT JUMPDEST PUSH4 0x4E487B71 PUSH1 0xE0 SHL DUP9 MSTORE PUSH1 0x21 PUSH1 0x4 MSTORE PUSH1 0x24 DUP9 REVERT JUMPDEST ADD MLOAD SWAP1 POP CODESIZE DUP1 PUSH2 0x691 JUMP JUMPDEST SWAP3 POP DUP5 DUP8 MSTORE PUSH1 0x20 DUP8 KECCAK256 SWAP1 DUP8 SWAP4 JUMPDEST PUSH1 0x1F NOT DUP5 AND DUP6 LT PUSH2 0xAD3 JUMPI PUSH1 0x1 SWAP5 POP DUP4 PUSH1 0x1F NOT DUP2 AND LT PUSH2 0xABA JUMPI JUMPDEST POP POP POP DUP2 SHL ADD DUP3 SSTORE PUSH2 0x6A6 JUMP JUMPDEST ADD MLOAD PUSH1 0x0 NOT PUSH1 0xF8 DUP5 PUSH1 0x3 SHL AND SHR NOT AND SWAP1 SSTORE CODESIZE DUP1 DUP1 PUSH2 0xAAD JUMP JUMPDEST DUP2 DUP2 ADD MLOAD DUP4 SSTORE PUSH1 0x20 SWAP5 DUP6 ADD SWAP5 PUSH1 0x1 SWAP1 SWAP4 ADD SWAP3 SWAP1 SWAP2 ADD SWAP1 PUSH2 0xA92 JUMP JUMPDEST SWAP1 SWAP2 POP DUP5 DUP8 MSTORE PUSH1 0x20 DUP8 KECCAK256 PUSH1 0x1F DUP5 ADD PUSH1 0x5 SHR DUP2 ADD PUSH1 0x20 DUP6 LT PUSH2 0xB34 JUMPI JUMPDEST SWAP1 DUP5 SWAP4 SWAP3 SWAP2 JUMPDEST PUSH1 0x1F DUP4 ADD PUSH1 0x5 SHR DUP3 ADD DUP2 LT PUSH2 0xB26 JUMPI POP POP PUSH2 0x67B JUMP JUMPDEST DUP10 DUP2 SSTORE DUP6 SWAP5 POP PUSH1 0x1 ADD PUSH2 0xB10 JUMP JUMPDEST POP DUP1 PUSH2 0xB0A JUMP JUMPDEST PUSH4 0x4E487B71 PUSH1 0xE0 SHL DUP7 MSTORE PUSH1 0x41 PUSH1 0x4 MSTORE PUSH1 0x24 DUP7 REVERT JUMPDEST PUSH4 0x4E487B71 PUSH1 0xE0 SHL PUSH1 0x0 MSTORE PUSH1 0x41 PUSH1 0x4 MSTORE PUSH1 0x24 PUSH1 0x0 REVERT JUMPDEST PUSH1 0x40 MLOAD PUSH3 0x461BCD PUSH1 0xE5 SHL DUP2 MSTORE PUSH1 0x20 PUSH1 0x4 DUP3 ADD MSTORE PUSH1 0xB PUSH1 0x24 DUP3 ADD MSTORE PUSH11 0x43726564697473203E203 PUSH1 0xAC SHL PUSH1 0x44 DUP3 ADD MSTORE PUSH1 0x64 SWAP1 REVERT JUMPDEST PUSH1 0x40 MLOAD PUSH3 0x461BCD PUSH1 0xE5 SHL DUP2 MSTORE PUSH1 0x20 PUSH1 0x4 DUP3 ADD MSTORE PUSH1 0xE PUSH1 0x24 DUP3 ADD MSTORE PUSH14 0x50726F6A65637420657869737473 PUSH1 0x90 SHL PUSH1 0x44 DUP3 ADD MSTORE PUSH1 0x64 SWAP1 REVERT JUMPDEST PUSH1 0x40 MLOAD PUSH3 0x461BCD PUSH1 0xE5 SHL DUP2 MSTORE PUSH1 0x20 PUSH1 0x4 DUP3 ADD MSTORE PUSH1 0x13 PUSH1 0x24 DUP3 ADD MSTORE PUSH19 0x141C9BDA9958DD081251081C995C5D5A5C9959 PUSH1 0x6A SHL PUSH1 0x44 DUP3 ADD MSTORE PUSH1 0x64 SWAP1 REVERT JUMPDEST POP CALLVALUE PUSH2 0x1DF JUMPI PUSH1 0x80 CALLDATASIZE PUSH1 0x3 NOT ADD SLT PUSH2 0x1DF JUMPI PUSH2 0xC23 PUSH2 0x1A5D JUMP JUMPDEST PUSH2 0xC2B PUSH2 0x1A78 JUMP JUMPDEST SWAP1 PUSH1 0x44 CALLDATALOAD PUSH1 0x64 CALLDATALOAD SWAP3 PUSH1 0x1 PUSH1 0x1 PUSH1 0x40 SHL SUB DUP5 GT PUSH2 0xC78 JUMPI CALLDATASIZE PUSH1 0x23 DUP6 ADD SLT ISZERO PUSH2 0xC78 JUMPI PUSH2 0xC63 PUSH2 0xC75 SWAP5 CALLDATASIZE SWAP1 PUSH1 0x24 DUP2 PUSH1 0x4 ADD CALLDATALOAD SWAP2 ADD PUSH2 0x1B63 JUMP JUMPDEST SWAP3 PUSH2 0xC6F DUP4 DUP4 DUP4 PUSH2 0x1C2A JUMP JUMPDEST CALLER PUSH2 0x1ECD JUMP JUMPDEST DUP1 RETURN JUMPDEST DUP5 DUP1 REVERT JUMPDEST POP CALLVALUE PUSH2 0x1DF JUMPI PUSH1 0x60 CALLDATASIZE PUSH1 0x3 NOT ADD SLT PUSH2 0x1DF JUMPI PUSH1 0x4 CALLDATALOAD PUSH1 0x24 CALLDATALOAD PUSH2 0xC9C PUSH2 0x1A8E JUMP JUMPDEST SWAP1 PUSH2 0xCA6 DUP4 PUSH2 0x1E92 JUMP JUMPDEST PUSH1 0x1 PUSH1 0x1 PUSH1 0xA0 SHL SUB SWAP1 PUSH2 0xCBC SWAP1 DUP3 AND CALLER EQ PUSH2 0x20C0 JUMP JUMPDEST PUSH2 0xCC9 PUSH1 0x8 SLOAD DUP6 LT PUSH2 0x2104 JUMP JUMPDEST PUSH2 0xCD1 PUSH2 0x207C JUMP JUMPDEST DUP2 ISZERO PUSH2 0xE33 JUMPI DUP4 DUP6 MSTORE PUSH1 0xA PUSH1 0x20 MSTORE PUSH1 0x1 PUSH1 0x40 DUP7 KECCAK256 ADD DUP1 SLOAD PUSH2 0xCF8 PUSH1 0xFF DUP3 PUSH1 0x18 SHR AND ISZERO PUSH2 0x2149 JUMP JUMPDEST PUSH2 0xFFFF DUP1 DUP3 AND DUP1 DUP7 GT PUSH2 0xDEE JUMPI PUSH2 0xD12 SWAP1 DUP3 DUP8 AND SWAP1 PUSH2 0x2187 JUMP JUMPDEST AND SWAP1 PUSH2 0xFFFF NOT AND OR SWAP1 SSTORE PUSH1 0x9 SLOAD AND PUSH8 0xDE0B6B3A7640000 DUP1 DUP4 MUL SWAP1 DUP4 DUP3 DIV SUB PUSH2 0xDDA JUMPI SWAP1 DUP6 SWAP2 DUP2 EXTCODESIZE ISZERO PUSH2 0x8DC JUMPI PUSH1 0x40 MLOAD PUSH4 0x40C10F19 PUSH1 0xE0 SHL DUP2 MSTORE PUSH1 0x1 PUSH1 0x1 PUSH1 0xA0 SHL SUB DUP7 AND PUSH1 0x4 DUP3 ADD MSTORE PUSH1 0x24 DUP2 ADD SWAP2 SWAP1 SWAP2 MSTORE SWAP2 SWAP1 DUP3 SWAP1 PUSH1 0x44 SWAP1 DUP3 SWAP1 DUP5 SWAP1 GAS CALL DUP1 ISZERO PUSH2 0xDCF JUMPI PUSH2 0xDAC JUMPI JUMPDEST POP PUSH1 0x40 DUP1 MLOAD SWAP2 DUP3 MSTORE PUSH1 0x1 PUSH1 0x1 PUSH1 0xA0 SHL SUB SWAP1 SWAP3 AND PUSH1 0x20 DUP3 ADD MSTORE PUSH1 0x0 DUP1 MLOAD PUSH1 0x20 PUSH2 0x219C DUP4 CODECOPY DUP2 MLOAD SWAP2 MSTORE SWAP2 DUP2 SWAP1 DUP2 ADD PUSH2 0x2F5 JUMP JUMPDEST SWAP4 PUSH2 0xDC7 PUSH1 0x0 DUP1 MLOAD PUSH1 0x20 PUSH2 0x219C DUP4 CODECOPY DUP2 MLOAD SWAP2 MSTORE SWAP4 SWAP3 SWAP6 PUSH2 0x1ADE JUMP JUMPDEST SWAP4 SWAP1 SWAP2 PUSH2 0xD7B JUMP JUMPDEST PUSH1 0x40 MLOAD RETURNDATASIZE DUP8 DUP3 RETURNDATACOPY RETURNDATASIZE SWAP1 REVERT JUMPDEST PUSH4 0x4E487B71 PUSH1 0xE0 SHL DUP7 MSTORE PUSH1 0x11 PUSH1 0x4 MSTORE PUSH1 0x24 DUP7 REVERT JUMPDEST PUSH1 0x40 MLOAD PUSH3 0x461BCD PUSH1 0xE5 SHL DUP2 MSTORE PUSH1 0x20 PUSH1 0x4 DUP3 ADD MSTORE PUSH1 0x1A PUSH1 0x24 DUP3 ADD MSTORE PUSH32 0x416D6F756E742065786365656473204E46542063726564697473000000000000 PUSH1 0x44 DUP3 ADD MSTORE PUSH1 0x64 SWAP1 REVERT JUMPDEST PUSH1 0x40 MLOAD PUSH3 0x461BCD PUSH1 0xE5 SHL DUP2 MSTORE PUSH1 0x20 PUSH1 0x4 DUP3 ADD MSTORE PUSH1 0x12 PUSH1 0x24 DUP3 ADD MSTORE PUSH18 0x416D6F756E74206D757374206265203E203 PUSH1 0x74 SHL PUSH1 0x44 DUP3 ADD MSTORE PUSH1 0x64 SWAP1 REVERT JUMPDEST POP CALLVALUE PUSH2 0x1DF JUMPI PUSH1 0x40 CALLDATASIZE PUSH1 0x3 NOT ADD SLT PUSH2 0x1DF JUMPI PUSH2 0xE87 PUSH2 0x1A5D JUMP JUMPDEST PUSH1 0x24 CALLDATALOAD SWAP1 DUP2 ISZERO ISZERO DUP1 SWAP3 SUB PUSH2 0x8DC JUMPI PUSH1 0x1 PUSH1 0x1 PUSH1 0xA0 SHL SUB AND SWAP1 DUP2 ISZERO PUSH2 0xEF7 JUMPI CALLER DUP4 MSTORE PUSH1 0x5 PUSH1 0x20 MSTORE PUSH1 0x40 DUP4 KECCAK256 DUP3 DUP5 MSTORE PUSH1 0x20 MSTORE PUSH1 0x40 DUP4 KECCAK256 PUSH1 0xFF NOT DUP2 SLOAD AND PUSH1 0xFF DUP4 AND OR SWAP1 SSTORE PUSH1 0x40 MLOAD SWAP1 DUP2 MSTORE PUSH32 0x17307EAB39AB6107E8899845AD3D59BD9653F200F220920489CA2B5937696C31 PUSH1 0x20 CALLER SWAP3 LOG3 DUP1 RETURN JUMPDEST PUSH1 0x40 MLOAD PUSH4 0xB611743 PUSH1 0xE3 SHL DUP2 MSTORE PUSH1 0x4 DUP2 ADD DUP4 SWAP1 MSTORE PUSH1 0x24 SWAP1 REVERT JUMPDEST POP CALLVALUE PUSH2 0x1DF JUMPI DUP1 PUSH1 0x3 NOT CALLDATASIZE ADD SLT PUSH2 0x1DF JUMPI PUSH1 0x40 MLOAD SWAP1 DUP1 PUSH1 0x1 DUP1 SLOAD SWAP2 PUSH2 0xF34 DUP4 PUSH2 0x1AA4 JUMP JUMPDEST DUP1 DUP7 MSTORE SWAP3 DUP3 DUP2 AND SWAP1 DUP2 ISZERO PUSH2 0xFC9 JUMPI POP PUSH1 0x1 EQ PUSH2 0xF6F JUMPI JUMPDEST PUSH2 0x50C DUP6 PUSH2 0xF5B DUP2 DUP8 SUB DUP3 PUSH2 0x1B27 JUMP JUMPDEST PUSH1 0x40 MLOAD SWAP2 DUP3 SWAP2 PUSH1 0x20 DUP4 MSTORE PUSH1 0x20 DUP4 ADD SWAP1 PUSH2 0x1A38 JUMP JUMPDEST SWAP3 POP DUP1 DUP4 MSTORE PUSH32 0xB10E2D527612073B26EECDFD717E6A320CF44B4AFAC2B0732D9FCBE2B7FA0CF6 JUMPDEST DUP3 DUP5 LT PUSH2 0xFB1 JUMPI POP POP POP DUP2 ADD PUSH1 0x20 ADD PUSH2 0xF5B DUP3 PUSH2 0x50C PUSH2 0xF4B JUMP JUMPDEST DUP1 SLOAD PUSH1 0x20 DUP6 DUP8 ADD DUP2 ADD SWAP2 SWAP1 SWAP2 MSTORE SWAP1 SWAP4 ADD SWAP3 DUP2 ADD PUSH2 0xF96 JUMP JUMPDEST DUP7 SWAP6 POP PUSH2 0x50C SWAP7 SWAP4 POP PUSH1 0x20 SWAP3 POP PUSH2 0xF5B SWAP5 SWAP2 POP PUSH1 0xFF NOT AND DUP3 DUP5 ADD MSTORE ISZERO ISZERO PUSH1 0x5 SHL DUP3 ADD ADD SWAP3 SWAP4 PUSH2 0xF4B JUMP JUMPDEST POP CALLVALUE PUSH2 0x1DF JUMPI PUSH1 0x40 CALLDATASIZE PUSH1 0x3 NOT ADD SLT PUSH2 0x1DF JUMPI PUSH1 0x4 CALLDATALOAD SWAP1 PUSH2 0x1011 PUSH2 0x1A78 JUMP JUMPDEST PUSH2 0x1019 PUSH2 0x1BFE JUMP JUMPDEST PUSH2 0x1026 PUSH1 0x8 SLOAD DUP5 LT PUSH2 0x2104 JUMP JUMPDEST PUSH1 0x1 PUSH1 0x1 PUSH1 0xA0 SHL SUB DUP2 DUP2 AND ISZERO SWAP1 PUSH2 0x103D DUP3 ISZERO PUSH2 0x201B JUMP JUMPDEST PUSH2 0x1046 DUP6 PUSH2 0x1E92 JUMP JUMPDEST SWAP2 PUSH2 0x10E4 JUMPI PUSH2 0x1055 DUP6 DUP5 PUSH2 0x1DD6 JUMP JUMPDEST SWAP1 DUP1 DUP3 AND SWAP1 DUP2 PUSH2 0x1078 JUMPI PUSH1 0x40 MLOAD PUSH4 0x7E273289 PUSH1 0xE0 SHL DUP2 MSTORE PUSH1 0x4 DUP2 ADD DUP9 SWAP1 MSTORE PUSH1 0x24 SWAP1 REVERT JUMPDEST DUP4 AND SUB PUSH2 0x10B4 JUMPI DUP5 DUP5 MSTORE PUSH1 0xA PUSH1 0x20 MSTORE PUSH1 0x40 DUP5 KECCAK256 PUSH1 0x1 ADD DUP1 SLOAD PUSH1 0x1 PUSH1 0x1 PUSH1 0x60 SHL SUB AND PUSH1 0x60 DUP6 SWAP1 SHL PUSH12 0xFFFFFFFFFFFFFFFFFFFFFFFF NOT AND OR SWAP1 SSTORE DUP4 DUP1 RETURN JUMPDEST PUSH1 0x40 MLOAD PUSH4 0x64283D7B PUSH1 0xE0 SHL DUP2 MSTORE PUSH1 0x1 PUSH1 0x1 PUSH1 0xA0 SHL SUB SWAP3 DUP4 AND PUSH1 0x4 DUP3 ADD MSTORE PUSH1 0x24 DUP2 ADD DUP7 SWAP1 MSTORE SWAP2 AND PUSH1 0x44 DUP3 ADD MSTORE PUSH1 0x64 SWAP1 REVERT JUMPDEST PUSH1 0x40 MLOAD PUSH4 0x32505749 PUSH1 0xE1 SHL DUP2 MSTORE PUSH1 0x4 DUP2 ADD DUP6 SWAP1 MSTORE PUSH1 0x24 SWAP1 REVERT JUMPDEST POP CALLVALUE PUSH2 0x1DF JUMPI DUP1 PUSH1 0x3 NOT CALLDATASIZE ADD SLT PUSH2 0x1DF JUMPI PUSH1 0x6 SLOAD PUSH1 0x40 MLOAD PUSH1 0x1 PUSH1 0x1 PUSH1 0xA0 SHL SUB SWAP1 SWAP2 AND DUP2 MSTORE PUSH1 0x20 SWAP1 RETURN JUMPDEST POP CALLVALUE PUSH2 0x1DF JUMPI DUP1 PUSH1 0x3 NOT CALLDATASIZE ADD SLT PUSH2 0x1DF JUMPI PUSH2 0x113F PUSH2 0x1BFE JUMP JUMPDEST PUSH2 0x1147 PUSH2 0x207C JUMP JUMPDEST PUSH1 0x6 DUP1 SLOAD PUSH1 0xFF PUSH1 0xA0 SHL NOT AND PUSH1 0x1 PUSH1 0xA0 SHL OR SWAP1 SSTORE PUSH1 0x40 MLOAD CALLER DUP2 MSTORE PUSH32 0x62E78CEA01BEE320CD4E420270B5EA74000D11B0C9F74754EBDBFC544B05A258 SWAP1 PUSH1 0x20 SWAP1 LOG1 DUP1 RETURN JUMPDEST POP CALLVALUE PUSH2 0x1DF JUMPI DUP1 PUSH1 0x3 NOT CALLDATASIZE ADD SLT PUSH2 0x1DF JUMPI PUSH2 0x11A2 PUSH2 0x1BFE JUMP JUMPDEST PUSH1 0x6 DUP1 SLOAD PUSH1 0x1 PUSH1 0x1 PUSH1 0xA0 SHL SUB NOT DUP2 AND SWAP1 SWAP2 SSTORE DUP2 SWAP1 PUSH1 0x1 PUSH1 0x1 PUSH1 0xA0 SHL SUB AND PUSH32 0x8BE0079C531659141344CD1FD0A4F28419497F9722A3DAAFE3B4186F6B6457E0 DUP3 DUP1 LOG3 DUP1 RETURN JUMPDEST POP CALLVALUE PUSH2 0x1DF JUMPI PUSH1 0x20 CALLDATASIZE PUSH1 0x3 NOT ADD SLT PUSH2 0x1DF JUMPI PUSH1 0x1 PUSH1 0x1 PUSH1 0xA0 SHL SUB PUSH2 0x1208 PUSH2 0x1A5D JUMP JUMPDEST AND DUP1 ISZERO PUSH2 0x1225 JUMPI DUP2 PUSH1 0x40 SWAP2 PUSH1 0x20 SWAP4 MSTORE PUSH1 0x3 DUP4 MSTORE KECCAK256 SLOAD PUSH1 0x40 MLOAD SWAP1 DUP2 MSTORE RETURN JUMPDEST PUSH1 0x40 MLOAD PUSH4 0x22718AD9 PUSH1 0xE2 SHL DUP2 MSTORE PUSH1 0x4 DUP2 ADD DUP4 SWAP1 MSTORE PUSH1 0x24 SWAP1 REVERT JUMPDEST POP CALLVALUE PUSH2 0x1DF JUMPI PUSH1 0x20 CALLDATASIZE PUSH1 0x3 NOT ADD SLT PUSH2 0x1DF JUMPI PUSH1 0x20 PUSH2 0x125D PUSH1 0x4 CALLDATALOAD PUSH2 0x1E92 JUMP JUMPDEST PUSH1 0x40 MLOAD PUSH1 0x1 PUSH1 0x1 PUSH1 0xA0 SHL SUB SWAP1 SWAP2 AND DUP2 MSTORE RETURN JUMPDEST POP CALLVALUE PUSH2 0x1DF JUMPI PUSH1 0x60 CALLDATASIZE PUSH1 0x3 NOT ADD SLT PUSH2 0x1DF JUMPI PUSH1 0x4 CALLDATALOAD PUSH2 0x128C PUSH2 0x1BED JUMP JUMPDEST PUSH1 0x1 PUSH1 0x1 PUSH1 0x40 SHL SUB SWAP2 PUSH1 0x44 CALLDATALOAD DUP4 DUP2 GT PUSH2 0xC78 JUMPI PUSH2 0x12AD SWAP1 CALLDATASIZE SWAP1 PUSH1 0x4 ADD PUSH2 0x1B9A JUMP JUMPDEST SWAP2 PUSH2 0x12CA PUSH2 0x12BA DUP4 PUSH2 0x1E92 JUMP JUMPDEST PUSH1 0x1 PUSH1 0x1 PUSH1 0xA0 SHL SUB AND CALLER EQ PUSH2 0x20C0 JUMP JUMPDEST PUSH2 0x12D7 PUSH1 0x8 SLOAD DUP4 LT PUSH2 0x2104 JUMP JUMPDEST PUSH2 0x12DF PUSH2 0x207C JUMP JUMPDEST PUSH2 0x12E7 PUSH2 0x209D JUMP JUMPDEST DUP2 DUP6 MSTORE PUSH1 0x20 SWAP1 PUSH1 0xA DUP3 MSTORE PUSH1 0x40 DUP7 KECCAK256 PUSH1 0x1 SWAP6 DUP7 DUP3 ADD SWAP1 DUP2 SLOAD PUSH1 0xFF DUP2 PUSH1 0x18 SHR AND PUSH2 0x150F JUMPI PUSH2 0xFFFF DUP1 DUP7 AND SWAP6 DUP7 ISZERO ISZERO DUP1 PUSH2 0x1503 JUMPI JUMPDEST ISZERO PUSH2 0x14CD JUMPI DUP10 MLOAD ISZERO PUSH2 0x1496 JUMPI SWAP2 DUP2 PUSH2 0x133C PUSH2 0x1376 SWAP6 SWAP5 PUSH4 0x1000000 SWAP5 DUP5 AND PUSH2 0x2187 JUMP JUMPDEST PUSH12 0xFFFFFFFFFFFFFFFF00000000 NOT PUSH4 0xFF00FFFF NOT SWAP1 SWAP4 AND SWAP2 AND OR SWAP2 SWAP1 SWAP2 OR AND TIMESTAMP SWAP2 SWAP1 SWAP2 AND PUSH1 0x20 SHL PUSH12 0xFFFFFFFFFFFFFFFF00000000 AND OR DUP3 SSTORE JUMP JUMPDEST PUSH3 0x20000 PUSH3 0xFF0000 NOT DUP3 SLOAD AND OR SWAP1 SSTORE DUP4 DUP8 MSTORE PUSH1 0xC DUP4 MSTORE PUSH1 0x40 DUP8 KECCAK256 SWAP1 PUSH1 0xFF NOT SWAP2 DUP8 DUP4 DUP3 SLOAD AND OR SWAP1 SSTORE PUSH1 0x40 MLOAD SWAP2 DUP9 SWAP2 DUP1 SLOAD PUSH2 0x13AE DUP2 PUSH2 0x1AA4 JUMP JUMPDEST SWAP3 DUP2 DUP12 AND SWAP2 DUP3 ISZERO PUSH2 0x1462 JUMPI POP POP PUSH1 0x1 EQ PUSH2 0x1411 JUMPI JUMPDEST POP POP DUP2 PUSH32 0x1BB65D0CFDDE7C6F874E0104F34B04ECC8D308044367CB6ABAEE56ABB9D45A71 SWAP5 SWAP4 SWAP3 PUSH2 0x1408 SWAP3 SUB SWAP1 KECCAK256 SWAP6 PUSH1 0x40 DUP1 MLOAD SWAP5 DUP6 SWAP5 DUP6 MSTORE DUP5 ADD MSTORE PUSH1 0x40 DUP4 ADD SWAP1 PUSH2 0x1A38 JUMP JUMPDEST SUB SWAP1 LOG3 PUSH1 0x7 SSTORE DUP1 RETURN JUMPDEST SWAP1 SWAP2 POP DUP9 MSTORE DUP4 DUP9 KECCAK256 DUP8 DUP10 SWAP2 JUMPDEST DUP4 DUP4 LT PUSH2 0x1450 JUMPI POP POP POP DUP2 ADD DUP2 PUSH32 0x1BB65D0CFDDE7C6F874E0104F34B04ECC8D308044367CB6ABAEE56ABB9D45A71 PUSH2 0x13C3 JUMP JUMPDEST DUP1 SLOAD DUP6 DUP5 ADD MSTORE SWAP2 DUP7 ADD SWAP2 DUP10 SWAP2 ADD PUSH2 0x141D JUMP JUMPDEST AND DUP6 MSTORE POP POP DUP1 ISZERO ISZERO MUL DUP3 ADD SWAP1 POP DUP2 PUSH32 0x1BB65D0CFDDE7C6F874E0104F34B04ECC8D308044367CB6ABAEE56ABB9D45A71 PUSH2 0x13C3 JUMP JUMPDEST PUSH1 0x40 MLOAD PUSH3 0x461BCD PUSH1 0xE5 SHL DUP2 MSTORE PUSH1 0x4 DUP2 ADD DUP10 SWAP1 MSTORE PUSH1 0xF PUSH1 0x24 DUP3 ADD MSTORE PUSH15 0x1499585CDBDB881C995C5D5A5C9959 PUSH1 0x8A SHL PUSH1 0x44 DUP3 ADD MSTORE PUSH1 0x64 SWAP1 REVERT JUMPDEST PUSH1 0x40 MLOAD PUSH3 0x461BCD PUSH1 0xE5 SHL DUP2 MSTORE PUSH1 0x4 DUP2 ADD DUP10 SWAP1 MSTORE PUSH1 0xE PUSH1 0x24 DUP3 ADD MSTORE PUSH14 0x125B9D985B1A5908185B5BDD5B9D PUSH1 0x92 SHL PUSH1 0x44 DUP3 ADD MSTORE PUSH1 0x64 SWAP1 REVERT JUMPDEST POP DUP2 DUP4 AND DUP8 GT ISZERO PUSH2 0x1319 JUMP JUMPDEST PUSH1 0x40 MLOAD PUSH3 0x461BCD PUSH1 0xE5 SHL DUP2 MSTORE PUSH1 0x4 DUP2 ADD DUP8 SWAP1 MSTORE PUSH1 0xF PUSH1 0x24 DUP3 ADD MSTORE PUSH15 0x105B1C9958591E481C995D1A5C9959 PUSH1 0x8A SHL PUSH1 0x44 DUP3 ADD MSTORE PUSH1 0x64 SWAP1 REVERT JUMPDEST POP CALLVALUE PUSH2 0x1DF JUMPI DUP1 PUSH1 0x3 NOT CALLDATASIZE ADD SLT PUSH2 0x1DF JUMPI PUSH1 0x20 PUSH1 0xFF PUSH1 0x6 SLOAD PUSH1 0xA0 SHR AND PUSH1 0x40 MLOAD SWAP1 ISZERO ISZERO DUP2 MSTORE RETURN JUMPDEST POP CALLVALUE PUSH2 0x1DF JUMPI PUSH2 0xC75 PUSH2 0x157E CALLDATASIZE PUSH2 0x1BB8 JUMP JUMPDEST SWAP1 PUSH1 0x40 MLOAD SWAP3 PUSH2 0x158C DUP5 PUSH2 0x1AF1 JUMP JUMPDEST DUP6 DUP5 MSTORE PUSH2 0xC6F DUP4 DUP4 DUP4 PUSH2 0x1C2A JUMP JUMPDEST POP CALLVALUE PUSH2 0x1DF JUMPI DUP1 PUSH1 0x3 NOT CALLDATASIZE ADD SLT PUSH2 0x1DF JUMPI PUSH2 0x15B3 PUSH2 0x1BFE JUMP JUMPDEST PUSH1 0x6 SLOAD PUSH1 0xFF DUP2 PUSH1 0xA0 SHR AND ISZERO PUSH2 0x15FB JUMPI PUSH1 0xFF PUSH1 0xA0 SHL NOT AND PUSH1 0x6 SSTORE PUSH1 0x40 MLOAD CALLER DUP2 MSTORE PUSH32 0x5DB9EE0A495BF2E6FF9C91A7834C1BA4FDD244A5E8AA4E537BD38AEAE4B073AA SWAP1 PUSH1 0x20 SWAP1 LOG1 DUP1 RETURN JUMPDEST PUSH1 0x40 MLOAD PUSH4 0x8DFC202B PUSH1 0xE0 SHL DUP2 MSTORE PUSH1 0x4 SWAP1 REVERT JUMPDEST POP CALLVALUE PUSH2 0x1DF JUMPI DUP1 PUSH1 0x3 NOT CALLDATASIZE ADD SLT PUSH2 0x1DF JUMPI PUSH1 0x9 SLOAD PUSH1 0x40 MLOAD PUSH1 0x1 PUSH1 0x1 PUSH1 0xA0 SHL SUB SWAP1 SWAP2 AND DUP2 MSTORE PUSH1 0x20 SWAP1 RETURN JUMPDEST POP CALLVALUE PUSH2 0x1DF JUMPI PUSH2 0xC75 PUSH2 0x1648 CALLDATASIZE PUSH2 0x1BB8 JUMP JUMPDEST SWAP2 PUSH2 0x1C2A JUMP JUMPDEST POP CALLVALUE PUSH2 0x1DF JUMPI PUSH1 0x20 CALLDATASIZE PUSH1 0x3 NOT ADD SLT PUSH2 0x1DF JUMPI PUSH1 0x4 CALLDATALOAD SWAP1 PUSH1 0x1 PUSH1 0x1 PUSH1 0x40 SHL SUB DUP3 GT PUSH2 0x1DF JUMPI PUSH1 0x20 PUSH2 0x1698 DUP2 PUSH2 0x1685 CALLDATASIZE PUSH1 0x4 DUP8 ADD PUSH2 0x1B9A JUMP JUMPDEST DUP2 PUSH1 0x40 MLOAD SWAP4 DUP3 DUP6 DUP1 SWAP5 MLOAD SWAP4 DUP5 SWAP3 ADD PUSH2 0x1A15 JUMP JUMPDEST DUP2 ADD PUSH1 0xB DUP2 MSTORE SUB ADD SWAP1 KECCAK256 SLOAD PUSH1 0x40 MLOAD SWAP1 DUP2 MSTORE RETURN JUMPDEST POP CALLVALUE PUSH2 0x1DF JUMPI PUSH1 0x20 SWAP1 DUP2 PUSH1 0x3 NOT CALLDATASIZE ADD SLT PUSH2 0x1DF JUMPI PUSH1 0x4 CALLDATALOAD DUP2 MSTORE PUSH1 0xA DUP3 MSTORE PUSH1 0x40 DUP2 KECCAK256 SWAP1 PUSH1 0x40 MLOAD SWAP2 DUP2 DUP5 DUP5 DUP4 SLOAD SWAP3 PUSH2 0x16E0 DUP5 PUSH2 0x1AA4 JUMP JUMPDEST DUP1 DUP4 MSTORE PUSH1 0x1 SWAP5 DUP1 DUP7 AND SWAP1 DUP2 ISZERO PUSH2 0x17C6 JUMPI POP PUSH1 0x1 EQ PUSH2 0x178A JUMPI JUMPDEST POP PUSH2 0x1706 SWAP3 POP SUB DUP6 PUSH2 0x1B27 JUMP JUMPDEST DUP2 ADD SLOAD PUSH1 0x2 PUSH1 0xFF DUP3 PUSH1 0x10 SHR AND SWAP3 ADD SLOAD SWAP2 PUSH2 0x172B PUSH1 0x40 MLOAD SWAP6 PUSH1 0xE0 DUP8 MSTORE PUSH1 0xE0 DUP8 ADD SWAP1 PUSH2 0x1A38 JUMP JUMPDEST SWAP4 PUSH2 0xFFFF DUP4 AND DUP8 DUP8 ADD MSTORE PUSH1 0x3 DUP3 LT ISZERO PUSH2 0x1776 JUMPI POP DUP2 DUP6 SWAP7 PUSH1 0x1 PUSH1 0x1 PUSH1 0x40 SHL SUB SWAP3 PUSH1 0x40 DUP9 ADD MSTORE PUSH1 0xFF DUP3 PUSH1 0x18 SHR AND ISZERO ISZERO PUSH1 0x60 DUP9 ADD MSTORE SHR AND PUSH1 0x80 DUP6 ADD MSTORE PUSH1 0x60 SHR PUSH1 0xA0 DUP5 ADD MSTORE PUSH1 0xC0 DUP4 ADD MSTORE SUB SWAP1 RETURN JUMPDEST PUSH4 0x4E487B71 PUSH1 0xE0 SHL DUP2 MSTORE PUSH1 0x21 PUSH1 0x4 MSTORE PUSH1 0x24 SWAP1 REVERT JUMPDEST DUP6 DUP8 MSTORE DUP4 DUP8 KECCAK256 DUP8 SWAP3 POP DUP6 SWAP1 JUMPDEST DUP3 DUP5 LT PUSH2 0x17AF JUMPI POP POP POP SWAP2 PUSH2 0x1706 SWAP3 DUP3 ADD ADD DUP8 SWAP3 PUSH2 0x16F9 JUMP JUMPDEST DUP1 SLOAD DUP11 DUP6 ADD DUP8 ADD MSTORE DUP10 SWAP5 POP SWAP3 DUP6 ADD SWAP3 DUP7 SWAP2 ADD PUSH2 0x1796 JUMP JUMPDEST PUSH1 0xFF NOT AND DUP5 DUP7 ADD MSTORE POP DUP9 SWAP4 SWAP1 ISZERO ISZERO PUSH1 0x5 SHL DUP4 ADD ADD SWAP1 POP PUSH2 0x1706 PUSH2 0x16F9 JUMP JUMPDEST POP CALLVALUE PUSH2 0x1DF JUMPI PUSH1 0x40 CALLDATASIZE PUSH1 0x3 NOT ADD SLT PUSH2 0x1DF JUMPI PUSH2 0x17FE PUSH2 0x1A5D JUMP JUMPDEST PUSH1 0x24 CALLDATALOAD PUSH2 0x180A DUP2 PUSH2 0x1E92 JUMP JUMPDEST CALLER ISZERO ISZERO DUP1 PUSH2 0x18B4 JUMPI JUMPDEST DUP1 PUSH2 0x1889 JUMPI JUMPDEST PUSH2 0x1871 JUMPI PUSH1 0x1 PUSH1 0x1 PUSH1 0xA0 SHL SUB SWAP3 DUP4 AND SWAP3 DUP3 SWAP2 DUP5 SWAP2 AND PUSH32 0x8C5BE1E5EBEC7D5BD14F71427D1E84F3DD0314C0F7B2291E5B200AC8C7C3B925 DUP7 DUP1 LOG4 DUP3 MSTORE PUSH1 0x4 PUSH1 0x20 MSTORE PUSH1 0x40 DUP3 KECCAK256 DUP1 SLOAD PUSH1 0x1 PUSH1 0x1 PUSH1 0xA0 SHL SUB NOT AND SWAP1 SWAP2 OR SWAP1 SSTORE DUP1 RETURN JUMPDEST PUSH1 0x40 MLOAD PUSH4 0xA9FBF51F PUSH1 0xE0 SHL DUP2 MSTORE CALLER PUSH1 0x4 DUP3 ADD MSTORE PUSH1 0x24 SWAP1 REVERT JUMPDEST POP PUSH1 0x1 PUSH1 0x1 PUSH1 0xA0 SHL SUB DUP2 AND DUP5 MSTORE PUSH1 0x5 PUSH1 0x20 SWAP1 DUP2 MSTORE PUSH1 0x40 DUP1 DUP7 KECCAK256 CALLER DUP8 MSTORE SWAP1 SWAP2 MSTORE DUP5 KECCAK256 SLOAD PUSH1 0xFF AND ISZERO PUSH2 0x1819 JUMP JUMPDEST POP PUSH1 0x1 PUSH1 0x1 PUSH1 0xA0 SHL SUB DUP2 AND CALLER EQ ISZERO PUSH2 0x1813 JUMP JUMPDEST POP CALLVALUE PUSH2 0x1DF JUMPI PUSH1 0x20 CALLDATASIZE PUSH1 0x3 NOT ADD SLT PUSH2 0x1DF JUMPI PUSH1 0x20 SWAP1 PUSH1 0x4 CALLDATALOAD PUSH2 0x18E8 DUP2 PUSH2 0x1E92 JUMP JUMPDEST POP DUP2 MSTORE PUSH1 0x4 DUP3 MSTORE PUSH1 0x40 PUSH1 0x1 DUP1 PUSH1 0xA0 SHL SUB SWAP2 KECCAK256 SLOAD AND PUSH1 0x40 MLOAD SWAP1 DUP2 MSTORE RETURN JUMPDEST POP CALLVALUE PUSH2 0x1DF JUMPI DUP1 PUSH1 0x3 NOT CALLDATASIZE ADD SLT PUSH2 0x1DF JUMPI PUSH1 0x40 MLOAD SWAP1 DUP1 DUP1 SLOAD PUSH2 0x1925 DUP2 PUSH2 0x1AA4 JUMP JUMPDEST DUP1 DUP6 MSTORE SWAP2 PUSH1 0x1 SWAP2 DUP1 DUP4 AND SWAP1 DUP2 ISZERO PUSH2 0xFC9 JUMPI POP PUSH1 0x1 EQ PUSH2 0x194E JUMPI PUSH2 0x50C DUP6 PUSH2 0xF5B DUP2 DUP8 SUB DUP3 PUSH2 0x1B27 JUMP JUMPDEST DUP1 DUP1 SWAP5 POP MSTORE PUSH32 0x290DECD9548B62A8D60345A988386FC84BA6BC95484008F6362F93160EF3E563 JUMPDEST DUP3 DUP5 LT PUSH2 0x1990 JUMPI POP POP POP DUP2 ADD PUSH1 0x20 ADD PUSH2 0xF5B DUP3 PUSH2 0x50C PUSH2 0xF4B JUMP JUMPDEST DUP1 SLOAD PUSH1 0x20 DUP6 DUP8 ADD DUP2 ADD SWAP2 SWAP1 SWAP2 MSTORE SWAP1 SWAP4 ADD SWAP3 DUP2 ADD PUSH2 0x1975 JUMP JUMPDEST SWAP1 POP CALLVALUE PUSH2 0x544 JUMPI PUSH1 0x20 CALLDATASIZE PUSH1 0x3 NOT ADD SLT PUSH2 0x544 JUMPI PUSH1 0x4 CALLDATALOAD PUSH4 0xFFFFFFFF PUSH1 0xE0 SHL DUP2 AND DUP1 SWAP2 SUB PUSH2 0x8DC JUMPI PUSH1 0x20 SWAP3 POP PUSH4 0x80AC58CD PUSH1 0xE0 SHL DUP2 EQ SWAP1 DUP2 ISZERO PUSH2 0x1A04 JUMPI JUMPDEST DUP2 ISZERO PUSH2 0x19F3 JUMPI JUMPDEST POP ISZERO ISZERO DUP2 MSTORE RETURN JUMPDEST PUSH4 0x1FFC9A7 PUSH1 0xE0 SHL EQ SWAP1 POP CODESIZE PUSH2 0x19EC JUMP JUMPDEST PUSH4 0x5B5E139F PUSH1 0xE0 SHL DUP2 EQ SWAP2 POP PUSH2 0x19E5 JUMP JUMPDEST PUSH1 0x0 JUMPDEST DUP4 DUP2 LT PUSH2 0x1A28 JUMPI POP POP PUSH1 0x0 SWAP2 ADD MSTORE JUMP JUMPDEST DUP2 DUP2 ADD MLOAD DUP4 DUP3 ADD MSTORE PUSH1 0x20 ADD PUSH2 0x1A18 JUMP JUMPDEST SWAP1 PUSH1 0x20 SWAP2 PUSH2 0x1A51 DUP2 MLOAD DUP1 SWAP3 DUP2 DUP6 MSTORE DUP6 DUP1 DUP7 ADD SWAP2 ADD PUSH2 0x1A15 JUMP JUMPDEST PUSH1 0x1F ADD PUSH1 0x1F NOT AND ADD ADD SWAP1 JUMP JUMPDEST PUSH1 0x4 CALLDATALOAD SWAP1 PUSH1 0x1 PUSH1 0x1 PUSH1 0xA0 SHL SUB DUP3 AND DUP3 SUB PUSH2 0x1A73 JUMPI JUMP JUMPDEST PUSH1 0x0 DUP1 REVERT JUMPDEST PUSH1 0x24 CALLDATALOAD SWAP1 PUSH1 0x1 PUSH1 0x1 PUSH1 0xA0 SHL SUB DUP3 AND DUP3 SUB PUSH2 0x1A73 JUMPI JUMP JUMPDEST PUSH1 0x44 CALLDATALOAD SWAP1 PUSH1 0x1 PUSH1 0x1 PUSH1 0xA0 SHL SUB DUP3 AND DUP3 SUB PUSH2 0x1A73 JUMPI JUMP JUMPDEST SWAP1 PUSH1 0x1 DUP3 DUP2 SHR SWAP3 AND DUP1 ISZERO PUSH2 0x1AD4 JUMPI JUMPDEST PUSH1 0x20 DUP4 LT EQ PUSH2 0x1ABE JUMPI JUMP JUMPDEST PUSH4 0x4E487B71 PUSH1 0xE0 SHL PUSH1 0x0 MSTORE PUSH1 0x22 PUSH1 0x4 MSTORE PUSH1 0x24 PUSH1 0x0 REVERT JUMPDEST SWAP2 PUSH1 0x7F AND SWAP2 PUSH2 0x1AB3 JUMP JUMPDEST PUSH1 0x1 PUSH1 0x1 PUSH1 0x40 SHL SUB DUP2 GT PUSH2 0xB4F JUMPI PUSH1 0x40 MSTORE JUMP JUMPDEST PUSH1 0x20 DUP2 ADD SWAP1 DUP2 LT PUSH1 0x1 PUSH1 0x1 PUSH1 0x40 SHL SUB DUP3 GT OR PUSH2 0xB4F JUMPI PUSH1 0x40 MSTORE JUMP JUMPDEST PUSH1 0x40 DUP2 ADD SWAP1 DUP2 LT PUSH1 0x1 PUSH1 0x1 PUSH1 0x40 SHL SUB DUP3 GT OR PUSH2 0xB4F JUMPI PUSH1 0x40 MSTORE JUMP JUMPDEST SWAP1 PUSH1 0x1F DUP1 NOT SWAP2 ADD AND DUP2 ADD SWAP1 DUP2 LT PUSH1 0x1 PUSH1 0x1 PUSH1 0x40 SHL SUB DUP3 GT OR PUSH2 0xB4F JUMPI PUSH1 0x40 MSTORE JUMP JUMPDEST PUSH1 0x1 PUSH1 0x1 PUSH1 0x40 SHL SUB DUP2 GT PUSH2 0xB4F JUMPI PUSH1 0x1F ADD PUSH1 0x1F NOT AND PUSH1 0x20 ADD SWAP1 JUMP JUMPDEST SWAP3 SWAP2 SWAP3 PUSH2 0x1B6F DUP3 PUSH2 0x1B48 JUMP JUMPDEST SWAP2 PUSH2 0x1B7D PUSH1 0x40 MLOAD SWAP4 DUP5 PUSH2 0x1B27 JUMP JUMPDEST DUP3 SWAP5 DUP2 DUP5 MSTORE DUP2 DUP4 ADD GT PUSH2 0x1A73 JUMPI DUP3 DUP2 PUSH1 0x20 SWAP4 DUP5 PUSH1 0x0 SWAP7 ADD CALLDATACOPY ADD ADD MSTORE JUMP JUMPDEST SWAP1 DUP1 PUSH1 0x1F DUP4 ADD SLT ISZERO PUSH2 0x1A73 JUMPI DUP2 PUSH1 0x20 PUSH2 0x1BB5 SWAP4 CALLDATALOAD SWAP2 ADD PUSH2 0x1B63 JUMP JUMPDEST SWAP1 JUMP JUMPDEST PUSH1 0x60 SWAP1 PUSH1 0x3 NOT ADD SLT PUSH2 0x1A73 JUMPI PUSH1 0x1 PUSH1 0x1 PUSH1 0xA0 SHL SUB SWAP1 PUSH1 0x4 CALLDATALOAD DUP3 DUP2 AND DUP2 SUB PUSH2 0x1A73 JUMPI SWAP2 PUSH1 0x24 CALLDATALOAD SWAP1 DUP2 AND DUP2 SUB PUSH2 0x1A73 JUMPI SWAP1 PUSH1 0x44 CALLDATALOAD SWAP1 JUMP JUMPDEST PUSH1 0x24 CALLDATALOAD SWAP1 PUSH2 0xFFFF DUP3 AND DUP3 SUB PUSH2 0x1A73 JUMPI JUMP JUMPDEST PUSH1 0x6 SLOAD PUSH1 0x1 PUSH1 0x1 PUSH1 0xA0 SHL SUB AND CALLER SUB PUSH2 0x1C12 JUMPI JUMP JUMPDEST PUSH1 0x40 MLOAD PUSH4 0x118CDAA7 PUSH1 0xE0 SHL DUP2 MSTORE CALLER PUSH1 0x4 DUP3 ADD MSTORE PUSH1 0x24 SWAP1 REVERT JUMPDEST SWAP1 PUSH1 0x1 PUSH1 0x1 PUSH1 0xA0 SHL SUB SWAP1 DUP2 AND DUP1 ISZERO PUSH2 0x1DBD JUMPI PUSH1 0x0 SWAP2 DUP5 DUP4 MSTORE DUP5 PUSH1 0x20 SWAP3 PUSH1 0x2 DUP5 MSTORE PUSH1 0x40 SWAP4 DUP4 DUP6 DUP8 KECCAK256 SLOAD AND SWAP6 DUP7 SWAP2 CALLER ISZERO ISZERO DUP1 PUSH2 0x1D24 JUMPI JUMPDEST POP SWAP1 PUSH1 0x2 PUSH32 0xDDF252AD1BE2C89B69C2B068FC378DAA952BA7F163C4A11628F55A4DF523B3EF SWAP3 DUP5 PUSH2 0x1CF1 JUMPI JUMPDEST DUP6 DUP4 MSTORE PUSH1 0x3 DUP2 MSTORE DUP9 DUP4 KECCAK256 DUP1 SLOAD PUSH1 0x1 ADD SWAP1 SSTORE DUP7 DUP4 MSTORE MSTORE DUP7 DUP2 KECCAK256 DUP1 SLOAD PUSH1 0x1 PUSH1 0x1 PUSH1 0xA0 SHL SUB NOT AND DUP6 OR SWAP1 SSTORE DUP1 LOG4 DUP4 AND DUP3 SUB PUSH2 0x1CC3 JUMPI POP POP POP POP JUMP JUMPDEST MLOAD PUSH4 0x64283D7B PUSH1 0xE0 SHL DUP2 MSTORE PUSH1 0x1 PUSH1 0x1 PUSH1 0xA0 SHL SUB SWAP3 DUP4 AND PUSH1 0x4 DUP3 ADD MSTORE PUSH1 0x24 DUP2 ADD SWAP4 SWAP1 SWAP4 MSTORE AND PUSH1 0x44 DUP3 ADD MSTORE PUSH1 0x64 SWAP1 REVERT JUMPDEST PUSH1 0x0 DUP8 DUP2 MSTORE PUSH1 0x4 PUSH1 0x20 MSTORE PUSH1 0x40 SWAP1 KECCAK256 DUP1 SLOAD PUSH1 0x1 PUSH1 0x1 PUSH1 0xA0 SHL SUB NOT AND SWAP1 SSTORE DUP5 DUP4 MSTORE PUSH1 0x3 DUP2 MSTORE DUP9 DUP4 KECCAK256 DUP1 SLOAD PUSH1 0x0 NOT ADD SWAP1 SSTORE PUSH2 0x1C8B JUMP JUMPDEST SWAP2 SWAP4 SWAP5 POP SWAP2 POP DUP1 PUSH2 0x1D7C JUMPI JUMPDEST ISZERO PUSH2 0x1D40 JUMPI DUP8 SWAP3 SWAP2 DUP7 SWAP2 CODESIZE PUSH2 0x1C5F JUMP JUMPDEST DUP5 DUP9 DUP8 PUSH2 0x1D5D JUMPI PUSH1 0x24 SWAP2 MLOAD SWAP1 PUSH4 0x7E273289 PUSH1 0xE0 SHL DUP3 MSTORE PUSH1 0x4 DUP3 ADD MSTORE REVERT JUMPDEST SWAP1 MLOAD PUSH4 0x177E802F PUSH1 0xE0 SHL DUP2 MSTORE CALLER PUSH1 0x4 DUP3 ADD MSTORE PUSH1 0x24 DUP2 ADD SWAP2 SWAP1 SWAP2 MSTORE PUSH1 0x44 SWAP1 REVERT JUMPDEST POP CALLER DUP7 EQ DUP1 ISZERO PUSH2 0x1DA1 JUMPI JUMPDEST DUP1 PUSH2 0x1D30 JUMPI POP DUP8 DUP3 MSTORE PUSH1 0x4 DUP2 MSTORE CALLER DUP5 DUP7 DUP5 KECCAK256 SLOAD AND EQ PUSH2 0x1D30 JUMP JUMPDEST POP DUP6 DUP3 MSTORE PUSH1 0x5 DUP2 MSTORE DUP5 DUP3 KECCAK256 CALLER DUP4 MSTORE DUP2 MSTORE PUSH1 0xFF DUP6 DUP4 KECCAK256 SLOAD AND PUSH2 0x1D87 JUMP JUMPDEST PUSH1 0x40 MLOAD PUSH4 0x32505749 PUSH1 0xE1 SHL DUP2 MSTORE PUSH1 0x0 PUSH1 0x4 DUP3 ADD MSTORE PUSH1 0x24 SWAP1 REVERT JUMPDEST PUSH1 0x0 DUP3 DUP2 MSTORE PUSH1 0x2 PUSH1 0x20 MSTORE PUSH1 0x40 DUP2 KECCAK256 SLOAD PUSH1 0x1 PUSH1 0x1 PUSH1 0xA0 SHL SUB SWAP1 DUP2 AND SWAP4 SWAP3 DUP5 SWAP2 PUSH32 0xDDF252AD1BE2C89B69C2B068FC378DAA952BA7F163C4A11628F55A4DF523B3EF SWAP2 DUP4 PUSH2 0x1E5D JUMPI JUMPDEST AND SWAP3 DUP4 PUSH2 0x1E45 JUMPI JUMPDEST DUP5 DUP2 MSTORE PUSH1 0x2 PUSH1 0x20 MSTORE PUSH1 0x40 DUP2 KECCAK256 DUP1 SLOAD PUSH1 0x1 PUSH1 0x1 PUSH1 0xA0 SHL SUB NOT AND DUP6 OR SWAP1 SSTORE DUP1 LOG4 SWAP1 JUMP JUMPDEST DUP4 DUP2 MSTORE PUSH1 0x3 PUSH1 0x20 MSTORE PUSH1 0x40 DUP2 KECCAK256 PUSH1 0x1 DUP2 SLOAD ADD SWAP1 SSTORE PUSH2 0x1E24 JUMP JUMPDEST PUSH1 0x0 DUP7 DUP2 MSTORE PUSH1 0x4 PUSH1 0x20 MSTORE PUSH1 0x40 SWAP1 KECCAK256 DUP1 SLOAD PUSH1 0x1 PUSH1 0x1 PUSH1 0xA0 SHL SUB NOT AND SWAP1 SSTORE DUP4 DUP6 MSTORE PUSH1 0x3 PUSH1 0x20 MSTORE PUSH1 0x40 DUP6 KECCAK256 DUP1 SLOAD PUSH1 0x0 NOT ADD SWAP1 SSTORE PUSH2 0x1E1C JUMP JUMPDEST PUSH1 0x0 DUP2 DUP2 MSTORE PUSH1 0x2 PUSH1 0x20 MSTORE PUSH1 0x40 SWAP1 KECCAK256 SLOAD PUSH1 0x1 PUSH1 0x1 PUSH1 0xA0 SHL SUB AND SWAP1 DUP2 ISZERO PUSH2 0x1EB5 JUMPI POP SWAP1 JUMP JUMPDEST PUSH1 0x24 SWAP1 PUSH1 0x40 MLOAD SWAP1 PUSH4 0x7E273289 PUSH1 0xE0 SHL DUP3 MSTORE PUSH1 0x4 DUP3 ADD MSTORE REVERT JUMPDEST SWAP1 SWAP4 SWAP2 SWAP3 DUP4 EXTCODESIZE PUSH2 0x1EDF JUMPI JUMPDEST POP POP POP POP POP JUMP JUMPDEST PUSH1 0x40 MLOAD PUSH4 0xA85BD01 PUSH1 0xE1 SHL DUP1 DUP3 MSTORE PUSH1 0x1 PUSH1 0x1 PUSH1 0xA0 SHL SUB SWAP4 DUP5 AND PUSH1 0x4 DUP4 ADD MSTORE SWAP6 DUP4 AND PUSH1 0x24 DUP3 ADD MSTORE PUSH1 0x44 DUP2 ADD SWAP2 SWAP1 SWAP2 MSTORE PUSH1 0x80 PUSH1 0x64 DUP3 ADD MSTORE SWAP5 SWAP3 AND SWAP3 PUSH1 0x20 SWAP3 SWAP2 DUP6 SWAP1 PUSH2 0x1F2C SWAP1 PUSH1 0x84 DUP4 ADD SWAP1 PUSH2 0x1A38 JUMP JUMPDEST SUB SWAP5 DUP4 DUP2 PUSH1 0x0 SWAP8 DUP2 DUP10 DUP10 GAS CALL DUP7 SWAP2 DUP2 PUSH2 0x1FD7 JUMPI JUMPDEST POP PUSH2 0x1FA1 JUMPI POP POP POP RETURNDATASIZE PUSH1 0x0 EQ PUSH2 0x1F98 JUMPI RETURNDATASIZE PUSH2 0x1F5A DUP2 PUSH2 0x1B48 JUMP JUMPDEST SWAP1 PUSH2 0x1F68 PUSH1 0x40 MLOAD SWAP3 DUP4 PUSH2 0x1B27 JUMP JUMPDEST DUP2 MSTORE DUP1 SWAP4 DUP3 RETURNDATASIZE SWAP3 ADD RETURNDATACOPY JUMPDEST DUP3 MLOAD SWAP3 DUP4 PUSH2 0x1F93 JUMPI PUSH1 0x40 MLOAD PUSH4 0x32505749 PUSH1 0xE1 SHL DUP2 MSTORE PUSH1 0x4 DUP2 ADD DUP5 SWAP1 MSTORE PUSH1 0x24 SWAP1 REVERT JUMPDEST ADD SWAP1 POP REVERT JUMPDEST PUSH1 0x60 SWAP3 POP PUSH2 0x1F72 JUMP JUMPDEST SWAP2 SWAP5 POP SWAP2 POP PUSH4 0xFFFFFFFF PUSH1 0xE0 SHL AND SUB PUSH2 0x1FBF JUMPI POP CODESIZE DUP1 DUP1 DUP1 DUP1 PUSH2 0x1ED8 JUMP JUMPDEST PUSH1 0x24 SWAP1 PUSH1 0x40 MLOAD SWAP1 PUSH4 0x32505749 PUSH1 0xE1 SHL DUP3 MSTORE PUSH1 0x4 DUP3 ADD MSTORE REVERT JUMPDEST SWAP1 SWAP2 POP DUP5 DUP2 DUP2 RETURNDATASIZE DUP4 GT PUSH2 0x2014 JUMPI JUMPDEST PUSH2 0x1FEF DUP2 DUP4 PUSH2 0x1B27 JUMP JUMPDEST DUP2 ADD SUB SLT PUSH2 0x2010 JUMPI MLOAD PUSH1 0x1 PUSH1 0x1 PUSH1 0xE0 SHL SUB NOT DUP2 AND DUP2 SUB PUSH2 0x2010 JUMPI SWAP1 CODESIZE PUSH2 0x1F40 JUMP JUMPDEST DUP7 DUP1 REVERT JUMPDEST POP RETURNDATASIZE PUSH2 0x1FE5 JUMP JUMPDEST ISZERO PUSH2 0x2022 JUMPI JUMP JUMPDEST PUSH1 0x40 MLOAD PUSH3 0x461BCD PUSH1 0xE5 SHL DUP2 MSTORE PUSH1 0x20 PUSH1 0x4 DUP3 ADD MSTORE PUSH1 0xD PUSH1 0x24 DUP3 ADD MSTORE PUSH13 0x24B73B30B634B21037BBB732B9 PUSH1 0x99 SHL PUSH1 0x44 DUP3 ADD MSTORE PUSH1 0x64 SWAP1 REVERT JUMPDEST PUSH1 0x0 NOT DUP2 EQ PUSH2 0x2066 JUMPI PUSH1 0x1 ADD SWAP1 JUMP JUMPDEST PUSH4 0x4E487B71 PUSH1 0xE0 SHL PUSH1 0x0 MSTORE PUSH1 0x11 PUSH1 0x4 MSTORE PUSH1 0x24 PUSH1 0x0 REVERT JUMPDEST PUSH1 0xFF PUSH1 0x6 SLOAD PUSH1 0xA0 SHR AND PUSH2 0x208B JUMPI JUMP JUMPDEST PUSH1 0x40 MLOAD PUSH4 0xD93C0665 PUSH1 0xE0 SHL DUP2 MSTORE PUSH1 0x4 SWAP1 REVERT JUMPDEST PUSH1 0x2 PUSH1 0x7 SLOAD EQ PUSH2 0x20AE JUMPI PUSH1 0x2 PUSH1 0x7 SSTORE JUMP JUMPDEST PUSH1 0x40 MLOAD PUSH4 0x3EE5AEB5 PUSH1 0xE0 SHL DUP2 MSTORE PUSH1 0x4 SWAP1 REVERT JUMPDEST ISZERO PUSH2 0x20C7 JUMPI JUMP JUMPDEST PUSH1 0x40 MLOAD PUSH3 0x461BCD PUSH1 0xE5 SHL DUP2 MSTORE PUSH1 0x20 PUSH1 0x4 DUP3 ADD MSTORE PUSH1 0x15 PUSH1 0x24 DUP3 ADD MSTORE PUSH21 0x2737BA103A343290383937B532B1BA1037BBB732B9 PUSH1 0x59 SHL PUSH1 0x44 DUP3 ADD MSTORE PUSH1 0x64 SWAP1 REVERT JUMPDEST ISZERO PUSH2 0x210B JUMPI JUMP JUMPDEST PUSH1 0x40 MLOAD PUSH3 0x461BCD PUSH1 0xE5 SHL DUP2 MSTORE PUSH1 0x20 PUSH1 0x4 DUP3 ADD MSTORE PUSH1 0x16 PUSH1 0x24 DUP3 ADD MSTORE PUSH22 0x141C9BDA9958DD08191BD95CC81B9BDD08195E1A5CDD PUSH1 0x52 SHL PUSH1 0x44 DUP3 ADD MSTORE PUSH1 0x64 SWAP1 REVERT JUMPDEST ISZERO PUSH2 0x2150 JUMPI JUMP JUMPDEST PUSH1 0x40 MLOAD PUSH3 0x461BCD PUSH1 0xE5 SHL DUP2 MSTORE PUSH1 0x20 PUSH1 0x4 DUP3 ADD MSTORE PUSH1 0xF PUSH1 0x24 DUP3 ADD MSTORE PUSH15 0x141C9BDA9958DD081C995D1A5C9959 PUSH1 0x8A SHL PUSH1 0x44 DUP3 ADD MSTORE PUSH1 0x64 SWAP1 REVERT JUMPDEST PUSH2 0xFFFF SWAP2 DUP3 AND SWAP1 DUP3 AND SUB SWAP2 SWAP1 DUP3 GT PUSH2 0x2066 JUMPI JUMP INVALID 0xA7 0xD2 PUSH23 0x50E67FA799C589347F42F480CF31E55F455FE7FB068502 0xAF PUSH30 0x3A29573BA2646970667358221220DE9B76EB0D3D5B28B9A59887B813A340 0xE6 BALANCE 0xD7 0xFC DUP4 SWAP1 0xD3 PUSH21 0x92D8EB18C981C5CD64736F6C634300081400330000 "},"methodIdentifiers":{"approve(address,uint256)":"095ea7b3","balanceOf(address)":"70a08231","blueCarbon()":"2a4c3495","emergencyTransferProject(uint256,address)":"92598a31","getApproved(uint256)":"081812fc","isApprovedForAll(address,address)":"e985e9c5","mintERC20Credits(uint256,uint256,address)":"ae345acd","name()":"06fdde03","owner()":"8da5cb5b","ownerOf(uint256)":"6352211e","pause()":"8456cb59","paused()":"5c975abb","projectToToken(string)":"1d8a7f93","projects(uint256)":"107046bd","registerProject(string,uint16,address,bytes32)":"c359ffe6","renounceOwnership()":"715018a6","retireCredits(uint256,uint16,string)":"606e675e","retiredCredits(uint256)":"ef205c1a","safeTransferFrom(address,address,uint256)":"42842e0e","safeTransferFrom(address,address,uint256,bytes)":"b88d4fde","setApprovalForAll(address,bool)":"a22cb465","supportsInterface(bytes4)":"01ffc9a7","symbol()":"95d89b41","tokenURI(uint256)":"c87b56dd","transferFrom(address,address,uint256)":"23b872dd","transferOwnership(address)":"f2fde38b","unpause()":"3f4ba83a","verifyAndMint(uint256)":"f2bee641"}}}}}